:020000040800F2
:1000000000280020850300082503000831030008AC
:10001000370300083D030008430300080000000008
:10002000000000000000000000000000490300087C
:100030005503000800000000610300086D0300087C
:10004000CD030008CD030008CD030008CD03000850
:10005000CD030008CD030008CD030008CD03000840
:10006000CD030008CD030008CD030008CD03000830
:10007000CD030008CD030008CD030008CD03000820
:10008000CD030008CD030008CD030008CD03000810
:10009000CD030008CD030008CD030008CD03000800
:1000A000CD030008CD030008CD030008CD030008F0
:1000B000CD030008CD03000800000000CD030008B8
:1000C000CD0300080000000000000000CD03000880
:1000D00000000000CD030008CD0300080000000070
:1000E000CD030008CD030008CD0300080000000088
:1000F0000000000000000000000000000000000000
:0C01000000000000000000005FF808F1A3
:10010C0010B5054C237833B9044B13B10448AFF345
:10011C0000800123237010BD0C00002000000000A3
:10012C00D011000808B5034B1BB103490348AFF3CA
:10013C00008008BD0000000010000020D011000855
:10014C0080B582B000AF00F03DF900F025F800F06A
:10015C005FF800237B6001210D4800F0EDFB0346A6
:10016C00012B10D17B6801337B607B68012B04D1A0
:10017C00084B6FF06D02DA6005E0064B6FF07F0202
:10018C00DA6000237B60962000F07EF9E3E700BF85
:10019C00000C01400008014080B590B000AF07F1A1
:1001AC00180328220021184601F004F83B1D0022F8
:1001BC001A605A609A60DA601A610223BB610123EB
:1001CC00BB621023FB6200237B6307F11803184604
:1001DC0000F0E2FB0346002B01D000F065F80F2382
:1001EC007B600023BB600023FB6000233B6100238A
:1001FC007B613B1D0021184600F04EFE0346002B90
:10020C0001D000F051F800BF4037BD4680BD000062
:10021C0080B586B000AF07F1080300221A605A605F
:10022C009A60DA601D4B9B691C4A43F0040393618E
:10023C001A4B9B6903F004037B607B68174B9B692B
:10024C00164A43F008039361144B9B6903F00803AF
:10025C003B603B6801227F21114800F084FB7F2327
:10026C00BB600123FB6000233B6102237B6107F130
:10027C00080319460A4800F00DFA0123BB6000235D
:10028C00FB6000233B6107F108031946054800F0A9
:10029C0001FA00BF1837BD4680BD00BF00100240F8
:1002AC0000080140000C014080B400AF00BFBD4607
:1002BC0080BC704780B485B000AF154B9B69144A65
:1002CC0043F001039361124B9B6903F00103BB6084
:1002DC00BB680F4BDB690E4A43F08053D3610C4B68
:1002EC00DB6903F080537B607B680A4B5B68FB60C7
:1002FC00FB6823F0E063FB60FB6843F08063FB600A
:10030C00044AFB68536000BF1437BD4680BC70477D
:10031C00001002400000014080B400AF00BFBD4699
:10032C0080BC704780B400AFFEE780B400AFFEE73E
:10033C0080B400AFFEE780B400AFFEE780B400AF3E
:10034C0000BFBD4680BC704780B400AF00BFBD4647
:10035C0080BC704780B400AF00BFBD4680BC704706
:10036C0080B500AF00F074F800BF80BD80B400AF62
:10037C0000BFBD4680BC70470C480D490D4A002398
:10038C0002E0D458C4500433C4188C42F9D30A4A3E
:10039C000A4C002301E013600432A242FBD3FFF7A6
:1003AC00E5FF00F0E3FEFFF7CBFE704700000020F6
:1003BC000C000020141200080C0000202C0000205F
:1003CC00FEE7000080B500AF084B1B68074A43F0FE
:1003DC0010031360032000F029F9002000F008F846
:1003EC00FFF768FF0023184680BD00BF00200240C5
:1003FC0080B582B000AF7860124B1A68124B1B7834
:10040C0019464FF47A73B3FBF1F3B2FBF3F31846CE
:10041C0000F033F90346002B01D001230EE07B687A
:10042C000F2B0AD8002279684FF0FF3000F009F941
:10043C00064A7B681360002300E001231846083746
:10044C00BD4680BD000000200800002004000020F4
:10045C0080B400AF054B1B781A46054B1B68134440
:10046C00034A136000BFBD4680BC704708000020E3
:10047C002800002080B400AF024B1B681846BD4614
:10048C0080BC70472800002080B584B000AF786035
:10049C00FFF7F0FFB8607B68FB60FB68B3F1FF3FD0
:1004AC0005D0094B1B781A46FB681344FB6000BF50
:1004BC00FFF7E0FF0246BB68D31AFA689A42F7D8F6
:1004CC0000BF1037BD4680BD0800002080B485B049
:1004DC0000AF78607B6803F00703FB600C4BDB68B4
:1004EC00BB60BA684FF6FF031340BB60FB681A028F
:1004FC00BB68134343F0BF6343F40033BB60044A4F
:10050C00BB68D36000BF1437BD4680BC704700BFCA
:10051C0000ED00E080B400AF044BDB681B0A03F075
:10052C0007031846BD4680BC704700BF00ED00E0D5
:10053C0080B483B000AF03463960FB7197F9073084
:10054C00002B0ADB3B68DAB20C4997F90730120131
:10055C00D2B20B4483F800230AE03B68DAB20849B4
:10056C00FB7903F00F03043B1201D2B20B441A7651
:10057C0000BF0C37BD4680BC704700BF00E100E0F7
:10058C0000ED00E080B489B000AFF860B9607A602B
:10059C00FB6803F00703FB61FB69C3F10703042B42
:1005AC0028BF0423BB61FB690433062B02D9FB690A
:1005BC00033B00E000237B614FF0FF32BB6902FA82
:1005CC0003F3DA43BB681A407B699A404FF0FF3162
:1005DC007B6901FA03F3D9437B680B40134318463C
:1005EC002437BD4680BC704780B582B000AF7860C0
:1005FC007B68013BB3F1807F01D301230FE00A4AF2
:10060C007B68013B53600F214FF0FF30FFF790FFE9
:10061C00054B00229A60044B07221A6000231846EF
:10062C000837BD4680BD00BF10E000E080B582B049
:10063C0000AF78607868FFF749FF00BF0837BD4608
:10064C0080BD80B586B000AF0346B9607A60FB739D
:10065C0000237B61FFF75EFF78617A68B96878697F
:10066C00FFF790FF024697F90F3011461846FFF737
:10067C005FFF00BF1837BD4680BD80B582B000AFAC
:10068C0078607868FFF7B0FF034618460837BD4618
:10069C0080BD000080B48BB000AF7860396000235F
:1006AC007B6200233B6221E101227B6A02FA03F3A5
:1006BC00FB613B681B68FA691340BB61BA69FB6953
:1006CC009A4240F010813B685B68122B34D0122B9D
:1006DC000DD8022B2BD0022B04D8002B31D0012BA0
:1006EC001CD048E0032B43D0112B1BD043E0864A8F
:1006FC00934226D0844A934206D8844A934220D00F
:10070C00834A93421DD036E0824A934219D0824AE2
:10071C00934216D0814A934213D02CE03B68DB689D
:10072C003B6228E03B68DB6804333B6223E03B68B8
:10073C00DB6808333B621EE03B68DB680C333B62D2
:10074C0019E03B689B68002B02D104233B6212E04A
:10075C003B689B68012B05D108233B627B68FA69D7
:10076C001A6108E008233B627B68FA695A6102E06F
:10077C0000233B6200BFBB69FF2B01D87B6801E003
:10078C007B6804337B61BB69FF2B02D87B6A9B00BF
:10079C0002E07B6A083B9B003B617B691A680F2176
:1007AC003B6901FA03F3DB431A40396A3B6901FAEE
:1007BC0003F31A437B691A603B685B6803F0805350
:1007CC00002B00F09080564B9B69554A43F0010377
:1007DC009361534B9B6903F00103BB60BB68514AA7
:1007EC007B6A9B08023352F82330FB607B6A03F070
:1007FC0003039B000F2202FA03F3DB43FA68134056
:10080C00FB607B68484A93420DD07B68474A934211
:10081C0007D07B68464A934201D1022304E00323AC
:10082C0002E0012300E000237A6A02F00302920046
:10083C009340FA681343FB603A497B6A9B08023386
:10084C00FA6841F823203B685B6803F48033002B83
:10085C0006D0384B1A683749BB6913430B6006E066
:10086C00344B1A68BB69DB43324913400B603B685D
:10087C005B6803F40033002B06D02E4B5A682D49CD
:10088C00BB6913434B6006E02A4B5A68BB69DB43D8
:10089C00284913404B603B685B6803F48013002BC2
:1008AC0006D0244B9A682349BB6913438B6006E03E
:1008BC00204B9A68BB69DB431E4913408B603B6835
:1008CC005B6803F40013002B06D01A4BDA68194945
:1008DC00BB691343CB6006E0164BDA68BB69DB439C
:1008EC0014491340CB607B6A01337B623B681A6806
:1008FC007B6A22FA03F3002B7FF4D6AE00BF2C37B1
:10090C00BD4680BC704700BF0000211000001110D4
:10091C0000001210000031100000321000002210F4
:10092C00001002400000014000080140000C014092
:10093C00001001400004014080B485B000AF786025
:10094C000B467B807B689A687B881340002B02D017
:10095C000123FB7301E00023FB73FB7B1846143768
:10096C00BD4680BC704780B483B000AF78600B4646
:10097C007B8013467B707B78002B03D07A887B6856
:10098C001A6103E07B881A047B681A6100BF0C377C
:10099C00BD4680BC7047000080B586B000AF786063
:1009AC007B68002B01D101236CE27B681B6803F090
:1009BC000103002B00F08780924B5B6803F00C0363
:1009CC00042B0CD08F4B5B6803F00C03082B12D15B
:1009DC008C4B5B6803F48033B3F5803F0BD1894BB0
:1009EC001B6803F40033002B6CD07B685B68002B16
:1009FC0068D1012346E27B685B68B3F5803F06D182
:100A0C00804B1B687F4A43F4803313602EE07B6875
:100A1C005B68002B0CD17B4B1B687A4A23F4803328
:100A2C001360784B1B68774A23F4802313601DE016
:100A3C007B685B68B3F5A02F0CD1724B1B68714AB5
:100A4C0043F4802313606F4B1B686E4A43F480336E
:100A5C0013600BE06B4B1B686A4A23F48033136002
:100A6C00684B1B68674A23F4802313607B685B68C0
:100A7C00002B13D0FFF7FEFC386108E0FFF7FAFCFF
:100A8C0002463B69D31A642B01D90323FAE15D4B6F
:100A9C001B6803F40033002BF0D014E0FFF7EAFCE2
:100AAC00386108E0FFF7E6FC02463B69D31A642B79
:100ABC0001D90323E6E1534B1B6803F40033002BED
:100ACC00F0D100E000BF7B681B6803F00203002B31
:100ADC0063D04C4B5B6803F00C03002B0BD0494BE1
:100AEC005B6803F00C03082B1CD1464B5B6803F4CA
:100AFC008033002B16D1434B1B6803F00203002BF1
:100B0C0005D07B681B69012B01D00123BAE13D4B59
:100B1C001B6823F0F8027B685B69DB0039491343DF
:100B2C000B603AE07B681B69002B20D0364B01220E
:100B3C001A60FFF79FFC386108E0FFF79BFC024648
:100B4C003B69D31A022B01D903239BE12D4B1B6864
:100B5C0003F00203002BF0D02A4B1B6823F0F802A1
:100B6C007B685B69DB00274913430B6015E0264B60
:100B7C0000221A60FFF77EFC386108E0FFF77AFC70
:100B8C0002463B69D31A022B01D903237AE11D4B90
:100B9C001B6803F00203002BF0D17B681B6803F089
:100BAC000803002B3AD07B689B69002B19D0174B9C
:100BBC0001221A60FFF75EFC386108E0FFF75AFC6F
:100BCC0002463B69D31A022B01D903235AE10D4B80
:100BDC005B6A03F00203002BF0D0012000F0A8FAAE
:100BEC001CE00A4B00221A60FFF744FC38610FE04E
:100BFC00FFF740FC02463B69D31A022B08D90323AA
:100C0C0040E100BF0010024000004242800442421A
:100C1C009E4B5B6A03F00203002BE9D17B681B68D7
:100C2C0003F00403002B00F0A6800023FB75974B08
:100C3C00DB6903F08053002B0DD1944BDB69934A95
:100C4C0043F08053D361914BDB6903F08053BB605D
:100C5C00BB680123FB758E4B1B6803F48073002B60
:100C6C0018D18B4B1B688A4A43F480731360FFF7CF
:100C7C0001FC386108E0FFF7FDFB02463B69D31A23
:100C8C00642B01D90323FDE0814B1B6803F48073B3
:100C9C00002BF0D07B68DB68012B06D17B4B1B6AE9
:100CAC007A4A43F0010313622DE07B68DB68002B6A
:100CBC000CD1764B1B6A754A23F001031362734BFC
:100CCC001B6A724A23F0040313621CE07B68DB6826
:100CDC00052B0CD16D4B1B6A6C4A43F00403136259
:100CEC006A4B1B6A694A43F0010313620BE0674BC2
:100CFC001B6A664A23F001031362644B1B6A634A46
:100D0C0023F0040313627B68DB68002B15D0FFF71C
:100D1C00B1FB38610AE0FFF7ADFB02463B69D31A21
:100D2C0041F28832934201D90323ABE0574B1B6A43
:100D3C0003F00203002BEED014E0FFF79BFB3861AD
:100D4C000AE0FFF797FB02463B69D31A41F288325F
:100D5C00934201D9032395E04C4B1B6A03F0020329
:100D6C00002BEED1FB7D012B05D1484BDB69474AAB
:100D7C0023F08053D3617B68DB69002B00F081800A
:100D8C00424B5B6803F00C03082B61D07B68DB697A
:100D9C00022B46D13F4B00221A60FFF76BFB3861E8
:100DAC0008E0FFF767FB02463B69D31A022B01D917
:100DBC00032367E0354B1B6803F00073002BF0D165
:100DCC007B681B6AB3F5803F08D1304B5B6823F41A
:100DDC0000327B689B682D4913434B602B4B5B683F
:100DEC0023F474127B68196A7B685B6A0B4327498E
:100DFC0013434B60274B01221A60FFF73BFB386112
:100E0C0008E0FFF737FB02463B69D31A022B01D9E6
:100E1C00032337E01D4B1B6803F00073002BF0D04D
:100E2C002FE01C4B00221A60FFF724FB386108E00E
:100E3C00FFF720FB02463B69D31A022B01D903238F
:100E4C0020E0124B1B6803F00073002BF0D118E06C
:100E5C007B68DB69012B01D1012313E00B4B5B6831
:100E6C00FB60FB6803F480327B681B6A9A4206D1F4
:100E7C00FB6803F470127B685B6A9A4201D0012311
:100E8C0000E0002318461837BD4680BD0010024014
:100E9C00007000406000424280B584B000AF7860C2
:100EAC0039607B68002B01D10123D0E06A4B1B68B1
:100EBC0003F007033A689A4210D9674B1B6823F07A
:100ECC00070265493B6813430B60634B1B6803F0D7
:100EDC0007033A689A4201D00123B8E07B681B688B
:100EEC0003F00203002B20D07B681B6803F0040383
:100EFC00002B05D0594B5B68584A43F4E0635360B0
:100F0C007B681B6803F00803002B05D0534B5B6810
:100F1C00524A43F460535360504B5B6823F0F00229
:100F2C007B689B684D4913434B607B681B6803F0DF
:100F3C000103002B40D07B685B68012B07D1474B2A
:100F4C001B6803F40033002B15D101237FE07B6871
:100F5C005B68022B07D1414B1B6803F00073002B1D
:100F6C0009D1012373E03D4B1B6803F00203002BF6
:100F7C0001D101236BE0394B5B6823F003027B68E2
:100F8C005B68364913434B60FFF774FAF8600AE06C
:100F9C00FFF770FA0246FB68D31A41F2883293428B
:100FAC0001D9032353E02D4B5B6803F00C027B68E3
:100FBC005B689B009A42EBD1274B1B6803F007033D
:100FCC003A689A4210D2244B1B6823F0070222493C
:100FDC003B6813430B60204B1B6803F007033A6814
:100FEC009A4201D0012332E07B681B6803F00403B2
:100FFC00002B08D0194B5B6823F4E0627B68DB683C
:10100C00164913434B607B681B6803F00803002BE5
:10101C0009D0124B5B6823F460527B681B69DB00C0
:10102C000E4913434B6000F021F801460B4B5B68F3
:10103C001B0903F00F030A4AD35C21FA03F3094A94
:10104C001360094B1B681846FFF7D2F900231846AA
:10105C001037BD4680BD00BF00200240001002408A
:10106C00FC110008000000200400002090B48AB09D
:10107C0000AF2A4B3C1D0FCB84E80F00284B1B887C
:10108C003B800023FB610023BB6100237B620023B8
:10109C007B6100233B62234B5B68FB61FB6903F0C4
:1010AC000C03042B02D0082B03D02DE01E4B3B620B
:1010BC002DE0FB699B0C03F00F0307F1280213448E
:1010CC0013F8243C7B61FB6903F48033002B13D0B1
:1010DC00144B5B685B0C03F0010307F1280213440B
:1010EC0013F8283CBB617B690F4A02FB03F2BB6916
:1010FC00B2FBF3F37B6204E07B690C4A02FB03F363
:10110C007B627B6A3B6202E0074B3B6200BF3B6A3F
:10111C0018462837BD4690BC704700BFE811000840
:10112C00F81100080010024000127A0000093D007E
:10113C0080B485B000AF78600A4B1B680A4AA2FBEA
:10114C0003235B0A7A6802FB03F3FB6000BFFB68B6
:10115C005A1EFA60002BF9D100BF1437BD4680BC73
:10116C00704700BF00000020D34D621070B5002501
:10117C000C4E0D4CA41BA410A54209D100F022F872
:10118C0000250A4E0A4CA41BA410A54205D170BD23
:10119C0056F8253098470135EEE756F82530984734
:1011AC000135F2E70C1200080C1200080C120008B2
:1011BC001012000803460244934200D1704703F812
:1011CC00011BF9E7F8B500BFF8BC08BC9E46704798
:0C11DC00F8B500BFF8BC08BC9E46704788
:1011E80002030405060708090A0B0C0D0E0F101060
:1011F80001020000000000000000000001020304DA
:0412080006070809C4
:04120C0031010008A4
:041210000D010008C4
:0C1214000024F4001000000001000000A5
:040000050800038567
:00000001FF
