
Treci_mini_projekat.elf:     file format elf32-littlearm

Sections:
Idx Name          Size      VMA       LMA       File off  Algn
  0 .isr_vector   0000010c  08000000  08000000  00010000  2**0
                  CONTENTS, ALLOC, LOAD, READONLY, DATA
  1 .text         0000129c  0800010c  0800010c  0001010c  2**2
                  CONTENTS, ALLOC, LOAD, READONLY, CODE
  2 .rodata       0000002c  080013a8  080013a8  000113a8  2**2
                  CONTENTS, ALLOC, LOAD, READONLY, DATA
  3 .ARM.extab    00000000  080013d4  080013d4  00020018  2**0
                  CONTENTS
  4 .ARM          00000000  080013d4  080013d4  00020018  2**0
                  CONTENTS
  5 .preinit_array 00000000  080013d4  080013d4  00020018  2**0
                  CONTENTS, ALLOC, LOAD, DATA
  6 .init_array   00000004  080013d4  080013d4  000113d4  2**2
                  CONTENTS, ALLOC, LOAD, DATA
  7 .fini_array   00000004  080013d8  080013d8  000113d8  2**2
                  CONTENTS, ALLOC, LOAD, DATA
  8 .data         00000018  20000000  080013dc  00020000  2**2
                  CONTENTS, ALLOC, LOAD, DATA
  9 .bss          00000020  20000018  080013f4  00020018  2**2
                  ALLOC
 10 ._user_heap_stack 00000600  20000038  080013f4  00020038  2**0
                  ALLOC
 11 .ARM.attributes 00000029  00000000  00000000  00020018  2**0
                  CONTENTS, READONLY
 12 .debug_info   00002df7  00000000  00000000  00020041  2**0
                  CONTENTS, READONLY, DEBUGGING
 13 .debug_abbrev 00000d5d  00000000  00000000  00022e38  2**0
                  CONTENTS, READONLY, DEBUGGING
 14 .debug_aranges 000003d0  00000000  00000000  00023b98  2**3
                  CONTENTS, READONLY, DEBUGGING
 15 .debug_ranges 00000348  00000000  00000000  00023f68  2**3
                  CONTENTS, READONLY, DEBUGGING
 16 .debug_macro  000154e1  00000000  00000000  000242b0  2**0
                  CONTENTS, READONLY, DEBUGGING
 17 .debug_line   00003c5e  00000000  00000000  00039791  2**0
                  CONTENTS, READONLY, DEBUGGING
 18 .debug_str    0007973a  00000000  00000000  0003d3ef  2**0
                  CONTENTS, READONLY, DEBUGGING
 19 .comment      0000007b  00000000  00000000  000b6b29  2**0
                  CONTENTS, READONLY
 20 .debug_frame  00000d44  00000000  00000000  000b6ba4  2**2
                  CONTENTS, READONLY, DEBUGGING

Disassembly of section .text:

0800010c <__do_global_dtors_aux>:
 800010c:	b510      	push	{r4, lr}
 800010e:	4c05      	ldr	r4, [pc, #20]	; (8000124 <__do_global_dtors_aux+0x18>)
 8000110:	7823      	ldrb	r3, [r4, #0]
 8000112:	b933      	cbnz	r3, 8000122 <__do_global_dtors_aux+0x16>
 8000114:	4b04      	ldr	r3, [pc, #16]	; (8000128 <__do_global_dtors_aux+0x1c>)
 8000116:	b113      	cbz	r3, 800011e <__do_global_dtors_aux+0x12>
 8000118:	4804      	ldr	r0, [pc, #16]	; (800012c <__do_global_dtors_aux+0x20>)
 800011a:	f3af 8000 	nop.w
 800011e:	2301      	movs	r3, #1
 8000120:	7023      	strb	r3, [r4, #0]
 8000122:	bd10      	pop	{r4, pc}
 8000124:	20000018 	.word	0x20000018
 8000128:	00000000 	.word	0x00000000
 800012c:	08001390 	.word	0x08001390

08000130 <frame_dummy>:
 8000130:	b508      	push	{r3, lr}
 8000132:	4b03      	ldr	r3, [pc, #12]	; (8000140 <frame_dummy+0x10>)
 8000134:	b11b      	cbz	r3, 800013e <frame_dummy+0xe>
 8000136:	4903      	ldr	r1, [pc, #12]	; (8000144 <frame_dummy+0x14>)
 8000138:	4803      	ldr	r0, [pc, #12]	; (8000148 <frame_dummy+0x18>)
 800013a:	f3af 8000 	nop.w
 800013e:	bd08      	pop	{r3, pc}
 8000140:	00000000 	.word	0x00000000
 8000144:	2000001c 	.word	0x2000001c
 8000148:	08001390 	.word	0x08001390

0800014c <main>:
/**
  * @brief  The application entry point.
  * @retval int
  */
int main(void)
{
 800014c:	b580      	push	{r7, lr}
 800014e:	b092      	sub	sp, #72	; 0x48
 8000150:	af00      	add	r7, sp, #0
  /* USER CODE END 1 */

  /* MCU Configuration--------------------------------------------------------*/

  /* Reset of all peripherals, Initializes the Flash interface and the Systick. */
  HAL_Init();
 8000152:	f000 fa1d 	bl	8000590 <HAL_Init>
  /* USER CODE BEGIN Init */

  /* USER CODE END Init */

  /* Configure the system clock */
  SystemClock_Config();
 8000156:	f000 f8e7 	bl	8000328 <SystemClock_Config>
  /* USER CODE BEGIN SysInit */

  /* USER CODE END SysInit */

  /* Initialize all configured peripherals */
  MX_GPIO_Init();
 800015a:	f000 f921 	bl	80003a0 <MX_GPIO_Init>
  /* USER CODE END 2 */

  /* Infinite loop */
  /* USER CODE BEGIN WHILE */

  int i,j,provera=1;
 800015e:	2301      	movs	r3, #1
 8000160:	63fb      	str	r3, [r7, #60]	; 0x3c

 	    int indeks[] = {5,8};
 8000162:	4a6d      	ldr	r2, [pc, #436]	; (8000318 <main+0x1cc>)
 8000164:	f107 032c 	add.w	r3, r7, #44	; 0x2c
 8000168:	e892 0003 	ldmia.w	r2, {r0, r1}
 800016c:	e883 0003 	stmia.w	r3, {r0, r1}
 	    int uneto[2];
 	    int counter = 0,br = 1;
 8000170:	2300      	movs	r3, #0
 8000172:	63bb      	str	r3, [r7, #56]	; 0x38
 8000174:	2301      	movs	r3, #1
 8000176:	637b      	str	r3, [r7, #52]	; 0x34

 	    int matrica[MAX_ULAZA][MAX_IZLAZA];

 	    for(i = 0; i< MAX_ULAZA; i++)
 8000178:	2300      	movs	r3, #0
 800017a:	647b      	str	r3, [r7, #68]	; 0x44
 800017c:	e01a      	b.n	80001b4 <main+0x68>
 	  	  for(j = 0; j < MAX_IZLAZA; j++)
 800017e:	2300      	movs	r3, #0
 8000180:	643b      	str	r3, [r7, #64]	; 0x40
 8000182:	e011      	b.n	80001a8 <main+0x5c>
 	  			  matrica[i][j] = br++;
 8000184:	6b7a      	ldr	r2, [r7, #52]	; 0x34
 8000186:	1c53      	adds	r3, r2, #1
 8000188:	637b      	str	r3, [r7, #52]	; 0x34
 800018a:	6c79      	ldr	r1, [r7, #68]	; 0x44
 800018c:	460b      	mov	r3, r1
 800018e:	005b      	lsls	r3, r3, #1
 8000190:	440b      	add	r3, r1
 8000192:	6c39      	ldr	r1, [r7, #64]	; 0x40
 8000194:	440b      	add	r3, r1
 8000196:	009b      	lsls	r3, r3, #2
 8000198:	f107 0148 	add.w	r1, r7, #72	; 0x48
 800019c:	440b      	add	r3, r1
 800019e:	f843 2c48 	str.w	r2, [r3, #-72]
 	  	  for(j = 0; j < MAX_IZLAZA; j++)
 80001a2:	6c3b      	ldr	r3, [r7, #64]	; 0x40
 80001a4:	3301      	adds	r3, #1
 80001a6:	643b      	str	r3, [r7, #64]	; 0x40
 80001a8:	6c3b      	ldr	r3, [r7, #64]	; 0x40
 80001aa:	2b02      	cmp	r3, #2
 80001ac:	ddea      	ble.n	8000184 <main+0x38>
 	    for(i = 0; i< MAX_ULAZA; i++)
 80001ae:	6c7b      	ldr	r3, [r7, #68]	; 0x44
 80001b0:	3301      	adds	r3, #1
 80001b2:	647b      	str	r3, [r7, #68]	; 0x44
 80001b4:	6c7b      	ldr	r3, [r7, #68]	; 0x44
 80001b6:	2b02      	cmp	r3, #2
 80001b8:	dde1      	ble.n	800017e <main+0x32>

  while (1)
  {
	    HAL_GPIO_WritePin(GPIOA, zelena_dioda, GPIO_PIN_SET);
 80001ba:	2201      	movs	r2, #1
 80001bc:	2120      	movs	r1, #32
 80001be:	4857      	ldr	r0, [pc, #348]	; (800031c <main+0x1d0>)
 80001c0:	f000 fcb7 	bl	8000b32 <HAL_GPIO_WritePin>
	   	  HAL_GPIO_WritePin(GPIOA, crvena_dioda, GPIO_PIN_SET);
 80001c4:	2201      	movs	r2, #1
 80001c6:	2140      	movs	r1, #64	; 0x40
 80001c8:	4854      	ldr	r0, [pc, #336]	; (800031c <main+0x1d0>)
 80001ca:	f000 fcb2 	bl	8000b32 <HAL_GPIO_WritePin>

	   	  while(counter < 2)
 80001ce:	e06d      	b.n	80002ac <main+0x160>
	   	  {
	   		  for(i = 0; i < MAX_ULAZA; i++)
 80001d0:	2300      	movs	r3, #0
 80001d2:	647b      	str	r3, [r7, #68]	; 0x44
 80001d4:	e067      	b.n	80002a6 <main+0x15a>
	   		  {
	   			  HAL_GPIO_WritePin(GPIOA, izlazi[i], GPIO_PIN_SET);
 80001d6:	4a52      	ldr	r2, [pc, #328]	; (8000320 <main+0x1d4>)
 80001d8:	6c7b      	ldr	r3, [r7, #68]	; 0x44
 80001da:	f852 3023 	ldr.w	r3, [r2, r3, lsl #2]
 80001de:	b29b      	uxth	r3, r3
 80001e0:	2201      	movs	r2, #1
 80001e2:	4619      	mov	r1, r3
 80001e4:	484d      	ldr	r0, [pc, #308]	; (800031c <main+0x1d0>)
 80001e6:	f000 fca4 	bl	8000b32 <HAL_GPIO_WritePin>

	   			  if(HAL_GPIO_ReadPin(GPIOB, ulaz_1))
 80001ea:	2101      	movs	r1, #1
 80001ec:	484d      	ldr	r0, [pc, #308]	; (8000324 <main+0x1d8>)
 80001ee:	f000 fc89 	bl	8000b04 <HAL_GPIO_ReadPin>
 80001f2:	4603      	mov	r3, r0
 80001f4:	2b00      	cmp	r3, #0
 80001f6:	d012      	beq.n	800021e <main+0xd2>
	   			  {
	   				  uneto[counter++] = matrica[i][0];
 80001f8:	6bba      	ldr	r2, [r7, #56]	; 0x38
 80001fa:	1c53      	adds	r3, r2, #1
 80001fc:	63bb      	str	r3, [r7, #56]	; 0x38
 80001fe:	6c79      	ldr	r1, [r7, #68]	; 0x44
 8000200:	460b      	mov	r3, r1
 8000202:	005b      	lsls	r3, r3, #1
 8000204:	440b      	add	r3, r1
 8000206:	009b      	lsls	r3, r3, #2
 8000208:	f107 0148 	add.w	r1, r7, #72	; 0x48
 800020c:	440b      	add	r3, r1
 800020e:	3b48      	subs	r3, #72	; 0x48
 8000210:	6819      	ldr	r1, [r3, #0]
 8000212:	0093      	lsls	r3, r2, #2
 8000214:	f107 0248 	add.w	r2, r7, #72	; 0x48
 8000218:	4413      	add	r3, r2
 800021a:	f843 1c24 	str.w	r1, [r3, #-36]
	   			  }
	   			  if(HAL_GPIO_ReadPin(GPIOA, ulaz_2))
 800021e:	2101      	movs	r1, #1
 8000220:	483e      	ldr	r0, [pc, #248]	; (800031c <main+0x1d0>)
 8000222:	f000 fc6f 	bl	8000b04 <HAL_GPIO_ReadPin>
 8000226:	4603      	mov	r3, r0
 8000228:	2b00      	cmp	r3, #0
 800022a:	d012      	beq.n	8000252 <main+0x106>
	   			  {
	   				  uneto[counter++] = matrica[i][1];
 800022c:	6bba      	ldr	r2, [r7, #56]	; 0x38
 800022e:	1c53      	adds	r3, r2, #1
 8000230:	63bb      	str	r3, [r7, #56]	; 0x38
 8000232:	6c79      	ldr	r1, [r7, #68]	; 0x44
 8000234:	460b      	mov	r3, r1
 8000236:	005b      	lsls	r3, r3, #1
 8000238:	440b      	add	r3, r1
 800023a:	009b      	lsls	r3, r3, #2
 800023c:	f107 0148 	add.w	r1, r7, #72	; 0x48
 8000240:	440b      	add	r3, r1
 8000242:	3b44      	subs	r3, #68	; 0x44
 8000244:	6819      	ldr	r1, [r3, #0]
 8000246:	0093      	lsls	r3, r2, #2
 8000248:	f107 0248 	add.w	r2, r7, #72	; 0x48
 800024c:	4413      	add	r3, r2
 800024e:	f843 1c24 	str.w	r1, [r3, #-36]
	   			  }
	   			  if(HAL_GPIO_ReadPin(GPIOB, ulaz_3))
 8000252:	2102      	movs	r1, #2
 8000254:	4833      	ldr	r0, [pc, #204]	; (8000324 <main+0x1d8>)
 8000256:	f000 fc55 	bl	8000b04 <HAL_GPIO_ReadPin>
 800025a:	4603      	mov	r3, r0
 800025c:	2b00      	cmp	r3, #0
 800025e:	d012      	beq.n	8000286 <main+0x13a>
	   			  {
	   				  uneto[counter++] = matrica[i][2];
 8000260:	6bba      	ldr	r2, [r7, #56]	; 0x38
 8000262:	1c53      	adds	r3, r2, #1
 8000264:	63bb      	str	r3, [r7, #56]	; 0x38
 8000266:	6c79      	ldr	r1, [r7, #68]	; 0x44
 8000268:	460b      	mov	r3, r1
 800026a:	005b      	lsls	r3, r3, #1
 800026c:	440b      	add	r3, r1
 800026e:	009b      	lsls	r3, r3, #2
 8000270:	f107 0148 	add.w	r1, r7, #72	; 0x48
 8000274:	440b      	add	r3, r1
 8000276:	3b40      	subs	r3, #64	; 0x40
 8000278:	6819      	ldr	r1, [r3, #0]
 800027a:	0093      	lsls	r3, r2, #2
 800027c:	f107 0248 	add.w	r2, r7, #72	; 0x48
 8000280:	4413      	add	r3, r2
 8000282:	f843 1c24 	str.w	r1, [r3, #-36]
	   			  }

	   			  HAL_Delay(30);
 8000286:	201e      	movs	r0, #30
 8000288:	f000 f9e4 	bl	8000654 <HAL_Delay>
	   			  HAL_GPIO_WritePin(GPIOA, izlazi[i], GPIO_PIN_RESET);
 800028c:	4a24      	ldr	r2, [pc, #144]	; (8000320 <main+0x1d4>)
 800028e:	6c7b      	ldr	r3, [r7, #68]	; 0x44
 8000290:	f852 3023 	ldr.w	r3, [r2, r3, lsl #2]
 8000294:	b29b      	uxth	r3, r3
 8000296:	2200      	movs	r2, #0
 8000298:	4619      	mov	r1, r3
 800029a:	4820      	ldr	r0, [pc, #128]	; (800031c <main+0x1d0>)
 800029c:	f000 fc49 	bl	8000b32 <HAL_GPIO_WritePin>
	   		  for(i = 0; i < MAX_ULAZA; i++)
 80002a0:	6c7b      	ldr	r3, [r7, #68]	; 0x44
 80002a2:	3301      	adds	r3, #1
 80002a4:	647b      	str	r3, [r7, #68]	; 0x44
 80002a6:	6c7b      	ldr	r3, [r7, #68]	; 0x44
 80002a8:	2b02      	cmp	r3, #2
 80002aa:	dd94      	ble.n	80001d6 <main+0x8a>
	   	  while(counter < 2)
 80002ac:	6bbb      	ldr	r3, [r7, #56]	; 0x38
 80002ae:	2b01      	cmp	r3, #1
 80002b0:	dd8e      	ble.n	80001d0 <main+0x84>
	   		  }
	   	  }

	   	 for(i=0;i<2;i++)
 80002b2:	2300      	movs	r3, #0
 80002b4:	647b      	str	r3, [r7, #68]	; 0x44
 80002b6:	e014      	b.n	80002e2 <main+0x196>
	   		 if(indeks[i]!=uneto[i])
 80002b8:	6c7b      	ldr	r3, [r7, #68]	; 0x44
 80002ba:	009b      	lsls	r3, r3, #2
 80002bc:	f107 0248 	add.w	r2, r7, #72	; 0x48
 80002c0:	4413      	add	r3, r2
 80002c2:	f853 2c1c 	ldr.w	r2, [r3, #-28]
 80002c6:	6c7b      	ldr	r3, [r7, #68]	; 0x44
 80002c8:	009b      	lsls	r3, r3, #2
 80002ca:	f107 0148 	add.w	r1, r7, #72	; 0x48
 80002ce:	440b      	add	r3, r1
 80002d0:	f853 3c24 	ldr.w	r3, [r3, #-36]
 80002d4:	429a      	cmp	r2, r3
 80002d6:	d001      	beq.n	80002dc <main+0x190>
	   			 provera=0;
 80002d8:	2300      	movs	r3, #0
 80002da:	63fb      	str	r3, [r7, #60]	; 0x3c
	   	 for(i=0;i<2;i++)
 80002dc:	6c7b      	ldr	r3, [r7, #68]	; 0x44
 80002de:	3301      	adds	r3, #1
 80002e0:	647b      	str	r3, [r7, #68]	; 0x44
 80002e2:	6c7b      	ldr	r3, [r7, #68]	; 0x44
 80002e4:	2b01      	cmp	r3, #1
 80002e6:	dde7      	ble.n	80002b8 <main+0x16c>

	   	if(provera == 1)
 80002e8:	6bfb      	ldr	r3, [r7, #60]	; 0x3c
 80002ea:	2b01      	cmp	r3, #1
 80002ec:	d105      	bne.n	80002fa <main+0x1ae>
	   		HAL_GPIO_WritePin(GPIOA,  GPIO_PIN_5, GPIO_PIN_RESET);
 80002ee:	2200      	movs	r2, #0
 80002f0:	2120      	movs	r1, #32
 80002f2:	480a      	ldr	r0, [pc, #40]	; (800031c <main+0x1d0>)
 80002f4:	f000 fc1d 	bl	8000b32 <HAL_GPIO_WritePin>
 80002f8:	e004      	b.n	8000304 <main+0x1b8>
	   	else
	   		HAL_GPIO_WritePin(GPIOA, GPIO_PIN_6, GPIO_PIN_RESET);
 80002fa:	2200      	movs	r2, #0
 80002fc:	2140      	movs	r1, #64	; 0x40
 80002fe:	4807      	ldr	r0, [pc, #28]	; (800031c <main+0x1d0>)
 8000300:	f000 fc17 	bl	8000b32 <HAL_GPIO_WritePin>

	   	provera=1;
 8000304:	2301      	movs	r3, #1
 8000306:	63fb      	str	r3, [r7, #60]	; 0x3c
	   	counter = 0;
 8000308:	2300      	movs	r3, #0
 800030a:	63bb      	str	r3, [r7, #56]	; 0x38
	   	HAL_Delay(2000);
 800030c:	f44f 60fa 	mov.w	r0, #2000	; 0x7d0
 8000310:	f000 f9a0 	bl	8000654 <HAL_Delay>
	    HAL_GPIO_WritePin(GPIOA, zelena_dioda, GPIO_PIN_SET);
 8000314:	e751      	b.n	80001ba <main+0x6e>
 8000316:	bf00      	nop
 8000318:	080013a8 	.word	0x080013a8
 800031c:	40010800 	.word	0x40010800
 8000320:	20000000 	.word	0x20000000
 8000324:	40010c00 	.word	0x40010c00

08000328 <SystemClock_Config>:
/**
  * @brief System Clock Configuration
  * @retval None
  */
void SystemClock_Config(void)
{
 8000328:	b580      	push	{r7, lr}
 800032a:	b090      	sub	sp, #64	; 0x40
 800032c:	af00      	add	r7, sp, #0
  RCC_OscInitTypeDef RCC_OscInitStruct = {0};
 800032e:	f107 0318 	add.w	r3, r7, #24
 8000332:	2228      	movs	r2, #40	; 0x28
 8000334:	2100      	movs	r1, #0
 8000336:	4618      	mov	r0, r3
 8000338:	f001 f822 	bl	8001380 <memset>
  RCC_ClkInitTypeDef RCC_ClkInitStruct = {0};
 800033c:	1d3b      	adds	r3, r7, #4
 800033e:	2200      	movs	r2, #0
 8000340:	601a      	str	r2, [r3, #0]
 8000342:	605a      	str	r2, [r3, #4]
 8000344:	609a      	str	r2, [r3, #8]
 8000346:	60da      	str	r2, [r3, #12]
 8000348:	611a      	str	r2, [r3, #16]

  /** Initializes the CPU, AHB and APB busses clocks 
  */
  RCC_OscInitStruct.OscillatorType = RCC_OSCILLATORTYPE_HSI;
 800034a:	2302      	movs	r3, #2
 800034c:	61bb      	str	r3, [r7, #24]
  RCC_OscInitStruct.HSIState = RCC_HSI_ON;
 800034e:	2301      	movs	r3, #1
 8000350:	62bb      	str	r3, [r7, #40]	; 0x28
  RCC_OscInitStruct.HSICalibrationValue = RCC_HSICALIBRATION_DEFAULT;
 8000352:	2310      	movs	r3, #16
 8000354:	62fb      	str	r3, [r7, #44]	; 0x2c
  RCC_OscInitStruct.PLL.PLLState = RCC_PLL_NONE;
 8000356:	2300      	movs	r3, #0
 8000358:	637b      	str	r3, [r7, #52]	; 0x34
  if (HAL_RCC_OscConfig(&RCC_OscInitStruct) != HAL_OK)
 800035a:	f107 0318 	add.w	r3, r7, #24
 800035e:	4618      	mov	r0, r3
 8000360:	f000 fc00 	bl	8000b64 <HAL_RCC_OscConfig>
 8000364:	4603      	mov	r3, r0
 8000366:	2b00      	cmp	r3, #0
 8000368:	d001      	beq.n	800036e <SystemClock_Config+0x46>
  {
    Error_Handler();
 800036a:	f000 f883 	bl	8000474 <Error_Handler>
  }
  /** Initializes the CPU, AHB and APB busses clocks 
  */
  RCC_ClkInitStruct.ClockType = RCC_CLOCKTYPE_HCLK|RCC_CLOCKTYPE_SYSCLK
 800036e:	230f      	movs	r3, #15
 8000370:	607b      	str	r3, [r7, #4]
                              |RCC_CLOCKTYPE_PCLK1|RCC_CLOCKTYPE_PCLK2;
  RCC_ClkInitStruct.SYSCLKSource = RCC_SYSCLKSOURCE_HSI;
 8000372:	2300      	movs	r3, #0
 8000374:	60bb      	str	r3, [r7, #8]
  RCC_ClkInitStruct.AHBCLKDivider = RCC_SYSCLK_DIV1;
 8000376:	2300      	movs	r3, #0
 8000378:	60fb      	str	r3, [r7, #12]
  RCC_ClkInitStruct.APB1CLKDivider = RCC_HCLK_DIV1;
 800037a:	2300      	movs	r3, #0
 800037c:	613b      	str	r3, [r7, #16]
  RCC_ClkInitStruct.APB2CLKDivider = RCC_HCLK_DIV1;
 800037e:	2300      	movs	r3, #0
 8000380:	617b      	str	r3, [r7, #20]

  if (HAL_RCC_ClockConfig(&RCC_ClkInitStruct, FLASH_LATENCY_0) != HAL_OK)
 8000382:	1d3b      	adds	r3, r7, #4
 8000384:	2100      	movs	r1, #0
 8000386:	4618      	mov	r0, r3
 8000388:	f000 fe6c 	bl	8001064 <HAL_RCC_ClockConfig>
 800038c:	4603      	mov	r3, r0
 800038e:	2b00      	cmp	r3, #0
 8000390:	d001      	beq.n	8000396 <SystemClock_Config+0x6e>
  {
    Error_Handler();
 8000392:	f000 f86f 	bl	8000474 <Error_Handler>
  }
}
 8000396:	bf00      	nop
 8000398:	3740      	adds	r7, #64	; 0x40
 800039a:	46bd      	mov	sp, r7
 800039c:	bd80      	pop	{r7, pc}
	...

080003a0 <MX_GPIO_Init>:
  * @brief GPIO Initialization Function
  * @param None
  * @retval None
  */
static void MX_GPIO_Init(void)
{
 80003a0:	b580      	push	{r7, lr}
 80003a2:	b086      	sub	sp, #24
 80003a4:	af00      	add	r7, sp, #0
  GPIO_InitTypeDef GPIO_InitStruct = {0};
 80003a6:	f107 0308 	add.w	r3, r7, #8
 80003aa:	2200      	movs	r2, #0
 80003ac:	601a      	str	r2, [r3, #0]
 80003ae:	605a      	str	r2, [r3, #4]
 80003b0:	609a      	str	r2, [r3, #8]
 80003b2:	60da      	str	r2, [r3, #12]

  /* GPIO Ports Clock Enable */
  __HAL_RCC_GPIOA_CLK_ENABLE();
 80003b4:	4b2c      	ldr	r3, [pc, #176]	; (8000468 <MX_GPIO_Init+0xc8>)
 80003b6:	699b      	ldr	r3, [r3, #24]
 80003b8:	4a2b      	ldr	r2, [pc, #172]	; (8000468 <MX_GPIO_Init+0xc8>)
 80003ba:	f043 0304 	orr.w	r3, r3, #4
 80003be:	6193      	str	r3, [r2, #24]
 80003c0:	4b29      	ldr	r3, [pc, #164]	; (8000468 <MX_GPIO_Init+0xc8>)
 80003c2:	699b      	ldr	r3, [r3, #24]
 80003c4:	f003 0304 	and.w	r3, r3, #4
 80003c8:	607b      	str	r3, [r7, #4]
 80003ca:	687b      	ldr	r3, [r7, #4]
  __HAL_RCC_GPIOB_CLK_ENABLE();
 80003cc:	4b26      	ldr	r3, [pc, #152]	; (8000468 <MX_GPIO_Init+0xc8>)
 80003ce:	699b      	ldr	r3, [r3, #24]
 80003d0:	4a25      	ldr	r2, [pc, #148]	; (8000468 <MX_GPIO_Init+0xc8>)
 80003d2:	f043 0308 	orr.w	r3, r3, #8
 80003d6:	6193      	str	r3, [r2, #24]
 80003d8:	4b23      	ldr	r3, [pc, #140]	; (8000468 <MX_GPIO_Init+0xc8>)
 80003da:	699b      	ldr	r3, [r3, #24]
 80003dc:	f003 0308 	and.w	r3, r3, #8
 80003e0:	603b      	str	r3, [r7, #0]
 80003e2:	683b      	ldr	r3, [r7, #0]

  /*Configure GPIO pin Output Level */
  HAL_GPIO_WritePin(GPIOA, GPIO_PIN_1|GPIO_PIN_2|GPIO_PIN_3|GPIO_PIN_4 
 80003e4:	2200      	movs	r2, #0
 80003e6:	217e      	movs	r1, #126	; 0x7e
 80003e8:	4820      	ldr	r0, [pc, #128]	; (800046c <MX_GPIO_Init+0xcc>)
 80003ea:	f000 fba2 	bl	8000b32 <HAL_GPIO_WritePin>
                          |GPIO_PIN_5|GPIO_PIN_6, GPIO_PIN_RESET);

  /*Configure GPIO pin Output Level */
  HAL_GPIO_WritePin(GPIOB, GPIO_PIN_1, GPIO_PIN_RESET);
 80003ee:	2200      	movs	r2, #0
 80003f0:	2102      	movs	r1, #2
 80003f2:	481f      	ldr	r0, [pc, #124]	; (8000470 <MX_GPIO_Init+0xd0>)
 80003f4:	f000 fb9d 	bl	8000b32 <HAL_GPIO_WritePin>

  /*Configure GPIO pin : PA0 */
  GPIO_InitStruct.Pin = GPIO_PIN_0;
 80003f8:	2301      	movs	r3, #1
 80003fa:	60bb      	str	r3, [r7, #8]
  GPIO_InitStruct.Mode = GPIO_MODE_INPUT;
 80003fc:	2300      	movs	r3, #0
 80003fe:	60fb      	str	r3, [r7, #12]
  GPIO_InitStruct.Pull = GPIO_NOPULL;
 8000400:	2300      	movs	r3, #0
 8000402:	613b      	str	r3, [r7, #16]
  HAL_GPIO_Init(GPIOA, &GPIO_InitStruct);
 8000404:	f107 0308 	add.w	r3, r7, #8
 8000408:	4619      	mov	r1, r3
 800040a:	4818      	ldr	r0, [pc, #96]	; (800046c <MX_GPIO_Init+0xcc>)
 800040c:	f000 fa28 	bl	8000860 <HAL_GPIO_Init>

  /*Configure GPIO pins : PA1 PA2 PA3 PA4 
                           PA5 PA6 */
  GPIO_InitStruct.Pin = GPIO_PIN_1|GPIO_PIN_2|GPIO_PIN_3|GPIO_PIN_4 
 8000410:	237e      	movs	r3, #126	; 0x7e
 8000412:	60bb      	str	r3, [r7, #8]
                          |GPIO_PIN_5|GPIO_PIN_6;
  GPIO_InitStruct.Mode = GPIO_MODE_OUTPUT_PP;
 8000414:	2301      	movs	r3, #1
 8000416:	60fb      	str	r3, [r7, #12]
  GPIO_InitStruct.Pull = GPIO_NOPULL;
 8000418:	2300      	movs	r3, #0
 800041a:	613b      	str	r3, [r7, #16]
  GPIO_InitStruct.Speed = GPIO_SPEED_FREQ_LOW;
 800041c:	2302      	movs	r3, #2
 800041e:	617b      	str	r3, [r7, #20]
  HAL_GPIO_Init(GPIOA, &GPIO_InitStruct);
 8000420:	f107 0308 	add.w	r3, r7, #8
 8000424:	4619      	mov	r1, r3
 8000426:	4811      	ldr	r0, [pc, #68]	; (800046c <MX_GPIO_Init+0xcc>)
 8000428:	f000 fa1a 	bl	8000860 <HAL_GPIO_Init>

  /*Configure GPIO pin : PB0 */
  GPIO_InitStruct.Pin = GPIO_PIN_0;
 800042c:	2301      	movs	r3, #1
 800042e:	60bb      	str	r3, [r7, #8]
  GPIO_InitStruct.Mode = GPIO_MODE_INPUT;
 8000430:	2300      	movs	r3, #0
 8000432:	60fb      	str	r3, [r7, #12]
  GPIO_InitStruct.Pull = GPIO_NOPULL;
 8000434:	2300      	movs	r3, #0
 8000436:	613b      	str	r3, [r7, #16]
  HAL_GPIO_Init(GPIOB, &GPIO_InitStruct);
 8000438:	f107 0308 	add.w	r3, r7, #8
 800043c:	4619      	mov	r1, r3
 800043e:	480c      	ldr	r0, [pc, #48]	; (8000470 <MX_GPIO_Init+0xd0>)
 8000440:	f000 fa0e 	bl	8000860 <HAL_GPIO_Init>

  /*Configure GPIO pin : PB1 */
  GPIO_InitStruct.Pin = GPIO_PIN_1;
 8000444:	2302      	movs	r3, #2
 8000446:	60bb      	str	r3, [r7, #8]
  GPIO_InitStruct.Mode = GPIO_MODE_OUTPUT_PP;
 8000448:	2301      	movs	r3, #1
 800044a:	60fb      	str	r3, [r7, #12]
  GPIO_InitStruct.Pull = GPIO_NOPULL;
 800044c:	2300      	movs	r3, #0
 800044e:	613b      	str	r3, [r7, #16]
  GPIO_InitStruct.Speed = GPIO_SPEED_FREQ_LOW;
 8000450:	2302      	movs	r3, #2
 8000452:	617b      	str	r3, [r7, #20]
  HAL_GPIO_Init(GPIOB, &GPIO_InitStruct);
 8000454:	f107 0308 	add.w	r3, r7, #8
 8000458:	4619      	mov	r1, r3
 800045a:	4805      	ldr	r0, [pc, #20]	; (8000470 <MX_GPIO_Init+0xd0>)
 800045c:	f000 fa00 	bl	8000860 <HAL_GPIO_Init>

}
 8000460:	bf00      	nop
 8000462:	3718      	adds	r7, #24
 8000464:	46bd      	mov	sp, r7
 8000466:	bd80      	pop	{r7, pc}
 8000468:	40021000 	.word	0x40021000
 800046c:	40010800 	.word	0x40010800
 8000470:	40010c00 	.word	0x40010c00

08000474 <Error_Handler>:
/**
  * @brief  This function is executed in case of error occurrence.
  * @retval None
  */
void Error_Handler(void)
{
 8000474:	b480      	push	{r7}
 8000476:	af00      	add	r7, sp, #0
  /* USER CODE BEGIN Error_Handler_Debug */
  /* User can add his own implementation to report the HAL error return state */

  /* USER CODE END Error_Handler_Debug */
}
 8000478:	bf00      	nop
 800047a:	46bd      	mov	sp, r7
 800047c:	bc80      	pop	{r7}
 800047e:	4770      	bx	lr

08000480 <HAL_MspInit>:
/* USER CODE END 0 */
/**
  * Initializes the Global MSP.
  */
void HAL_MspInit(void)
{
 8000480:	b480      	push	{r7}
 8000482:	b085      	sub	sp, #20
 8000484:	af00      	add	r7, sp, #0
  /* USER CODE BEGIN MspInit 0 */

  /* USER CODE END MspInit 0 */

  __HAL_RCC_AFIO_CLK_ENABLE();
 8000486:	4b15      	ldr	r3, [pc, #84]	; (80004dc <HAL_MspInit+0x5c>)
 8000488:	699b      	ldr	r3, [r3, #24]
 800048a:	4a14      	ldr	r2, [pc, #80]	; (80004dc <HAL_MspInit+0x5c>)
 800048c:	f043 0301 	orr.w	r3, r3, #1
 8000490:	6193      	str	r3, [r2, #24]
 8000492:	4b12      	ldr	r3, [pc, #72]	; (80004dc <HAL_MspInit+0x5c>)
 8000494:	699b      	ldr	r3, [r3, #24]
 8000496:	f003 0301 	and.w	r3, r3, #1
 800049a:	60bb      	str	r3, [r7, #8]
 800049c:	68bb      	ldr	r3, [r7, #8]
  __HAL_RCC_PWR_CLK_ENABLE();
 800049e:	4b0f      	ldr	r3, [pc, #60]	; (80004dc <HAL_MspInit+0x5c>)
 80004a0:	69db      	ldr	r3, [r3, #28]
 80004a2:	4a0e      	ldr	r2, [pc, #56]	; (80004dc <HAL_MspInit+0x5c>)
 80004a4:	f043 5380 	orr.w	r3, r3, #268435456	; 0x10000000
 80004a8:	61d3      	str	r3, [r2, #28]
 80004aa:	4b0c      	ldr	r3, [pc, #48]	; (80004dc <HAL_MspInit+0x5c>)
 80004ac:	69db      	ldr	r3, [r3, #28]
 80004ae:	f003 5380 	and.w	r3, r3, #268435456	; 0x10000000
 80004b2:	607b      	str	r3, [r7, #4]
 80004b4:	687b      	ldr	r3, [r7, #4]

  /* System interrupt init*/

  /** DISABLE: JTAG-DP Disabled and SW-DP Disabled 
  */
  __HAL_AFIO_REMAP_SWJ_DISABLE();
 80004b6:	4b0a      	ldr	r3, [pc, #40]	; (80004e0 <HAL_MspInit+0x60>)
 80004b8:	685b      	ldr	r3, [r3, #4]
 80004ba:	60fb      	str	r3, [r7, #12]
 80004bc:	68fb      	ldr	r3, [r7, #12]
 80004be:	f023 63e0 	bic.w	r3, r3, #117440512	; 0x7000000
 80004c2:	60fb      	str	r3, [r7, #12]
 80004c4:	68fb      	ldr	r3, [r7, #12]
 80004c6:	f043 6380 	orr.w	r3, r3, #67108864	; 0x4000000
 80004ca:	60fb      	str	r3, [r7, #12]
 80004cc:	4a04      	ldr	r2, [pc, #16]	; (80004e0 <HAL_MspInit+0x60>)
 80004ce:	68fb      	ldr	r3, [r7, #12]
 80004d0:	6053      	str	r3, [r2, #4]

  /* USER CODE BEGIN MspInit 1 */

  /* USER CODE END MspInit 1 */
}
 80004d2:	bf00      	nop
 80004d4:	3714      	adds	r7, #20
 80004d6:	46bd      	mov	sp, r7
 80004d8:	bc80      	pop	{r7}
 80004da:	4770      	bx	lr
 80004dc:	40021000 	.word	0x40021000
 80004e0:	40010000 	.word	0x40010000

080004e4 <NMI_Handler>:
/******************************************************************************/
/**
  * @brief This function handles Non maskable interrupt.
  */
void NMI_Handler(void)
{
 80004e4:	b480      	push	{r7}
 80004e6:	af00      	add	r7, sp, #0

  /* USER CODE END NonMaskableInt_IRQn 0 */
  /* USER CODE BEGIN NonMaskableInt_IRQn 1 */

  /* USER CODE END NonMaskableInt_IRQn 1 */
}
 80004e8:	bf00      	nop
 80004ea:	46bd      	mov	sp, r7
 80004ec:	bc80      	pop	{r7}
 80004ee:	4770      	bx	lr

080004f0 <HardFault_Handler>:

/**
  * @brief This function handles Hard fault interrupt.
  */
void HardFault_Handler(void)
{
 80004f0:	b480      	push	{r7}
 80004f2:	af00      	add	r7, sp, #0
  /* USER CODE BEGIN HardFault_IRQn 0 */

  /* USER CODE END HardFault_IRQn 0 */
  while (1)
 80004f4:	e7fe      	b.n	80004f4 <HardFault_Handler+0x4>

080004f6 <MemManage_Handler>:

/**
  * @brief This function handles Memory management fault.
  */
void MemManage_Handler(void)
{
 80004f6:	b480      	push	{r7}
 80004f8:	af00      	add	r7, sp, #0
  /* USER CODE BEGIN MemoryManagement_IRQn 0 */

  /* USER CODE END MemoryManagement_IRQn 0 */
  while (1)
 80004fa:	e7fe      	b.n	80004fa <MemManage_Handler+0x4>

080004fc <BusFault_Handler>:

/**
  * @brief This function handles Prefetch fault, memory access fault.
  */
void BusFault_Handler(void)
{
 80004fc:	b480      	push	{r7}
 80004fe:	af00      	add	r7, sp, #0
  /* USER CODE BEGIN BusFault_IRQn 0 */

  /* USER CODE END BusFault_IRQn 0 */
  while (1)
 8000500:	e7fe      	b.n	8000500 <BusFault_Handler+0x4>

08000502 <UsageFault_Handler>:

/**
  * @brief This function handles Undefined instruction or illegal state.
  */
void UsageFault_Handler(void)
{
 8000502:	b480      	push	{r7}
 8000504:	af00      	add	r7, sp, #0
  /* USER CODE BEGIN UsageFault_IRQn 0 */

  /* USER CODE END UsageFault_IRQn 0 */
  while (1)
 8000506:	e7fe      	b.n	8000506 <UsageFault_Handler+0x4>

08000508 <SVC_Handler>:

/**
  * @brief This function handles System service call via SWI instruction.
  */
void SVC_Handler(void)
{
 8000508:	b480      	push	{r7}
 800050a:	af00      	add	r7, sp, #0

  /* USER CODE END SVCall_IRQn 0 */
  /* USER CODE BEGIN SVCall_IRQn 1 */

  /* USER CODE END SVCall_IRQn 1 */
}
 800050c:	bf00      	nop
 800050e:	46bd      	mov	sp, r7
 8000510:	bc80      	pop	{r7}
 8000512:	4770      	bx	lr

08000514 <DebugMon_Handler>:

/**
  * @brief This function handles Debug monitor.
  */
void DebugMon_Handler(void)
{
 8000514:	b480      	push	{r7}
 8000516:	af00      	add	r7, sp, #0

  /* USER CODE END DebugMonitor_IRQn 0 */
  /* USER CODE BEGIN DebugMonitor_IRQn 1 */

  /* USER CODE END DebugMonitor_IRQn 1 */
}
 8000518:	bf00      	nop
 800051a:	46bd      	mov	sp, r7
 800051c:	bc80      	pop	{r7}
 800051e:	4770      	bx	lr

08000520 <PendSV_Handler>:

/**
  * @brief This function handles Pendable request for system service.
  */
void PendSV_Handler(void)
{
 8000520:	b480      	push	{r7}
 8000522:	af00      	add	r7, sp, #0

  /* USER CODE END PendSV_IRQn 0 */
  /* USER CODE BEGIN PendSV_IRQn 1 */

  /* USER CODE END PendSV_IRQn 1 */
}
 8000524:	bf00      	nop
 8000526:	46bd      	mov	sp, r7
 8000528:	bc80      	pop	{r7}
 800052a:	4770      	bx	lr

0800052c <SysTick_Handler>:

/**
  * @brief This function handles System tick timer.
  */
void SysTick_Handler(void)
{
 800052c:	b580      	push	{r7, lr}
 800052e:	af00      	add	r7, sp, #0
  /* USER CODE BEGIN SysTick_IRQn 0 */

  /* USER CODE END SysTick_IRQn 0 */
  HAL_IncTick();
 8000530:	f000 f874 	bl	800061c <HAL_IncTick>
  /* USER CODE BEGIN SysTick_IRQn 1 */

  /* USER CODE END SysTick_IRQn 1 */
}
 8000534:	bf00      	nop
 8000536:	bd80      	pop	{r7, pc}

08000538 <SystemInit>:
  * @note   This function should be used only after reset.
  * @param  None
  * @retval None
  */
void SystemInit (void)
{
 8000538:	b480      	push	{r7}
 800053a:	af00      	add	r7, sp, #0

  /* Configure the Vector Table location -------------------------------------*/
#if defined(USER_VECT_TAB_ADDRESS)
  SCB->VTOR = VECT_TAB_BASE_ADDRESS | VECT_TAB_OFFSET; /* Vector Table Relocation in Internal SRAM. */
#endif /* USER_VECT_TAB_ADDRESS */
}
 800053c:	bf00      	nop
 800053e:	46bd      	mov	sp, r7
 8000540:	bc80      	pop	{r7}
 8000542:	4770      	bx	lr

08000544 <Reset_Handler>:
  .weak Reset_Handler
  .type Reset_Handler, %function
Reset_Handler:

/* Copy the data segment initializers from flash to SRAM */
  ldr r0, =_sdata
 8000544:	480c      	ldr	r0, [pc, #48]	; (8000578 <LoopFillZerobss+0x12>)
  ldr r1, =_edata
 8000546:	490d      	ldr	r1, [pc, #52]	; (800057c <LoopFillZerobss+0x16>)
  ldr r2, =_sidata
 8000548:	4a0d      	ldr	r2, [pc, #52]	; (8000580 <LoopFillZerobss+0x1a>)
  movs r3, #0
 800054a:	2300      	movs	r3, #0
  b LoopCopyDataInit
 800054c:	e002      	b.n	8000554 <LoopCopyDataInit>

0800054e <CopyDataInit>:

CopyDataInit:
  ldr r4, [r2, r3]
 800054e:	58d4      	ldr	r4, [r2, r3]
  str r4, [r0, r3]
 8000550:	50c4      	str	r4, [r0, r3]
  adds r3, r3, #4
 8000552:	3304      	adds	r3, #4

08000554 <LoopCopyDataInit>:

LoopCopyDataInit:
  adds r4, r0, r3
 8000554:	18c4      	adds	r4, r0, r3
  cmp r4, r1
 8000556:	428c      	cmp	r4, r1
  bcc CopyDataInit
 8000558:	d3f9      	bcc.n	800054e <CopyDataInit>
  
/* Zero fill the bss segment. */
  ldr r2, =_sbss
 800055a:	4a0a      	ldr	r2, [pc, #40]	; (8000584 <LoopFillZerobss+0x1e>)
  ldr r4, =_ebss
 800055c:	4c0a      	ldr	r4, [pc, #40]	; (8000588 <LoopFillZerobss+0x22>)
  movs r3, #0
 800055e:	2300      	movs	r3, #0
  b LoopFillZerobss
 8000560:	e001      	b.n	8000566 <LoopFillZerobss>

08000562 <FillZerobss>:

FillZerobss:
  str  r3, [r2]
 8000562:	6013      	str	r3, [r2, #0]
  adds r2, r2, #4
 8000564:	3204      	adds	r2, #4

08000566 <LoopFillZerobss>:

LoopFillZerobss:
  cmp r2, r4
 8000566:	42a2      	cmp	r2, r4
  bcc FillZerobss
 8000568:	d3fb      	bcc.n	8000562 <FillZerobss>

/* Call the clock system intitialization function.*/
    bl  SystemInit
 800056a:	f7ff ffe5 	bl	8000538 <SystemInit>
/* Call static constructors */
    bl __libc_init_array
 800056e:	f000 fee3 	bl	8001338 <__libc_init_array>
/* Call the application's entry point.*/
  bl main
 8000572:	f7ff fdeb 	bl	800014c <main>
  bx lr
 8000576:	4770      	bx	lr
  ldr r0, =_sdata
 8000578:	20000000 	.word	0x20000000
  ldr r1, =_edata
 800057c:	20000018 	.word	0x20000018
  ldr r2, =_sidata
 8000580:	080013dc 	.word	0x080013dc
  ldr r2, =_sbss
 8000584:	20000018 	.word	0x20000018
  ldr r4, =_ebss
 8000588:	20000038 	.word	0x20000038

0800058c <ADC1_2_IRQHandler>:
 * @retval : None
*/
    .section .text.Default_Handler,"ax",%progbits
Default_Handler:
Infinite_Loop:
  b Infinite_Loop
 800058c:	e7fe      	b.n	800058c <ADC1_2_IRQHandler>
	...

08000590 <HAL_Init>:
  *         need to ensure that the SysTick time base is always set to 1 millisecond
  *         to have correct HAL operation.
  * @retval HAL status
  */
HAL_StatusTypeDef HAL_Init(void)
{
 8000590:	b580      	push	{r7, lr}
 8000592:	af00      	add	r7, sp, #0
    defined(STM32F102x6) || defined(STM32F102xB) || \
    defined(STM32F103x6) || defined(STM32F103xB) || defined(STM32F103xE) || defined(STM32F103xG) || \
    defined(STM32F105xC) || defined(STM32F107xC)

  /* Prefetch buffer is not available on value line devices */
  __HAL_FLASH_PREFETCH_BUFFER_ENABLE();
 8000594:	4b08      	ldr	r3, [pc, #32]	; (80005b8 <HAL_Init+0x28>)
 8000596:	681b      	ldr	r3, [r3, #0]
 8000598:	4a07      	ldr	r2, [pc, #28]	; (80005b8 <HAL_Init+0x28>)
 800059a:	f043 0310 	orr.w	r3, r3, #16
 800059e:	6013      	str	r3, [r2, #0]
#endif
#endif /* PREFETCH_ENABLE */

  /* Set Interrupt Group Priority */
  HAL_NVIC_SetPriorityGrouping(NVIC_PRIORITYGROUP_4);
 80005a0:	2003      	movs	r0, #3
 80005a2:	f000 f929 	bl	80007f8 <HAL_NVIC_SetPriorityGrouping>

  /* Use systick as time base source and configure 1ms tick (default clock after Reset is HSI) */
  HAL_InitTick(TICK_INT_PRIORITY);
 80005a6:	2000      	movs	r0, #0
 80005a8:	f000 f808 	bl	80005bc <HAL_InitTick>

  /* Init the low level hardware */
  HAL_MspInit();
 80005ac:	f7ff ff68 	bl	8000480 <HAL_MspInit>

  /* Return function status */
  return HAL_OK;
 80005b0:	2300      	movs	r3, #0
}
 80005b2:	4618      	mov	r0, r3
 80005b4:	bd80      	pop	{r7, pc}
 80005b6:	bf00      	nop
 80005b8:	40022000 	.word	0x40022000

080005bc <HAL_InitTick>:
  *       implementation  in user file.
  * @param TickPriority Tick interrupt priority.
  * @retval HAL status
  */
__weak HAL_StatusTypeDef HAL_InitTick(uint32_t TickPriority)
{
 80005bc:	b580      	push	{r7, lr}
 80005be:	b082      	sub	sp, #8
 80005c0:	af00      	add	r7, sp, #0
 80005c2:	6078      	str	r0, [r7, #4]
  /* Configure the SysTick to have interrupt in 1ms time basis*/
  if (HAL_SYSTICK_Config(SystemCoreClock / (1000U / uwTickFreq)) > 0U)
 80005c4:	4b12      	ldr	r3, [pc, #72]	; (8000610 <HAL_InitTick+0x54>)
 80005c6:	681a      	ldr	r2, [r3, #0]
 80005c8:	4b12      	ldr	r3, [pc, #72]	; (8000614 <HAL_InitTick+0x58>)
 80005ca:	781b      	ldrb	r3, [r3, #0]
 80005cc:	4619      	mov	r1, r3
 80005ce:	f44f 737a 	mov.w	r3, #1000	; 0x3e8
 80005d2:	fbb3 f3f1 	udiv	r3, r3, r1
 80005d6:	fbb2 f3f3 	udiv	r3, r2, r3
 80005da:	4618      	mov	r0, r3
 80005dc:	f000 f933 	bl	8000846 <HAL_SYSTICK_Config>
 80005e0:	4603      	mov	r3, r0
 80005e2:	2b00      	cmp	r3, #0
 80005e4:	d001      	beq.n	80005ea <HAL_InitTick+0x2e>
  {
    return HAL_ERROR;
 80005e6:	2301      	movs	r3, #1
 80005e8:	e00e      	b.n	8000608 <HAL_InitTick+0x4c>
  }

  /* Configure the SysTick IRQ priority */
  if (TickPriority < (1UL << __NVIC_PRIO_BITS))
 80005ea:	687b      	ldr	r3, [r7, #4]
 80005ec:	2b0f      	cmp	r3, #15
 80005ee:	d80a      	bhi.n	8000606 <HAL_InitTick+0x4a>
  {
    HAL_NVIC_SetPriority(SysTick_IRQn, TickPriority, 0U);
 80005f0:	2200      	movs	r2, #0
 80005f2:	6879      	ldr	r1, [r7, #4]
 80005f4:	f04f 30ff 	mov.w	r0, #4294967295
 80005f8:	f000 f909 	bl	800080e <HAL_NVIC_SetPriority>
    uwTickPrio = TickPriority;
 80005fc:	4a06      	ldr	r2, [pc, #24]	; (8000618 <HAL_InitTick+0x5c>)
 80005fe:	687b      	ldr	r3, [r7, #4]
 8000600:	6013      	str	r3, [r2, #0]
  {
    return HAL_ERROR;
  }

  /* Return function status */
  return HAL_OK;
 8000602:	2300      	movs	r3, #0
 8000604:	e000      	b.n	8000608 <HAL_InitTick+0x4c>
    return HAL_ERROR;
 8000606:	2301      	movs	r3, #1
}
 8000608:	4618      	mov	r0, r3
 800060a:	3708      	adds	r7, #8
 800060c:	46bd      	mov	sp, r7
 800060e:	bd80      	pop	{r7, pc}
 8000610:	2000000c 	.word	0x2000000c
 8000614:	20000014 	.word	0x20000014
 8000618:	20000010 	.word	0x20000010

0800061c <HAL_IncTick>:
  * @note This function is declared as __weak to be overwritten in case of other
  *      implementations in user file.
  * @retval None
  */
__weak void HAL_IncTick(void)
{
 800061c:	b480      	push	{r7}
 800061e:	af00      	add	r7, sp, #0
  uwTick += uwTickFreq;
 8000620:	4b05      	ldr	r3, [pc, #20]	; (8000638 <HAL_IncTick+0x1c>)
 8000622:	781b      	ldrb	r3, [r3, #0]
 8000624:	461a      	mov	r2, r3
 8000626:	4b05      	ldr	r3, [pc, #20]	; (800063c <HAL_IncTick+0x20>)
 8000628:	681b      	ldr	r3, [r3, #0]
 800062a:	4413      	add	r3, r2
 800062c:	4a03      	ldr	r2, [pc, #12]	; (800063c <HAL_IncTick+0x20>)
 800062e:	6013      	str	r3, [r2, #0]
}
 8000630:	bf00      	nop
 8000632:	46bd      	mov	sp, r7
 8000634:	bc80      	pop	{r7}
 8000636:	4770      	bx	lr
 8000638:	20000014 	.word	0x20000014
 800063c:	20000034 	.word	0x20000034

08000640 <HAL_GetTick>:
  * @note  This function is declared as __weak to be overwritten in case of other
  *       implementations in user file.
  * @retval tick value
  */
__weak uint32_t HAL_GetTick(void)
{
 8000640:	b480      	push	{r7}
 8000642:	af00      	add	r7, sp, #0
  return uwTick;
 8000644:	4b02      	ldr	r3, [pc, #8]	; (8000650 <HAL_GetTick+0x10>)
 8000646:	681b      	ldr	r3, [r3, #0]
}
 8000648:	4618      	mov	r0, r3
 800064a:	46bd      	mov	sp, r7
 800064c:	bc80      	pop	{r7}
 800064e:	4770      	bx	lr
 8000650:	20000034 	.word	0x20000034

08000654 <HAL_Delay>:
  *       implementations in user file.
  * @param Delay specifies the delay time length, in milliseconds.
  * @retval None
  */
__weak void HAL_Delay(uint32_t Delay)
{
 8000654:	b580      	push	{r7, lr}
 8000656:	b084      	sub	sp, #16
 8000658:	af00      	add	r7, sp, #0
 800065a:	6078      	str	r0, [r7, #4]
  uint32_t tickstart = HAL_GetTick();
 800065c:	f7ff fff0 	bl	8000640 <HAL_GetTick>
 8000660:	60b8      	str	r0, [r7, #8]
  uint32_t wait = Delay;
 8000662:	687b      	ldr	r3, [r7, #4]
 8000664:	60fb      	str	r3, [r7, #12]

  /* Add a freq to guarantee minimum wait */
  if (wait < HAL_MAX_DELAY)
 8000666:	68fb      	ldr	r3, [r7, #12]
 8000668:	f1b3 3fff 	cmp.w	r3, #4294967295
 800066c:	d005      	beq.n	800067a <HAL_Delay+0x26>
  {
    wait += (uint32_t)(uwTickFreq);
 800066e:	4b09      	ldr	r3, [pc, #36]	; (8000694 <HAL_Delay+0x40>)
 8000670:	781b      	ldrb	r3, [r3, #0]
 8000672:	461a      	mov	r2, r3
 8000674:	68fb      	ldr	r3, [r7, #12]
 8000676:	4413      	add	r3, r2
 8000678:	60fb      	str	r3, [r7, #12]
  }

  while ((HAL_GetTick() - tickstart) < wait)
 800067a:	bf00      	nop
 800067c:	f7ff ffe0 	bl	8000640 <HAL_GetTick>
 8000680:	4602      	mov	r2, r0
 8000682:	68bb      	ldr	r3, [r7, #8]
 8000684:	1ad3      	subs	r3, r2, r3
 8000686:	68fa      	ldr	r2, [r7, #12]
 8000688:	429a      	cmp	r2, r3
 800068a:	d8f7      	bhi.n	800067c <HAL_Delay+0x28>
  {
  }
}
 800068c:	bf00      	nop
 800068e:	3710      	adds	r7, #16
 8000690:	46bd      	mov	sp, r7
 8000692:	bd80      	pop	{r7, pc}
 8000694:	20000014 	.word	0x20000014

08000698 <__NVIC_SetPriorityGrouping>:
           In case of a conflict between priority grouping and available
           priority bits (__NVIC_PRIO_BITS), the smallest possible priority group is set.
  \param [in]      PriorityGroup  Priority grouping field.
 */
__STATIC_INLINE void __NVIC_SetPriorityGrouping(uint32_t PriorityGroup)
{
 8000698:	b480      	push	{r7}
 800069a:	b085      	sub	sp, #20
 800069c:	af00      	add	r7, sp, #0
 800069e:	6078      	str	r0, [r7, #4]
  uint32_t reg_value;
  uint32_t PriorityGroupTmp = (PriorityGroup & (uint32_t)0x07UL);             /* only values 0..7 are used          */
 80006a0:	687b      	ldr	r3, [r7, #4]
 80006a2:	f003 0307 	and.w	r3, r3, #7
 80006a6:	60fb      	str	r3, [r7, #12]

  reg_value  =  SCB->AIRCR;                                                   /* read old register configuration    */
 80006a8:	4b0c      	ldr	r3, [pc, #48]	; (80006dc <__NVIC_SetPriorityGrouping+0x44>)
 80006aa:	68db      	ldr	r3, [r3, #12]
 80006ac:	60bb      	str	r3, [r7, #8]
  reg_value &= ~((uint32_t)(SCB_AIRCR_VECTKEY_Msk | SCB_AIRCR_PRIGROUP_Msk)); /* clear bits to change               */
 80006ae:	68ba      	ldr	r2, [r7, #8]
 80006b0:	f64f 03ff 	movw	r3, #63743	; 0xf8ff
 80006b4:	4013      	ands	r3, r2
 80006b6:	60bb      	str	r3, [r7, #8]
  reg_value  =  (reg_value                                   |
                ((uint32_t)0x5FAUL << SCB_AIRCR_VECTKEY_Pos) |
                (PriorityGroupTmp << SCB_AIRCR_PRIGROUP_Pos) );               /* Insert write key and priority group */
 80006b8:	68fb      	ldr	r3, [r7, #12]
 80006ba:	021a      	lsls	r2, r3, #8
                ((uint32_t)0x5FAUL << SCB_AIRCR_VECTKEY_Pos) |
 80006bc:	68bb      	ldr	r3, [r7, #8]
 80006be:	4313      	orrs	r3, r2
  reg_value  =  (reg_value                                   |
 80006c0:	f043 63bf 	orr.w	r3, r3, #100139008	; 0x5f80000
 80006c4:	f443 3300 	orr.w	r3, r3, #131072	; 0x20000
 80006c8:	60bb      	str	r3, [r7, #8]
  SCB->AIRCR =  reg_value;
 80006ca:	4a04      	ldr	r2, [pc, #16]	; (80006dc <__NVIC_SetPriorityGrouping+0x44>)
 80006cc:	68bb      	ldr	r3, [r7, #8]
 80006ce:	60d3      	str	r3, [r2, #12]
}
 80006d0:	bf00      	nop
 80006d2:	3714      	adds	r7, #20
 80006d4:	46bd      	mov	sp, r7
 80006d6:	bc80      	pop	{r7}
 80006d8:	4770      	bx	lr
 80006da:	bf00      	nop
 80006dc:	e000ed00 	.word	0xe000ed00

080006e0 <__NVIC_GetPriorityGrouping>:
  \brief   Get Priority Grouping
  \details Reads the priority grouping field from the NVIC Interrupt Controller.
  \return                Priority grouping field (SCB->AIRCR [10:8] PRIGROUP field).
 */
__STATIC_INLINE uint32_t __NVIC_GetPriorityGrouping(void)
{
 80006e0:	b480      	push	{r7}
 80006e2:	af00      	add	r7, sp, #0
  return ((uint32_t)((SCB->AIRCR & SCB_AIRCR_PRIGROUP_Msk) >> SCB_AIRCR_PRIGROUP_Pos));
 80006e4:	4b04      	ldr	r3, [pc, #16]	; (80006f8 <__NVIC_GetPriorityGrouping+0x18>)
 80006e6:	68db      	ldr	r3, [r3, #12]
 80006e8:	0a1b      	lsrs	r3, r3, #8
 80006ea:	f003 0307 	and.w	r3, r3, #7
}
 80006ee:	4618      	mov	r0, r3
 80006f0:	46bd      	mov	sp, r7
 80006f2:	bc80      	pop	{r7}
 80006f4:	4770      	bx	lr
 80006f6:	bf00      	nop
 80006f8:	e000ed00 	.word	0xe000ed00

080006fc <__NVIC_SetPriority>:
  \param [in]      IRQn  Interrupt number.
  \param [in]  priority  Priority to set.
  \note    The priority cannot be set for every processor exception.
 */
__STATIC_INLINE void __NVIC_SetPriority(IRQn_Type IRQn, uint32_t priority)
{
 80006fc:	b480      	push	{r7}
 80006fe:	b083      	sub	sp, #12
 8000700:	af00      	add	r7, sp, #0
 8000702:	4603      	mov	r3, r0
 8000704:	6039      	str	r1, [r7, #0]
 8000706:	71fb      	strb	r3, [r7, #7]
  if ((int32_t)(IRQn) >= 0)
 8000708:	f997 3007 	ldrsb.w	r3, [r7, #7]
 800070c:	2b00      	cmp	r3, #0
 800070e:	db0a      	blt.n	8000726 <__NVIC_SetPriority+0x2a>
  {
    NVIC->IP[((uint32_t)IRQn)]               = (uint8_t)((priority << (8U - __NVIC_PRIO_BITS)) & (uint32_t)0xFFUL);
 8000710:	683b      	ldr	r3, [r7, #0]
 8000712:	b2da      	uxtb	r2, r3
 8000714:	490c      	ldr	r1, [pc, #48]	; (8000748 <__NVIC_SetPriority+0x4c>)
 8000716:	f997 3007 	ldrsb.w	r3, [r7, #7]
 800071a:	0112      	lsls	r2, r2, #4
 800071c:	b2d2      	uxtb	r2, r2
 800071e:	440b      	add	r3, r1
 8000720:	f883 2300 	strb.w	r2, [r3, #768]	; 0x300
  }
  else
  {
    SCB->SHP[(((uint32_t)IRQn) & 0xFUL)-4UL] = (uint8_t)((priority << (8U - __NVIC_PRIO_BITS)) & (uint32_t)0xFFUL);
  }
}
 8000724:	e00a      	b.n	800073c <__NVIC_SetPriority+0x40>
    SCB->SHP[(((uint32_t)IRQn) & 0xFUL)-4UL] = (uint8_t)((priority << (8U - __NVIC_PRIO_BITS)) & (uint32_t)0xFFUL);
 8000726:	683b      	ldr	r3, [r7, #0]
 8000728:	b2da      	uxtb	r2, r3
 800072a:	4908      	ldr	r1, [pc, #32]	; (800074c <__NVIC_SetPriority+0x50>)
 800072c:	79fb      	ldrb	r3, [r7, #7]
 800072e:	f003 030f 	and.w	r3, r3, #15
 8000732:	3b04      	subs	r3, #4
 8000734:	0112      	lsls	r2, r2, #4
 8000736:	b2d2      	uxtb	r2, r2
 8000738:	440b      	add	r3, r1
 800073a:	761a      	strb	r2, [r3, #24]
}
 800073c:	bf00      	nop
 800073e:	370c      	adds	r7, #12
 8000740:	46bd      	mov	sp, r7
 8000742:	bc80      	pop	{r7}
 8000744:	4770      	bx	lr
 8000746:	bf00      	nop
 8000748:	e000e100 	.word	0xe000e100
 800074c:	e000ed00 	.word	0xe000ed00

08000750 <NVIC_EncodePriority>:
  \param [in]   PreemptPriority  Preemptive priority value (starting from 0).
  \param [in]       SubPriority  Subpriority value (starting from 0).
  \return                        Encoded priority. Value can be used in the function \ref NVIC_SetPriority().
 */
__STATIC_INLINE uint32_t NVIC_EncodePriority (uint32_t PriorityGroup, uint32_t PreemptPriority, uint32_t SubPriority)
{
 8000750:	b480      	push	{r7}
 8000752:	b089      	sub	sp, #36	; 0x24
 8000754:	af00      	add	r7, sp, #0
 8000756:	60f8      	str	r0, [r7, #12]
 8000758:	60b9      	str	r1, [r7, #8]
 800075a:	607a      	str	r2, [r7, #4]
  uint32_t PriorityGroupTmp = (PriorityGroup & (uint32_t)0x07UL);   /* only values 0..7 are used          */
 800075c:	68fb      	ldr	r3, [r7, #12]
 800075e:	f003 0307 	and.w	r3, r3, #7
 8000762:	61fb      	str	r3, [r7, #28]
  uint32_t PreemptPriorityBits;
  uint32_t SubPriorityBits;

  PreemptPriorityBits = ((7UL - PriorityGroupTmp) > (uint32_t)(__NVIC_PRIO_BITS)) ? (uint32_t)(__NVIC_PRIO_BITS) : (uint32_t)(7UL - PriorityGroupTmp);
 8000764:	69fb      	ldr	r3, [r7, #28]
 8000766:	f1c3 0307 	rsb	r3, r3, #7
 800076a:	2b04      	cmp	r3, #4
 800076c:	bf28      	it	cs
 800076e:	2304      	movcs	r3, #4
 8000770:	61bb      	str	r3, [r7, #24]
  SubPriorityBits     = ((PriorityGroupTmp + (uint32_t)(__NVIC_PRIO_BITS)) < (uint32_t)7UL) ? (uint32_t)0UL : (uint32_t)((PriorityGroupTmp - 7UL) + (uint32_t)(__NVIC_PRIO_BITS));
 8000772:	69fb      	ldr	r3, [r7, #28]
 8000774:	3304      	adds	r3, #4
 8000776:	2b06      	cmp	r3, #6
 8000778:	d902      	bls.n	8000780 <NVIC_EncodePriority+0x30>
 800077a:	69fb      	ldr	r3, [r7, #28]
 800077c:	3b03      	subs	r3, #3
 800077e:	e000      	b.n	8000782 <NVIC_EncodePriority+0x32>
 8000780:	2300      	movs	r3, #0
 8000782:	617b      	str	r3, [r7, #20]

  return (
           ((PreemptPriority & (uint32_t)((1UL << (PreemptPriorityBits)) - 1UL)) << SubPriorityBits) |
 8000784:	f04f 32ff 	mov.w	r2, #4294967295
 8000788:	69bb      	ldr	r3, [r7, #24]
 800078a:	fa02 f303 	lsl.w	r3, r2, r3
 800078e:	43da      	mvns	r2, r3
 8000790:	68bb      	ldr	r3, [r7, #8]
 8000792:	401a      	ands	r2, r3
 8000794:	697b      	ldr	r3, [r7, #20]
 8000796:	409a      	lsls	r2, r3
           ((SubPriority     & (uint32_t)((1UL << (SubPriorityBits    )) - 1UL)))
 8000798:	f04f 31ff 	mov.w	r1, #4294967295
 800079c:	697b      	ldr	r3, [r7, #20]
 800079e:	fa01 f303 	lsl.w	r3, r1, r3
 80007a2:	43d9      	mvns	r1, r3
 80007a4:	687b      	ldr	r3, [r7, #4]
 80007a6:	400b      	ands	r3, r1
           ((PreemptPriority & (uint32_t)((1UL << (PreemptPriorityBits)) - 1UL)) << SubPriorityBits) |
 80007a8:	4313      	orrs	r3, r2
         );
}
 80007aa:	4618      	mov	r0, r3
 80007ac:	3724      	adds	r7, #36	; 0x24
 80007ae:	46bd      	mov	sp, r7
 80007b0:	bc80      	pop	{r7}
 80007b2:	4770      	bx	lr

080007b4 <SysTick_Config>:
  \note    When the variable <b>__Vendor_SysTickConfig</b> is set to 1, then the
           function <b>SysTick_Config</b> is not included. In this case, the file <b><i>device</i>.h</b>
           must contain a vendor-specific implementation of this function.
 */
__STATIC_INLINE uint32_t SysTick_Config(uint32_t ticks)
{
 80007b4:	b580      	push	{r7, lr}
 80007b6:	b082      	sub	sp, #8
 80007b8:	af00      	add	r7, sp, #0
 80007ba:	6078      	str	r0, [r7, #4]
  if ((ticks - 1UL) > SysTick_LOAD_RELOAD_Msk)
 80007bc:	687b      	ldr	r3, [r7, #4]
 80007be:	3b01      	subs	r3, #1
 80007c0:	f1b3 7f80 	cmp.w	r3, #16777216	; 0x1000000
 80007c4:	d301      	bcc.n	80007ca <SysTick_Config+0x16>
  {
    return (1UL);                                                   /* Reload value impossible */
 80007c6:	2301      	movs	r3, #1
 80007c8:	e00f      	b.n	80007ea <SysTick_Config+0x36>
  }

  SysTick->LOAD  = (uint32_t)(ticks - 1UL);                         /* set reload register */
 80007ca:	4a0a      	ldr	r2, [pc, #40]	; (80007f4 <SysTick_Config+0x40>)
 80007cc:	687b      	ldr	r3, [r7, #4]
 80007ce:	3b01      	subs	r3, #1
 80007d0:	6053      	str	r3, [r2, #4]
  NVIC_SetPriority (SysTick_IRQn, (1UL << __NVIC_PRIO_BITS) - 1UL); /* set Priority for Systick Interrupt */
 80007d2:	210f      	movs	r1, #15
 80007d4:	f04f 30ff 	mov.w	r0, #4294967295
 80007d8:	f7ff ff90 	bl	80006fc <__NVIC_SetPriority>
  SysTick->VAL   = 0UL;                                             /* Load the SysTick Counter Value */
 80007dc:	4b05      	ldr	r3, [pc, #20]	; (80007f4 <SysTick_Config+0x40>)
 80007de:	2200      	movs	r2, #0
 80007e0:	609a      	str	r2, [r3, #8]
  SysTick->CTRL  = SysTick_CTRL_CLKSOURCE_Msk |
 80007e2:	4b04      	ldr	r3, [pc, #16]	; (80007f4 <SysTick_Config+0x40>)
 80007e4:	2207      	movs	r2, #7
 80007e6:	601a      	str	r2, [r3, #0]
                   SysTick_CTRL_TICKINT_Msk   |
                   SysTick_CTRL_ENABLE_Msk;                         /* Enable SysTick IRQ and SysTick Timer */
  return (0UL);                                                     /* Function successful */
 80007e8:	2300      	movs	r3, #0
}
 80007ea:	4618      	mov	r0, r3
 80007ec:	3708      	adds	r7, #8
 80007ee:	46bd      	mov	sp, r7
 80007f0:	bd80      	pop	{r7, pc}
 80007f2:	bf00      	nop
 80007f4:	e000e010 	.word	0xe000e010

080007f8 <HAL_NVIC_SetPriorityGrouping>:
  * @note   When the NVIC_PriorityGroup_0 is selected, IRQ preemption is no more possible. 
  *         The pending IRQ priority will be managed only by the subpriority. 
  * @retval None
  */
void HAL_NVIC_SetPriorityGrouping(uint32_t PriorityGroup)
{
 80007f8:	b580      	push	{r7, lr}
 80007fa:	b082      	sub	sp, #8
 80007fc:	af00      	add	r7, sp, #0
 80007fe:	6078      	str	r0, [r7, #4]
  /* Check the parameters */
  assert_param(IS_NVIC_PRIORITY_GROUP(PriorityGroup));
  
  /* Set the PRIGROUP[10:8] bits according to the PriorityGroup parameter value */
  NVIC_SetPriorityGrouping(PriorityGroup);
 8000800:	6878      	ldr	r0, [r7, #4]
 8000802:	f7ff ff49 	bl	8000698 <__NVIC_SetPriorityGrouping>
}
 8000806:	bf00      	nop
 8000808:	3708      	adds	r7, #8
 800080a:	46bd      	mov	sp, r7
 800080c:	bd80      	pop	{r7, pc}

0800080e <HAL_NVIC_SetPriority>:
  *         This parameter can be a value between 0 and 15
  *         A lower priority value indicates a higher priority.          
  * @retval None
  */
void HAL_NVIC_SetPriority(IRQn_Type IRQn, uint32_t PreemptPriority, uint32_t SubPriority)
{ 
 800080e:	b580      	push	{r7, lr}
 8000810:	b086      	sub	sp, #24
 8000812:	af00      	add	r7, sp, #0
 8000814:	4603      	mov	r3, r0
 8000816:	60b9      	str	r1, [r7, #8]
 8000818:	607a      	str	r2, [r7, #4]
 800081a:	73fb      	strb	r3, [r7, #15]
  uint32_t prioritygroup = 0x00U;
 800081c:	2300      	movs	r3, #0
 800081e:	617b      	str	r3, [r7, #20]
  
  /* Check the parameters */
  assert_param(IS_NVIC_SUB_PRIORITY(SubPriority));
  assert_param(IS_NVIC_PREEMPTION_PRIORITY(PreemptPriority));
  
  prioritygroup = NVIC_GetPriorityGrouping();
 8000820:	f7ff ff5e 	bl	80006e0 <__NVIC_GetPriorityGrouping>
 8000824:	6178      	str	r0, [r7, #20]
  
  NVIC_SetPriority(IRQn, NVIC_EncodePriority(prioritygroup, PreemptPriority, SubPriority));
 8000826:	687a      	ldr	r2, [r7, #4]
 8000828:	68b9      	ldr	r1, [r7, #8]
 800082a:	6978      	ldr	r0, [r7, #20]
 800082c:	f7ff ff90 	bl	8000750 <NVIC_EncodePriority>
 8000830:	4602      	mov	r2, r0
 8000832:	f997 300f 	ldrsb.w	r3, [r7, #15]
 8000836:	4611      	mov	r1, r2
 8000838:	4618      	mov	r0, r3
 800083a:	f7ff ff5f 	bl	80006fc <__NVIC_SetPriority>
}
 800083e:	bf00      	nop
 8000840:	3718      	adds	r7, #24
 8000842:	46bd      	mov	sp, r7
 8000844:	bd80      	pop	{r7, pc}

08000846 <HAL_SYSTICK_Config>:
  * @param  TicksNumb: Specifies the ticks Number of ticks between two interrupts.
  * @retval status:  - 0  Function succeeded.
  *                  - 1  Function failed.
  */
uint32_t HAL_SYSTICK_Config(uint32_t TicksNumb)
{
 8000846:	b580      	push	{r7, lr}
 8000848:	b082      	sub	sp, #8
 800084a:	af00      	add	r7, sp, #0
 800084c:	6078      	str	r0, [r7, #4]
   return SysTick_Config(TicksNumb);
 800084e:	6878      	ldr	r0, [r7, #4]
 8000850:	f7ff ffb0 	bl	80007b4 <SysTick_Config>
 8000854:	4603      	mov	r3, r0
}
 8000856:	4618      	mov	r0, r3
 8000858:	3708      	adds	r7, #8
 800085a:	46bd      	mov	sp, r7
 800085c:	bd80      	pop	{r7, pc}
	...

08000860 <HAL_GPIO_Init>:
  * @param  GPIO_Init: pointer to a GPIO_InitTypeDef structure that contains
  *         the configuration information for the specified GPIO peripheral.
  * @retval None
  */
void HAL_GPIO_Init(GPIO_TypeDef  *GPIOx, GPIO_InitTypeDef *GPIO_Init)
{
 8000860:	b480      	push	{r7}
 8000862:	b08b      	sub	sp, #44	; 0x2c
 8000864:	af00      	add	r7, sp, #0
 8000866:	6078      	str	r0, [r7, #4]
 8000868:	6039      	str	r1, [r7, #0]
  uint32_t position = 0x00u;
 800086a:	2300      	movs	r3, #0
 800086c:	627b      	str	r3, [r7, #36]	; 0x24
  uint32_t ioposition;
  uint32_t iocurrent;
  uint32_t temp;
  uint32_t config = 0x00u;
 800086e:	2300      	movs	r3, #0
 8000870:	623b      	str	r3, [r7, #32]
  assert_param(IS_GPIO_ALL_INSTANCE(GPIOx));
  assert_param(IS_GPIO_PIN(GPIO_Init->Pin));
  assert_param(IS_GPIO_MODE(GPIO_Init->Mode));

  /* Configure the port pins */
  while (((GPIO_Init->Pin) >> position) != 0x00u)
 8000872:	e121      	b.n	8000ab8 <HAL_GPIO_Init+0x258>
  {
    /* Get the IO position */
    ioposition = (0x01uL << position);
 8000874:	2201      	movs	r2, #1
 8000876:	6a7b      	ldr	r3, [r7, #36]	; 0x24
 8000878:	fa02 f303 	lsl.w	r3, r2, r3
 800087c:	61fb      	str	r3, [r7, #28]

    /* Get the current IO position */
    iocurrent = (uint32_t)(GPIO_Init->Pin) & ioposition;
 800087e:	683b      	ldr	r3, [r7, #0]
 8000880:	681b      	ldr	r3, [r3, #0]
 8000882:	69fa      	ldr	r2, [r7, #28]
 8000884:	4013      	ands	r3, r2
 8000886:	61bb      	str	r3, [r7, #24]

    if (iocurrent == ioposition)
 8000888:	69ba      	ldr	r2, [r7, #24]
 800088a:	69fb      	ldr	r3, [r7, #28]
 800088c:	429a      	cmp	r2, r3
 800088e:	f040 8110 	bne.w	8000ab2 <HAL_GPIO_Init+0x252>
    {
      /* Check the Alternate function parameters */
      assert_param(IS_GPIO_AF_INSTANCE(GPIOx));

      /* Based on the required mode, filling config variable with MODEy[1:0] and CNFy[3:2] corresponding bits */
      switch (GPIO_Init->Mode)
 8000892:	683b      	ldr	r3, [r7, #0]
 8000894:	685b      	ldr	r3, [r3, #4]
 8000896:	2b12      	cmp	r3, #18
 8000898:	d034      	beq.n	8000904 <HAL_GPIO_Init+0xa4>
 800089a:	2b12      	cmp	r3, #18
 800089c:	d80d      	bhi.n	80008ba <HAL_GPIO_Init+0x5a>
 800089e:	2b02      	cmp	r3, #2
 80008a0:	d02b      	beq.n	80008fa <HAL_GPIO_Init+0x9a>
 80008a2:	2b02      	cmp	r3, #2
 80008a4:	d804      	bhi.n	80008b0 <HAL_GPIO_Init+0x50>
 80008a6:	2b00      	cmp	r3, #0
 80008a8:	d031      	beq.n	800090e <HAL_GPIO_Init+0xae>
 80008aa:	2b01      	cmp	r3, #1
 80008ac:	d01c      	beq.n	80008e8 <HAL_GPIO_Init+0x88>
          config = GPIO_CR_MODE_INPUT + GPIO_CR_CNF_ANALOG;
          break;

        /* Parameters are checked with assert_param */
        default:
          break;
 80008ae:	e048      	b.n	8000942 <HAL_GPIO_Init+0xe2>
      switch (GPIO_Init->Mode)
 80008b0:	2b03      	cmp	r3, #3
 80008b2:	d043      	beq.n	800093c <HAL_GPIO_Init+0xdc>
 80008b4:	2b11      	cmp	r3, #17
 80008b6:	d01b      	beq.n	80008f0 <HAL_GPIO_Init+0x90>
          break;
 80008b8:	e043      	b.n	8000942 <HAL_GPIO_Init+0xe2>
      switch (GPIO_Init->Mode)
 80008ba:	4a86      	ldr	r2, [pc, #536]	; (8000ad4 <HAL_GPIO_Init+0x274>)
 80008bc:	4293      	cmp	r3, r2
 80008be:	d026      	beq.n	800090e <HAL_GPIO_Init+0xae>
 80008c0:	4a84      	ldr	r2, [pc, #528]	; (8000ad4 <HAL_GPIO_Init+0x274>)
 80008c2:	4293      	cmp	r3, r2
 80008c4:	d806      	bhi.n	80008d4 <HAL_GPIO_Init+0x74>
 80008c6:	4a84      	ldr	r2, [pc, #528]	; (8000ad8 <HAL_GPIO_Init+0x278>)
 80008c8:	4293      	cmp	r3, r2
 80008ca:	d020      	beq.n	800090e <HAL_GPIO_Init+0xae>
 80008cc:	4a83      	ldr	r2, [pc, #524]	; (8000adc <HAL_GPIO_Init+0x27c>)
 80008ce:	4293      	cmp	r3, r2
 80008d0:	d01d      	beq.n	800090e <HAL_GPIO_Init+0xae>
          break;
 80008d2:	e036      	b.n	8000942 <HAL_GPIO_Init+0xe2>
      switch (GPIO_Init->Mode)
 80008d4:	4a82      	ldr	r2, [pc, #520]	; (8000ae0 <HAL_GPIO_Init+0x280>)
 80008d6:	4293      	cmp	r3, r2
 80008d8:	d019      	beq.n	800090e <HAL_GPIO_Init+0xae>
 80008da:	4a82      	ldr	r2, [pc, #520]	; (8000ae4 <HAL_GPIO_Init+0x284>)
 80008dc:	4293      	cmp	r3, r2
 80008de:	d016      	beq.n	800090e <HAL_GPIO_Init+0xae>
 80008e0:	4a81      	ldr	r2, [pc, #516]	; (8000ae8 <HAL_GPIO_Init+0x288>)
 80008e2:	4293      	cmp	r3, r2
 80008e4:	d013      	beq.n	800090e <HAL_GPIO_Init+0xae>
          break;
 80008e6:	e02c      	b.n	8000942 <HAL_GPIO_Init+0xe2>
          config = GPIO_Init->Speed + GPIO_CR_CNF_GP_OUTPUT_PP;
 80008e8:	683b      	ldr	r3, [r7, #0]
 80008ea:	68db      	ldr	r3, [r3, #12]
 80008ec:	623b      	str	r3, [r7, #32]
          break;
 80008ee:	e028      	b.n	8000942 <HAL_GPIO_Init+0xe2>
          config = GPIO_Init->Speed + GPIO_CR_CNF_GP_OUTPUT_OD;
 80008f0:	683b      	ldr	r3, [r7, #0]
 80008f2:	68db      	ldr	r3, [r3, #12]
 80008f4:	3304      	adds	r3, #4
 80008f6:	623b      	str	r3, [r7, #32]
          break;
 80008f8:	e023      	b.n	8000942 <HAL_GPIO_Init+0xe2>
          config = GPIO_Init->Speed + GPIO_CR_CNF_AF_OUTPUT_PP;
 80008fa:	683b      	ldr	r3, [r7, #0]
 80008fc:	68db      	ldr	r3, [r3, #12]
 80008fe:	3308      	adds	r3, #8
 8000900:	623b      	str	r3, [r7, #32]
          break;
 8000902:	e01e      	b.n	8000942 <HAL_GPIO_Init+0xe2>
          config = GPIO_Init->Speed + GPIO_CR_CNF_AF_OUTPUT_OD;
 8000904:	683b      	ldr	r3, [r7, #0]
 8000906:	68db      	ldr	r3, [r3, #12]
 8000908:	330c      	adds	r3, #12
 800090a:	623b      	str	r3, [r7, #32]
          break;
 800090c:	e019      	b.n	8000942 <HAL_GPIO_Init+0xe2>
          if (GPIO_Init->Pull == GPIO_NOPULL)
 800090e:	683b      	ldr	r3, [r7, #0]
 8000910:	689b      	ldr	r3, [r3, #8]
 8000912:	2b00      	cmp	r3, #0
 8000914:	d102      	bne.n	800091c <HAL_GPIO_Init+0xbc>
            config = GPIO_CR_MODE_INPUT + GPIO_CR_CNF_INPUT_FLOATING;
 8000916:	2304      	movs	r3, #4
 8000918:	623b      	str	r3, [r7, #32]
          break;
 800091a:	e012      	b.n	8000942 <HAL_GPIO_Init+0xe2>
          else if (GPIO_Init->Pull == GPIO_PULLUP)
 800091c:	683b      	ldr	r3, [r7, #0]
 800091e:	689b      	ldr	r3, [r3, #8]
 8000920:	2b01      	cmp	r3, #1
 8000922:	d105      	bne.n	8000930 <HAL_GPIO_Init+0xd0>
            config = GPIO_CR_MODE_INPUT + GPIO_CR_CNF_INPUT_PU_PD;
 8000924:	2308      	movs	r3, #8
 8000926:	623b      	str	r3, [r7, #32]
            GPIOx->BSRR = ioposition;
 8000928:	687b      	ldr	r3, [r7, #4]
 800092a:	69fa      	ldr	r2, [r7, #28]
 800092c:	611a      	str	r2, [r3, #16]
          break;
 800092e:	e008      	b.n	8000942 <HAL_GPIO_Init+0xe2>
            config = GPIO_CR_MODE_INPUT + GPIO_CR_CNF_INPUT_PU_PD;
 8000930:	2308      	movs	r3, #8
 8000932:	623b      	str	r3, [r7, #32]
            GPIOx->BRR = ioposition;
 8000934:	687b      	ldr	r3, [r7, #4]
 8000936:	69fa      	ldr	r2, [r7, #28]
 8000938:	615a      	str	r2, [r3, #20]
          break;
 800093a:	e002      	b.n	8000942 <HAL_GPIO_Init+0xe2>
          config = GPIO_CR_MODE_INPUT + GPIO_CR_CNF_ANALOG;
 800093c:	2300      	movs	r3, #0
 800093e:	623b      	str	r3, [r7, #32]
          break;
 8000940:	bf00      	nop
      }

      /* Check if the current bit belongs to first half or last half of the pin count number
       in order to address CRH or CRL register*/
      configregister = (iocurrent < GPIO_PIN_8) ? &GPIOx->CRL     : &GPIOx->CRH;
 8000942:	69bb      	ldr	r3, [r7, #24]
 8000944:	2bff      	cmp	r3, #255	; 0xff
 8000946:	d801      	bhi.n	800094c <HAL_GPIO_Init+0xec>
 8000948:	687b      	ldr	r3, [r7, #4]
 800094a:	e001      	b.n	8000950 <HAL_GPIO_Init+0xf0>
 800094c:	687b      	ldr	r3, [r7, #4]
 800094e:	3304      	adds	r3, #4
 8000950:	617b      	str	r3, [r7, #20]
      registeroffset = (iocurrent < GPIO_PIN_8) ? (position << 2u) : ((position - 8u) << 2u);
 8000952:	69bb      	ldr	r3, [r7, #24]
 8000954:	2bff      	cmp	r3, #255	; 0xff
 8000956:	d802      	bhi.n	800095e <HAL_GPIO_Init+0xfe>
 8000958:	6a7b      	ldr	r3, [r7, #36]	; 0x24
 800095a:	009b      	lsls	r3, r3, #2
 800095c:	e002      	b.n	8000964 <HAL_GPIO_Init+0x104>
 800095e:	6a7b      	ldr	r3, [r7, #36]	; 0x24
 8000960:	3b08      	subs	r3, #8
 8000962:	009b      	lsls	r3, r3, #2
 8000964:	613b      	str	r3, [r7, #16]

      /* Apply the new configuration of the pin to the register */
      MODIFY_REG((*configregister), ((GPIO_CRL_MODE0 | GPIO_CRL_CNF0) << registeroffset), (config << registeroffset));
 8000966:	697b      	ldr	r3, [r7, #20]
 8000968:	681a      	ldr	r2, [r3, #0]
 800096a:	210f      	movs	r1, #15
 800096c:	693b      	ldr	r3, [r7, #16]
 800096e:	fa01 f303 	lsl.w	r3, r1, r3
 8000972:	43db      	mvns	r3, r3
 8000974:	401a      	ands	r2, r3
 8000976:	6a39      	ldr	r1, [r7, #32]
 8000978:	693b      	ldr	r3, [r7, #16]
 800097a:	fa01 f303 	lsl.w	r3, r1, r3
 800097e:	431a      	orrs	r2, r3
 8000980:	697b      	ldr	r3, [r7, #20]
 8000982:	601a      	str	r2, [r3, #0]

      /*--------------------- EXTI Mode Configuration ------------------------*/
      /* Configure the External Interrupt or event for the current IO */
      if ((GPIO_Init->Mode & EXTI_MODE) == EXTI_MODE)
 8000984:	683b      	ldr	r3, [r7, #0]
 8000986:	685b      	ldr	r3, [r3, #4]
 8000988:	f003 5380 	and.w	r3, r3, #268435456	; 0x10000000
 800098c:	2b00      	cmp	r3, #0
 800098e:	f000 8090 	beq.w	8000ab2 <HAL_GPIO_Init+0x252>
      {
        /* Enable AFIO Clock */
        __HAL_RCC_AFIO_CLK_ENABLE();
 8000992:	4b56      	ldr	r3, [pc, #344]	; (8000aec <HAL_GPIO_Init+0x28c>)
 8000994:	699b      	ldr	r3, [r3, #24]
 8000996:	4a55      	ldr	r2, [pc, #340]	; (8000aec <HAL_GPIO_Init+0x28c>)
 8000998:	f043 0301 	orr.w	r3, r3, #1
 800099c:	6193      	str	r3, [r2, #24]
 800099e:	4b53      	ldr	r3, [pc, #332]	; (8000aec <HAL_GPIO_Init+0x28c>)
 80009a0:	699b      	ldr	r3, [r3, #24]
 80009a2:	f003 0301 	and.w	r3, r3, #1
 80009a6:	60bb      	str	r3, [r7, #8]
 80009a8:	68bb      	ldr	r3, [r7, #8]
        temp = AFIO->EXTICR[position >> 2u];
 80009aa:	4a51      	ldr	r2, [pc, #324]	; (8000af0 <HAL_GPIO_Init+0x290>)
 80009ac:	6a7b      	ldr	r3, [r7, #36]	; 0x24
 80009ae:	089b      	lsrs	r3, r3, #2
 80009b0:	3302      	adds	r3, #2
 80009b2:	f852 3023 	ldr.w	r3, [r2, r3, lsl #2]
 80009b6:	60fb      	str	r3, [r7, #12]
        CLEAR_BIT(temp, (0x0Fu) << (4u * (position & 0x03u)));
 80009b8:	6a7b      	ldr	r3, [r7, #36]	; 0x24
 80009ba:	f003 0303 	and.w	r3, r3, #3
 80009be:	009b      	lsls	r3, r3, #2
 80009c0:	220f      	movs	r2, #15
 80009c2:	fa02 f303 	lsl.w	r3, r2, r3
 80009c6:	43db      	mvns	r3, r3
 80009c8:	68fa      	ldr	r2, [r7, #12]
 80009ca:	4013      	ands	r3, r2
 80009cc:	60fb      	str	r3, [r7, #12]
        SET_BIT(temp, (GPIO_GET_INDEX(GPIOx)) << (4u * (position & 0x03u)));
 80009ce:	687b      	ldr	r3, [r7, #4]
 80009d0:	4a48      	ldr	r2, [pc, #288]	; (8000af4 <HAL_GPIO_Init+0x294>)
 80009d2:	4293      	cmp	r3, r2
 80009d4:	d00d      	beq.n	80009f2 <HAL_GPIO_Init+0x192>
 80009d6:	687b      	ldr	r3, [r7, #4]
 80009d8:	4a47      	ldr	r2, [pc, #284]	; (8000af8 <HAL_GPIO_Init+0x298>)
 80009da:	4293      	cmp	r3, r2
 80009dc:	d007      	beq.n	80009ee <HAL_GPIO_Init+0x18e>
 80009de:	687b      	ldr	r3, [r7, #4]
 80009e0:	4a46      	ldr	r2, [pc, #280]	; (8000afc <HAL_GPIO_Init+0x29c>)
 80009e2:	4293      	cmp	r3, r2
 80009e4:	d101      	bne.n	80009ea <HAL_GPIO_Init+0x18a>
 80009e6:	2302      	movs	r3, #2
 80009e8:	e004      	b.n	80009f4 <HAL_GPIO_Init+0x194>
 80009ea:	2303      	movs	r3, #3
 80009ec:	e002      	b.n	80009f4 <HAL_GPIO_Init+0x194>
 80009ee:	2301      	movs	r3, #1
 80009f0:	e000      	b.n	80009f4 <HAL_GPIO_Init+0x194>
 80009f2:	2300      	movs	r3, #0
 80009f4:	6a7a      	ldr	r2, [r7, #36]	; 0x24
 80009f6:	f002 0203 	and.w	r2, r2, #3
 80009fa:	0092      	lsls	r2, r2, #2
 80009fc:	4093      	lsls	r3, r2
 80009fe:	68fa      	ldr	r2, [r7, #12]
 8000a00:	4313      	orrs	r3, r2
 8000a02:	60fb      	str	r3, [r7, #12]
        AFIO->EXTICR[position >> 2u] = temp;
 8000a04:	493a      	ldr	r1, [pc, #232]	; (8000af0 <HAL_GPIO_Init+0x290>)
 8000a06:	6a7b      	ldr	r3, [r7, #36]	; 0x24
 8000a08:	089b      	lsrs	r3, r3, #2
 8000a0a:	3302      	adds	r3, #2
 8000a0c:	68fa      	ldr	r2, [r7, #12]
 8000a0e:	f841 2023 	str.w	r2, [r1, r3, lsl #2]


        /* Configure the interrupt mask */
        if ((GPIO_Init->Mode & GPIO_MODE_IT) == GPIO_MODE_IT)
 8000a12:	683b      	ldr	r3, [r7, #0]
 8000a14:	685b      	ldr	r3, [r3, #4]
 8000a16:	f403 3380 	and.w	r3, r3, #65536	; 0x10000
 8000a1a:	2b00      	cmp	r3, #0
 8000a1c:	d006      	beq.n	8000a2c <HAL_GPIO_Init+0x1cc>
        {
          SET_BIT(EXTI->IMR, iocurrent);
 8000a1e:	4b38      	ldr	r3, [pc, #224]	; (8000b00 <HAL_GPIO_Init+0x2a0>)
 8000a20:	681a      	ldr	r2, [r3, #0]
 8000a22:	4937      	ldr	r1, [pc, #220]	; (8000b00 <HAL_GPIO_Init+0x2a0>)
 8000a24:	69bb      	ldr	r3, [r7, #24]
 8000a26:	4313      	orrs	r3, r2
 8000a28:	600b      	str	r3, [r1, #0]
 8000a2a:	e006      	b.n	8000a3a <HAL_GPIO_Init+0x1da>
        }
        else
        {
          CLEAR_BIT(EXTI->IMR, iocurrent);
 8000a2c:	4b34      	ldr	r3, [pc, #208]	; (8000b00 <HAL_GPIO_Init+0x2a0>)
 8000a2e:	681a      	ldr	r2, [r3, #0]
 8000a30:	69bb      	ldr	r3, [r7, #24]
 8000a32:	43db      	mvns	r3, r3
 8000a34:	4932      	ldr	r1, [pc, #200]	; (8000b00 <HAL_GPIO_Init+0x2a0>)
 8000a36:	4013      	ands	r3, r2
 8000a38:	600b      	str	r3, [r1, #0]
        }

        /* Configure the event mask */
        if ((GPIO_Init->Mode & GPIO_MODE_EVT) == GPIO_MODE_EVT)
 8000a3a:	683b      	ldr	r3, [r7, #0]
 8000a3c:	685b      	ldr	r3, [r3, #4]
 8000a3e:	f403 3300 	and.w	r3, r3, #131072	; 0x20000
 8000a42:	2b00      	cmp	r3, #0
 8000a44:	d006      	beq.n	8000a54 <HAL_GPIO_Init+0x1f4>
        {
          SET_BIT(EXTI->EMR, iocurrent);
 8000a46:	4b2e      	ldr	r3, [pc, #184]	; (8000b00 <HAL_GPIO_Init+0x2a0>)
 8000a48:	685a      	ldr	r2, [r3, #4]
 8000a4a:	492d      	ldr	r1, [pc, #180]	; (8000b00 <HAL_GPIO_Init+0x2a0>)
 8000a4c:	69bb      	ldr	r3, [r7, #24]
 8000a4e:	4313      	orrs	r3, r2
 8000a50:	604b      	str	r3, [r1, #4]
 8000a52:	e006      	b.n	8000a62 <HAL_GPIO_Init+0x202>
        }
        else
        {
          CLEAR_BIT(EXTI->EMR, iocurrent);
 8000a54:	4b2a      	ldr	r3, [pc, #168]	; (8000b00 <HAL_GPIO_Init+0x2a0>)
 8000a56:	685a      	ldr	r2, [r3, #4]
 8000a58:	69bb      	ldr	r3, [r7, #24]
 8000a5a:	43db      	mvns	r3, r3
 8000a5c:	4928      	ldr	r1, [pc, #160]	; (8000b00 <HAL_GPIO_Init+0x2a0>)
 8000a5e:	4013      	ands	r3, r2
 8000a60:	604b      	str	r3, [r1, #4]
        }

        /* Enable or disable the rising trigger */
        if ((GPIO_Init->Mode & RISING_EDGE) == RISING_EDGE)
 8000a62:	683b      	ldr	r3, [r7, #0]
 8000a64:	685b      	ldr	r3, [r3, #4]
 8000a66:	f403 1380 	and.w	r3, r3, #1048576	; 0x100000
 8000a6a:	2b00      	cmp	r3, #0
 8000a6c:	d006      	beq.n	8000a7c <HAL_GPIO_Init+0x21c>
        {
          SET_BIT(EXTI->RTSR, iocurrent);
 8000a6e:	4b24      	ldr	r3, [pc, #144]	; (8000b00 <HAL_GPIO_Init+0x2a0>)
 8000a70:	689a      	ldr	r2, [r3, #8]
 8000a72:	4923      	ldr	r1, [pc, #140]	; (8000b00 <HAL_GPIO_Init+0x2a0>)
 8000a74:	69bb      	ldr	r3, [r7, #24]
 8000a76:	4313      	orrs	r3, r2
 8000a78:	608b      	str	r3, [r1, #8]
 8000a7a:	e006      	b.n	8000a8a <HAL_GPIO_Init+0x22a>
        }
        else
        {
          CLEAR_BIT(EXTI->RTSR, iocurrent);
 8000a7c:	4b20      	ldr	r3, [pc, #128]	; (8000b00 <HAL_GPIO_Init+0x2a0>)
 8000a7e:	689a      	ldr	r2, [r3, #8]
 8000a80:	69bb      	ldr	r3, [r7, #24]
 8000a82:	43db      	mvns	r3, r3
 8000a84:	491e      	ldr	r1, [pc, #120]	; (8000b00 <HAL_GPIO_Init+0x2a0>)
 8000a86:	4013      	ands	r3, r2
 8000a88:	608b      	str	r3, [r1, #8]
        }

        /* Enable or disable the falling trigger */
        if ((GPIO_Init->Mode & FALLING_EDGE) == FALLING_EDGE)
 8000a8a:	683b      	ldr	r3, [r7, #0]
 8000a8c:	685b      	ldr	r3, [r3, #4]
 8000a8e:	f403 1300 	and.w	r3, r3, #2097152	; 0x200000
 8000a92:	2b00      	cmp	r3, #0
 8000a94:	d006      	beq.n	8000aa4 <HAL_GPIO_Init+0x244>
        {
          SET_BIT(EXTI->FTSR, iocurrent);
 8000a96:	4b1a      	ldr	r3, [pc, #104]	; (8000b00 <HAL_GPIO_Init+0x2a0>)
 8000a98:	68da      	ldr	r2, [r3, #12]
 8000a9a:	4919      	ldr	r1, [pc, #100]	; (8000b00 <HAL_GPIO_Init+0x2a0>)
 8000a9c:	69bb      	ldr	r3, [r7, #24]
 8000a9e:	4313      	orrs	r3, r2
 8000aa0:	60cb      	str	r3, [r1, #12]
 8000aa2:	e006      	b.n	8000ab2 <HAL_GPIO_Init+0x252>
        }
        else
        {
          CLEAR_BIT(EXTI->FTSR, iocurrent);
 8000aa4:	4b16      	ldr	r3, [pc, #88]	; (8000b00 <HAL_GPIO_Init+0x2a0>)
 8000aa6:	68da      	ldr	r2, [r3, #12]
 8000aa8:	69bb      	ldr	r3, [r7, #24]
 8000aaa:	43db      	mvns	r3, r3
 8000aac:	4914      	ldr	r1, [pc, #80]	; (8000b00 <HAL_GPIO_Init+0x2a0>)
 8000aae:	4013      	ands	r3, r2
 8000ab0:	60cb      	str	r3, [r1, #12]
        }
      }
    }

	position++;
 8000ab2:	6a7b      	ldr	r3, [r7, #36]	; 0x24
 8000ab4:	3301      	adds	r3, #1
 8000ab6:	627b      	str	r3, [r7, #36]	; 0x24
  while (((GPIO_Init->Pin) >> position) != 0x00u)
 8000ab8:	683b      	ldr	r3, [r7, #0]
 8000aba:	681a      	ldr	r2, [r3, #0]
 8000abc:	6a7b      	ldr	r3, [r7, #36]	; 0x24
 8000abe:	fa22 f303 	lsr.w	r3, r2, r3
 8000ac2:	2b00      	cmp	r3, #0
 8000ac4:	f47f aed6 	bne.w	8000874 <HAL_GPIO_Init+0x14>
  }
}
 8000ac8:	bf00      	nop
 8000aca:	372c      	adds	r7, #44	; 0x2c
 8000acc:	46bd      	mov	sp, r7
 8000ace:	bc80      	pop	{r7}
 8000ad0:	4770      	bx	lr
 8000ad2:	bf00      	nop
 8000ad4:	10210000 	.word	0x10210000
 8000ad8:	10110000 	.word	0x10110000
 8000adc:	10120000 	.word	0x10120000
 8000ae0:	10310000 	.word	0x10310000
 8000ae4:	10320000 	.word	0x10320000
 8000ae8:	10220000 	.word	0x10220000
 8000aec:	40021000 	.word	0x40021000
 8000af0:	40010000 	.word	0x40010000
 8000af4:	40010800 	.word	0x40010800
 8000af8:	40010c00 	.word	0x40010c00
 8000afc:	40011000 	.word	0x40011000
 8000b00:	40010400 	.word	0x40010400

08000b04 <HAL_GPIO_ReadPin>:
  * @param  GPIO_Pin: specifies the port bit to read.
  *         This parameter can be GPIO_PIN_x where x can be (0..15).
  * @retval The input port pin value.
  */
GPIO_PinState HAL_GPIO_ReadPin(GPIO_TypeDef *GPIOx, uint16_t GPIO_Pin)
{
 8000b04:	b480      	push	{r7}
 8000b06:	b085      	sub	sp, #20
 8000b08:	af00      	add	r7, sp, #0
 8000b0a:	6078      	str	r0, [r7, #4]
 8000b0c:	460b      	mov	r3, r1
 8000b0e:	807b      	strh	r3, [r7, #2]
  GPIO_PinState bitstatus;

  /* Check the parameters */
  assert_param(IS_GPIO_PIN(GPIO_Pin));

  if ((GPIOx->IDR & GPIO_Pin) != (uint32_t)GPIO_PIN_RESET)
 8000b10:	687b      	ldr	r3, [r7, #4]
 8000b12:	689a      	ldr	r2, [r3, #8]
 8000b14:	887b      	ldrh	r3, [r7, #2]
 8000b16:	4013      	ands	r3, r2
 8000b18:	2b00      	cmp	r3, #0
 8000b1a:	d002      	beq.n	8000b22 <HAL_GPIO_ReadPin+0x1e>
  {
    bitstatus = GPIO_PIN_SET;
 8000b1c:	2301      	movs	r3, #1
 8000b1e:	73fb      	strb	r3, [r7, #15]
 8000b20:	e001      	b.n	8000b26 <HAL_GPIO_ReadPin+0x22>
  }
  else
  {
    bitstatus = GPIO_PIN_RESET;
 8000b22:	2300      	movs	r3, #0
 8000b24:	73fb      	strb	r3, [r7, #15]
  }
  return bitstatus;
 8000b26:	7bfb      	ldrb	r3, [r7, #15]
}
 8000b28:	4618      	mov	r0, r3
 8000b2a:	3714      	adds	r7, #20
 8000b2c:	46bd      	mov	sp, r7
 8000b2e:	bc80      	pop	{r7}
 8000b30:	4770      	bx	lr

08000b32 <HAL_GPIO_WritePin>:
  *            @arg GPIO_PIN_RESET: to clear the port pin
  *            @arg GPIO_PIN_SET: to set the port pin
  * @retval None
  */
void HAL_GPIO_WritePin(GPIO_TypeDef *GPIOx, uint16_t GPIO_Pin, GPIO_PinState PinState)
{
 8000b32:	b480      	push	{r7}
 8000b34:	b083      	sub	sp, #12
 8000b36:	af00      	add	r7, sp, #0
 8000b38:	6078      	str	r0, [r7, #4]
 8000b3a:	460b      	mov	r3, r1
 8000b3c:	807b      	strh	r3, [r7, #2]
 8000b3e:	4613      	mov	r3, r2
 8000b40:	707b      	strb	r3, [r7, #1]
  /* Check the parameters */
  assert_param(IS_GPIO_PIN(GPIO_Pin));
  assert_param(IS_GPIO_PIN_ACTION(PinState));

  if (PinState != GPIO_PIN_RESET)
 8000b42:	787b      	ldrb	r3, [r7, #1]
 8000b44:	2b00      	cmp	r3, #0
 8000b46:	d003      	beq.n	8000b50 <HAL_GPIO_WritePin+0x1e>
  {
    GPIOx->BSRR = GPIO_Pin;
 8000b48:	887a      	ldrh	r2, [r7, #2]
 8000b4a:	687b      	ldr	r3, [r7, #4]
 8000b4c:	611a      	str	r2, [r3, #16]
  }
  else
  {
    GPIOx->BSRR = (uint32_t)GPIO_Pin << 16u;
  }
}
 8000b4e:	e003      	b.n	8000b58 <HAL_GPIO_WritePin+0x26>
    GPIOx->BSRR = (uint32_t)GPIO_Pin << 16u;
 8000b50:	887b      	ldrh	r3, [r7, #2]
 8000b52:	041a      	lsls	r2, r3, #16
 8000b54:	687b      	ldr	r3, [r7, #4]
 8000b56:	611a      	str	r2, [r3, #16]
}
 8000b58:	bf00      	nop
 8000b5a:	370c      	adds	r7, #12
 8000b5c:	46bd      	mov	sp, r7
 8000b5e:	bc80      	pop	{r7}
 8000b60:	4770      	bx	lr
	...

08000b64 <HAL_RCC_OscConfig>:
  *         supported by this macro. User should request a transition to HSE Off
  *         first and then HSE On or HSE Bypass.
  * @retval HAL status
  */
HAL_StatusTypeDef HAL_RCC_OscConfig(RCC_OscInitTypeDef  *RCC_OscInitStruct)
{
 8000b64:	b580      	push	{r7, lr}
 8000b66:	b086      	sub	sp, #24
 8000b68:	af00      	add	r7, sp, #0
 8000b6a:	6078      	str	r0, [r7, #4]
  uint32_t tickstart;
  uint32_t pll_config;

  /* Check Null pointer */
  if (RCC_OscInitStruct == NULL)
 8000b6c:	687b      	ldr	r3, [r7, #4]
 8000b6e:	2b00      	cmp	r3, #0
 8000b70:	d101      	bne.n	8000b76 <HAL_RCC_OscConfig+0x12>
  {
    return HAL_ERROR;
 8000b72:	2301      	movs	r3, #1
 8000b74:	e26c      	b.n	8001050 <HAL_RCC_OscConfig+0x4ec>

  /* Check the parameters */
  assert_param(IS_RCC_OSCILLATORTYPE(RCC_OscInitStruct->OscillatorType));

  /*------------------------------- HSE Configuration ------------------------*/
  if (((RCC_OscInitStruct->OscillatorType) & RCC_OSCILLATORTYPE_HSE) == RCC_OSCILLATORTYPE_HSE)
 8000b76:	687b      	ldr	r3, [r7, #4]
 8000b78:	681b      	ldr	r3, [r3, #0]
 8000b7a:	f003 0301 	and.w	r3, r3, #1
 8000b7e:	2b00      	cmp	r3, #0
 8000b80:	f000 8087 	beq.w	8000c92 <HAL_RCC_OscConfig+0x12e>
  {
    /* Check the parameters */
    assert_param(IS_RCC_HSE(RCC_OscInitStruct->HSEState));

    /* When the HSE is used as system clock or clock source for PLL in these cases it is not allowed to be disabled */
    if ((__HAL_RCC_GET_SYSCLK_SOURCE() == RCC_SYSCLKSOURCE_STATUS_HSE)
 8000b84:	4b92      	ldr	r3, [pc, #584]	; (8000dd0 <HAL_RCC_OscConfig+0x26c>)
 8000b86:	685b      	ldr	r3, [r3, #4]
 8000b88:	f003 030c 	and.w	r3, r3, #12
 8000b8c:	2b04      	cmp	r3, #4
 8000b8e:	d00c      	beq.n	8000baa <HAL_RCC_OscConfig+0x46>
        || ((__HAL_RCC_GET_SYSCLK_SOURCE() == RCC_SYSCLKSOURCE_STATUS_PLLCLK) && (__HAL_RCC_GET_PLL_OSCSOURCE() == RCC_PLLSOURCE_HSE)))
 8000b90:	4b8f      	ldr	r3, [pc, #572]	; (8000dd0 <HAL_RCC_OscConfig+0x26c>)
 8000b92:	685b      	ldr	r3, [r3, #4]
 8000b94:	f003 030c 	and.w	r3, r3, #12
 8000b98:	2b08      	cmp	r3, #8
 8000b9a:	d112      	bne.n	8000bc2 <HAL_RCC_OscConfig+0x5e>
 8000b9c:	4b8c      	ldr	r3, [pc, #560]	; (8000dd0 <HAL_RCC_OscConfig+0x26c>)
 8000b9e:	685b      	ldr	r3, [r3, #4]
 8000ba0:	f403 3380 	and.w	r3, r3, #65536	; 0x10000
 8000ba4:	f5b3 3f80 	cmp.w	r3, #65536	; 0x10000
 8000ba8:	d10b      	bne.n	8000bc2 <HAL_RCC_OscConfig+0x5e>
    {
      if ((__HAL_RCC_GET_FLAG(RCC_FLAG_HSERDY) != RESET) && (RCC_OscInitStruct->HSEState == RCC_HSE_OFF))
 8000baa:	4b89      	ldr	r3, [pc, #548]	; (8000dd0 <HAL_RCC_OscConfig+0x26c>)
 8000bac:	681b      	ldr	r3, [r3, #0]
 8000bae:	f403 3300 	and.w	r3, r3, #131072	; 0x20000
 8000bb2:	2b00      	cmp	r3, #0
 8000bb4:	d06c      	beq.n	8000c90 <HAL_RCC_OscConfig+0x12c>
 8000bb6:	687b      	ldr	r3, [r7, #4]
 8000bb8:	685b      	ldr	r3, [r3, #4]
 8000bba:	2b00      	cmp	r3, #0
 8000bbc:	d168      	bne.n	8000c90 <HAL_RCC_OscConfig+0x12c>
      {
        return HAL_ERROR;
 8000bbe:	2301      	movs	r3, #1
 8000bc0:	e246      	b.n	8001050 <HAL_RCC_OscConfig+0x4ec>
      }
    }
    else
    {
      /* Set the new HSE configuration ---------------------------------------*/
      __HAL_RCC_HSE_CONFIG(RCC_OscInitStruct->HSEState);
 8000bc2:	687b      	ldr	r3, [r7, #4]
 8000bc4:	685b      	ldr	r3, [r3, #4]
 8000bc6:	f5b3 3f80 	cmp.w	r3, #65536	; 0x10000
 8000bca:	d106      	bne.n	8000bda <HAL_RCC_OscConfig+0x76>
 8000bcc:	4b80      	ldr	r3, [pc, #512]	; (8000dd0 <HAL_RCC_OscConfig+0x26c>)
 8000bce:	681b      	ldr	r3, [r3, #0]
 8000bd0:	4a7f      	ldr	r2, [pc, #508]	; (8000dd0 <HAL_RCC_OscConfig+0x26c>)
 8000bd2:	f443 3380 	orr.w	r3, r3, #65536	; 0x10000
 8000bd6:	6013      	str	r3, [r2, #0]
 8000bd8:	e02e      	b.n	8000c38 <HAL_RCC_OscConfig+0xd4>
 8000bda:	687b      	ldr	r3, [r7, #4]
 8000bdc:	685b      	ldr	r3, [r3, #4]
 8000bde:	2b00      	cmp	r3, #0
 8000be0:	d10c      	bne.n	8000bfc <HAL_RCC_OscConfig+0x98>
 8000be2:	4b7b      	ldr	r3, [pc, #492]	; (8000dd0 <HAL_RCC_OscConfig+0x26c>)
 8000be4:	681b      	ldr	r3, [r3, #0]
 8000be6:	4a7a      	ldr	r2, [pc, #488]	; (8000dd0 <HAL_RCC_OscConfig+0x26c>)
 8000be8:	f423 3380 	bic.w	r3, r3, #65536	; 0x10000
 8000bec:	6013      	str	r3, [r2, #0]
 8000bee:	4b78      	ldr	r3, [pc, #480]	; (8000dd0 <HAL_RCC_OscConfig+0x26c>)
 8000bf0:	681b      	ldr	r3, [r3, #0]
 8000bf2:	4a77      	ldr	r2, [pc, #476]	; (8000dd0 <HAL_RCC_OscConfig+0x26c>)
 8000bf4:	f423 2380 	bic.w	r3, r3, #262144	; 0x40000
 8000bf8:	6013      	str	r3, [r2, #0]
 8000bfa:	e01d      	b.n	8000c38 <HAL_RCC_OscConfig+0xd4>
 8000bfc:	687b      	ldr	r3, [r7, #4]
 8000bfe:	685b      	ldr	r3, [r3, #4]
 8000c00:	f5b3 2fa0 	cmp.w	r3, #327680	; 0x50000
 8000c04:	d10c      	bne.n	8000c20 <HAL_RCC_OscConfig+0xbc>
 8000c06:	4b72      	ldr	r3, [pc, #456]	; (8000dd0 <HAL_RCC_OscConfig+0x26c>)
 8000c08:	681b      	ldr	r3, [r3, #0]
 8000c0a:	4a71      	ldr	r2, [pc, #452]	; (8000dd0 <HAL_RCC_OscConfig+0x26c>)
 8000c0c:	f443 2380 	orr.w	r3, r3, #262144	; 0x40000
 8000c10:	6013      	str	r3, [r2, #0]
 8000c12:	4b6f      	ldr	r3, [pc, #444]	; (8000dd0 <HAL_RCC_OscConfig+0x26c>)
 8000c14:	681b      	ldr	r3, [r3, #0]
 8000c16:	4a6e      	ldr	r2, [pc, #440]	; (8000dd0 <HAL_RCC_OscConfig+0x26c>)
 8000c18:	f443 3380 	orr.w	r3, r3, #65536	; 0x10000
 8000c1c:	6013      	str	r3, [r2, #0]
 8000c1e:	e00b      	b.n	8000c38 <HAL_RCC_OscConfig+0xd4>
 8000c20:	4b6b      	ldr	r3, [pc, #428]	; (8000dd0 <HAL_RCC_OscConfig+0x26c>)
 8000c22:	681b      	ldr	r3, [r3, #0]
 8000c24:	4a6a      	ldr	r2, [pc, #424]	; (8000dd0 <HAL_RCC_OscConfig+0x26c>)
 8000c26:	f423 3380 	bic.w	r3, r3, #65536	; 0x10000
 8000c2a:	6013      	str	r3, [r2, #0]
 8000c2c:	4b68      	ldr	r3, [pc, #416]	; (8000dd0 <HAL_RCC_OscConfig+0x26c>)
 8000c2e:	681b      	ldr	r3, [r3, #0]
 8000c30:	4a67      	ldr	r2, [pc, #412]	; (8000dd0 <HAL_RCC_OscConfig+0x26c>)
 8000c32:	f423 2380 	bic.w	r3, r3, #262144	; 0x40000
 8000c36:	6013      	str	r3, [r2, #0]


      /* Check the HSE State */
      if (RCC_OscInitStruct->HSEState != RCC_HSE_OFF)
 8000c38:	687b      	ldr	r3, [r7, #4]
 8000c3a:	685b      	ldr	r3, [r3, #4]
 8000c3c:	2b00      	cmp	r3, #0
 8000c3e:	d013      	beq.n	8000c68 <HAL_RCC_OscConfig+0x104>
      {
        /* Get Start Tick */
        tickstart = HAL_GetTick();
 8000c40:	f7ff fcfe 	bl	8000640 <HAL_GetTick>
 8000c44:	6138      	str	r0, [r7, #16]

        /* Wait till HSE is ready */
        while (__HAL_RCC_GET_FLAG(RCC_FLAG_HSERDY) == RESET)
 8000c46:	e008      	b.n	8000c5a <HAL_RCC_OscConfig+0xf6>
        {
          if ((HAL_GetTick() - tickstart) > HSE_TIMEOUT_VALUE)
 8000c48:	f7ff fcfa 	bl	8000640 <HAL_GetTick>
 8000c4c:	4602      	mov	r2, r0
 8000c4e:	693b      	ldr	r3, [r7, #16]
 8000c50:	1ad3      	subs	r3, r2, r3
 8000c52:	2b64      	cmp	r3, #100	; 0x64
 8000c54:	d901      	bls.n	8000c5a <HAL_RCC_OscConfig+0xf6>
          {
            return HAL_TIMEOUT;
 8000c56:	2303      	movs	r3, #3
 8000c58:	e1fa      	b.n	8001050 <HAL_RCC_OscConfig+0x4ec>
        while (__HAL_RCC_GET_FLAG(RCC_FLAG_HSERDY) == RESET)
 8000c5a:	4b5d      	ldr	r3, [pc, #372]	; (8000dd0 <HAL_RCC_OscConfig+0x26c>)
 8000c5c:	681b      	ldr	r3, [r3, #0]
 8000c5e:	f403 3300 	and.w	r3, r3, #131072	; 0x20000
 8000c62:	2b00      	cmp	r3, #0
 8000c64:	d0f0      	beq.n	8000c48 <HAL_RCC_OscConfig+0xe4>
 8000c66:	e014      	b.n	8000c92 <HAL_RCC_OscConfig+0x12e>
        }
      }
      else
      {
        /* Get Start Tick */
        tickstart = HAL_GetTick();
 8000c68:	f7ff fcea 	bl	8000640 <HAL_GetTick>
 8000c6c:	6138      	str	r0, [r7, #16]

        /* Wait till HSE is disabled */
        while (__HAL_RCC_GET_FLAG(RCC_FLAG_HSERDY) != RESET)
 8000c6e:	e008      	b.n	8000c82 <HAL_RCC_OscConfig+0x11e>
        {
          if ((HAL_GetTick() - tickstart) > HSE_TIMEOUT_VALUE)
 8000c70:	f7ff fce6 	bl	8000640 <HAL_GetTick>
 8000c74:	4602      	mov	r2, r0
 8000c76:	693b      	ldr	r3, [r7, #16]
 8000c78:	1ad3      	subs	r3, r2, r3
 8000c7a:	2b64      	cmp	r3, #100	; 0x64
 8000c7c:	d901      	bls.n	8000c82 <HAL_RCC_OscConfig+0x11e>
          {
            return HAL_TIMEOUT;
 8000c7e:	2303      	movs	r3, #3
 8000c80:	e1e6      	b.n	8001050 <HAL_RCC_OscConfig+0x4ec>
        while (__HAL_RCC_GET_FLAG(RCC_FLAG_HSERDY) != RESET)
 8000c82:	4b53      	ldr	r3, [pc, #332]	; (8000dd0 <HAL_RCC_OscConfig+0x26c>)
 8000c84:	681b      	ldr	r3, [r3, #0]
 8000c86:	f403 3300 	and.w	r3, r3, #131072	; 0x20000
 8000c8a:	2b00      	cmp	r3, #0
 8000c8c:	d1f0      	bne.n	8000c70 <HAL_RCC_OscConfig+0x10c>
 8000c8e:	e000      	b.n	8000c92 <HAL_RCC_OscConfig+0x12e>
      if ((__HAL_RCC_GET_FLAG(RCC_FLAG_HSERDY) != RESET) && (RCC_OscInitStruct->HSEState == RCC_HSE_OFF))
 8000c90:	bf00      	nop
        }
      }
    }
  }
  /*----------------------------- HSI Configuration --------------------------*/
  if (((RCC_OscInitStruct->OscillatorType) & RCC_OSCILLATORTYPE_HSI) == RCC_OSCILLATORTYPE_HSI)
 8000c92:	687b      	ldr	r3, [r7, #4]
 8000c94:	681b      	ldr	r3, [r3, #0]
 8000c96:	f003 0302 	and.w	r3, r3, #2
 8000c9a:	2b00      	cmp	r3, #0
 8000c9c:	d063      	beq.n	8000d66 <HAL_RCC_OscConfig+0x202>
    /* Check the parameters */
    assert_param(IS_RCC_HSI(RCC_OscInitStruct->HSIState));
    assert_param(IS_RCC_CALIBRATION_VALUE(RCC_OscInitStruct->HSICalibrationValue));

    /* Check if HSI is used as system clock or as PLL source when PLL is selected as system clock */
    if ((__HAL_RCC_GET_SYSCLK_SOURCE() == RCC_SYSCLKSOURCE_STATUS_HSI)
 8000c9e:	4b4c      	ldr	r3, [pc, #304]	; (8000dd0 <HAL_RCC_OscConfig+0x26c>)
 8000ca0:	685b      	ldr	r3, [r3, #4]
 8000ca2:	f003 030c 	and.w	r3, r3, #12
 8000ca6:	2b00      	cmp	r3, #0
 8000ca8:	d00b      	beq.n	8000cc2 <HAL_RCC_OscConfig+0x15e>
        || ((__HAL_RCC_GET_SYSCLK_SOURCE() == RCC_SYSCLKSOURCE_STATUS_PLLCLK) && (__HAL_RCC_GET_PLL_OSCSOURCE() == RCC_PLLSOURCE_HSI_DIV2)))
 8000caa:	4b49      	ldr	r3, [pc, #292]	; (8000dd0 <HAL_RCC_OscConfig+0x26c>)
 8000cac:	685b      	ldr	r3, [r3, #4]
 8000cae:	f003 030c 	and.w	r3, r3, #12
 8000cb2:	2b08      	cmp	r3, #8
 8000cb4:	d11c      	bne.n	8000cf0 <HAL_RCC_OscConfig+0x18c>
 8000cb6:	4b46      	ldr	r3, [pc, #280]	; (8000dd0 <HAL_RCC_OscConfig+0x26c>)
 8000cb8:	685b      	ldr	r3, [r3, #4]
 8000cba:	f403 3380 	and.w	r3, r3, #65536	; 0x10000
 8000cbe:	2b00      	cmp	r3, #0
 8000cc0:	d116      	bne.n	8000cf0 <HAL_RCC_OscConfig+0x18c>
    {
      /* When HSI is used as system clock it will not disabled */
      if ((__HAL_RCC_GET_FLAG(RCC_FLAG_HSIRDY) != RESET) && (RCC_OscInitStruct->HSIState != RCC_HSI_ON))
 8000cc2:	4b43      	ldr	r3, [pc, #268]	; (8000dd0 <HAL_RCC_OscConfig+0x26c>)
 8000cc4:	681b      	ldr	r3, [r3, #0]
 8000cc6:	f003 0302 	and.w	r3, r3, #2
 8000cca:	2b00      	cmp	r3, #0
 8000ccc:	d005      	beq.n	8000cda <HAL_RCC_OscConfig+0x176>
 8000cce:	687b      	ldr	r3, [r7, #4]
 8000cd0:	691b      	ldr	r3, [r3, #16]
 8000cd2:	2b01      	cmp	r3, #1
 8000cd4:	d001      	beq.n	8000cda <HAL_RCC_OscConfig+0x176>
      {
        return HAL_ERROR;
 8000cd6:	2301      	movs	r3, #1
 8000cd8:	e1ba      	b.n	8001050 <HAL_RCC_OscConfig+0x4ec>
      }
      /* Otherwise, just the calibration is allowed */
      else
      {
        /* Adjusts the Internal High Speed oscillator (HSI) calibration value.*/
        __HAL_RCC_HSI_CALIBRATIONVALUE_ADJUST(RCC_OscInitStruct->HSICalibrationValue);
 8000cda:	4b3d      	ldr	r3, [pc, #244]	; (8000dd0 <HAL_RCC_OscConfig+0x26c>)
 8000cdc:	681b      	ldr	r3, [r3, #0]
 8000cde:	f023 02f8 	bic.w	r2, r3, #248	; 0xf8
 8000ce2:	687b      	ldr	r3, [r7, #4]
 8000ce4:	695b      	ldr	r3, [r3, #20]
 8000ce6:	00db      	lsls	r3, r3, #3
 8000ce8:	4939      	ldr	r1, [pc, #228]	; (8000dd0 <HAL_RCC_OscConfig+0x26c>)
 8000cea:	4313      	orrs	r3, r2
 8000cec:	600b      	str	r3, [r1, #0]
      if ((__HAL_RCC_GET_FLAG(RCC_FLAG_HSIRDY) != RESET) && (RCC_OscInitStruct->HSIState != RCC_HSI_ON))
 8000cee:	e03a      	b.n	8000d66 <HAL_RCC_OscConfig+0x202>
      }
    }
    else
    {
      /* Check the HSI State */
      if (RCC_OscInitStruct->HSIState != RCC_HSI_OFF)
 8000cf0:	687b      	ldr	r3, [r7, #4]
 8000cf2:	691b      	ldr	r3, [r3, #16]
 8000cf4:	2b00      	cmp	r3, #0
 8000cf6:	d020      	beq.n	8000d3a <HAL_RCC_OscConfig+0x1d6>
      {
        /* Enable the Internal High Speed oscillator (HSI). */
        __HAL_RCC_HSI_ENABLE();
 8000cf8:	4b36      	ldr	r3, [pc, #216]	; (8000dd4 <HAL_RCC_OscConfig+0x270>)
 8000cfa:	2201      	movs	r2, #1
 8000cfc:	601a      	str	r2, [r3, #0]

        /* Get Start Tick */
        tickstart = HAL_GetTick();
 8000cfe:	f7ff fc9f 	bl	8000640 <HAL_GetTick>
 8000d02:	6138      	str	r0, [r7, #16]

        /* Wait till HSI is ready */
        while (__HAL_RCC_GET_FLAG(RCC_FLAG_HSIRDY) == RESET)
 8000d04:	e008      	b.n	8000d18 <HAL_RCC_OscConfig+0x1b4>
        {
          if ((HAL_GetTick() - tickstart) > HSI_TIMEOUT_VALUE)
 8000d06:	f7ff fc9b 	bl	8000640 <HAL_GetTick>
 8000d0a:	4602      	mov	r2, r0
 8000d0c:	693b      	ldr	r3, [r7, #16]
 8000d0e:	1ad3      	subs	r3, r2, r3
 8000d10:	2b02      	cmp	r3, #2
 8000d12:	d901      	bls.n	8000d18 <HAL_RCC_OscConfig+0x1b4>
          {
            return HAL_TIMEOUT;
 8000d14:	2303      	movs	r3, #3
 8000d16:	e19b      	b.n	8001050 <HAL_RCC_OscConfig+0x4ec>
        while (__HAL_RCC_GET_FLAG(RCC_FLAG_HSIRDY) == RESET)
 8000d18:	4b2d      	ldr	r3, [pc, #180]	; (8000dd0 <HAL_RCC_OscConfig+0x26c>)
 8000d1a:	681b      	ldr	r3, [r3, #0]
 8000d1c:	f003 0302 	and.w	r3, r3, #2
 8000d20:	2b00      	cmp	r3, #0
 8000d22:	d0f0      	beq.n	8000d06 <HAL_RCC_OscConfig+0x1a2>
          }
        }

        /* Adjusts the Internal High Speed oscillator (HSI) calibration value.*/
        __HAL_RCC_HSI_CALIBRATIONVALUE_ADJUST(RCC_OscInitStruct->HSICalibrationValue);
 8000d24:	4b2a      	ldr	r3, [pc, #168]	; (8000dd0 <HAL_RCC_OscConfig+0x26c>)
 8000d26:	681b      	ldr	r3, [r3, #0]
 8000d28:	f023 02f8 	bic.w	r2, r3, #248	; 0xf8
 8000d2c:	687b      	ldr	r3, [r7, #4]
 8000d2e:	695b      	ldr	r3, [r3, #20]
 8000d30:	00db      	lsls	r3, r3, #3
 8000d32:	4927      	ldr	r1, [pc, #156]	; (8000dd0 <HAL_RCC_OscConfig+0x26c>)
 8000d34:	4313      	orrs	r3, r2
 8000d36:	600b      	str	r3, [r1, #0]
 8000d38:	e015      	b.n	8000d66 <HAL_RCC_OscConfig+0x202>
      }
      else
      {
        /* Disable the Internal High Speed oscillator (HSI). */
        __HAL_RCC_HSI_DISABLE();
 8000d3a:	4b26      	ldr	r3, [pc, #152]	; (8000dd4 <HAL_RCC_OscConfig+0x270>)
 8000d3c:	2200      	movs	r2, #0
 8000d3e:	601a      	str	r2, [r3, #0]

        /* Get Start Tick */
        tickstart = HAL_GetTick();
 8000d40:	f7ff fc7e 	bl	8000640 <HAL_GetTick>
 8000d44:	6138      	str	r0, [r7, #16]

        /* Wait till HSI is disabled */
        while (__HAL_RCC_GET_FLAG(RCC_FLAG_HSIRDY) != RESET)
 8000d46:	e008      	b.n	8000d5a <HAL_RCC_OscConfig+0x1f6>
        {
          if ((HAL_GetTick() - tickstart) > HSI_TIMEOUT_VALUE)
 8000d48:	f7ff fc7a 	bl	8000640 <HAL_GetTick>
 8000d4c:	4602      	mov	r2, r0
 8000d4e:	693b      	ldr	r3, [r7, #16]
 8000d50:	1ad3      	subs	r3, r2, r3
 8000d52:	2b02      	cmp	r3, #2
 8000d54:	d901      	bls.n	8000d5a <HAL_RCC_OscConfig+0x1f6>
          {
            return HAL_TIMEOUT;
 8000d56:	2303      	movs	r3, #3
 8000d58:	e17a      	b.n	8001050 <HAL_RCC_OscConfig+0x4ec>
        while (__HAL_RCC_GET_FLAG(RCC_FLAG_HSIRDY) != RESET)
 8000d5a:	4b1d      	ldr	r3, [pc, #116]	; (8000dd0 <HAL_RCC_OscConfig+0x26c>)
 8000d5c:	681b      	ldr	r3, [r3, #0]
 8000d5e:	f003 0302 	and.w	r3, r3, #2
 8000d62:	2b00      	cmp	r3, #0
 8000d64:	d1f0      	bne.n	8000d48 <HAL_RCC_OscConfig+0x1e4>
        }
      }
    }
  }
  /*------------------------------ LSI Configuration -------------------------*/
  if (((RCC_OscInitStruct->OscillatorType) & RCC_OSCILLATORTYPE_LSI) == RCC_OSCILLATORTYPE_LSI)
 8000d66:	687b      	ldr	r3, [r7, #4]
 8000d68:	681b      	ldr	r3, [r3, #0]
 8000d6a:	f003 0308 	and.w	r3, r3, #8
 8000d6e:	2b00      	cmp	r3, #0
 8000d70:	d03a      	beq.n	8000de8 <HAL_RCC_OscConfig+0x284>
  {
    /* Check the parameters */
    assert_param(IS_RCC_LSI(RCC_OscInitStruct->LSIState));

    /* Check the LSI State */
    if (RCC_OscInitStruct->LSIState != RCC_LSI_OFF)
 8000d72:	687b      	ldr	r3, [r7, #4]
 8000d74:	699b      	ldr	r3, [r3, #24]
 8000d76:	2b00      	cmp	r3, #0
 8000d78:	d019      	beq.n	8000dae <HAL_RCC_OscConfig+0x24a>
    {
      /* Enable the Internal Low Speed oscillator (LSI). */
      __HAL_RCC_LSI_ENABLE();
 8000d7a:	4b17      	ldr	r3, [pc, #92]	; (8000dd8 <HAL_RCC_OscConfig+0x274>)
 8000d7c:	2201      	movs	r2, #1
 8000d7e:	601a      	str	r2, [r3, #0]

      /* Get Start Tick */
      tickstart = HAL_GetTick();
 8000d80:	f7ff fc5e 	bl	8000640 <HAL_GetTick>
 8000d84:	6138      	str	r0, [r7, #16]

      /* Wait till LSI is ready */
      while (__HAL_RCC_GET_FLAG(RCC_FLAG_LSIRDY) == RESET)
 8000d86:	e008      	b.n	8000d9a <HAL_RCC_OscConfig+0x236>
      {
        if ((HAL_GetTick() - tickstart) > LSI_TIMEOUT_VALUE)
 8000d88:	f7ff fc5a 	bl	8000640 <HAL_GetTick>
 8000d8c:	4602      	mov	r2, r0
 8000d8e:	693b      	ldr	r3, [r7, #16]
 8000d90:	1ad3      	subs	r3, r2, r3
 8000d92:	2b02      	cmp	r3, #2
 8000d94:	d901      	bls.n	8000d9a <HAL_RCC_OscConfig+0x236>
        {
          return HAL_TIMEOUT;
 8000d96:	2303      	movs	r3, #3
 8000d98:	e15a      	b.n	8001050 <HAL_RCC_OscConfig+0x4ec>
      while (__HAL_RCC_GET_FLAG(RCC_FLAG_LSIRDY) == RESET)
 8000d9a:	4b0d      	ldr	r3, [pc, #52]	; (8000dd0 <HAL_RCC_OscConfig+0x26c>)
 8000d9c:	6a5b      	ldr	r3, [r3, #36]	; 0x24
 8000d9e:	f003 0302 	and.w	r3, r3, #2
 8000da2:	2b00      	cmp	r3, #0
 8000da4:	d0f0      	beq.n	8000d88 <HAL_RCC_OscConfig+0x224>
        }
      }
      /*  To have a fully stabilized clock in the specified range, a software delay of 1ms
          should be added.*/
      RCC_Delay(1);
 8000da6:	2001      	movs	r0, #1
 8000da8:	f000 faa8 	bl	80012fc <RCC_Delay>
 8000dac:	e01c      	b.n	8000de8 <HAL_RCC_OscConfig+0x284>
    }
    else
    {
      /* Disable the Internal Low Speed oscillator (LSI). */
      __HAL_RCC_LSI_DISABLE();
 8000dae:	4b0a      	ldr	r3, [pc, #40]	; (8000dd8 <HAL_RCC_OscConfig+0x274>)
 8000db0:	2200      	movs	r2, #0
 8000db2:	601a      	str	r2, [r3, #0]

      /* Get Start Tick */
      tickstart = HAL_GetTick();
 8000db4:	f7ff fc44 	bl	8000640 <HAL_GetTick>
 8000db8:	6138      	str	r0, [r7, #16]

      /* Wait till LSI is disabled */
      while (__HAL_RCC_GET_FLAG(RCC_FLAG_LSIRDY) != RESET)
 8000dba:	e00f      	b.n	8000ddc <HAL_RCC_OscConfig+0x278>
      {
        if ((HAL_GetTick() - tickstart) > LSI_TIMEOUT_VALUE)
 8000dbc:	f7ff fc40 	bl	8000640 <HAL_GetTick>
 8000dc0:	4602      	mov	r2, r0
 8000dc2:	693b      	ldr	r3, [r7, #16]
 8000dc4:	1ad3      	subs	r3, r2, r3
 8000dc6:	2b02      	cmp	r3, #2
 8000dc8:	d908      	bls.n	8000ddc <HAL_RCC_OscConfig+0x278>
        {
          return HAL_TIMEOUT;
 8000dca:	2303      	movs	r3, #3
 8000dcc:	e140      	b.n	8001050 <HAL_RCC_OscConfig+0x4ec>
 8000dce:	bf00      	nop
 8000dd0:	40021000 	.word	0x40021000
 8000dd4:	42420000 	.word	0x42420000
 8000dd8:	42420480 	.word	0x42420480
      while (__HAL_RCC_GET_FLAG(RCC_FLAG_LSIRDY) != RESET)
 8000ddc:	4b9e      	ldr	r3, [pc, #632]	; (8001058 <HAL_RCC_OscConfig+0x4f4>)
 8000dde:	6a5b      	ldr	r3, [r3, #36]	; 0x24
 8000de0:	f003 0302 	and.w	r3, r3, #2
 8000de4:	2b00      	cmp	r3, #0
 8000de6:	d1e9      	bne.n	8000dbc <HAL_RCC_OscConfig+0x258>
        }
      }
    }
  }
  /*------------------------------ LSE Configuration -------------------------*/
  if (((RCC_OscInitStruct->OscillatorType) & RCC_OSCILLATORTYPE_LSE) == RCC_OSCILLATORTYPE_LSE)
 8000de8:	687b      	ldr	r3, [r7, #4]
 8000dea:	681b      	ldr	r3, [r3, #0]
 8000dec:	f003 0304 	and.w	r3, r3, #4
 8000df0:	2b00      	cmp	r3, #0
 8000df2:	f000 80a6 	beq.w	8000f42 <HAL_RCC_OscConfig+0x3de>
  {
    FlagStatus       pwrclkchanged = RESET;
 8000df6:	2300      	movs	r3, #0
 8000df8:	75fb      	strb	r3, [r7, #23]
    /* Check the parameters */
    assert_param(IS_RCC_LSE(RCC_OscInitStruct->LSEState));

    /* Update LSE configuration in Backup Domain control register    */
    /* Requires to enable write access to Backup Domain of necessary */
    if (__HAL_RCC_PWR_IS_CLK_DISABLED())
 8000dfa:	4b97      	ldr	r3, [pc, #604]	; (8001058 <HAL_RCC_OscConfig+0x4f4>)
 8000dfc:	69db      	ldr	r3, [r3, #28]
 8000dfe:	f003 5380 	and.w	r3, r3, #268435456	; 0x10000000
 8000e02:	2b00      	cmp	r3, #0
 8000e04:	d10d      	bne.n	8000e22 <HAL_RCC_OscConfig+0x2be>
    {
      __HAL_RCC_PWR_CLK_ENABLE();
 8000e06:	4b94      	ldr	r3, [pc, #592]	; (8001058 <HAL_RCC_OscConfig+0x4f4>)
 8000e08:	69db      	ldr	r3, [r3, #28]
 8000e0a:	4a93      	ldr	r2, [pc, #588]	; (8001058 <HAL_RCC_OscConfig+0x4f4>)
 8000e0c:	f043 5380 	orr.w	r3, r3, #268435456	; 0x10000000
 8000e10:	61d3      	str	r3, [r2, #28]
 8000e12:	4b91      	ldr	r3, [pc, #580]	; (8001058 <HAL_RCC_OscConfig+0x4f4>)
 8000e14:	69db      	ldr	r3, [r3, #28]
 8000e16:	f003 5380 	and.w	r3, r3, #268435456	; 0x10000000
 8000e1a:	60bb      	str	r3, [r7, #8]
 8000e1c:	68bb      	ldr	r3, [r7, #8]
      pwrclkchanged = SET;
 8000e1e:	2301      	movs	r3, #1
 8000e20:	75fb      	strb	r3, [r7, #23]
    }

    if (HAL_IS_BIT_CLR(PWR->CR, PWR_CR_DBP))
 8000e22:	4b8e      	ldr	r3, [pc, #568]	; (800105c <HAL_RCC_OscConfig+0x4f8>)
 8000e24:	681b      	ldr	r3, [r3, #0]
 8000e26:	f403 7380 	and.w	r3, r3, #256	; 0x100
 8000e2a:	2b00      	cmp	r3, #0
 8000e2c:	d118      	bne.n	8000e60 <HAL_RCC_OscConfig+0x2fc>
    {
      /* Enable write access to Backup domain */
      SET_BIT(PWR->CR, PWR_CR_DBP);
 8000e2e:	4b8b      	ldr	r3, [pc, #556]	; (800105c <HAL_RCC_OscConfig+0x4f8>)
 8000e30:	681b      	ldr	r3, [r3, #0]
 8000e32:	4a8a      	ldr	r2, [pc, #552]	; (800105c <HAL_RCC_OscConfig+0x4f8>)
 8000e34:	f443 7380 	orr.w	r3, r3, #256	; 0x100
 8000e38:	6013      	str	r3, [r2, #0]

      /* Wait for Backup domain Write protection disable */
      tickstart = HAL_GetTick();
 8000e3a:	f7ff fc01 	bl	8000640 <HAL_GetTick>
 8000e3e:	6138      	str	r0, [r7, #16]

      while (HAL_IS_BIT_CLR(PWR->CR, PWR_CR_DBP))
 8000e40:	e008      	b.n	8000e54 <HAL_RCC_OscConfig+0x2f0>
      {
        if ((HAL_GetTick() - tickstart) > RCC_DBP_TIMEOUT_VALUE)
 8000e42:	f7ff fbfd 	bl	8000640 <HAL_GetTick>
 8000e46:	4602      	mov	r2, r0
 8000e48:	693b      	ldr	r3, [r7, #16]
 8000e4a:	1ad3      	subs	r3, r2, r3
 8000e4c:	2b64      	cmp	r3, #100	; 0x64
 8000e4e:	d901      	bls.n	8000e54 <HAL_RCC_OscConfig+0x2f0>
        {
          return HAL_TIMEOUT;
 8000e50:	2303      	movs	r3, #3
 8000e52:	e0fd      	b.n	8001050 <HAL_RCC_OscConfig+0x4ec>
      while (HAL_IS_BIT_CLR(PWR->CR, PWR_CR_DBP))
 8000e54:	4b81      	ldr	r3, [pc, #516]	; (800105c <HAL_RCC_OscConfig+0x4f8>)
 8000e56:	681b      	ldr	r3, [r3, #0]
 8000e58:	f403 7380 	and.w	r3, r3, #256	; 0x100
 8000e5c:	2b00      	cmp	r3, #0
 8000e5e:	d0f0      	beq.n	8000e42 <HAL_RCC_OscConfig+0x2de>
        }
      }
    }

    /* Set the new LSE configuration -----------------------------------------*/
    __HAL_RCC_LSE_CONFIG(RCC_OscInitStruct->LSEState);
 8000e60:	687b      	ldr	r3, [r7, #4]
 8000e62:	68db      	ldr	r3, [r3, #12]
 8000e64:	2b01      	cmp	r3, #1
 8000e66:	d106      	bne.n	8000e76 <HAL_RCC_OscConfig+0x312>
 8000e68:	4b7b      	ldr	r3, [pc, #492]	; (8001058 <HAL_RCC_OscConfig+0x4f4>)
 8000e6a:	6a1b      	ldr	r3, [r3, #32]
 8000e6c:	4a7a      	ldr	r2, [pc, #488]	; (8001058 <HAL_RCC_OscConfig+0x4f4>)
 8000e6e:	f043 0301 	orr.w	r3, r3, #1
 8000e72:	6213      	str	r3, [r2, #32]
 8000e74:	e02d      	b.n	8000ed2 <HAL_RCC_OscConfig+0x36e>
 8000e76:	687b      	ldr	r3, [r7, #4]
 8000e78:	68db      	ldr	r3, [r3, #12]
 8000e7a:	2b00      	cmp	r3, #0
 8000e7c:	d10c      	bne.n	8000e98 <HAL_RCC_OscConfig+0x334>
 8000e7e:	4b76      	ldr	r3, [pc, #472]	; (8001058 <HAL_RCC_OscConfig+0x4f4>)
 8000e80:	6a1b      	ldr	r3, [r3, #32]
 8000e82:	4a75      	ldr	r2, [pc, #468]	; (8001058 <HAL_RCC_OscConfig+0x4f4>)
 8000e84:	f023 0301 	bic.w	r3, r3, #1
 8000e88:	6213      	str	r3, [r2, #32]
 8000e8a:	4b73      	ldr	r3, [pc, #460]	; (8001058 <HAL_RCC_OscConfig+0x4f4>)
 8000e8c:	6a1b      	ldr	r3, [r3, #32]
 8000e8e:	4a72      	ldr	r2, [pc, #456]	; (8001058 <HAL_RCC_OscConfig+0x4f4>)
 8000e90:	f023 0304 	bic.w	r3, r3, #4
 8000e94:	6213      	str	r3, [r2, #32]
 8000e96:	e01c      	b.n	8000ed2 <HAL_RCC_OscConfig+0x36e>
 8000e98:	687b      	ldr	r3, [r7, #4]
 8000e9a:	68db      	ldr	r3, [r3, #12]
 8000e9c:	2b05      	cmp	r3, #5
 8000e9e:	d10c      	bne.n	8000eba <HAL_RCC_OscConfig+0x356>
 8000ea0:	4b6d      	ldr	r3, [pc, #436]	; (8001058 <HAL_RCC_OscConfig+0x4f4>)
 8000ea2:	6a1b      	ldr	r3, [r3, #32]
 8000ea4:	4a6c      	ldr	r2, [pc, #432]	; (8001058 <HAL_RCC_OscConfig+0x4f4>)
 8000ea6:	f043 0304 	orr.w	r3, r3, #4
 8000eaa:	6213      	str	r3, [r2, #32]
 8000eac:	4b6a      	ldr	r3, [pc, #424]	; (8001058 <HAL_RCC_OscConfig+0x4f4>)
 8000eae:	6a1b      	ldr	r3, [r3, #32]
 8000eb0:	4a69      	ldr	r2, [pc, #420]	; (8001058 <HAL_RCC_OscConfig+0x4f4>)
 8000eb2:	f043 0301 	orr.w	r3, r3, #1
 8000eb6:	6213      	str	r3, [r2, #32]
 8000eb8:	e00b      	b.n	8000ed2 <HAL_RCC_OscConfig+0x36e>
 8000eba:	4b67      	ldr	r3, [pc, #412]	; (8001058 <HAL_RCC_OscConfig+0x4f4>)
 8000ebc:	6a1b      	ldr	r3, [r3, #32]
 8000ebe:	4a66      	ldr	r2, [pc, #408]	; (8001058 <HAL_RCC_OscConfig+0x4f4>)
 8000ec0:	f023 0301 	bic.w	r3, r3, #1
 8000ec4:	6213      	str	r3, [r2, #32]
 8000ec6:	4b64      	ldr	r3, [pc, #400]	; (8001058 <HAL_RCC_OscConfig+0x4f4>)
 8000ec8:	6a1b      	ldr	r3, [r3, #32]
 8000eca:	4a63      	ldr	r2, [pc, #396]	; (8001058 <HAL_RCC_OscConfig+0x4f4>)
 8000ecc:	f023 0304 	bic.w	r3, r3, #4
 8000ed0:	6213      	str	r3, [r2, #32]
    /* Check the LSE State */
    if (RCC_OscInitStruct->LSEState != RCC_LSE_OFF)
 8000ed2:	687b      	ldr	r3, [r7, #4]
 8000ed4:	68db      	ldr	r3, [r3, #12]
 8000ed6:	2b00      	cmp	r3, #0
 8000ed8:	d015      	beq.n	8000f06 <HAL_RCC_OscConfig+0x3a2>
    {
      /* Get Start Tick */
      tickstart = HAL_GetTick();
 8000eda:	f7ff fbb1 	bl	8000640 <HAL_GetTick>
 8000ede:	6138      	str	r0, [r7, #16]

      /* Wait till LSE is ready */
      while (__HAL_RCC_GET_FLAG(RCC_FLAG_LSERDY) == RESET)
 8000ee0:	e00a      	b.n	8000ef8 <HAL_RCC_OscConfig+0x394>
      {
        if ((HAL_GetTick() - tickstart) > RCC_LSE_TIMEOUT_VALUE)
 8000ee2:	f7ff fbad 	bl	8000640 <HAL_GetTick>
 8000ee6:	4602      	mov	r2, r0
 8000ee8:	693b      	ldr	r3, [r7, #16]
 8000eea:	1ad3      	subs	r3, r2, r3
 8000eec:	f241 3288 	movw	r2, #5000	; 0x1388
 8000ef0:	4293      	cmp	r3, r2
 8000ef2:	d901      	bls.n	8000ef8 <HAL_RCC_OscConfig+0x394>
        {
          return HAL_TIMEOUT;
 8000ef4:	2303      	movs	r3, #3
 8000ef6:	e0ab      	b.n	8001050 <HAL_RCC_OscConfig+0x4ec>
      while (__HAL_RCC_GET_FLAG(RCC_FLAG_LSERDY) == RESET)
 8000ef8:	4b57      	ldr	r3, [pc, #348]	; (8001058 <HAL_RCC_OscConfig+0x4f4>)
 8000efa:	6a1b      	ldr	r3, [r3, #32]
 8000efc:	f003 0302 	and.w	r3, r3, #2
 8000f00:	2b00      	cmp	r3, #0
 8000f02:	d0ee      	beq.n	8000ee2 <HAL_RCC_OscConfig+0x37e>
 8000f04:	e014      	b.n	8000f30 <HAL_RCC_OscConfig+0x3cc>
      }
    }
    else
    {
      /* Get Start Tick */
      tickstart = HAL_GetTick();
 8000f06:	f7ff fb9b 	bl	8000640 <HAL_GetTick>
 8000f0a:	6138      	str	r0, [r7, #16]

      /* Wait till LSE is disabled */
      while (__HAL_RCC_GET_FLAG(RCC_FLAG_LSERDY) != RESET)
 8000f0c:	e00a      	b.n	8000f24 <HAL_RCC_OscConfig+0x3c0>
      {
        if ((HAL_GetTick() - tickstart) > RCC_LSE_TIMEOUT_VALUE)
 8000f0e:	f7ff fb97 	bl	8000640 <HAL_GetTick>
 8000f12:	4602      	mov	r2, r0
 8000f14:	693b      	ldr	r3, [r7, #16]
 8000f16:	1ad3      	subs	r3, r2, r3
 8000f18:	f241 3288 	movw	r2, #5000	; 0x1388
 8000f1c:	4293      	cmp	r3, r2
 8000f1e:	d901      	bls.n	8000f24 <HAL_RCC_OscConfig+0x3c0>
        {
          return HAL_TIMEOUT;
 8000f20:	2303      	movs	r3, #3
 8000f22:	e095      	b.n	8001050 <HAL_RCC_OscConfig+0x4ec>
      while (__HAL_RCC_GET_FLAG(RCC_FLAG_LSERDY) != RESET)
 8000f24:	4b4c      	ldr	r3, [pc, #304]	; (8001058 <HAL_RCC_OscConfig+0x4f4>)
 8000f26:	6a1b      	ldr	r3, [r3, #32]
 8000f28:	f003 0302 	and.w	r3, r3, #2
 8000f2c:	2b00      	cmp	r3, #0
 8000f2e:	d1ee      	bne.n	8000f0e <HAL_RCC_OscConfig+0x3aa>
        }
      }
    }

    /* Require to disable power clock if necessary */
    if (pwrclkchanged == SET)
 8000f30:	7dfb      	ldrb	r3, [r7, #23]
 8000f32:	2b01      	cmp	r3, #1
 8000f34:	d105      	bne.n	8000f42 <HAL_RCC_OscConfig+0x3de>
    {
      __HAL_RCC_PWR_CLK_DISABLE();
 8000f36:	4b48      	ldr	r3, [pc, #288]	; (8001058 <HAL_RCC_OscConfig+0x4f4>)
 8000f38:	69db      	ldr	r3, [r3, #28]
 8000f3a:	4a47      	ldr	r2, [pc, #284]	; (8001058 <HAL_RCC_OscConfig+0x4f4>)
 8000f3c:	f023 5380 	bic.w	r3, r3, #268435456	; 0x10000000
 8000f40:	61d3      	str	r3, [r2, #28]

#endif /* RCC_CR_PLL2ON */
  /*-------------------------------- PLL Configuration -----------------------*/
  /* Check the parameters */
  assert_param(IS_RCC_PLL(RCC_OscInitStruct->PLL.PLLState));
  if ((RCC_OscInitStruct->PLL.PLLState) != RCC_PLL_NONE)
 8000f42:	687b      	ldr	r3, [r7, #4]
 8000f44:	69db      	ldr	r3, [r3, #28]
 8000f46:	2b00      	cmp	r3, #0
 8000f48:	f000 8081 	beq.w	800104e <HAL_RCC_OscConfig+0x4ea>
  {
    /* Check if the PLL is used as system clock or not */
    if (__HAL_RCC_GET_SYSCLK_SOURCE() != RCC_SYSCLKSOURCE_STATUS_PLLCLK)
 8000f4c:	4b42      	ldr	r3, [pc, #264]	; (8001058 <HAL_RCC_OscConfig+0x4f4>)
 8000f4e:	685b      	ldr	r3, [r3, #4]
 8000f50:	f003 030c 	and.w	r3, r3, #12
 8000f54:	2b08      	cmp	r3, #8
 8000f56:	d061      	beq.n	800101c <HAL_RCC_OscConfig+0x4b8>
    {
      if ((RCC_OscInitStruct->PLL.PLLState) == RCC_PLL_ON)
 8000f58:	687b      	ldr	r3, [r7, #4]
 8000f5a:	69db      	ldr	r3, [r3, #28]
 8000f5c:	2b02      	cmp	r3, #2
 8000f5e:	d146      	bne.n	8000fee <HAL_RCC_OscConfig+0x48a>
        /* Check the parameters */
        assert_param(IS_RCC_PLLSOURCE(RCC_OscInitStruct->PLL.PLLSource));
        assert_param(IS_RCC_PLL_MUL(RCC_OscInitStruct->PLL.PLLMUL));

        /* Disable the main PLL. */
        __HAL_RCC_PLL_DISABLE();
 8000f60:	4b3f      	ldr	r3, [pc, #252]	; (8001060 <HAL_RCC_OscConfig+0x4fc>)
 8000f62:	2200      	movs	r2, #0
 8000f64:	601a      	str	r2, [r3, #0]

        /* Get Start Tick */
        tickstart = HAL_GetTick();
 8000f66:	f7ff fb6b 	bl	8000640 <HAL_GetTick>
 8000f6a:	6138      	str	r0, [r7, #16]

        /* Wait till PLL is disabled */
        while (__HAL_RCC_GET_FLAG(RCC_FLAG_PLLRDY)  != RESET)
 8000f6c:	e008      	b.n	8000f80 <HAL_RCC_OscConfig+0x41c>
        {
          if ((HAL_GetTick() - tickstart) > PLL_TIMEOUT_VALUE)
 8000f6e:	f7ff fb67 	bl	8000640 <HAL_GetTick>
 8000f72:	4602      	mov	r2, r0
 8000f74:	693b      	ldr	r3, [r7, #16]
 8000f76:	1ad3      	subs	r3, r2, r3
 8000f78:	2b02      	cmp	r3, #2
 8000f7a:	d901      	bls.n	8000f80 <HAL_RCC_OscConfig+0x41c>
          {
            return HAL_TIMEOUT;
 8000f7c:	2303      	movs	r3, #3
 8000f7e:	e067      	b.n	8001050 <HAL_RCC_OscConfig+0x4ec>
        while (__HAL_RCC_GET_FLAG(RCC_FLAG_PLLRDY)  != RESET)
 8000f80:	4b35      	ldr	r3, [pc, #212]	; (8001058 <HAL_RCC_OscConfig+0x4f4>)
 8000f82:	681b      	ldr	r3, [r3, #0]
 8000f84:	f003 7300 	and.w	r3, r3, #33554432	; 0x2000000
 8000f88:	2b00      	cmp	r3, #0
 8000f8a:	d1f0      	bne.n	8000f6e <HAL_RCC_OscConfig+0x40a>
          }
        }

        /* Configure the HSE prediv factor --------------------------------*/
        /* It can be written only when the PLL is disabled. Not used in PLL source is different than HSE */
        if (RCC_OscInitStruct->PLL.PLLSource == RCC_PLLSOURCE_HSE)
 8000f8c:	687b      	ldr	r3, [r7, #4]
 8000f8e:	6a1b      	ldr	r3, [r3, #32]
 8000f90:	f5b3 3f80 	cmp.w	r3, #65536	; 0x10000
 8000f94:	d108      	bne.n	8000fa8 <HAL_RCC_OscConfig+0x444>
          /* Set PREDIV1 source */
          SET_BIT(RCC->CFGR2, RCC_OscInitStruct->Prediv1Source);
#endif /* RCC_CFGR2_PREDIV1SRC */

          /* Set PREDIV1 Value */
          __HAL_RCC_HSE_PREDIV_CONFIG(RCC_OscInitStruct->HSEPredivValue);
 8000f96:	4b30      	ldr	r3, [pc, #192]	; (8001058 <HAL_RCC_OscConfig+0x4f4>)
 8000f98:	685b      	ldr	r3, [r3, #4]
 8000f9a:	f423 3200 	bic.w	r2, r3, #131072	; 0x20000
 8000f9e:	687b      	ldr	r3, [r7, #4]
 8000fa0:	689b      	ldr	r3, [r3, #8]
 8000fa2:	492d      	ldr	r1, [pc, #180]	; (8001058 <HAL_RCC_OscConfig+0x4f4>)
 8000fa4:	4313      	orrs	r3, r2
 8000fa6:	604b      	str	r3, [r1, #4]
        }

        /* Configure the main PLL clock source and multiplication factors. */
        __HAL_RCC_PLL_CONFIG(RCC_OscInitStruct->PLL.PLLSource,
 8000fa8:	4b2b      	ldr	r3, [pc, #172]	; (8001058 <HAL_RCC_OscConfig+0x4f4>)
 8000faa:	685b      	ldr	r3, [r3, #4]
 8000fac:	f423 1274 	bic.w	r2, r3, #3997696	; 0x3d0000
 8000fb0:	687b      	ldr	r3, [r7, #4]
 8000fb2:	6a19      	ldr	r1, [r3, #32]
 8000fb4:	687b      	ldr	r3, [r7, #4]
 8000fb6:	6a5b      	ldr	r3, [r3, #36]	; 0x24
 8000fb8:	430b      	orrs	r3, r1
 8000fba:	4927      	ldr	r1, [pc, #156]	; (8001058 <HAL_RCC_OscConfig+0x4f4>)
 8000fbc:	4313      	orrs	r3, r2
 8000fbe:	604b      	str	r3, [r1, #4]
                             RCC_OscInitStruct->PLL.PLLMUL);
        /* Enable the main PLL. */
        __HAL_RCC_PLL_ENABLE();
 8000fc0:	4b27      	ldr	r3, [pc, #156]	; (8001060 <HAL_RCC_OscConfig+0x4fc>)
 8000fc2:	2201      	movs	r2, #1
 8000fc4:	601a      	str	r2, [r3, #0]

        /* Get Start Tick */
        tickstart = HAL_GetTick();
 8000fc6:	f7ff fb3b 	bl	8000640 <HAL_GetTick>
 8000fca:	6138      	str	r0, [r7, #16]

        /* Wait till PLL is ready */
        while (__HAL_RCC_GET_FLAG(RCC_FLAG_PLLRDY)  == RESET)
 8000fcc:	e008      	b.n	8000fe0 <HAL_RCC_OscConfig+0x47c>
        {
          if ((HAL_GetTick() - tickstart) > PLL_TIMEOUT_VALUE)
 8000fce:	f7ff fb37 	bl	8000640 <HAL_GetTick>
 8000fd2:	4602      	mov	r2, r0
 8000fd4:	693b      	ldr	r3, [r7, #16]
 8000fd6:	1ad3      	subs	r3, r2, r3
 8000fd8:	2b02      	cmp	r3, #2
 8000fda:	d901      	bls.n	8000fe0 <HAL_RCC_OscConfig+0x47c>
          {
            return HAL_TIMEOUT;
 8000fdc:	2303      	movs	r3, #3
 8000fde:	e037      	b.n	8001050 <HAL_RCC_OscConfig+0x4ec>
        while (__HAL_RCC_GET_FLAG(RCC_FLAG_PLLRDY)  == RESET)
 8000fe0:	4b1d      	ldr	r3, [pc, #116]	; (8001058 <HAL_RCC_OscConfig+0x4f4>)
 8000fe2:	681b      	ldr	r3, [r3, #0]
 8000fe4:	f003 7300 	and.w	r3, r3, #33554432	; 0x2000000
 8000fe8:	2b00      	cmp	r3, #0
 8000fea:	d0f0      	beq.n	8000fce <HAL_RCC_OscConfig+0x46a>
 8000fec:	e02f      	b.n	800104e <HAL_RCC_OscConfig+0x4ea>
        }
      }
      else
      {
        /* Disable the main PLL. */
        __HAL_RCC_PLL_DISABLE();
 8000fee:	4b1c      	ldr	r3, [pc, #112]	; (8001060 <HAL_RCC_OscConfig+0x4fc>)
 8000ff0:	2200      	movs	r2, #0
 8000ff2:	601a      	str	r2, [r3, #0]

        /* Get Start Tick */
        tickstart = HAL_GetTick();
 8000ff4:	f7ff fb24 	bl	8000640 <HAL_GetTick>
 8000ff8:	6138      	str	r0, [r7, #16]

        /* Wait till PLL is disabled */
        while (__HAL_RCC_GET_FLAG(RCC_FLAG_PLLRDY)  != RESET)
 8000ffa:	e008      	b.n	800100e <HAL_RCC_OscConfig+0x4aa>
        {
          if ((HAL_GetTick() - tickstart) > PLL_TIMEOUT_VALUE)
 8000ffc:	f7ff fb20 	bl	8000640 <HAL_GetTick>
 8001000:	4602      	mov	r2, r0
 8001002:	693b      	ldr	r3, [r7, #16]
 8001004:	1ad3      	subs	r3, r2, r3
 8001006:	2b02      	cmp	r3, #2
 8001008:	d901      	bls.n	800100e <HAL_RCC_OscConfig+0x4aa>
          {
            return HAL_TIMEOUT;
 800100a:	2303      	movs	r3, #3
 800100c:	e020      	b.n	8001050 <HAL_RCC_OscConfig+0x4ec>
        while (__HAL_RCC_GET_FLAG(RCC_FLAG_PLLRDY)  != RESET)
 800100e:	4b12      	ldr	r3, [pc, #72]	; (8001058 <HAL_RCC_OscConfig+0x4f4>)
 8001010:	681b      	ldr	r3, [r3, #0]
 8001012:	f003 7300 	and.w	r3, r3, #33554432	; 0x2000000
 8001016:	2b00      	cmp	r3, #0
 8001018:	d1f0      	bne.n	8000ffc <HAL_RCC_OscConfig+0x498>
 800101a:	e018      	b.n	800104e <HAL_RCC_OscConfig+0x4ea>
      }
    }
    else
    {
      /* Check if there is a request to disable the PLL used as System clock source */
      if ((RCC_OscInitStruct->PLL.PLLState) == RCC_PLL_OFF)
 800101c:	687b      	ldr	r3, [r7, #4]
 800101e:	69db      	ldr	r3, [r3, #28]
 8001020:	2b01      	cmp	r3, #1
 8001022:	d101      	bne.n	8001028 <HAL_RCC_OscConfig+0x4c4>
      {
        return HAL_ERROR;
 8001024:	2301      	movs	r3, #1
 8001026:	e013      	b.n	8001050 <HAL_RCC_OscConfig+0x4ec>
      }
      else
      {
        /* Do not return HAL_ERROR if request repeats the current configuration */
        pll_config = RCC->CFGR;
 8001028:	4b0b      	ldr	r3, [pc, #44]	; (8001058 <HAL_RCC_OscConfig+0x4f4>)
 800102a:	685b      	ldr	r3, [r3, #4]
 800102c:	60fb      	str	r3, [r7, #12]
        if ((READ_BIT(pll_config, RCC_CFGR_PLLSRC) != RCC_OscInitStruct->PLL.PLLSource) ||
 800102e:	68fb      	ldr	r3, [r7, #12]
 8001030:	f403 3280 	and.w	r2, r3, #65536	; 0x10000
 8001034:	687b      	ldr	r3, [r7, #4]
 8001036:	6a1b      	ldr	r3, [r3, #32]
 8001038:	429a      	cmp	r2, r3
 800103a:	d106      	bne.n	800104a <HAL_RCC_OscConfig+0x4e6>
            (READ_BIT(pll_config, RCC_CFGR_PLLMULL) != RCC_OscInitStruct->PLL.PLLMUL))
 800103c:	68fb      	ldr	r3, [r7, #12]
 800103e:	f403 1270 	and.w	r2, r3, #3932160	; 0x3c0000
 8001042:	687b      	ldr	r3, [r7, #4]
 8001044:	6a5b      	ldr	r3, [r3, #36]	; 0x24
        if ((READ_BIT(pll_config, RCC_CFGR_PLLSRC) != RCC_OscInitStruct->PLL.PLLSource) ||
 8001046:	429a      	cmp	r2, r3
 8001048:	d001      	beq.n	800104e <HAL_RCC_OscConfig+0x4ea>
        {
          return HAL_ERROR;
 800104a:	2301      	movs	r3, #1
 800104c:	e000      	b.n	8001050 <HAL_RCC_OscConfig+0x4ec>
        }
      }
    }
  }

  return HAL_OK;
 800104e:	2300      	movs	r3, #0
}
 8001050:	4618      	mov	r0, r3
 8001052:	3718      	adds	r7, #24
 8001054:	46bd      	mov	sp, r7
 8001056:	bd80      	pop	{r7, pc}
 8001058:	40021000 	.word	0x40021000
 800105c:	40007000 	.word	0x40007000
 8001060:	42420060 	.word	0x42420060

08001064 <HAL_RCC_ClockConfig>:
  *         You can use @ref HAL_RCC_GetClockConfig() function to know which clock is
  *         currently used as system clock source.
  * @retval HAL status
  */
HAL_StatusTypeDef HAL_RCC_ClockConfig(RCC_ClkInitTypeDef  *RCC_ClkInitStruct, uint32_t FLatency)
{
 8001064:	b580      	push	{r7, lr}
 8001066:	b084      	sub	sp, #16
 8001068:	af00      	add	r7, sp, #0
 800106a:	6078      	str	r0, [r7, #4]
 800106c:	6039      	str	r1, [r7, #0]
  uint32_t tickstart;

  /* Check Null pointer */
  if (RCC_ClkInitStruct == NULL)
 800106e:	687b      	ldr	r3, [r7, #4]
 8001070:	2b00      	cmp	r3, #0
 8001072:	d101      	bne.n	8001078 <HAL_RCC_ClockConfig+0x14>
  {
    return HAL_ERROR;
 8001074:	2301      	movs	r3, #1
 8001076:	e0d0      	b.n	800121a <HAL_RCC_ClockConfig+0x1b6>
  must be correctly programmed according to the frequency of the CPU clock
    (HCLK) of the device. */

#if defined(FLASH_ACR_LATENCY)
  /* Increasing the number of wait states because of higher CPU frequency */
  if (FLatency > __HAL_FLASH_GET_LATENCY())
 8001078:	4b6a      	ldr	r3, [pc, #424]	; (8001224 <HAL_RCC_ClockConfig+0x1c0>)
 800107a:	681b      	ldr	r3, [r3, #0]
 800107c:	f003 0307 	and.w	r3, r3, #7
 8001080:	683a      	ldr	r2, [r7, #0]
 8001082:	429a      	cmp	r2, r3
 8001084:	d910      	bls.n	80010a8 <HAL_RCC_ClockConfig+0x44>
  {
    /* Program the new number of wait states to the LATENCY bits in the FLASH_ACR register */
    __HAL_FLASH_SET_LATENCY(FLatency);
 8001086:	4b67      	ldr	r3, [pc, #412]	; (8001224 <HAL_RCC_ClockConfig+0x1c0>)
 8001088:	681b      	ldr	r3, [r3, #0]
 800108a:	f023 0207 	bic.w	r2, r3, #7
 800108e:	4965      	ldr	r1, [pc, #404]	; (8001224 <HAL_RCC_ClockConfig+0x1c0>)
 8001090:	683b      	ldr	r3, [r7, #0]
 8001092:	4313      	orrs	r3, r2
 8001094:	600b      	str	r3, [r1, #0]

    /* Check that the new number of wait states is taken into account to access the Flash
    memory by reading the FLASH_ACR register */
    if (__HAL_FLASH_GET_LATENCY() != FLatency)
 8001096:	4b63      	ldr	r3, [pc, #396]	; (8001224 <HAL_RCC_ClockConfig+0x1c0>)
 8001098:	681b      	ldr	r3, [r3, #0]
 800109a:	f003 0307 	and.w	r3, r3, #7
 800109e:	683a      	ldr	r2, [r7, #0]
 80010a0:	429a      	cmp	r2, r3
 80010a2:	d001      	beq.n	80010a8 <HAL_RCC_ClockConfig+0x44>
  {
    return HAL_ERROR;
 80010a4:	2301      	movs	r3, #1
 80010a6:	e0b8      	b.n	800121a <HAL_RCC_ClockConfig+0x1b6>
  }
}

#endif /* FLASH_ACR_LATENCY */
/*-------------------------- HCLK Configuration --------------------------*/
if (((RCC_ClkInitStruct->ClockType) & RCC_CLOCKTYPE_HCLK) == RCC_CLOCKTYPE_HCLK)
 80010a8:	687b      	ldr	r3, [r7, #4]
 80010aa:	681b      	ldr	r3, [r3, #0]
 80010ac:	f003 0302 	and.w	r3, r3, #2
 80010b0:	2b00      	cmp	r3, #0
 80010b2:	d020      	beq.n	80010f6 <HAL_RCC_ClockConfig+0x92>
  {
    /* Set the highest APBx dividers in order to ensure that we do not go through
    a non-spec phase whatever we decrease or increase HCLK. */
    if (((RCC_ClkInitStruct->ClockType) & RCC_CLOCKTYPE_PCLK1) == RCC_CLOCKTYPE_PCLK1)
 80010b4:	687b      	ldr	r3, [r7, #4]
 80010b6:	681b      	ldr	r3, [r3, #0]
 80010b8:	f003 0304 	and.w	r3, r3, #4
 80010bc:	2b00      	cmp	r3, #0
 80010be:	d005      	beq.n	80010cc <HAL_RCC_ClockConfig+0x68>
    {
      MODIFY_REG(RCC->CFGR, RCC_CFGR_PPRE1, RCC_HCLK_DIV16);
 80010c0:	4b59      	ldr	r3, [pc, #356]	; (8001228 <HAL_RCC_ClockConfig+0x1c4>)
 80010c2:	685b      	ldr	r3, [r3, #4]
 80010c4:	4a58      	ldr	r2, [pc, #352]	; (8001228 <HAL_RCC_ClockConfig+0x1c4>)
 80010c6:	f443 63e0 	orr.w	r3, r3, #1792	; 0x700
 80010ca:	6053      	str	r3, [r2, #4]
    }

    if (((RCC_ClkInitStruct->ClockType) & RCC_CLOCKTYPE_PCLK2) == RCC_CLOCKTYPE_PCLK2)
 80010cc:	687b      	ldr	r3, [r7, #4]
 80010ce:	681b      	ldr	r3, [r3, #0]
 80010d0:	f003 0308 	and.w	r3, r3, #8
 80010d4:	2b00      	cmp	r3, #0
 80010d6:	d005      	beq.n	80010e4 <HAL_RCC_ClockConfig+0x80>
    {
      MODIFY_REG(RCC->CFGR, RCC_CFGR_PPRE2, (RCC_HCLK_DIV16 << 3));
 80010d8:	4b53      	ldr	r3, [pc, #332]	; (8001228 <HAL_RCC_ClockConfig+0x1c4>)
 80010da:	685b      	ldr	r3, [r3, #4]
 80010dc:	4a52      	ldr	r2, [pc, #328]	; (8001228 <HAL_RCC_ClockConfig+0x1c4>)
 80010de:	f443 5360 	orr.w	r3, r3, #14336	; 0x3800
 80010e2:	6053      	str	r3, [r2, #4]
    }

    /* Set the new HCLK clock divider */
    assert_param(IS_RCC_HCLK(RCC_ClkInitStruct->AHBCLKDivider));
    MODIFY_REG(RCC->CFGR, RCC_CFGR_HPRE, RCC_ClkInitStruct->AHBCLKDivider);
 80010e4:	4b50      	ldr	r3, [pc, #320]	; (8001228 <HAL_RCC_ClockConfig+0x1c4>)
 80010e6:	685b      	ldr	r3, [r3, #4]
 80010e8:	f023 02f0 	bic.w	r2, r3, #240	; 0xf0
 80010ec:	687b      	ldr	r3, [r7, #4]
 80010ee:	689b      	ldr	r3, [r3, #8]
 80010f0:	494d      	ldr	r1, [pc, #308]	; (8001228 <HAL_RCC_ClockConfig+0x1c4>)
 80010f2:	4313      	orrs	r3, r2
 80010f4:	604b      	str	r3, [r1, #4]
  }

  /*------------------------- SYSCLK Configuration ---------------------------*/
  if (((RCC_ClkInitStruct->ClockType) & RCC_CLOCKTYPE_SYSCLK) == RCC_CLOCKTYPE_SYSCLK)
 80010f6:	687b      	ldr	r3, [r7, #4]
 80010f8:	681b      	ldr	r3, [r3, #0]
 80010fa:	f003 0301 	and.w	r3, r3, #1
 80010fe:	2b00      	cmp	r3, #0
 8001100:	d040      	beq.n	8001184 <HAL_RCC_ClockConfig+0x120>
  {
    assert_param(IS_RCC_SYSCLKSOURCE(RCC_ClkInitStruct->SYSCLKSource));

    /* HSE is selected as System Clock Source */
    if (RCC_ClkInitStruct->SYSCLKSource == RCC_SYSCLKSOURCE_HSE)
 8001102:	687b      	ldr	r3, [r7, #4]
 8001104:	685b      	ldr	r3, [r3, #4]
 8001106:	2b01      	cmp	r3, #1
 8001108:	d107      	bne.n	800111a <HAL_RCC_ClockConfig+0xb6>
    {
      /* Check the HSE ready flag */
      if (__HAL_RCC_GET_FLAG(RCC_FLAG_HSERDY) == RESET)
 800110a:	4b47      	ldr	r3, [pc, #284]	; (8001228 <HAL_RCC_ClockConfig+0x1c4>)
 800110c:	681b      	ldr	r3, [r3, #0]
 800110e:	f403 3300 	and.w	r3, r3, #131072	; 0x20000
 8001112:	2b00      	cmp	r3, #0
 8001114:	d115      	bne.n	8001142 <HAL_RCC_ClockConfig+0xde>
      {
        return HAL_ERROR;
 8001116:	2301      	movs	r3, #1
 8001118:	e07f      	b.n	800121a <HAL_RCC_ClockConfig+0x1b6>
      }
    }
    /* PLL is selected as System Clock Source */
    else if (RCC_ClkInitStruct->SYSCLKSource == RCC_SYSCLKSOURCE_PLLCLK)
 800111a:	687b      	ldr	r3, [r7, #4]
 800111c:	685b      	ldr	r3, [r3, #4]
 800111e:	2b02      	cmp	r3, #2
 8001120:	d107      	bne.n	8001132 <HAL_RCC_ClockConfig+0xce>
    {
      /* Check the PLL ready flag */
      if (__HAL_RCC_GET_FLAG(RCC_FLAG_PLLRDY) == RESET)
 8001122:	4b41      	ldr	r3, [pc, #260]	; (8001228 <HAL_RCC_ClockConfig+0x1c4>)
 8001124:	681b      	ldr	r3, [r3, #0]
 8001126:	f003 7300 	and.w	r3, r3, #33554432	; 0x2000000
 800112a:	2b00      	cmp	r3, #0
 800112c:	d109      	bne.n	8001142 <HAL_RCC_ClockConfig+0xde>
      {
        return HAL_ERROR;
 800112e:	2301      	movs	r3, #1
 8001130:	e073      	b.n	800121a <HAL_RCC_ClockConfig+0x1b6>
    }
    /* HSI is selected as System Clock Source */
    else
    {
      /* Check the HSI ready flag */
      if (__HAL_RCC_GET_FLAG(RCC_FLAG_HSIRDY) == RESET)
 8001132:	4b3d      	ldr	r3, [pc, #244]	; (8001228 <HAL_RCC_ClockConfig+0x1c4>)
 8001134:	681b      	ldr	r3, [r3, #0]
 8001136:	f003 0302 	and.w	r3, r3, #2
 800113a:	2b00      	cmp	r3, #0
 800113c:	d101      	bne.n	8001142 <HAL_RCC_ClockConfig+0xde>
      {
        return HAL_ERROR;
 800113e:	2301      	movs	r3, #1
 8001140:	e06b      	b.n	800121a <HAL_RCC_ClockConfig+0x1b6>
      }
    }
    __HAL_RCC_SYSCLK_CONFIG(RCC_ClkInitStruct->SYSCLKSource);
 8001142:	4b39      	ldr	r3, [pc, #228]	; (8001228 <HAL_RCC_ClockConfig+0x1c4>)
 8001144:	685b      	ldr	r3, [r3, #4]
 8001146:	f023 0203 	bic.w	r2, r3, #3
 800114a:	687b      	ldr	r3, [r7, #4]
 800114c:	685b      	ldr	r3, [r3, #4]
 800114e:	4936      	ldr	r1, [pc, #216]	; (8001228 <HAL_RCC_ClockConfig+0x1c4>)
 8001150:	4313      	orrs	r3, r2
 8001152:	604b      	str	r3, [r1, #4]

    /* Get Start Tick */
    tickstart = HAL_GetTick();
 8001154:	f7ff fa74 	bl	8000640 <HAL_GetTick>
 8001158:	60f8      	str	r0, [r7, #12]

    while (__HAL_RCC_GET_SYSCLK_SOURCE() != (RCC_ClkInitStruct->SYSCLKSource << RCC_CFGR_SWS_Pos))
 800115a:	e00a      	b.n	8001172 <HAL_RCC_ClockConfig+0x10e>
    {
      if ((HAL_GetTick() - tickstart) > CLOCKSWITCH_TIMEOUT_VALUE)
 800115c:	f7ff fa70 	bl	8000640 <HAL_GetTick>
 8001160:	4602      	mov	r2, r0
 8001162:	68fb      	ldr	r3, [r7, #12]
 8001164:	1ad3      	subs	r3, r2, r3
 8001166:	f241 3288 	movw	r2, #5000	; 0x1388
 800116a:	4293      	cmp	r3, r2
 800116c:	d901      	bls.n	8001172 <HAL_RCC_ClockConfig+0x10e>
      {
        return HAL_TIMEOUT;
 800116e:	2303      	movs	r3, #3
 8001170:	e053      	b.n	800121a <HAL_RCC_ClockConfig+0x1b6>
    while (__HAL_RCC_GET_SYSCLK_SOURCE() != (RCC_ClkInitStruct->SYSCLKSource << RCC_CFGR_SWS_Pos))
 8001172:	4b2d      	ldr	r3, [pc, #180]	; (8001228 <HAL_RCC_ClockConfig+0x1c4>)
 8001174:	685b      	ldr	r3, [r3, #4]
 8001176:	f003 020c 	and.w	r2, r3, #12
 800117a:	687b      	ldr	r3, [r7, #4]
 800117c:	685b      	ldr	r3, [r3, #4]
 800117e:	009b      	lsls	r3, r3, #2
 8001180:	429a      	cmp	r2, r3
 8001182:	d1eb      	bne.n	800115c <HAL_RCC_ClockConfig+0xf8>
    }
  }

#if defined(FLASH_ACR_LATENCY)
  /* Decreasing the number of wait states because of lower CPU frequency */
  if (FLatency < __HAL_FLASH_GET_LATENCY())
 8001184:	4b27      	ldr	r3, [pc, #156]	; (8001224 <HAL_RCC_ClockConfig+0x1c0>)
 8001186:	681b      	ldr	r3, [r3, #0]
 8001188:	f003 0307 	and.w	r3, r3, #7
 800118c:	683a      	ldr	r2, [r7, #0]
 800118e:	429a      	cmp	r2, r3
 8001190:	d210      	bcs.n	80011b4 <HAL_RCC_ClockConfig+0x150>
  {
    /* Program the new number of wait states to the LATENCY bits in the FLASH_ACR register */
    __HAL_FLASH_SET_LATENCY(FLatency);
 8001192:	4b24      	ldr	r3, [pc, #144]	; (8001224 <HAL_RCC_ClockConfig+0x1c0>)
 8001194:	681b      	ldr	r3, [r3, #0]
 8001196:	f023 0207 	bic.w	r2, r3, #7
 800119a:	4922      	ldr	r1, [pc, #136]	; (8001224 <HAL_RCC_ClockConfig+0x1c0>)
 800119c:	683b      	ldr	r3, [r7, #0]
 800119e:	4313      	orrs	r3, r2
 80011a0:	600b      	str	r3, [r1, #0]

    /* Check that the new number of wait states is taken into account to access the Flash
    memory by reading the FLASH_ACR register */
    if (__HAL_FLASH_GET_LATENCY() != FLatency)
 80011a2:	4b20      	ldr	r3, [pc, #128]	; (8001224 <HAL_RCC_ClockConfig+0x1c0>)
 80011a4:	681b      	ldr	r3, [r3, #0]
 80011a6:	f003 0307 	and.w	r3, r3, #7
 80011aa:	683a      	ldr	r2, [r7, #0]
 80011ac:	429a      	cmp	r2, r3
 80011ae:	d001      	beq.n	80011b4 <HAL_RCC_ClockConfig+0x150>
  {
    return HAL_ERROR;
 80011b0:	2301      	movs	r3, #1
 80011b2:	e032      	b.n	800121a <HAL_RCC_ClockConfig+0x1b6>
  }
}
#endif /* FLASH_ACR_LATENCY */

/*-------------------------- PCLK1 Configuration ---------------------------*/
if (((RCC_ClkInitStruct->ClockType) & RCC_CLOCKTYPE_PCLK1) == RCC_CLOCKTYPE_PCLK1)
 80011b4:	687b      	ldr	r3, [r7, #4]
 80011b6:	681b      	ldr	r3, [r3, #0]
 80011b8:	f003 0304 	and.w	r3, r3, #4
 80011bc:	2b00      	cmp	r3, #0
 80011be:	d008      	beq.n	80011d2 <HAL_RCC_ClockConfig+0x16e>
  {
    assert_param(IS_RCC_PCLK(RCC_ClkInitStruct->APB1CLKDivider));
    MODIFY_REG(RCC->CFGR, RCC_CFGR_PPRE1, RCC_ClkInitStruct->APB1CLKDivider);
 80011c0:	4b19      	ldr	r3, [pc, #100]	; (8001228 <HAL_RCC_ClockConfig+0x1c4>)
 80011c2:	685b      	ldr	r3, [r3, #4]
 80011c4:	f423 62e0 	bic.w	r2, r3, #1792	; 0x700
 80011c8:	687b      	ldr	r3, [r7, #4]
 80011ca:	68db      	ldr	r3, [r3, #12]
 80011cc:	4916      	ldr	r1, [pc, #88]	; (8001228 <HAL_RCC_ClockConfig+0x1c4>)
 80011ce:	4313      	orrs	r3, r2
 80011d0:	604b      	str	r3, [r1, #4]
  }

  /*-------------------------- PCLK2 Configuration ---------------------------*/
  if (((RCC_ClkInitStruct->ClockType) & RCC_CLOCKTYPE_PCLK2) == RCC_CLOCKTYPE_PCLK2)
 80011d2:	687b      	ldr	r3, [r7, #4]
 80011d4:	681b      	ldr	r3, [r3, #0]
 80011d6:	f003 0308 	and.w	r3, r3, #8
 80011da:	2b00      	cmp	r3, #0
 80011dc:	d009      	beq.n	80011f2 <HAL_RCC_ClockConfig+0x18e>
  {
    assert_param(IS_RCC_PCLK(RCC_ClkInitStruct->APB2CLKDivider));
    MODIFY_REG(RCC->CFGR, RCC_CFGR_PPRE2, ((RCC_ClkInitStruct->APB2CLKDivider) << 3));
 80011de:	4b12      	ldr	r3, [pc, #72]	; (8001228 <HAL_RCC_ClockConfig+0x1c4>)
 80011e0:	685b      	ldr	r3, [r3, #4]
 80011e2:	f423 5260 	bic.w	r2, r3, #14336	; 0x3800
 80011e6:	687b      	ldr	r3, [r7, #4]
 80011e8:	691b      	ldr	r3, [r3, #16]
 80011ea:	00db      	lsls	r3, r3, #3
 80011ec:	490e      	ldr	r1, [pc, #56]	; (8001228 <HAL_RCC_ClockConfig+0x1c4>)
 80011ee:	4313      	orrs	r3, r2
 80011f0:	604b      	str	r3, [r1, #4]
  }

  /* Update the SystemCoreClock global variable */
  SystemCoreClock = HAL_RCC_GetSysClockFreq() >> AHBPrescTable[(RCC->CFGR & RCC_CFGR_HPRE) >> RCC_CFGR_HPRE_Pos];
 80011f2:	f000 f821 	bl	8001238 <HAL_RCC_GetSysClockFreq>
 80011f6:	4601      	mov	r1, r0
 80011f8:	4b0b      	ldr	r3, [pc, #44]	; (8001228 <HAL_RCC_ClockConfig+0x1c4>)
 80011fa:	685b      	ldr	r3, [r3, #4]
 80011fc:	091b      	lsrs	r3, r3, #4
 80011fe:	f003 030f 	and.w	r3, r3, #15
 8001202:	4a0a      	ldr	r2, [pc, #40]	; (800122c <HAL_RCC_ClockConfig+0x1c8>)
 8001204:	5cd3      	ldrb	r3, [r2, r3]
 8001206:	fa21 f303 	lsr.w	r3, r1, r3
 800120a:	4a09      	ldr	r2, [pc, #36]	; (8001230 <HAL_RCC_ClockConfig+0x1cc>)
 800120c:	6013      	str	r3, [r2, #0]

  /* Configure the source of time base considering new system clocks settings*/
  HAL_InitTick(uwTickPrio);
 800120e:	4b09      	ldr	r3, [pc, #36]	; (8001234 <HAL_RCC_ClockConfig+0x1d0>)
 8001210:	681b      	ldr	r3, [r3, #0]
 8001212:	4618      	mov	r0, r3
 8001214:	f7ff f9d2 	bl	80005bc <HAL_InitTick>

  return HAL_OK;
 8001218:	2300      	movs	r3, #0
}
 800121a:	4618      	mov	r0, r3
 800121c:	3710      	adds	r7, #16
 800121e:	46bd      	mov	sp, r7
 8001220:	bd80      	pop	{r7, pc}
 8001222:	bf00      	nop
 8001224:	40022000 	.word	0x40022000
 8001228:	40021000 	.word	0x40021000
 800122c:	080013c4 	.word	0x080013c4
 8001230:	2000000c 	.word	0x2000000c
 8001234:	20000010 	.word	0x20000010

08001238 <HAL_RCC_GetSysClockFreq>:
  *         right SYSCLK value. Otherwise, any configuration based on this function will be incorrect.
  *
  * @retval SYSCLK frequency
  */
uint32_t HAL_RCC_GetSysClockFreq(void)
{
 8001238:	b490      	push	{r4, r7}
 800123a:	b08a      	sub	sp, #40	; 0x28
 800123c:	af00      	add	r7, sp, #0
#if defined(RCC_CFGR2_PREDIV1SRC)
  const uint8_t aPLLMULFactorTable[14] = {0, 0, 4, 5, 6, 7, 8, 9, 0, 0, 0, 0, 0, 13};
  const uint8_t aPredivFactorTable[16] = {1, 2, 3, 4, 5, 6, 7, 8, 9, 10, 11, 12, 13, 14, 15, 16};
#else
  const uint8_t aPLLMULFactorTable[16] = {2, 3, 4, 5, 6, 7, 8, 9, 10, 11, 12, 13, 14, 15, 16, 16};
 800123e:	4b2a      	ldr	r3, [pc, #168]	; (80012e8 <HAL_RCC_GetSysClockFreq+0xb0>)
 8001240:	1d3c      	adds	r4, r7, #4
 8001242:	cb0f      	ldmia	r3, {r0, r1, r2, r3}
 8001244:	e884 000f 	stmia.w	r4, {r0, r1, r2, r3}
#if defined(RCC_CFGR2_PREDIV1)
  const uint8_t aPredivFactorTable[16] = {1, 2, 3, 4, 5, 6, 7, 8, 9, 10, 11, 12, 13, 14, 15, 16};
#else
  const uint8_t aPredivFactorTable[2] = {1, 2};
 8001248:	4b28      	ldr	r3, [pc, #160]	; (80012ec <HAL_RCC_GetSysClockFreq+0xb4>)
 800124a:	881b      	ldrh	r3, [r3, #0]
 800124c:	803b      	strh	r3, [r7, #0]
#endif /*RCC_CFGR2_PREDIV1*/

#endif
  uint32_t tmpreg = 0U, prediv = 0U, pllclk = 0U, pllmul = 0U;
 800124e:	2300      	movs	r3, #0
 8001250:	61fb      	str	r3, [r7, #28]
 8001252:	2300      	movs	r3, #0
 8001254:	61bb      	str	r3, [r7, #24]
 8001256:	2300      	movs	r3, #0
 8001258:	627b      	str	r3, [r7, #36]	; 0x24
 800125a:	2300      	movs	r3, #0
 800125c:	617b      	str	r3, [r7, #20]
  uint32_t sysclockfreq = 0U;
 800125e:	2300      	movs	r3, #0
 8001260:	623b      	str	r3, [r7, #32]
#if defined(RCC_CFGR2_PREDIV1SRC)
  uint32_t prediv2 = 0U, pll2mul = 0U;
#endif /*RCC_CFGR2_PREDIV1SRC*/

  tmpreg = RCC->CFGR;
 8001262:	4b23      	ldr	r3, [pc, #140]	; (80012f0 <HAL_RCC_GetSysClockFreq+0xb8>)
 8001264:	685b      	ldr	r3, [r3, #4]
 8001266:	61fb      	str	r3, [r7, #28]

  /* Get SYSCLK source -------------------------------------------------------*/
  switch (tmpreg & RCC_CFGR_SWS)
 8001268:	69fb      	ldr	r3, [r7, #28]
 800126a:	f003 030c 	and.w	r3, r3, #12
 800126e:	2b04      	cmp	r3, #4
 8001270:	d002      	beq.n	8001278 <HAL_RCC_GetSysClockFreq+0x40>
 8001272:	2b08      	cmp	r3, #8
 8001274:	d003      	beq.n	800127e <HAL_RCC_GetSysClockFreq+0x46>
 8001276:	e02d      	b.n	80012d4 <HAL_RCC_GetSysClockFreq+0x9c>
  {
    case RCC_SYSCLKSOURCE_STATUS_HSE:  /* HSE used as system clock */
    {
      sysclockfreq = HSE_VALUE;
 8001278:	4b1e      	ldr	r3, [pc, #120]	; (80012f4 <HAL_RCC_GetSysClockFreq+0xbc>)
 800127a:	623b      	str	r3, [r7, #32]
      break;
 800127c:	e02d      	b.n	80012da <HAL_RCC_GetSysClockFreq+0xa2>
    }
    case RCC_SYSCLKSOURCE_STATUS_PLLCLK:  /* PLL used as system clock */
    {
      pllmul = aPLLMULFactorTable[(uint32_t)(tmpreg & RCC_CFGR_PLLMULL) >> RCC_CFGR_PLLMULL_Pos];
 800127e:	69fb      	ldr	r3, [r7, #28]
 8001280:	0c9b      	lsrs	r3, r3, #18
 8001282:	f003 030f 	and.w	r3, r3, #15
 8001286:	f107 0228 	add.w	r2, r7, #40	; 0x28
 800128a:	4413      	add	r3, r2
 800128c:	f813 3c24 	ldrb.w	r3, [r3, #-36]
 8001290:	617b      	str	r3, [r7, #20]
      if ((tmpreg & RCC_CFGR_PLLSRC) != RCC_PLLSOURCE_HSI_DIV2)
 8001292:	69fb      	ldr	r3, [r7, #28]
 8001294:	f403 3380 	and.w	r3, r3, #65536	; 0x10000
 8001298:	2b00      	cmp	r3, #0
 800129a:	d013      	beq.n	80012c4 <HAL_RCC_GetSysClockFreq+0x8c>
      {
#if defined(RCC_CFGR2_PREDIV1)
        prediv = aPredivFactorTable[(uint32_t)(RCC->CFGR2 & RCC_CFGR2_PREDIV1) >> RCC_CFGR2_PREDIV1_Pos];
#else
        prediv = aPredivFactorTable[(uint32_t)(RCC->CFGR & RCC_CFGR_PLLXTPRE) >> RCC_CFGR_PLLXTPRE_Pos];
 800129c:	4b14      	ldr	r3, [pc, #80]	; (80012f0 <HAL_RCC_GetSysClockFreq+0xb8>)
 800129e:	685b      	ldr	r3, [r3, #4]
 80012a0:	0c5b      	lsrs	r3, r3, #17
 80012a2:	f003 0301 	and.w	r3, r3, #1
 80012a6:	f107 0228 	add.w	r2, r7, #40	; 0x28
 80012aa:	4413      	add	r3, r2
 80012ac:	f813 3c28 	ldrb.w	r3, [r3, #-40]
 80012b0:	61bb      	str	r3, [r7, #24]
        {
          pllclk = pllclk / 2;
        }
#else
        /* HSE used as PLL clock source : PLLCLK = HSE/PREDIV1 * PLLMUL */
        pllclk = (uint32_t)((HSE_VALUE  * pllmul) / prediv);
 80012b2:	697b      	ldr	r3, [r7, #20]
 80012b4:	4a0f      	ldr	r2, [pc, #60]	; (80012f4 <HAL_RCC_GetSysClockFreq+0xbc>)
 80012b6:	fb02 f203 	mul.w	r2, r2, r3
 80012ba:	69bb      	ldr	r3, [r7, #24]
 80012bc:	fbb2 f3f3 	udiv	r3, r2, r3
 80012c0:	627b      	str	r3, [r7, #36]	; 0x24
 80012c2:	e004      	b.n	80012ce <HAL_RCC_GetSysClockFreq+0x96>
#endif /*RCC_CFGR2_PREDIV1SRC*/
      }
      else
      {
        /* HSI used as PLL clock source : PLLCLK = HSI/2 * PLLMUL */
        pllclk = (uint32_t)((HSI_VALUE >> 1) * pllmul);
 80012c4:	697b      	ldr	r3, [r7, #20]
 80012c6:	4a0c      	ldr	r2, [pc, #48]	; (80012f8 <HAL_RCC_GetSysClockFreq+0xc0>)
 80012c8:	fb02 f303 	mul.w	r3, r2, r3
 80012cc:	627b      	str	r3, [r7, #36]	; 0x24
      }
      sysclockfreq = pllclk;
 80012ce:	6a7b      	ldr	r3, [r7, #36]	; 0x24
 80012d0:	623b      	str	r3, [r7, #32]
      break;
 80012d2:	e002      	b.n	80012da <HAL_RCC_GetSysClockFreq+0xa2>
    }
    case RCC_SYSCLKSOURCE_STATUS_HSI:  /* HSI used as system clock source */
    default: /* HSI used as system clock */
    {
      sysclockfreq = HSI_VALUE;
 80012d4:	4b07      	ldr	r3, [pc, #28]	; (80012f4 <HAL_RCC_GetSysClockFreq+0xbc>)
 80012d6:	623b      	str	r3, [r7, #32]
      break;
 80012d8:	bf00      	nop
    }
  }
  return sysclockfreq;
 80012da:	6a3b      	ldr	r3, [r7, #32]
}
 80012dc:	4618      	mov	r0, r3
 80012de:	3728      	adds	r7, #40	; 0x28
 80012e0:	46bd      	mov	sp, r7
 80012e2:	bc90      	pop	{r4, r7}
 80012e4:	4770      	bx	lr
 80012e6:	bf00      	nop
 80012e8:	080013b0 	.word	0x080013b0
 80012ec:	080013c0 	.word	0x080013c0
 80012f0:	40021000 	.word	0x40021000
 80012f4:	007a1200 	.word	0x007a1200
 80012f8:	003d0900 	.word	0x003d0900

080012fc <RCC_Delay>:
  * @brief  This function provides delay (in milliseconds) based on CPU cycles method.
  * @param  mdelay: specifies the delay time length, in milliseconds.
  * @retval None
  */
static void RCC_Delay(uint32_t mdelay)
{
 80012fc:	b480      	push	{r7}
 80012fe:	b085      	sub	sp, #20
 8001300:	af00      	add	r7, sp, #0
 8001302:	6078      	str	r0, [r7, #4]
  __IO uint32_t Delay = mdelay * (SystemCoreClock / 8U / 1000U);
 8001304:	4b0a      	ldr	r3, [pc, #40]	; (8001330 <RCC_Delay+0x34>)
 8001306:	681b      	ldr	r3, [r3, #0]
 8001308:	4a0a      	ldr	r2, [pc, #40]	; (8001334 <RCC_Delay+0x38>)
 800130a:	fba2 2303 	umull	r2, r3, r2, r3
 800130e:	0a5b      	lsrs	r3, r3, #9
 8001310:	687a      	ldr	r2, [r7, #4]
 8001312:	fb02 f303 	mul.w	r3, r2, r3
 8001316:	60fb      	str	r3, [r7, #12]
  do
  {
    __NOP();
 8001318:	bf00      	nop
  }
  while (Delay --);
 800131a:	68fb      	ldr	r3, [r7, #12]
 800131c:	1e5a      	subs	r2, r3, #1
 800131e:	60fa      	str	r2, [r7, #12]
 8001320:	2b00      	cmp	r3, #0
 8001322:	d1f9      	bne.n	8001318 <RCC_Delay+0x1c>
}
 8001324:	bf00      	nop
 8001326:	3714      	adds	r7, #20
 8001328:	46bd      	mov	sp, r7
 800132a:	bc80      	pop	{r7}
 800132c:	4770      	bx	lr
 800132e:	bf00      	nop
 8001330:	2000000c 	.word	0x2000000c
 8001334:	10624dd3 	.word	0x10624dd3

08001338 <__libc_init_array>:
 8001338:	b570      	push	{r4, r5, r6, lr}
 800133a:	2500      	movs	r5, #0
 800133c:	4e0c      	ldr	r6, [pc, #48]	; (8001370 <__libc_init_array+0x38>)
 800133e:	4c0d      	ldr	r4, [pc, #52]	; (8001374 <__libc_init_array+0x3c>)
 8001340:	1ba4      	subs	r4, r4, r6
 8001342:	10a4      	asrs	r4, r4, #2
 8001344:	42a5      	cmp	r5, r4
 8001346:	d109      	bne.n	800135c <__libc_init_array+0x24>
 8001348:	f000 f822 	bl	8001390 <_init>
 800134c:	2500      	movs	r5, #0
 800134e:	4e0a      	ldr	r6, [pc, #40]	; (8001378 <__libc_init_array+0x40>)
 8001350:	4c0a      	ldr	r4, [pc, #40]	; (800137c <__libc_init_array+0x44>)
 8001352:	1ba4      	subs	r4, r4, r6
 8001354:	10a4      	asrs	r4, r4, #2
 8001356:	42a5      	cmp	r5, r4
 8001358:	d105      	bne.n	8001366 <__libc_init_array+0x2e>
 800135a:	bd70      	pop	{r4, r5, r6, pc}
 800135c:	f856 3025 	ldr.w	r3, [r6, r5, lsl #2]
 8001360:	4798      	blx	r3
 8001362:	3501      	adds	r5, #1
 8001364:	e7ee      	b.n	8001344 <__libc_init_array+0xc>
 8001366:	f856 3025 	ldr.w	r3, [r6, r5, lsl #2]
 800136a:	4798      	blx	r3
 800136c:	3501      	adds	r5, #1
 800136e:	e7f2      	b.n	8001356 <__libc_init_array+0x1e>
 8001370:	080013d4 	.word	0x080013d4
 8001374:	080013d4 	.word	0x080013d4
 8001378:	080013d4 	.word	0x080013d4
 800137c:	080013d8 	.word	0x080013d8

08001380 <memset>:
 8001380:	4603      	mov	r3, r0
 8001382:	4402      	add	r2, r0
 8001384:	4293      	cmp	r3, r2
 8001386:	d100      	bne.n	800138a <memset+0xa>
 8001388:	4770      	bx	lr
 800138a:	f803 1b01 	strb.w	r1, [r3], #1
 800138e:	e7f9      	b.n	8001384 <memset+0x4>

08001390 <_init>:
 8001390:	b5f8      	push	{r3, r4, r5, r6, r7, lr}
 8001392:	bf00      	nop
 8001394:	bcf8      	pop	{r3, r4, r5, r6, r7}
 8001396:	bc08      	pop	{r3}
 8001398:	469e      	mov	lr, r3
 800139a:	4770      	bx	lr

0800139c <_fini>:
 800139c:	b5f8      	push	{r3, r4, r5, r6, r7, lr}
 800139e:	bf00      	nop
 80013a0:	bcf8      	pop	{r3, r4, r5, r6, r7}
 80013a2:	bc08      	pop	{r3}
 80013a4:	469e      	mov	lr, r3
 80013a6:	4770      	bx	lr
