
Peti_Mini_Projekat.elf:     file format elf32-littlearm

Sections:
Idx Name          Size      VMA       LMA       File off  Algn
  0 .isr_vector   0000010c  08000000  08000000  00010000  2**0
                  CONTENTS, ALLOC, LOAD, READONLY, DATA
  1 .text         000028f4  08000110  08000110  00010110  2**3
                  CONTENTS, ALLOC, LOAD, READONLY, CODE
  2 .rodata       0000004c  08002a04  08002a04  00012a04  2**2
                  CONTENTS, ALLOC, LOAD, READONLY, DATA
  3 .ARM.extab    00000000  08002a50  08002a50  0002000c  2**0
                  CONTENTS
  4 .ARM          00000000  08002a50  08002a50  0002000c  2**0
                  CONTENTS
  5 .preinit_array 00000000  08002a50  08002a50  0002000c  2**0
                  CONTENTS, ALLOC, LOAD, DATA
  6 .init_array   00000004  08002a50  08002a50  00012a50  2**2
                  CONTENTS, ALLOC, LOAD, DATA
  7 .fini_array   00000004  08002a54  08002a54  00012a54  2**2
                  CONTENTS, ALLOC, LOAD, DATA
  8 .data         0000000c  20000000  08002a58  00020000  2**2
                  CONTENTS, ALLOC, LOAD, DATA
  9 .bss          00000050  2000000c  08002a64  0002000c  2**2
                  ALLOC
 10 ._user_heap_stack 00000604  2000005c  08002a64  0002005c  2**0
                  ALLOC
 11 .ARM.attributes 00000029  00000000  00000000  0002000c  2**0
                  CONTENTS, READONLY
 12 .debug_info   000050ff  00000000  00000000  00020035  2**0
                  CONTENTS, READONLY, DEBUGGING
 13 .debug_abbrev 00001249  00000000  00000000  00025134  2**0
                  CONTENTS, READONLY, DEBUGGING
 14 .debug_aranges 00000518  00000000  00000000  00026380  2**3
                  CONTENTS, READONLY, DEBUGGING
 15 .debug_ranges 00000470  00000000  00000000  00026898  2**3
                  CONTENTS, READONLY, DEBUGGING
 16 .debug_macro  00016a6e  00000000  00000000  00026d08  2**0
                  CONTENTS, READONLY, DEBUGGING
 17 .debug_line   000052b4  00000000  00000000  0003d776  2**0
                  CONTENTS, READONLY, DEBUGGING
 18 .debug_str    0008288b  00000000  00000000  00042a2a  2**0
                  CONTENTS, READONLY, DEBUGGING
 19 .comment      0000007b  00000000  00000000  000c52b5  2**0
                  CONTENTS, READONLY
 20 .debug_frame  0000146c  00000000  00000000  000c5330  2**2
                  CONTENTS, READONLY, DEBUGGING

Disassembly of section .text:

08000110 <__do_global_dtors_aux>:
 8000110:	b510      	push	{r4, lr}
 8000112:	4c05      	ldr	r4, [pc, #20]	; (8000128 <__do_global_dtors_aux+0x18>)
 8000114:	7823      	ldrb	r3, [r4, #0]
 8000116:	b933      	cbnz	r3, 8000126 <__do_global_dtors_aux+0x16>
 8000118:	4b04      	ldr	r3, [pc, #16]	; (800012c <__do_global_dtors_aux+0x1c>)
 800011a:	b113      	cbz	r3, 8000122 <__do_global_dtors_aux+0x12>
 800011c:	4804      	ldr	r0, [pc, #16]	; (8000130 <__do_global_dtors_aux+0x20>)
 800011e:	f3af 8000 	nop.w
 8000122:	2301      	movs	r3, #1
 8000124:	7023      	strb	r3, [r4, #0]
 8000126:	bd10      	pop	{r4, pc}
 8000128:	2000000c 	.word	0x2000000c
 800012c:	00000000 	.word	0x00000000
 8000130:	080029ec 	.word	0x080029ec

08000134 <frame_dummy>:
 8000134:	b508      	push	{r3, lr}
 8000136:	4b03      	ldr	r3, [pc, #12]	; (8000144 <frame_dummy+0x10>)
 8000138:	b11b      	cbz	r3, 8000142 <frame_dummy+0xe>
 800013a:	4903      	ldr	r1, [pc, #12]	; (8000148 <frame_dummy+0x14>)
 800013c:	4803      	ldr	r0, [pc, #12]	; (800014c <frame_dummy+0x18>)
 800013e:	f3af 8000 	nop.w
 8000142:	bd08      	pop	{r3, pc}
 8000144:	00000000 	.word	0x00000000
 8000148:	20000010 	.word	0x20000010
 800014c:	080029ec 	.word	0x080029ec

08000150 <__aeabi_drsub>:
 8000150:	f081 4100 	eor.w	r1, r1, #2147483648	; 0x80000000
 8000154:	e002      	b.n	800015c <__adddf3>
 8000156:	bf00      	nop

08000158 <__aeabi_dsub>:
 8000158:	f083 4300 	eor.w	r3, r3, #2147483648	; 0x80000000

0800015c <__adddf3>:
 800015c:	b530      	push	{r4, r5, lr}
 800015e:	ea4f 0441 	mov.w	r4, r1, lsl #1
 8000162:	ea4f 0543 	mov.w	r5, r3, lsl #1
 8000166:	ea94 0f05 	teq	r4, r5
 800016a:	bf08      	it	eq
 800016c:	ea90 0f02 	teqeq	r0, r2
 8000170:	bf1f      	itttt	ne
 8000172:	ea54 0c00 	orrsne.w	ip, r4, r0
 8000176:	ea55 0c02 	orrsne.w	ip, r5, r2
 800017a:	ea7f 5c64 	mvnsne.w	ip, r4, asr #21
 800017e:	ea7f 5c65 	mvnsne.w	ip, r5, asr #21
 8000182:	f000 80e2 	beq.w	800034a <__adddf3+0x1ee>
 8000186:	ea4f 5454 	mov.w	r4, r4, lsr #21
 800018a:	ebd4 5555 	rsbs	r5, r4, r5, lsr #21
 800018e:	bfb8      	it	lt
 8000190:	426d      	neglt	r5, r5
 8000192:	dd0c      	ble.n	80001ae <__adddf3+0x52>
 8000194:	442c      	add	r4, r5
 8000196:	ea80 0202 	eor.w	r2, r0, r2
 800019a:	ea81 0303 	eor.w	r3, r1, r3
 800019e:	ea82 0000 	eor.w	r0, r2, r0
 80001a2:	ea83 0101 	eor.w	r1, r3, r1
 80001a6:	ea80 0202 	eor.w	r2, r0, r2
 80001aa:	ea81 0303 	eor.w	r3, r1, r3
 80001ae:	2d36      	cmp	r5, #54	; 0x36
 80001b0:	bf88      	it	hi
 80001b2:	bd30      	pophi	{r4, r5, pc}
 80001b4:	f011 4f00 	tst.w	r1, #2147483648	; 0x80000000
 80001b8:	ea4f 3101 	mov.w	r1, r1, lsl #12
 80001bc:	f44f 1c80 	mov.w	ip, #1048576	; 0x100000
 80001c0:	ea4c 3111 	orr.w	r1, ip, r1, lsr #12
 80001c4:	d002      	beq.n	80001cc <__adddf3+0x70>
 80001c6:	4240      	negs	r0, r0
 80001c8:	eb61 0141 	sbc.w	r1, r1, r1, lsl #1
 80001cc:	f013 4f00 	tst.w	r3, #2147483648	; 0x80000000
 80001d0:	ea4f 3303 	mov.w	r3, r3, lsl #12
 80001d4:	ea4c 3313 	orr.w	r3, ip, r3, lsr #12
 80001d8:	d002      	beq.n	80001e0 <__adddf3+0x84>
 80001da:	4252      	negs	r2, r2
 80001dc:	eb63 0343 	sbc.w	r3, r3, r3, lsl #1
 80001e0:	ea94 0f05 	teq	r4, r5
 80001e4:	f000 80a7 	beq.w	8000336 <__adddf3+0x1da>
 80001e8:	f1a4 0401 	sub.w	r4, r4, #1
 80001ec:	f1d5 0e20 	rsbs	lr, r5, #32
 80001f0:	db0d      	blt.n	800020e <__adddf3+0xb2>
 80001f2:	fa02 fc0e 	lsl.w	ip, r2, lr
 80001f6:	fa22 f205 	lsr.w	r2, r2, r5
 80001fa:	1880      	adds	r0, r0, r2
 80001fc:	f141 0100 	adc.w	r1, r1, #0
 8000200:	fa03 f20e 	lsl.w	r2, r3, lr
 8000204:	1880      	adds	r0, r0, r2
 8000206:	fa43 f305 	asr.w	r3, r3, r5
 800020a:	4159      	adcs	r1, r3
 800020c:	e00e      	b.n	800022c <__adddf3+0xd0>
 800020e:	f1a5 0520 	sub.w	r5, r5, #32
 8000212:	f10e 0e20 	add.w	lr, lr, #32
 8000216:	2a01      	cmp	r2, #1
 8000218:	fa03 fc0e 	lsl.w	ip, r3, lr
 800021c:	bf28      	it	cs
 800021e:	f04c 0c02 	orrcs.w	ip, ip, #2
 8000222:	fa43 f305 	asr.w	r3, r3, r5
 8000226:	18c0      	adds	r0, r0, r3
 8000228:	eb51 71e3 	adcs.w	r1, r1, r3, asr #31
 800022c:	f001 4500 	and.w	r5, r1, #2147483648	; 0x80000000
 8000230:	d507      	bpl.n	8000242 <__adddf3+0xe6>
 8000232:	f04f 0e00 	mov.w	lr, #0
 8000236:	f1dc 0c00 	rsbs	ip, ip, #0
 800023a:	eb7e 0000 	sbcs.w	r0, lr, r0
 800023e:	eb6e 0101 	sbc.w	r1, lr, r1
 8000242:	f5b1 1f80 	cmp.w	r1, #1048576	; 0x100000
 8000246:	d31b      	bcc.n	8000280 <__adddf3+0x124>
 8000248:	f5b1 1f00 	cmp.w	r1, #2097152	; 0x200000
 800024c:	d30c      	bcc.n	8000268 <__adddf3+0x10c>
 800024e:	0849      	lsrs	r1, r1, #1
 8000250:	ea5f 0030 	movs.w	r0, r0, rrx
 8000254:	ea4f 0c3c 	mov.w	ip, ip, rrx
 8000258:	f104 0401 	add.w	r4, r4, #1
 800025c:	ea4f 5244 	mov.w	r2, r4, lsl #21
 8000260:	f512 0f80 	cmn.w	r2, #4194304	; 0x400000
 8000264:	f080 809a 	bcs.w	800039c <__adddf3+0x240>
 8000268:	f1bc 4f00 	cmp.w	ip, #2147483648	; 0x80000000
 800026c:	bf08      	it	eq
 800026e:	ea5f 0c50 	movseq.w	ip, r0, lsr #1
 8000272:	f150 0000 	adcs.w	r0, r0, #0
 8000276:	eb41 5104 	adc.w	r1, r1, r4, lsl #20
 800027a:	ea41 0105 	orr.w	r1, r1, r5
 800027e:	bd30      	pop	{r4, r5, pc}
 8000280:	ea5f 0c4c 	movs.w	ip, ip, lsl #1
 8000284:	4140      	adcs	r0, r0
 8000286:	eb41 0101 	adc.w	r1, r1, r1
 800028a:	f411 1f80 	tst.w	r1, #1048576	; 0x100000
 800028e:	f1a4 0401 	sub.w	r4, r4, #1
 8000292:	d1e9      	bne.n	8000268 <__adddf3+0x10c>
 8000294:	f091 0f00 	teq	r1, #0
 8000298:	bf04      	itt	eq
 800029a:	4601      	moveq	r1, r0
 800029c:	2000      	moveq	r0, #0
 800029e:	fab1 f381 	clz	r3, r1
 80002a2:	bf08      	it	eq
 80002a4:	3320      	addeq	r3, #32
 80002a6:	f1a3 030b 	sub.w	r3, r3, #11
 80002aa:	f1b3 0220 	subs.w	r2, r3, #32
 80002ae:	da0c      	bge.n	80002ca <__adddf3+0x16e>
 80002b0:	320c      	adds	r2, #12
 80002b2:	dd08      	ble.n	80002c6 <__adddf3+0x16a>
 80002b4:	f102 0c14 	add.w	ip, r2, #20
 80002b8:	f1c2 020c 	rsb	r2, r2, #12
 80002bc:	fa01 f00c 	lsl.w	r0, r1, ip
 80002c0:	fa21 f102 	lsr.w	r1, r1, r2
 80002c4:	e00c      	b.n	80002e0 <__adddf3+0x184>
 80002c6:	f102 0214 	add.w	r2, r2, #20
 80002ca:	bfd8      	it	le
 80002cc:	f1c2 0c20 	rsble	ip, r2, #32
 80002d0:	fa01 f102 	lsl.w	r1, r1, r2
 80002d4:	fa20 fc0c 	lsr.w	ip, r0, ip
 80002d8:	bfdc      	itt	le
 80002da:	ea41 010c 	orrle.w	r1, r1, ip
 80002de:	4090      	lslle	r0, r2
 80002e0:	1ae4      	subs	r4, r4, r3
 80002e2:	bfa2      	ittt	ge
 80002e4:	eb01 5104 	addge.w	r1, r1, r4, lsl #20
 80002e8:	4329      	orrge	r1, r5
 80002ea:	bd30      	popge	{r4, r5, pc}
 80002ec:	ea6f 0404 	mvn.w	r4, r4
 80002f0:	3c1f      	subs	r4, #31
 80002f2:	da1c      	bge.n	800032e <__adddf3+0x1d2>
 80002f4:	340c      	adds	r4, #12
 80002f6:	dc0e      	bgt.n	8000316 <__adddf3+0x1ba>
 80002f8:	f104 0414 	add.w	r4, r4, #20
 80002fc:	f1c4 0220 	rsb	r2, r4, #32
 8000300:	fa20 f004 	lsr.w	r0, r0, r4
 8000304:	fa01 f302 	lsl.w	r3, r1, r2
 8000308:	ea40 0003 	orr.w	r0, r0, r3
 800030c:	fa21 f304 	lsr.w	r3, r1, r4
 8000310:	ea45 0103 	orr.w	r1, r5, r3
 8000314:	bd30      	pop	{r4, r5, pc}
 8000316:	f1c4 040c 	rsb	r4, r4, #12
 800031a:	f1c4 0220 	rsb	r2, r4, #32
 800031e:	fa20 f002 	lsr.w	r0, r0, r2
 8000322:	fa01 f304 	lsl.w	r3, r1, r4
 8000326:	ea40 0003 	orr.w	r0, r0, r3
 800032a:	4629      	mov	r1, r5
 800032c:	bd30      	pop	{r4, r5, pc}
 800032e:	fa21 f004 	lsr.w	r0, r1, r4
 8000332:	4629      	mov	r1, r5
 8000334:	bd30      	pop	{r4, r5, pc}
 8000336:	f094 0f00 	teq	r4, #0
 800033a:	f483 1380 	eor.w	r3, r3, #1048576	; 0x100000
 800033e:	bf06      	itte	eq
 8000340:	f481 1180 	eoreq.w	r1, r1, #1048576	; 0x100000
 8000344:	3401      	addeq	r4, #1
 8000346:	3d01      	subne	r5, #1
 8000348:	e74e      	b.n	80001e8 <__adddf3+0x8c>
 800034a:	ea7f 5c64 	mvns.w	ip, r4, asr #21
 800034e:	bf18      	it	ne
 8000350:	ea7f 5c65 	mvnsne.w	ip, r5, asr #21
 8000354:	d029      	beq.n	80003aa <__adddf3+0x24e>
 8000356:	ea94 0f05 	teq	r4, r5
 800035a:	bf08      	it	eq
 800035c:	ea90 0f02 	teqeq	r0, r2
 8000360:	d005      	beq.n	800036e <__adddf3+0x212>
 8000362:	ea54 0c00 	orrs.w	ip, r4, r0
 8000366:	bf04      	itt	eq
 8000368:	4619      	moveq	r1, r3
 800036a:	4610      	moveq	r0, r2
 800036c:	bd30      	pop	{r4, r5, pc}
 800036e:	ea91 0f03 	teq	r1, r3
 8000372:	bf1e      	ittt	ne
 8000374:	2100      	movne	r1, #0
 8000376:	2000      	movne	r0, #0
 8000378:	bd30      	popne	{r4, r5, pc}
 800037a:	ea5f 5c54 	movs.w	ip, r4, lsr #21
 800037e:	d105      	bne.n	800038c <__adddf3+0x230>
 8000380:	0040      	lsls	r0, r0, #1
 8000382:	4149      	adcs	r1, r1
 8000384:	bf28      	it	cs
 8000386:	f041 4100 	orrcs.w	r1, r1, #2147483648	; 0x80000000
 800038a:	bd30      	pop	{r4, r5, pc}
 800038c:	f514 0480 	adds.w	r4, r4, #4194304	; 0x400000
 8000390:	bf3c      	itt	cc
 8000392:	f501 1180 	addcc.w	r1, r1, #1048576	; 0x100000
 8000396:	bd30      	popcc	{r4, r5, pc}
 8000398:	f001 4500 	and.w	r5, r1, #2147483648	; 0x80000000
 800039c:	f045 41fe 	orr.w	r1, r5, #2130706432	; 0x7f000000
 80003a0:	f441 0170 	orr.w	r1, r1, #15728640	; 0xf00000
 80003a4:	f04f 0000 	mov.w	r0, #0
 80003a8:	bd30      	pop	{r4, r5, pc}
 80003aa:	ea7f 5c64 	mvns.w	ip, r4, asr #21
 80003ae:	bf1a      	itte	ne
 80003b0:	4619      	movne	r1, r3
 80003b2:	4610      	movne	r0, r2
 80003b4:	ea7f 5c65 	mvnseq.w	ip, r5, asr #21
 80003b8:	bf1c      	itt	ne
 80003ba:	460b      	movne	r3, r1
 80003bc:	4602      	movne	r2, r0
 80003be:	ea50 3401 	orrs.w	r4, r0, r1, lsl #12
 80003c2:	bf06      	itte	eq
 80003c4:	ea52 3503 	orrseq.w	r5, r2, r3, lsl #12
 80003c8:	ea91 0f03 	teqeq	r1, r3
 80003cc:	f441 2100 	orrne.w	r1, r1, #524288	; 0x80000
 80003d0:	bd30      	pop	{r4, r5, pc}
 80003d2:	bf00      	nop

080003d4 <__aeabi_ui2d>:
 80003d4:	f090 0f00 	teq	r0, #0
 80003d8:	bf04      	itt	eq
 80003da:	2100      	moveq	r1, #0
 80003dc:	4770      	bxeq	lr
 80003de:	b530      	push	{r4, r5, lr}
 80003e0:	f44f 6480 	mov.w	r4, #1024	; 0x400
 80003e4:	f104 0432 	add.w	r4, r4, #50	; 0x32
 80003e8:	f04f 0500 	mov.w	r5, #0
 80003ec:	f04f 0100 	mov.w	r1, #0
 80003f0:	e750      	b.n	8000294 <__adddf3+0x138>
 80003f2:	bf00      	nop

080003f4 <__aeabi_i2d>:
 80003f4:	f090 0f00 	teq	r0, #0
 80003f8:	bf04      	itt	eq
 80003fa:	2100      	moveq	r1, #0
 80003fc:	4770      	bxeq	lr
 80003fe:	b530      	push	{r4, r5, lr}
 8000400:	f44f 6480 	mov.w	r4, #1024	; 0x400
 8000404:	f104 0432 	add.w	r4, r4, #50	; 0x32
 8000408:	f010 4500 	ands.w	r5, r0, #2147483648	; 0x80000000
 800040c:	bf48      	it	mi
 800040e:	4240      	negmi	r0, r0
 8000410:	f04f 0100 	mov.w	r1, #0
 8000414:	e73e      	b.n	8000294 <__adddf3+0x138>
 8000416:	bf00      	nop

08000418 <__aeabi_f2d>:
 8000418:	0042      	lsls	r2, r0, #1
 800041a:	ea4f 01e2 	mov.w	r1, r2, asr #3
 800041e:	ea4f 0131 	mov.w	r1, r1, rrx
 8000422:	ea4f 7002 	mov.w	r0, r2, lsl #28
 8000426:	bf1f      	itttt	ne
 8000428:	f012 437f 	andsne.w	r3, r2, #4278190080	; 0xff000000
 800042c:	f093 4f7f 	teqne	r3, #4278190080	; 0xff000000
 8000430:	f081 5160 	eorne.w	r1, r1, #939524096	; 0x38000000
 8000434:	4770      	bxne	lr
 8000436:	f032 427f 	bics.w	r2, r2, #4278190080	; 0xff000000
 800043a:	bf08      	it	eq
 800043c:	4770      	bxeq	lr
 800043e:	f093 4f7f 	teq	r3, #4278190080	; 0xff000000
 8000442:	bf04      	itt	eq
 8000444:	f441 2100 	orreq.w	r1, r1, #524288	; 0x80000
 8000448:	4770      	bxeq	lr
 800044a:	b530      	push	{r4, r5, lr}
 800044c:	f44f 7460 	mov.w	r4, #896	; 0x380
 8000450:	f001 4500 	and.w	r5, r1, #2147483648	; 0x80000000
 8000454:	f021 4100 	bic.w	r1, r1, #2147483648	; 0x80000000
 8000458:	e71c      	b.n	8000294 <__adddf3+0x138>
 800045a:	bf00      	nop

0800045c <__aeabi_ul2d>:
 800045c:	ea50 0201 	orrs.w	r2, r0, r1
 8000460:	bf08      	it	eq
 8000462:	4770      	bxeq	lr
 8000464:	b530      	push	{r4, r5, lr}
 8000466:	f04f 0500 	mov.w	r5, #0
 800046a:	e00a      	b.n	8000482 <__aeabi_l2d+0x16>

0800046c <__aeabi_l2d>:
 800046c:	ea50 0201 	orrs.w	r2, r0, r1
 8000470:	bf08      	it	eq
 8000472:	4770      	bxeq	lr
 8000474:	b530      	push	{r4, r5, lr}
 8000476:	f011 4500 	ands.w	r5, r1, #2147483648	; 0x80000000
 800047a:	d502      	bpl.n	8000482 <__aeabi_l2d+0x16>
 800047c:	4240      	negs	r0, r0
 800047e:	eb61 0141 	sbc.w	r1, r1, r1, lsl #1
 8000482:	f44f 6480 	mov.w	r4, #1024	; 0x400
 8000486:	f104 0432 	add.w	r4, r4, #50	; 0x32
 800048a:	ea5f 5c91 	movs.w	ip, r1, lsr #22
 800048e:	f43f aed8 	beq.w	8000242 <__adddf3+0xe6>
 8000492:	f04f 0203 	mov.w	r2, #3
 8000496:	ea5f 0cdc 	movs.w	ip, ip, lsr #3
 800049a:	bf18      	it	ne
 800049c:	3203      	addne	r2, #3
 800049e:	ea5f 0cdc 	movs.w	ip, ip, lsr #3
 80004a2:	bf18      	it	ne
 80004a4:	3203      	addne	r2, #3
 80004a6:	eb02 02dc 	add.w	r2, r2, ip, lsr #3
 80004aa:	f1c2 0320 	rsb	r3, r2, #32
 80004ae:	fa00 fc03 	lsl.w	ip, r0, r3
 80004b2:	fa20 f002 	lsr.w	r0, r0, r2
 80004b6:	fa01 fe03 	lsl.w	lr, r1, r3
 80004ba:	ea40 000e 	orr.w	r0, r0, lr
 80004be:	fa21 f102 	lsr.w	r1, r1, r2
 80004c2:	4414      	add	r4, r2
 80004c4:	e6bd      	b.n	8000242 <__adddf3+0xe6>
 80004c6:	bf00      	nop

080004c8 <__gedf2>:
 80004c8:	f04f 3cff 	mov.w	ip, #4294967295
 80004cc:	e006      	b.n	80004dc <__cmpdf2+0x4>
 80004ce:	bf00      	nop

080004d0 <__ledf2>:
 80004d0:	f04f 0c01 	mov.w	ip, #1
 80004d4:	e002      	b.n	80004dc <__cmpdf2+0x4>
 80004d6:	bf00      	nop

080004d8 <__cmpdf2>:
 80004d8:	f04f 0c01 	mov.w	ip, #1
 80004dc:	f84d cd04 	str.w	ip, [sp, #-4]!
 80004e0:	ea4f 0c41 	mov.w	ip, r1, lsl #1
 80004e4:	ea7f 5c6c 	mvns.w	ip, ip, asr #21
 80004e8:	ea4f 0c43 	mov.w	ip, r3, lsl #1
 80004ec:	bf18      	it	ne
 80004ee:	ea7f 5c6c 	mvnsne.w	ip, ip, asr #21
 80004f2:	d01b      	beq.n	800052c <__cmpdf2+0x54>
 80004f4:	b001      	add	sp, #4
 80004f6:	ea50 0c41 	orrs.w	ip, r0, r1, lsl #1
 80004fa:	bf0c      	ite	eq
 80004fc:	ea52 0c43 	orrseq.w	ip, r2, r3, lsl #1
 8000500:	ea91 0f03 	teqne	r1, r3
 8000504:	bf02      	ittt	eq
 8000506:	ea90 0f02 	teqeq	r0, r2
 800050a:	2000      	moveq	r0, #0
 800050c:	4770      	bxeq	lr
 800050e:	f110 0f00 	cmn.w	r0, #0
 8000512:	ea91 0f03 	teq	r1, r3
 8000516:	bf58      	it	pl
 8000518:	4299      	cmppl	r1, r3
 800051a:	bf08      	it	eq
 800051c:	4290      	cmpeq	r0, r2
 800051e:	bf2c      	ite	cs
 8000520:	17d8      	asrcs	r0, r3, #31
 8000522:	ea6f 70e3 	mvncc.w	r0, r3, asr #31
 8000526:	f040 0001 	orr.w	r0, r0, #1
 800052a:	4770      	bx	lr
 800052c:	ea4f 0c41 	mov.w	ip, r1, lsl #1
 8000530:	ea7f 5c6c 	mvns.w	ip, ip, asr #21
 8000534:	d102      	bne.n	800053c <__cmpdf2+0x64>
 8000536:	ea50 3c01 	orrs.w	ip, r0, r1, lsl #12
 800053a:	d107      	bne.n	800054c <__cmpdf2+0x74>
 800053c:	ea4f 0c43 	mov.w	ip, r3, lsl #1
 8000540:	ea7f 5c6c 	mvns.w	ip, ip, asr #21
 8000544:	d1d6      	bne.n	80004f4 <__cmpdf2+0x1c>
 8000546:	ea52 3c03 	orrs.w	ip, r2, r3, lsl #12
 800054a:	d0d3      	beq.n	80004f4 <__cmpdf2+0x1c>
 800054c:	f85d 0b04 	ldr.w	r0, [sp], #4
 8000550:	4770      	bx	lr
 8000552:	bf00      	nop

08000554 <__aeabi_cdrcmple>:
 8000554:	4684      	mov	ip, r0
 8000556:	4610      	mov	r0, r2
 8000558:	4662      	mov	r2, ip
 800055a:	468c      	mov	ip, r1
 800055c:	4619      	mov	r1, r3
 800055e:	4663      	mov	r3, ip
 8000560:	e000      	b.n	8000564 <__aeabi_cdcmpeq>
 8000562:	bf00      	nop

08000564 <__aeabi_cdcmpeq>:
 8000564:	b501      	push	{r0, lr}
 8000566:	f7ff ffb7 	bl	80004d8 <__cmpdf2>
 800056a:	2800      	cmp	r0, #0
 800056c:	bf48      	it	mi
 800056e:	f110 0f00 	cmnmi.w	r0, #0
 8000572:	bd01      	pop	{r0, pc}

08000574 <__aeabi_dcmpeq>:
 8000574:	f84d ed08 	str.w	lr, [sp, #-8]!
 8000578:	f7ff fff4 	bl	8000564 <__aeabi_cdcmpeq>
 800057c:	bf0c      	ite	eq
 800057e:	2001      	moveq	r0, #1
 8000580:	2000      	movne	r0, #0
 8000582:	f85d fb08 	ldr.w	pc, [sp], #8
 8000586:	bf00      	nop

08000588 <__aeabi_dcmplt>:
 8000588:	f84d ed08 	str.w	lr, [sp, #-8]!
 800058c:	f7ff ffea 	bl	8000564 <__aeabi_cdcmpeq>
 8000590:	bf34      	ite	cc
 8000592:	2001      	movcc	r0, #1
 8000594:	2000      	movcs	r0, #0
 8000596:	f85d fb08 	ldr.w	pc, [sp], #8
 800059a:	bf00      	nop

0800059c <__aeabi_dcmple>:
 800059c:	f84d ed08 	str.w	lr, [sp, #-8]!
 80005a0:	f7ff ffe0 	bl	8000564 <__aeabi_cdcmpeq>
 80005a4:	bf94      	ite	ls
 80005a6:	2001      	movls	r0, #1
 80005a8:	2000      	movhi	r0, #0
 80005aa:	f85d fb08 	ldr.w	pc, [sp], #8
 80005ae:	bf00      	nop

080005b0 <__aeabi_dcmpge>:
 80005b0:	f84d ed08 	str.w	lr, [sp, #-8]!
 80005b4:	f7ff ffce 	bl	8000554 <__aeabi_cdrcmple>
 80005b8:	bf94      	ite	ls
 80005ba:	2001      	movls	r0, #1
 80005bc:	2000      	movhi	r0, #0
 80005be:	f85d fb08 	ldr.w	pc, [sp], #8
 80005c2:	bf00      	nop

080005c4 <__aeabi_dcmpgt>:
 80005c4:	f84d ed08 	str.w	lr, [sp, #-8]!
 80005c8:	f7ff ffc4 	bl	8000554 <__aeabi_cdrcmple>
 80005cc:	bf34      	ite	cc
 80005ce:	2001      	movcc	r0, #1
 80005d0:	2000      	movcs	r0, #0
 80005d2:	f85d fb08 	ldr.w	pc, [sp], #8
 80005d6:	bf00      	nop

080005d8 <__aeabi_frsub>:
 80005d8:	f080 4000 	eor.w	r0, r0, #2147483648	; 0x80000000
 80005dc:	e002      	b.n	80005e4 <__addsf3>
 80005de:	bf00      	nop

080005e0 <__aeabi_fsub>:
 80005e0:	f081 4100 	eor.w	r1, r1, #2147483648	; 0x80000000

080005e4 <__addsf3>:
 80005e4:	0042      	lsls	r2, r0, #1
 80005e6:	bf1f      	itttt	ne
 80005e8:	ea5f 0341 	movsne.w	r3, r1, lsl #1
 80005ec:	ea92 0f03 	teqne	r2, r3
 80005f0:	ea7f 6c22 	mvnsne.w	ip, r2, asr #24
 80005f4:	ea7f 6c23 	mvnsne.w	ip, r3, asr #24
 80005f8:	d06a      	beq.n	80006d0 <__addsf3+0xec>
 80005fa:	ea4f 6212 	mov.w	r2, r2, lsr #24
 80005fe:	ebd2 6313 	rsbs	r3, r2, r3, lsr #24
 8000602:	bfc1      	itttt	gt
 8000604:	18d2      	addgt	r2, r2, r3
 8000606:	4041      	eorgt	r1, r0
 8000608:	4048      	eorgt	r0, r1
 800060a:	4041      	eorgt	r1, r0
 800060c:	bfb8      	it	lt
 800060e:	425b      	neglt	r3, r3
 8000610:	2b19      	cmp	r3, #25
 8000612:	bf88      	it	hi
 8000614:	4770      	bxhi	lr
 8000616:	f010 4f00 	tst.w	r0, #2147483648	; 0x80000000
 800061a:	f440 0000 	orr.w	r0, r0, #8388608	; 0x800000
 800061e:	f020 407f 	bic.w	r0, r0, #4278190080	; 0xff000000
 8000622:	bf18      	it	ne
 8000624:	4240      	negne	r0, r0
 8000626:	f011 4f00 	tst.w	r1, #2147483648	; 0x80000000
 800062a:	f441 0100 	orr.w	r1, r1, #8388608	; 0x800000
 800062e:	f021 417f 	bic.w	r1, r1, #4278190080	; 0xff000000
 8000632:	bf18      	it	ne
 8000634:	4249      	negne	r1, r1
 8000636:	ea92 0f03 	teq	r2, r3
 800063a:	d03f      	beq.n	80006bc <__addsf3+0xd8>
 800063c:	f1a2 0201 	sub.w	r2, r2, #1
 8000640:	fa41 fc03 	asr.w	ip, r1, r3
 8000644:	eb10 000c 	adds.w	r0, r0, ip
 8000648:	f1c3 0320 	rsb	r3, r3, #32
 800064c:	fa01 f103 	lsl.w	r1, r1, r3
 8000650:	f000 4300 	and.w	r3, r0, #2147483648	; 0x80000000
 8000654:	d502      	bpl.n	800065c <__addsf3+0x78>
 8000656:	4249      	negs	r1, r1
 8000658:	eb60 0040 	sbc.w	r0, r0, r0, lsl #1
 800065c:	f5b0 0f00 	cmp.w	r0, #8388608	; 0x800000
 8000660:	d313      	bcc.n	800068a <__addsf3+0xa6>
 8000662:	f1b0 7f80 	cmp.w	r0, #16777216	; 0x1000000
 8000666:	d306      	bcc.n	8000676 <__addsf3+0x92>
 8000668:	0840      	lsrs	r0, r0, #1
 800066a:	ea4f 0131 	mov.w	r1, r1, rrx
 800066e:	f102 0201 	add.w	r2, r2, #1
 8000672:	2afe      	cmp	r2, #254	; 0xfe
 8000674:	d251      	bcs.n	800071a <__addsf3+0x136>
 8000676:	f1b1 4f00 	cmp.w	r1, #2147483648	; 0x80000000
 800067a:	eb40 50c2 	adc.w	r0, r0, r2, lsl #23
 800067e:	bf08      	it	eq
 8000680:	f020 0001 	biceq.w	r0, r0, #1
 8000684:	ea40 0003 	orr.w	r0, r0, r3
 8000688:	4770      	bx	lr
 800068a:	0049      	lsls	r1, r1, #1
 800068c:	eb40 0000 	adc.w	r0, r0, r0
 8000690:	f410 0f00 	tst.w	r0, #8388608	; 0x800000
 8000694:	f1a2 0201 	sub.w	r2, r2, #1
 8000698:	d1ed      	bne.n	8000676 <__addsf3+0x92>
 800069a:	fab0 fc80 	clz	ip, r0
 800069e:	f1ac 0c08 	sub.w	ip, ip, #8
 80006a2:	ebb2 020c 	subs.w	r2, r2, ip
 80006a6:	fa00 f00c 	lsl.w	r0, r0, ip
 80006aa:	bfaa      	itet	ge
 80006ac:	eb00 50c2 	addge.w	r0, r0, r2, lsl #23
 80006b0:	4252      	neglt	r2, r2
 80006b2:	4318      	orrge	r0, r3
 80006b4:	bfbc      	itt	lt
 80006b6:	40d0      	lsrlt	r0, r2
 80006b8:	4318      	orrlt	r0, r3
 80006ba:	4770      	bx	lr
 80006bc:	f092 0f00 	teq	r2, #0
 80006c0:	f481 0100 	eor.w	r1, r1, #8388608	; 0x800000
 80006c4:	bf06      	itte	eq
 80006c6:	f480 0000 	eoreq.w	r0, r0, #8388608	; 0x800000
 80006ca:	3201      	addeq	r2, #1
 80006cc:	3b01      	subne	r3, #1
 80006ce:	e7b5      	b.n	800063c <__addsf3+0x58>
 80006d0:	ea4f 0341 	mov.w	r3, r1, lsl #1
 80006d4:	ea7f 6c22 	mvns.w	ip, r2, asr #24
 80006d8:	bf18      	it	ne
 80006da:	ea7f 6c23 	mvnsne.w	ip, r3, asr #24
 80006de:	d021      	beq.n	8000724 <__addsf3+0x140>
 80006e0:	ea92 0f03 	teq	r2, r3
 80006e4:	d004      	beq.n	80006f0 <__addsf3+0x10c>
 80006e6:	f092 0f00 	teq	r2, #0
 80006ea:	bf08      	it	eq
 80006ec:	4608      	moveq	r0, r1
 80006ee:	4770      	bx	lr
 80006f0:	ea90 0f01 	teq	r0, r1
 80006f4:	bf1c      	itt	ne
 80006f6:	2000      	movne	r0, #0
 80006f8:	4770      	bxne	lr
 80006fa:	f012 4f7f 	tst.w	r2, #4278190080	; 0xff000000
 80006fe:	d104      	bne.n	800070a <__addsf3+0x126>
 8000700:	0040      	lsls	r0, r0, #1
 8000702:	bf28      	it	cs
 8000704:	f040 4000 	orrcs.w	r0, r0, #2147483648	; 0x80000000
 8000708:	4770      	bx	lr
 800070a:	f112 7200 	adds.w	r2, r2, #33554432	; 0x2000000
 800070e:	bf3c      	itt	cc
 8000710:	f500 0000 	addcc.w	r0, r0, #8388608	; 0x800000
 8000714:	4770      	bxcc	lr
 8000716:	f000 4300 	and.w	r3, r0, #2147483648	; 0x80000000
 800071a:	f043 40fe 	orr.w	r0, r3, #2130706432	; 0x7f000000
 800071e:	f440 0000 	orr.w	r0, r0, #8388608	; 0x800000
 8000722:	4770      	bx	lr
 8000724:	ea7f 6222 	mvns.w	r2, r2, asr #24
 8000728:	bf16      	itet	ne
 800072a:	4608      	movne	r0, r1
 800072c:	ea7f 6323 	mvnseq.w	r3, r3, asr #24
 8000730:	4601      	movne	r1, r0
 8000732:	0242      	lsls	r2, r0, #9
 8000734:	bf06      	itte	eq
 8000736:	ea5f 2341 	movseq.w	r3, r1, lsl #9
 800073a:	ea90 0f01 	teqeq	r0, r1
 800073e:	f440 0080 	orrne.w	r0, r0, #4194304	; 0x400000
 8000742:	4770      	bx	lr

08000744 <__aeabi_ui2f>:
 8000744:	f04f 0300 	mov.w	r3, #0
 8000748:	e004      	b.n	8000754 <__aeabi_i2f+0x8>
 800074a:	bf00      	nop

0800074c <__aeabi_i2f>:
 800074c:	f010 4300 	ands.w	r3, r0, #2147483648	; 0x80000000
 8000750:	bf48      	it	mi
 8000752:	4240      	negmi	r0, r0
 8000754:	ea5f 0c00 	movs.w	ip, r0
 8000758:	bf08      	it	eq
 800075a:	4770      	bxeq	lr
 800075c:	f043 4396 	orr.w	r3, r3, #1258291200	; 0x4b000000
 8000760:	4601      	mov	r1, r0
 8000762:	f04f 0000 	mov.w	r0, #0
 8000766:	e01c      	b.n	80007a2 <__aeabi_l2f+0x2a>

08000768 <__aeabi_ul2f>:
 8000768:	ea50 0201 	orrs.w	r2, r0, r1
 800076c:	bf08      	it	eq
 800076e:	4770      	bxeq	lr
 8000770:	f04f 0300 	mov.w	r3, #0
 8000774:	e00a      	b.n	800078c <__aeabi_l2f+0x14>
 8000776:	bf00      	nop

08000778 <__aeabi_l2f>:
 8000778:	ea50 0201 	orrs.w	r2, r0, r1
 800077c:	bf08      	it	eq
 800077e:	4770      	bxeq	lr
 8000780:	f011 4300 	ands.w	r3, r1, #2147483648	; 0x80000000
 8000784:	d502      	bpl.n	800078c <__aeabi_l2f+0x14>
 8000786:	4240      	negs	r0, r0
 8000788:	eb61 0141 	sbc.w	r1, r1, r1, lsl #1
 800078c:	ea5f 0c01 	movs.w	ip, r1
 8000790:	bf02      	ittt	eq
 8000792:	4684      	moveq	ip, r0
 8000794:	4601      	moveq	r1, r0
 8000796:	2000      	moveq	r0, #0
 8000798:	f043 43b6 	orr.w	r3, r3, #1526726656	; 0x5b000000
 800079c:	bf08      	it	eq
 800079e:	f1a3 5380 	subeq.w	r3, r3, #268435456	; 0x10000000
 80007a2:	f5a3 0300 	sub.w	r3, r3, #8388608	; 0x800000
 80007a6:	fabc f28c 	clz	r2, ip
 80007aa:	3a08      	subs	r2, #8
 80007ac:	eba3 53c2 	sub.w	r3, r3, r2, lsl #23
 80007b0:	db10      	blt.n	80007d4 <__aeabi_l2f+0x5c>
 80007b2:	fa01 fc02 	lsl.w	ip, r1, r2
 80007b6:	4463      	add	r3, ip
 80007b8:	fa00 fc02 	lsl.w	ip, r0, r2
 80007bc:	f1c2 0220 	rsb	r2, r2, #32
 80007c0:	f1bc 4f00 	cmp.w	ip, #2147483648	; 0x80000000
 80007c4:	fa20 f202 	lsr.w	r2, r0, r2
 80007c8:	eb43 0002 	adc.w	r0, r3, r2
 80007cc:	bf08      	it	eq
 80007ce:	f020 0001 	biceq.w	r0, r0, #1
 80007d2:	4770      	bx	lr
 80007d4:	f102 0220 	add.w	r2, r2, #32
 80007d8:	fa01 fc02 	lsl.w	ip, r1, r2
 80007dc:	f1c2 0220 	rsb	r2, r2, #32
 80007e0:	ea50 004c 	orrs.w	r0, r0, ip, lsl #1
 80007e4:	fa21 f202 	lsr.w	r2, r1, r2
 80007e8:	eb43 0002 	adc.w	r0, r3, r2
 80007ec:	bf08      	it	eq
 80007ee:	ea20 70dc 	biceq.w	r0, r0, ip, lsr #31
 80007f2:	4770      	bx	lr

080007f4 <__aeabi_fmul>:
 80007f4:	f04f 0cff 	mov.w	ip, #255	; 0xff
 80007f8:	ea1c 52d0 	ands.w	r2, ip, r0, lsr #23
 80007fc:	bf1e      	ittt	ne
 80007fe:	ea1c 53d1 	andsne.w	r3, ip, r1, lsr #23
 8000802:	ea92 0f0c 	teqne	r2, ip
 8000806:	ea93 0f0c 	teqne	r3, ip
 800080a:	d06f      	beq.n	80008ec <__aeabi_fmul+0xf8>
 800080c:	441a      	add	r2, r3
 800080e:	ea80 0c01 	eor.w	ip, r0, r1
 8000812:	0240      	lsls	r0, r0, #9
 8000814:	bf18      	it	ne
 8000816:	ea5f 2141 	movsne.w	r1, r1, lsl #9
 800081a:	d01e      	beq.n	800085a <__aeabi_fmul+0x66>
 800081c:	f04f 6300 	mov.w	r3, #134217728	; 0x8000000
 8000820:	ea43 1050 	orr.w	r0, r3, r0, lsr #5
 8000824:	ea43 1151 	orr.w	r1, r3, r1, lsr #5
 8000828:	fba0 3101 	umull	r3, r1, r0, r1
 800082c:	f00c 4000 	and.w	r0, ip, #2147483648	; 0x80000000
 8000830:	f5b1 0f00 	cmp.w	r1, #8388608	; 0x800000
 8000834:	bf3e      	ittt	cc
 8000836:	0049      	lslcc	r1, r1, #1
 8000838:	ea41 71d3 	orrcc.w	r1, r1, r3, lsr #31
 800083c:	005b      	lslcc	r3, r3, #1
 800083e:	ea40 0001 	orr.w	r0, r0, r1
 8000842:	f162 027f 	sbc.w	r2, r2, #127	; 0x7f
 8000846:	2afd      	cmp	r2, #253	; 0xfd
 8000848:	d81d      	bhi.n	8000886 <__aeabi_fmul+0x92>
 800084a:	f1b3 4f00 	cmp.w	r3, #2147483648	; 0x80000000
 800084e:	eb40 50c2 	adc.w	r0, r0, r2, lsl #23
 8000852:	bf08      	it	eq
 8000854:	f020 0001 	biceq.w	r0, r0, #1
 8000858:	4770      	bx	lr
 800085a:	f090 0f00 	teq	r0, #0
 800085e:	f00c 4c00 	and.w	ip, ip, #2147483648	; 0x80000000
 8000862:	bf08      	it	eq
 8000864:	0249      	lsleq	r1, r1, #9
 8000866:	ea4c 2050 	orr.w	r0, ip, r0, lsr #9
 800086a:	ea40 2051 	orr.w	r0, r0, r1, lsr #9
 800086e:	3a7f      	subs	r2, #127	; 0x7f
 8000870:	bfc2      	ittt	gt
 8000872:	f1d2 03ff 	rsbsgt	r3, r2, #255	; 0xff
 8000876:	ea40 50c2 	orrgt.w	r0, r0, r2, lsl #23
 800087a:	4770      	bxgt	lr
 800087c:	f440 0000 	orr.w	r0, r0, #8388608	; 0x800000
 8000880:	f04f 0300 	mov.w	r3, #0
 8000884:	3a01      	subs	r2, #1
 8000886:	dc5d      	bgt.n	8000944 <__aeabi_fmul+0x150>
 8000888:	f112 0f19 	cmn.w	r2, #25
 800088c:	bfdc      	itt	le
 800088e:	f000 4000 	andle.w	r0, r0, #2147483648	; 0x80000000
 8000892:	4770      	bxle	lr
 8000894:	f1c2 0200 	rsb	r2, r2, #0
 8000898:	0041      	lsls	r1, r0, #1
 800089a:	fa21 f102 	lsr.w	r1, r1, r2
 800089e:	f1c2 0220 	rsb	r2, r2, #32
 80008a2:	fa00 fc02 	lsl.w	ip, r0, r2
 80008a6:	ea5f 0031 	movs.w	r0, r1, rrx
 80008aa:	f140 0000 	adc.w	r0, r0, #0
 80008ae:	ea53 034c 	orrs.w	r3, r3, ip, lsl #1
 80008b2:	bf08      	it	eq
 80008b4:	ea20 70dc 	biceq.w	r0, r0, ip, lsr #31
 80008b8:	4770      	bx	lr
 80008ba:	f092 0f00 	teq	r2, #0
 80008be:	f000 4c00 	and.w	ip, r0, #2147483648	; 0x80000000
 80008c2:	bf02      	ittt	eq
 80008c4:	0040      	lsleq	r0, r0, #1
 80008c6:	f410 0f00 	tsteq.w	r0, #8388608	; 0x800000
 80008ca:	3a01      	subeq	r2, #1
 80008cc:	d0f9      	beq.n	80008c2 <__aeabi_fmul+0xce>
 80008ce:	ea40 000c 	orr.w	r0, r0, ip
 80008d2:	f093 0f00 	teq	r3, #0
 80008d6:	f001 4c00 	and.w	ip, r1, #2147483648	; 0x80000000
 80008da:	bf02      	ittt	eq
 80008dc:	0049      	lsleq	r1, r1, #1
 80008de:	f411 0f00 	tsteq.w	r1, #8388608	; 0x800000
 80008e2:	3b01      	subeq	r3, #1
 80008e4:	d0f9      	beq.n	80008da <__aeabi_fmul+0xe6>
 80008e6:	ea41 010c 	orr.w	r1, r1, ip
 80008ea:	e78f      	b.n	800080c <__aeabi_fmul+0x18>
 80008ec:	ea0c 53d1 	and.w	r3, ip, r1, lsr #23
 80008f0:	ea92 0f0c 	teq	r2, ip
 80008f4:	bf18      	it	ne
 80008f6:	ea93 0f0c 	teqne	r3, ip
 80008fa:	d00a      	beq.n	8000912 <__aeabi_fmul+0x11e>
 80008fc:	f030 4c00 	bics.w	ip, r0, #2147483648	; 0x80000000
 8000900:	bf18      	it	ne
 8000902:	f031 4c00 	bicsne.w	ip, r1, #2147483648	; 0x80000000
 8000906:	d1d8      	bne.n	80008ba <__aeabi_fmul+0xc6>
 8000908:	ea80 0001 	eor.w	r0, r0, r1
 800090c:	f000 4000 	and.w	r0, r0, #2147483648	; 0x80000000
 8000910:	4770      	bx	lr
 8000912:	f090 0f00 	teq	r0, #0
 8000916:	bf17      	itett	ne
 8000918:	f090 4f00 	teqne	r0, #2147483648	; 0x80000000
 800091c:	4608      	moveq	r0, r1
 800091e:	f091 0f00 	teqne	r1, #0
 8000922:	f091 4f00 	teqne	r1, #2147483648	; 0x80000000
 8000926:	d014      	beq.n	8000952 <__aeabi_fmul+0x15e>
 8000928:	ea92 0f0c 	teq	r2, ip
 800092c:	d101      	bne.n	8000932 <__aeabi_fmul+0x13e>
 800092e:	0242      	lsls	r2, r0, #9
 8000930:	d10f      	bne.n	8000952 <__aeabi_fmul+0x15e>
 8000932:	ea93 0f0c 	teq	r3, ip
 8000936:	d103      	bne.n	8000940 <__aeabi_fmul+0x14c>
 8000938:	024b      	lsls	r3, r1, #9
 800093a:	bf18      	it	ne
 800093c:	4608      	movne	r0, r1
 800093e:	d108      	bne.n	8000952 <__aeabi_fmul+0x15e>
 8000940:	ea80 0001 	eor.w	r0, r0, r1
 8000944:	f000 4000 	and.w	r0, r0, #2147483648	; 0x80000000
 8000948:	f040 40fe 	orr.w	r0, r0, #2130706432	; 0x7f000000
 800094c:	f440 0000 	orr.w	r0, r0, #8388608	; 0x800000
 8000950:	4770      	bx	lr
 8000952:	f040 40fe 	orr.w	r0, r0, #2130706432	; 0x7f000000
 8000956:	f440 0040 	orr.w	r0, r0, #12582912	; 0xc00000
 800095a:	4770      	bx	lr

0800095c <__aeabi_fdiv>:
 800095c:	f04f 0cff 	mov.w	ip, #255	; 0xff
 8000960:	ea1c 52d0 	ands.w	r2, ip, r0, lsr #23
 8000964:	bf1e      	ittt	ne
 8000966:	ea1c 53d1 	andsne.w	r3, ip, r1, lsr #23
 800096a:	ea92 0f0c 	teqne	r2, ip
 800096e:	ea93 0f0c 	teqne	r3, ip
 8000972:	d069      	beq.n	8000a48 <__aeabi_fdiv+0xec>
 8000974:	eba2 0203 	sub.w	r2, r2, r3
 8000978:	ea80 0c01 	eor.w	ip, r0, r1
 800097c:	0249      	lsls	r1, r1, #9
 800097e:	ea4f 2040 	mov.w	r0, r0, lsl #9
 8000982:	d037      	beq.n	80009f4 <__aeabi_fdiv+0x98>
 8000984:	f04f 5380 	mov.w	r3, #268435456	; 0x10000000
 8000988:	ea43 1111 	orr.w	r1, r3, r1, lsr #4
 800098c:	ea43 1310 	orr.w	r3, r3, r0, lsr #4
 8000990:	f00c 4000 	and.w	r0, ip, #2147483648	; 0x80000000
 8000994:	428b      	cmp	r3, r1
 8000996:	bf38      	it	cc
 8000998:	005b      	lslcc	r3, r3, #1
 800099a:	f142 027d 	adc.w	r2, r2, #125	; 0x7d
 800099e:	f44f 0c00 	mov.w	ip, #8388608	; 0x800000
 80009a2:	428b      	cmp	r3, r1
 80009a4:	bf24      	itt	cs
 80009a6:	1a5b      	subcs	r3, r3, r1
 80009a8:	ea40 000c 	orrcs.w	r0, r0, ip
 80009ac:	ebb3 0f51 	cmp.w	r3, r1, lsr #1
 80009b0:	bf24      	itt	cs
 80009b2:	eba3 0351 	subcs.w	r3, r3, r1, lsr #1
 80009b6:	ea40 005c 	orrcs.w	r0, r0, ip, lsr #1
 80009ba:	ebb3 0f91 	cmp.w	r3, r1, lsr #2
 80009be:	bf24      	itt	cs
 80009c0:	eba3 0391 	subcs.w	r3, r3, r1, lsr #2
 80009c4:	ea40 009c 	orrcs.w	r0, r0, ip, lsr #2
 80009c8:	ebb3 0fd1 	cmp.w	r3, r1, lsr #3
 80009cc:	bf24      	itt	cs
 80009ce:	eba3 03d1 	subcs.w	r3, r3, r1, lsr #3
 80009d2:	ea40 00dc 	orrcs.w	r0, r0, ip, lsr #3
 80009d6:	011b      	lsls	r3, r3, #4
 80009d8:	bf18      	it	ne
 80009da:	ea5f 1c1c 	movsne.w	ip, ip, lsr #4
 80009de:	d1e0      	bne.n	80009a2 <__aeabi_fdiv+0x46>
 80009e0:	2afd      	cmp	r2, #253	; 0xfd
 80009e2:	f63f af50 	bhi.w	8000886 <__aeabi_fmul+0x92>
 80009e6:	428b      	cmp	r3, r1
 80009e8:	eb40 50c2 	adc.w	r0, r0, r2, lsl #23
 80009ec:	bf08      	it	eq
 80009ee:	f020 0001 	biceq.w	r0, r0, #1
 80009f2:	4770      	bx	lr
 80009f4:	f00c 4c00 	and.w	ip, ip, #2147483648	; 0x80000000
 80009f8:	ea4c 2050 	orr.w	r0, ip, r0, lsr #9
 80009fc:	327f      	adds	r2, #127	; 0x7f
 80009fe:	bfc2      	ittt	gt
 8000a00:	f1d2 03ff 	rsbsgt	r3, r2, #255	; 0xff
 8000a04:	ea40 50c2 	orrgt.w	r0, r0, r2, lsl #23
 8000a08:	4770      	bxgt	lr
 8000a0a:	f440 0000 	orr.w	r0, r0, #8388608	; 0x800000
 8000a0e:	f04f 0300 	mov.w	r3, #0
 8000a12:	3a01      	subs	r2, #1
 8000a14:	e737      	b.n	8000886 <__aeabi_fmul+0x92>
 8000a16:	f092 0f00 	teq	r2, #0
 8000a1a:	f000 4c00 	and.w	ip, r0, #2147483648	; 0x80000000
 8000a1e:	bf02      	ittt	eq
 8000a20:	0040      	lsleq	r0, r0, #1
 8000a22:	f410 0f00 	tsteq.w	r0, #8388608	; 0x800000
 8000a26:	3a01      	subeq	r2, #1
 8000a28:	d0f9      	beq.n	8000a1e <__aeabi_fdiv+0xc2>
 8000a2a:	ea40 000c 	orr.w	r0, r0, ip
 8000a2e:	f093 0f00 	teq	r3, #0
 8000a32:	f001 4c00 	and.w	ip, r1, #2147483648	; 0x80000000
 8000a36:	bf02      	ittt	eq
 8000a38:	0049      	lsleq	r1, r1, #1
 8000a3a:	f411 0f00 	tsteq.w	r1, #8388608	; 0x800000
 8000a3e:	3b01      	subeq	r3, #1
 8000a40:	d0f9      	beq.n	8000a36 <__aeabi_fdiv+0xda>
 8000a42:	ea41 010c 	orr.w	r1, r1, ip
 8000a46:	e795      	b.n	8000974 <__aeabi_fdiv+0x18>
 8000a48:	ea0c 53d1 	and.w	r3, ip, r1, lsr #23
 8000a4c:	ea92 0f0c 	teq	r2, ip
 8000a50:	d108      	bne.n	8000a64 <__aeabi_fdiv+0x108>
 8000a52:	0242      	lsls	r2, r0, #9
 8000a54:	f47f af7d 	bne.w	8000952 <__aeabi_fmul+0x15e>
 8000a58:	ea93 0f0c 	teq	r3, ip
 8000a5c:	f47f af70 	bne.w	8000940 <__aeabi_fmul+0x14c>
 8000a60:	4608      	mov	r0, r1
 8000a62:	e776      	b.n	8000952 <__aeabi_fmul+0x15e>
 8000a64:	ea93 0f0c 	teq	r3, ip
 8000a68:	d104      	bne.n	8000a74 <__aeabi_fdiv+0x118>
 8000a6a:	024b      	lsls	r3, r1, #9
 8000a6c:	f43f af4c 	beq.w	8000908 <__aeabi_fmul+0x114>
 8000a70:	4608      	mov	r0, r1
 8000a72:	e76e      	b.n	8000952 <__aeabi_fmul+0x15e>
 8000a74:	f030 4c00 	bics.w	ip, r0, #2147483648	; 0x80000000
 8000a78:	bf18      	it	ne
 8000a7a:	f031 4c00 	bicsne.w	ip, r1, #2147483648	; 0x80000000
 8000a7e:	d1ca      	bne.n	8000a16 <__aeabi_fdiv+0xba>
 8000a80:	f030 4200 	bics.w	r2, r0, #2147483648	; 0x80000000
 8000a84:	f47f af5c 	bne.w	8000940 <__aeabi_fmul+0x14c>
 8000a88:	f031 4300 	bics.w	r3, r1, #2147483648	; 0x80000000
 8000a8c:	f47f af3c 	bne.w	8000908 <__aeabi_fmul+0x114>
 8000a90:	e75f      	b.n	8000952 <__aeabi_fmul+0x15e>
 8000a92:	bf00      	nop

08000a94 <LCD>:
  * @brief  The application entry point.
  * @retval int
  */


void LCD(uint8_t val_1, uint8_t cmd) {
 8000a94:	b580      	push	{r7, lr}
 8000a96:	b084      	sub	sp, #16
 8000a98:	af00      	add	r7, sp, #0
 8000a9a:	4603      	mov	r3, r0
 8000a9c:	460a      	mov	r2, r1
 8000a9e:	71fb      	strb	r3, [r7, #7]
 8000aa0:	4613      	mov	r3, r2
 8000aa2:	71bb      	strb	r3, [r7, #6]
	uint8_t data;

	HAL_GPIO_WritePin(GPIOA, GPIO_PIN_8, cmd);
 8000aa4:	79bb      	ldrb	r3, [r7, #6]
 8000aa6:	461a      	mov	r2, r3
 8000aa8:	f44f 7180 	mov.w	r1, #256	; 0x100
 8000aac:	4838      	ldr	r0, [pc, #224]	; (8000b90 <LCD+0xfc>)
 8000aae:	f001 f9df 	bl	8001e70 <HAL_GPIO_WritePin>

	data = val_1 & 0x01;
 8000ab2:	79fb      	ldrb	r3, [r7, #7]
 8000ab4:	f003 0301 	and.w	r3, r3, #1
 8000ab8:	73fb      	strb	r3, [r7, #15]
	HAL_GPIO_WritePin(GPIOA, GPIO_PIN_10, data);
 8000aba:	7bfb      	ldrb	r3, [r7, #15]
 8000abc:	461a      	mov	r2, r3
 8000abe:	f44f 6180 	mov.w	r1, #1024	; 0x400
 8000ac2:	4833      	ldr	r0, [pc, #204]	; (8000b90 <LCD+0xfc>)
 8000ac4:	f001 f9d4 	bl	8001e70 <HAL_GPIO_WritePin>

	data = (val_1 >> 1) & 0x01;
 8000ac8:	79fb      	ldrb	r3, [r7, #7]
 8000aca:	085b      	lsrs	r3, r3, #1
 8000acc:	b2db      	uxtb	r3, r3
 8000ace:	f003 0301 	and.w	r3, r3, #1
 8000ad2:	73fb      	strb	r3, [r7, #15]
	HAL_GPIO_WritePin(GPIOA, GPIO_PIN_1, data);
 8000ad4:	7bfb      	ldrb	r3, [r7, #15]
 8000ad6:	461a      	mov	r2, r3
 8000ad8:	2102      	movs	r1, #2
 8000ada:	482d      	ldr	r0, [pc, #180]	; (8000b90 <LCD+0xfc>)
 8000adc:	f001 f9c8 	bl	8001e70 <HAL_GPIO_WritePin>

	data = (val_1 >> 2) & 0x01;
 8000ae0:	79fb      	ldrb	r3, [r7, #7]
 8000ae2:	089b      	lsrs	r3, r3, #2
 8000ae4:	b2db      	uxtb	r3, r3
 8000ae6:	f003 0301 	and.w	r3, r3, #1
 8000aea:	73fb      	strb	r3, [r7, #15]
	HAL_GPIO_WritePin(GPIOA, GPIO_PIN_2, data);
 8000aec:	7bfb      	ldrb	r3, [r7, #15]
 8000aee:	461a      	mov	r2, r3
 8000af0:	2104      	movs	r1, #4
 8000af2:	4827      	ldr	r0, [pc, #156]	; (8000b90 <LCD+0xfc>)
 8000af4:	f001 f9bc 	bl	8001e70 <HAL_GPIO_WritePin>

	data = (val_1 >> 3) & 0x01;
 8000af8:	79fb      	ldrb	r3, [r7, #7]
 8000afa:	08db      	lsrs	r3, r3, #3
 8000afc:	b2db      	uxtb	r3, r3
 8000afe:	f003 0301 	and.w	r3, r3, #1
 8000b02:	73fb      	strb	r3, [r7, #15]
	HAL_GPIO_WritePin(GPIOA, GPIO_PIN_3, data);
 8000b04:	7bfb      	ldrb	r3, [r7, #15]
 8000b06:	461a      	mov	r2, r3
 8000b08:	2108      	movs	r1, #8
 8000b0a:	4821      	ldr	r0, [pc, #132]	; (8000b90 <LCD+0xfc>)
 8000b0c:	f001 f9b0 	bl	8001e70 <HAL_GPIO_WritePin>

	data = (val_1 >> 4) & 0x01;
 8000b10:	79fb      	ldrb	r3, [r7, #7]
 8000b12:	091b      	lsrs	r3, r3, #4
 8000b14:	b2db      	uxtb	r3, r3
 8000b16:	f003 0301 	and.w	r3, r3, #1
 8000b1a:	73fb      	strb	r3, [r7, #15]
	HAL_GPIO_WritePin(GPIOA, GPIO_PIN_4, data);
 8000b1c:	7bfb      	ldrb	r3, [r7, #15]
 8000b1e:	461a      	mov	r2, r3
 8000b20:	2110      	movs	r1, #16
 8000b22:	481b      	ldr	r0, [pc, #108]	; (8000b90 <LCD+0xfc>)
 8000b24:	f001 f9a4 	bl	8001e70 <HAL_GPIO_WritePin>

	data = (val_1 >> 5) & 0x01;
 8000b28:	79fb      	ldrb	r3, [r7, #7]
 8000b2a:	095b      	lsrs	r3, r3, #5
 8000b2c:	b2db      	uxtb	r3, r3
 8000b2e:	f003 0301 	and.w	r3, r3, #1
 8000b32:	73fb      	strb	r3, [r7, #15]
	HAL_GPIO_WritePin(GPIOA, GPIO_PIN_5, data);
 8000b34:	7bfb      	ldrb	r3, [r7, #15]
 8000b36:	461a      	mov	r2, r3
 8000b38:	2120      	movs	r1, #32
 8000b3a:	4815      	ldr	r0, [pc, #84]	; (8000b90 <LCD+0xfc>)
 8000b3c:	f001 f998 	bl	8001e70 <HAL_GPIO_WritePin>

	data = (val_1 >> 6) & 0x01;
 8000b40:	79fb      	ldrb	r3, [r7, #7]
 8000b42:	099b      	lsrs	r3, r3, #6
 8000b44:	b2db      	uxtb	r3, r3
 8000b46:	f003 0301 	and.w	r3, r3, #1
 8000b4a:	73fb      	strb	r3, [r7, #15]
	HAL_GPIO_WritePin(GPIOA, GPIO_PIN_6, data);
 8000b4c:	7bfb      	ldrb	r3, [r7, #15]
 8000b4e:	461a      	mov	r2, r3
 8000b50:	2140      	movs	r1, #64	; 0x40
 8000b52:	480f      	ldr	r0, [pc, #60]	; (8000b90 <LCD+0xfc>)
 8000b54:	f001 f98c 	bl	8001e70 <HAL_GPIO_WritePin>

	data = (val_1 >> 7) & 0x01;
 8000b58:	79fb      	ldrb	r3, [r7, #7]
 8000b5a:	09db      	lsrs	r3, r3, #7
 8000b5c:	73fb      	strb	r3, [r7, #15]
	HAL_GPIO_WritePin(GPIOA, GPIO_PIN_7, data);
 8000b5e:	7bfb      	ldrb	r3, [r7, #15]
 8000b60:	461a      	mov	r2, r3
 8000b62:	2180      	movs	r1, #128	; 0x80
 8000b64:	480a      	ldr	r0, [pc, #40]	; (8000b90 <LCD+0xfc>)
 8000b66:	f001 f983 	bl	8001e70 <HAL_GPIO_WritePin>

	//Enable
	HAL_GPIO_WritePin(GPIOA,GPIO_PIN_9,GPIO_PIN_SET);
 8000b6a:	2201      	movs	r2, #1
 8000b6c:	f44f 7100 	mov.w	r1, #512	; 0x200
 8000b70:	4807      	ldr	r0, [pc, #28]	; (8000b90 <LCD+0xfc>)
 8000b72:	f001 f97d 	bl	8001e70 <HAL_GPIO_WritePin>
	HAL_Delay(50);
 8000b76:	2032      	movs	r0, #50	; 0x32
 8000b78:	f000 faca 	bl	8001110 <HAL_Delay>
	HAL_GPIO_WritePin(GPIOA,GPIO_PIN_9,GPIO_PIN_RESET);
 8000b7c:	2200      	movs	r2, #0
 8000b7e:	f44f 7100 	mov.w	r1, #512	; 0x200
 8000b82:	4803      	ldr	r0, [pc, #12]	; (8000b90 <LCD+0xfc>)
 8000b84:	f001 f974 	bl	8001e70 <HAL_GPIO_WritePin>
}
 8000b88:	bf00      	nop
 8000b8a:	3710      	adds	r7, #16
 8000b8c:	46bd      	mov	sp, r7
 8000b8e:	bd80      	pop	{r7, pc}
 8000b90:	40010800 	.word	0x40010800

08000b94 <LCD_init>:

void LCD_init()
{
 8000b94:	b580      	push	{r7, lr}
 8000b96:	af00      	add	r7, sp, #0
	LCD(0x38,0); // 2 lines, 5*7 matrix
 8000b98:	2100      	movs	r1, #0
 8000b9a:	2038      	movs	r0, #56	; 0x38
 8000b9c:	f7ff ff7a 	bl	8000a94 <LCD>
	LCD(0x0C,0); // Display on, cursor off
 8000ba0:	2100      	movs	r1, #0
 8000ba2:	200c      	movs	r0, #12
 8000ba4:	f7ff ff76 	bl	8000a94 <LCD>
	LCD(0x06,0); // Povecava kursor (shiftuje ga levo)
 8000ba8:	2100      	movs	r1, #0
 8000baa:	2006      	movs	r0, #6
 8000bac:	f7ff ff72 	bl	8000a94 <LCD>
	LCD(0x01,0); // Clear ekran displaya
 8000bb0:	2100      	movs	r1, #0
 8000bb2:	2001      	movs	r0, #1
 8000bb4:	f7ff ff6e 	bl	8000a94 <LCD>
	LCD(0x80,0); // fORCE CURSOR TO BEGINNIG
 8000bb8:	2100      	movs	r1, #0
 8000bba:	2080      	movs	r0, #128	; 0x80
 8000bbc:	f7ff ff6a 	bl	8000a94 <LCD>
}
 8000bc0:	bf00      	nop
 8000bc2:	bd80      	pop	{r7, pc}
 8000bc4:	0000      	movs	r0, r0
	...

08000bc8 <main>:
int main(void)
{
 8000bc8:	b580      	push	{r7, lr}
 8000bca:	b088      	sub	sp, #32
 8000bcc:	af00      	add	r7, sp, #0
  /* USER CODE END 1 */

  /* MCU Configuration--------------------------------------------------------*/

  /* Reset of all peripherals, Initializes the Flash interface and the Systick. */
  HAL_Init();
 8000bce:	f000 fa3d 	bl	800104c <HAL_Init>
  /* USER CODE BEGIN Init */

  /* USER CODE END Init */

  /* Configure the system clock */
  SystemClock_Config();
 8000bd2:	f000 f891 	bl	8000cf8 <SystemClock_Config>
  /* USER CODE BEGIN SysInit */

  /* USER CODE END SysInit */

  /* Initialize all configured peripherals */
  MX_GPIO_Init();
 8000bd6:	f000 f91d 	bl	8000e14 <MX_GPIO_Init>
  MX_ADC1_Init();
 8000bda:	f000 f8dd 	bl	8000d98 <MX_ADC1_Init>
  /* USER CODE BEGIN 2 */

  /* USER CODE END 2 */

  /* Infinite loop */
  LCD_init();
 8000bde:	f7ff ffd9 	bl	8000b94 <LCD_init>

  float rez1,rezultat1;
  char poruka[] = "58 ";
 8000be2:	4b3f      	ldr	r3, [pc, #252]	; (8000ce0 <main+0x118>)
 8000be4:	613b      	str	r3, [r7, #16]
  char poruka2[] = "58/2018 ";
 8000be6:	4a3f      	ldr	r2, [pc, #252]	; (8000ce4 <main+0x11c>)
 8000be8:	1d3b      	adds	r3, r7, #4
 8000bea:	ca07      	ldmia	r2, {r0, r1, r2}
 8000bec:	c303      	stmia	r3!, {r0, r1}
 8000bee:	701a      	strb	r2, [r3, #0]
  while (1)
  {
	  HAL_Delay(100);
 8000bf0:	2064      	movs	r0, #100	; 0x64
 8000bf2:	f000 fa8d 	bl	8001110 <HAL_Delay>
	  HAL_GPIO_WritePin(GPIOB, GPIO_PIN_2, GPIO_PIN_SET);
 8000bf6:	2201      	movs	r2, #1
 8000bf8:	2104      	movs	r1, #4
 8000bfa:	483b      	ldr	r0, [pc, #236]	; (8000ce8 <main+0x120>)
 8000bfc:	f001 f938 	bl	8001e70 <HAL_GPIO_WritePin>

	  HAL_ADC_Start(&hadc1);
 8000c00:	483a      	ldr	r0, [pc, #232]	; (8000cec <main+0x124>)
 8000c02:	f000 fb7f 	bl	8001304 <HAL_ADC_Start>
	  HAL_ADC_PollForConversion(&hadc1, HAL_MAX_DELAY);
 8000c06:	f04f 31ff 	mov.w	r1, #4294967295
 8000c0a:	4838      	ldr	r0, [pc, #224]	; (8000cec <main+0x124>)
 8000c0c:	f000 fc54 	bl	80014b8 <HAL_ADC_PollForConversion>
	  rez1 = HAL_ADC_GetValue(&hadc1);
 8000c10:	4836      	ldr	r0, [pc, #216]	; (8000cec <main+0x124>)
 8000c12:	f000 fd57 	bl	80016c4 <HAL_ADC_GetValue>
 8000c16:	4603      	mov	r3, r0
 8000c18:	4618      	mov	r0, r3
 8000c1a:	f7ff fd93 	bl	8000744 <__aeabi_ui2f>
 8000c1e:	4603      	mov	r3, r0
 8000c20:	61bb      	str	r3, [r7, #24]

	  HAL_Delay(200);
 8000c22:	20c8      	movs	r0, #200	; 0xc8
 8000c24:	f000 fa74 	bl	8001110 <HAL_Delay>
	  HAL_GPIO_WritePin(GPIOB, GPIO_PIN_2, GPIO_PIN_RESET);
 8000c28:	2200      	movs	r2, #0
 8000c2a:	2104      	movs	r1, #4
 8000c2c:	482e      	ldr	r0, [pc, #184]	; (8000ce8 <main+0x120>)
 8000c2e:	f001 f91f 	bl	8001e70 <HAL_GPIO_WritePin>

	  rezultat1 = (rez1*10)/4095;
 8000c32:	492f      	ldr	r1, [pc, #188]	; (8000cf0 <main+0x128>)
 8000c34:	69b8      	ldr	r0, [r7, #24]
 8000c36:	f7ff fddd 	bl	80007f4 <__aeabi_fmul>
 8000c3a:	4603      	mov	r3, r0
 8000c3c:	492d      	ldr	r1, [pc, #180]	; (8000cf4 <main+0x12c>)
 8000c3e:	4618      	mov	r0, r3
 8000c40:	f7ff fe8c 	bl	800095c <__aeabi_fdiv>
 8000c44:	4603      	mov	r3, r0
 8000c46:	617b      	str	r3, [r7, #20]

	  HAL_Delay(100);
 8000c48:	2064      	movs	r0, #100	; 0x64
 8000c4a:	f000 fa61 	bl	8001110 <HAL_Delay>
	  HAL_ADC_Stop(&hadc1);
 8000c4e:	4827      	ldr	r0, [pc, #156]	; (8000cec <main+0x124>)
 8000c50:	f000 fc06 	bl	8001460 <HAL_ADC_Stop>

	  LCD(0x01,0);
 8000c54:	2100      	movs	r1, #0
 8000c56:	2001      	movs	r0, #1
 8000c58:	f7ff ff1c 	bl	8000a94 <LCD>
	  int i = 0;
 8000c5c:	2300      	movs	r3, #0
 8000c5e:	61fb      	str	r3, [r7, #28]
	  if(rezultat1 < 3.3)
 8000c60:	6978      	ldr	r0, [r7, #20]
 8000c62:	f7ff fbd9 	bl	8000418 <__aeabi_f2d>
 8000c66:	a31c      	add	r3, pc, #112	; (adr r3, 8000cd8 <main+0x110>)
 8000c68:	e9d3 2300 	ldrd	r2, r3, [r3]
 8000c6c:	f7ff fc8c 	bl	8000588 <__aeabi_dcmplt>
 8000c70:	4603      	mov	r3, r0
 8000c72:	2b00      	cmp	r3, #0
 8000c74:	d017      	beq.n	8000ca6 <main+0xde>
	  {
		  while(poruka[i]){
 8000c76:	e00e      	b.n	8000c96 <main+0xce>
		     	LCD(poruka[i],1); // ispisujemo
 8000c78:	f107 0210 	add.w	r2, r7, #16
 8000c7c:	69fb      	ldr	r3, [r7, #28]
 8000c7e:	4413      	add	r3, r2
 8000c80:	781b      	ldrb	r3, [r3, #0]
 8000c82:	2101      	movs	r1, #1
 8000c84:	4618      	mov	r0, r3
 8000c86:	f7ff ff05 	bl	8000a94 <LCD>
		     	HAL_Delay(50);
 8000c8a:	2032      	movs	r0, #50	; 0x32
 8000c8c:	f000 fa40 	bl	8001110 <HAL_Delay>
		     	i++;
 8000c90:	69fb      	ldr	r3, [r7, #28]
 8000c92:	3301      	adds	r3, #1
 8000c94:	61fb      	str	r3, [r7, #28]
		  while(poruka[i]){
 8000c96:	f107 0210 	add.w	r2, r7, #16
 8000c9a:	69fb      	ldr	r3, [r7, #28]
 8000c9c:	4413      	add	r3, r2
 8000c9e:	781b      	ldrb	r3, [r3, #0]
 8000ca0:	2b00      	cmp	r3, #0
 8000ca2:	d1e9      	bne.n	8000c78 <main+0xb0>
 8000ca4:	e7a4      	b.n	8000bf0 <main+0x28>
		     }
	  }
	  else
	  {
		  while(poruka2[i]){
 8000ca6:	e00d      	b.n	8000cc4 <main+0xfc>
		      	LCD(poruka2[i],1); // ispisujemo
 8000ca8:	1d3a      	adds	r2, r7, #4
 8000caa:	69fb      	ldr	r3, [r7, #28]
 8000cac:	4413      	add	r3, r2
 8000cae:	781b      	ldrb	r3, [r3, #0]
 8000cb0:	2101      	movs	r1, #1
 8000cb2:	4618      	mov	r0, r3
 8000cb4:	f7ff feee 	bl	8000a94 <LCD>
		      	HAL_Delay(50);
 8000cb8:	2032      	movs	r0, #50	; 0x32
 8000cba:	f000 fa29 	bl	8001110 <HAL_Delay>
		      	i++;
 8000cbe:	69fb      	ldr	r3, [r7, #28]
 8000cc0:	3301      	adds	r3, #1
 8000cc2:	61fb      	str	r3, [r7, #28]
		  while(poruka2[i]){
 8000cc4:	1d3a      	adds	r2, r7, #4
 8000cc6:	69fb      	ldr	r3, [r7, #28]
 8000cc8:	4413      	add	r3, r2
 8000cca:	781b      	ldrb	r3, [r3, #0]
 8000ccc:	2b00      	cmp	r3, #0
 8000cce:	d1eb      	bne.n	8000ca8 <main+0xe0>
  {
 8000cd0:	e78e      	b.n	8000bf0 <main+0x28>
 8000cd2:	bf00      	nop
 8000cd4:	f3af 8000 	nop.w
 8000cd8:	66666666 	.word	0x66666666
 8000cdc:	400a6666 	.word	0x400a6666
 8000ce0:	00203835 	.word	0x00203835
 8000ce4:	08002a04 	.word	0x08002a04
 8000ce8:	40010c00 	.word	0x40010c00
 8000cec:	20000028 	.word	0x20000028
 8000cf0:	41200000 	.word	0x41200000
 8000cf4:	457ff000 	.word	0x457ff000

08000cf8 <SystemClock_Config>:
/**
  * @brief System Clock Configuration
  * @retval None
  */
void SystemClock_Config(void)
{
 8000cf8:	b580      	push	{r7, lr}
 8000cfa:	b094      	sub	sp, #80	; 0x50
 8000cfc:	af00      	add	r7, sp, #0
  RCC_OscInitTypeDef RCC_OscInitStruct = {0};
 8000cfe:	f107 0328 	add.w	r3, r7, #40	; 0x28
 8000d02:	2228      	movs	r2, #40	; 0x28
 8000d04:	2100      	movs	r1, #0
 8000d06:	4618      	mov	r0, r3
 8000d08:	f001 fe68 	bl	80029dc <memset>
  RCC_ClkInitTypeDef RCC_ClkInitStruct = {0};
 8000d0c:	f107 0314 	add.w	r3, r7, #20
 8000d10:	2200      	movs	r2, #0
 8000d12:	601a      	str	r2, [r3, #0]
 8000d14:	605a      	str	r2, [r3, #4]
 8000d16:	609a      	str	r2, [r3, #8]
 8000d18:	60da      	str	r2, [r3, #12]
 8000d1a:	611a      	str	r2, [r3, #16]
  RCC_PeriphCLKInitTypeDef PeriphClkInit = {0};
 8000d1c:	1d3b      	adds	r3, r7, #4
 8000d1e:	2200      	movs	r2, #0
 8000d20:	601a      	str	r2, [r3, #0]
 8000d22:	605a      	str	r2, [r3, #4]
 8000d24:	609a      	str	r2, [r3, #8]
 8000d26:	60da      	str	r2, [r3, #12]

  /** Initializes the RCC Oscillators according to the specified parameters
  * in the RCC_OscInitTypeDef structure.
  */
  RCC_OscInitStruct.OscillatorType = RCC_OSCILLATORTYPE_HSI;
 8000d28:	2302      	movs	r3, #2
 8000d2a:	62bb      	str	r3, [r7, #40]	; 0x28
  RCC_OscInitStruct.HSIState = RCC_HSI_ON;
 8000d2c:	2301      	movs	r3, #1
 8000d2e:	63bb      	str	r3, [r7, #56]	; 0x38
  RCC_OscInitStruct.HSICalibrationValue = RCC_HSICALIBRATION_DEFAULT;
 8000d30:	2310      	movs	r3, #16
 8000d32:	63fb      	str	r3, [r7, #60]	; 0x3c
  RCC_OscInitStruct.PLL.PLLState = RCC_PLL_NONE;
 8000d34:	2300      	movs	r3, #0
 8000d36:	647b      	str	r3, [r7, #68]	; 0x44
  if (HAL_RCC_OscConfig(&RCC_OscInitStruct) != HAL_OK)
 8000d38:	f107 0328 	add.w	r3, r7, #40	; 0x28
 8000d3c:	4618      	mov	r0, r3
 8000d3e:	f001 f8af 	bl	8001ea0 <HAL_RCC_OscConfig>
 8000d42:	4603      	mov	r3, r0
 8000d44:	2b00      	cmp	r3, #0
 8000d46:	d001      	beq.n	8000d4c <SystemClock_Config+0x54>
  {
    Error_Handler();
 8000d48:	f000 f8b8 	bl	8000ebc <Error_Handler>
  }

  /** Initializes the CPU, AHB and APB buses clocks
  */
  RCC_ClkInitStruct.ClockType = RCC_CLOCKTYPE_HCLK|RCC_CLOCKTYPE_SYSCLK
 8000d4c:	230f      	movs	r3, #15
 8000d4e:	617b      	str	r3, [r7, #20]
                              |RCC_CLOCKTYPE_PCLK1|RCC_CLOCKTYPE_PCLK2;
  RCC_ClkInitStruct.SYSCLKSource = RCC_SYSCLKSOURCE_HSI;
 8000d50:	2300      	movs	r3, #0
 8000d52:	61bb      	str	r3, [r7, #24]
  RCC_ClkInitStruct.AHBCLKDivider = RCC_SYSCLK_DIV1;
 8000d54:	2300      	movs	r3, #0
 8000d56:	61fb      	str	r3, [r7, #28]
  RCC_ClkInitStruct.APB1CLKDivider = RCC_HCLK_DIV1;
 8000d58:	2300      	movs	r3, #0
 8000d5a:	623b      	str	r3, [r7, #32]
  RCC_ClkInitStruct.APB2CLKDivider = RCC_HCLK_DIV1;
 8000d5c:	2300      	movs	r3, #0
 8000d5e:	627b      	str	r3, [r7, #36]	; 0x24

  if (HAL_RCC_ClockConfig(&RCC_ClkInitStruct, FLASH_LATENCY_0) != HAL_OK)
 8000d60:	f107 0314 	add.w	r3, r7, #20
 8000d64:	2100      	movs	r1, #0
 8000d66:	4618      	mov	r0, r3
 8000d68:	f001 fb1a 	bl	80023a0 <HAL_RCC_ClockConfig>
 8000d6c:	4603      	mov	r3, r0
 8000d6e:	2b00      	cmp	r3, #0
 8000d70:	d001      	beq.n	8000d76 <SystemClock_Config+0x7e>
  {
    Error_Handler();
 8000d72:	f000 f8a3 	bl	8000ebc <Error_Handler>
  }
  PeriphClkInit.PeriphClockSelection = RCC_PERIPHCLK_ADC;
 8000d76:	2302      	movs	r3, #2
 8000d78:	607b      	str	r3, [r7, #4]
  PeriphClkInit.AdcClockSelection = RCC_ADCPCLK2_DIV2;
 8000d7a:	2300      	movs	r3, #0
 8000d7c:	60fb      	str	r3, [r7, #12]
  if (HAL_RCCEx_PeriphCLKConfig(&PeriphClkInit) != HAL_OK)
 8000d7e:	1d3b      	adds	r3, r7, #4
 8000d80:	4618      	mov	r0, r3
 8000d82:	f001 fc95 	bl	80026b0 <HAL_RCCEx_PeriphCLKConfig>
 8000d86:	4603      	mov	r3, r0
 8000d88:	2b00      	cmp	r3, #0
 8000d8a:	d001      	beq.n	8000d90 <SystemClock_Config+0x98>
  {
    Error_Handler();
 8000d8c:	f000 f896 	bl	8000ebc <Error_Handler>
  }
}
 8000d90:	bf00      	nop
 8000d92:	3750      	adds	r7, #80	; 0x50
 8000d94:	46bd      	mov	sp, r7
 8000d96:	bd80      	pop	{r7, pc}

08000d98 <MX_ADC1_Init>:
  * @brief ADC1 Initialization Function
  * @param None
  * @retval None
  */
static void MX_ADC1_Init(void)
{
 8000d98:	b580      	push	{r7, lr}
 8000d9a:	b084      	sub	sp, #16
 8000d9c:	af00      	add	r7, sp, #0

  /* USER CODE BEGIN ADC1_Init 0 */

  /* USER CODE END ADC1_Init 0 */

  ADC_ChannelConfTypeDef sConfig = {0};
 8000d9e:	1d3b      	adds	r3, r7, #4
 8000da0:	2200      	movs	r2, #0
 8000da2:	601a      	str	r2, [r3, #0]
 8000da4:	605a      	str	r2, [r3, #4]
 8000da6:	609a      	str	r2, [r3, #8]

  /* USER CODE END ADC1_Init 1 */

  /** Common config
  */
  hadc1.Instance = ADC1;
 8000da8:	4b18      	ldr	r3, [pc, #96]	; (8000e0c <MX_ADC1_Init+0x74>)
 8000daa:	4a19      	ldr	r2, [pc, #100]	; (8000e10 <MX_ADC1_Init+0x78>)
 8000dac:	601a      	str	r2, [r3, #0]
  hadc1.Init.ScanConvMode = ADC_SCAN_DISABLE;
 8000dae:	4b17      	ldr	r3, [pc, #92]	; (8000e0c <MX_ADC1_Init+0x74>)
 8000db0:	2200      	movs	r2, #0
 8000db2:	609a      	str	r2, [r3, #8]
  hadc1.Init.ContinuousConvMode = ENABLE;
 8000db4:	4b15      	ldr	r3, [pc, #84]	; (8000e0c <MX_ADC1_Init+0x74>)
 8000db6:	2201      	movs	r2, #1
 8000db8:	731a      	strb	r2, [r3, #12]
  hadc1.Init.DiscontinuousConvMode = DISABLE;
 8000dba:	4b14      	ldr	r3, [pc, #80]	; (8000e0c <MX_ADC1_Init+0x74>)
 8000dbc:	2200      	movs	r2, #0
 8000dbe:	751a      	strb	r2, [r3, #20]
  hadc1.Init.ExternalTrigConv = ADC_SOFTWARE_START;
 8000dc0:	4b12      	ldr	r3, [pc, #72]	; (8000e0c <MX_ADC1_Init+0x74>)
 8000dc2:	f44f 2260 	mov.w	r2, #917504	; 0xe0000
 8000dc6:	61da      	str	r2, [r3, #28]
  hadc1.Init.DataAlign = ADC_DATAALIGN_RIGHT;
 8000dc8:	4b10      	ldr	r3, [pc, #64]	; (8000e0c <MX_ADC1_Init+0x74>)
 8000dca:	2200      	movs	r2, #0
 8000dcc:	605a      	str	r2, [r3, #4]
  hadc1.Init.NbrOfConversion = 1;
 8000dce:	4b0f      	ldr	r3, [pc, #60]	; (8000e0c <MX_ADC1_Init+0x74>)
 8000dd0:	2201      	movs	r2, #1
 8000dd2:	611a      	str	r2, [r3, #16]
  if (HAL_ADC_Init(&hadc1) != HAL_OK)
 8000dd4:	480d      	ldr	r0, [pc, #52]	; (8000e0c <MX_ADC1_Init+0x74>)
 8000dd6:	f000 f9bd 	bl	8001154 <HAL_ADC_Init>
 8000dda:	4603      	mov	r3, r0
 8000ddc:	2b00      	cmp	r3, #0
 8000dde:	d001      	beq.n	8000de4 <MX_ADC1_Init+0x4c>
  {
    Error_Handler();
 8000de0:	f000 f86c 	bl	8000ebc <Error_Handler>
  }

  /** Configure Regular Channel
  */
  sConfig.Channel = ADC_CHANNEL_8;
 8000de4:	2308      	movs	r3, #8
 8000de6:	607b      	str	r3, [r7, #4]
  sConfig.Rank = ADC_REGULAR_RANK_1;
 8000de8:	2301      	movs	r3, #1
 8000dea:	60bb      	str	r3, [r7, #8]
  sConfig.SamplingTime = ADC_SAMPLETIME_1CYCLE_5;
 8000dec:	2300      	movs	r3, #0
 8000dee:	60fb      	str	r3, [r7, #12]
  if (HAL_ADC_ConfigChannel(&hadc1, &sConfig) != HAL_OK)
 8000df0:	1d3b      	adds	r3, r7, #4
 8000df2:	4619      	mov	r1, r3
 8000df4:	4805      	ldr	r0, [pc, #20]	; (8000e0c <MX_ADC1_Init+0x74>)
 8000df6:	f000 fc71 	bl	80016dc <HAL_ADC_ConfigChannel>
 8000dfa:	4603      	mov	r3, r0
 8000dfc:	2b00      	cmp	r3, #0
 8000dfe:	d001      	beq.n	8000e04 <MX_ADC1_Init+0x6c>
  {
    Error_Handler();
 8000e00:	f000 f85c 	bl	8000ebc <Error_Handler>
  }
  /* USER CODE BEGIN ADC1_Init 2 */

  /* USER CODE END ADC1_Init 2 */

}
 8000e04:	bf00      	nop
 8000e06:	3710      	adds	r7, #16
 8000e08:	46bd      	mov	sp, r7
 8000e0a:	bd80      	pop	{r7, pc}
 8000e0c:	20000028 	.word	0x20000028
 8000e10:	40012400 	.word	0x40012400

08000e14 <MX_GPIO_Init>:
  * @brief GPIO Initialization Function
  * @param None
  * @retval None
  */
static void MX_GPIO_Init(void)
{
 8000e14:	b580      	push	{r7, lr}
 8000e16:	b086      	sub	sp, #24
 8000e18:	af00      	add	r7, sp, #0
  GPIO_InitTypeDef GPIO_InitStruct = {0};
 8000e1a:	f107 0308 	add.w	r3, r7, #8
 8000e1e:	2200      	movs	r2, #0
 8000e20:	601a      	str	r2, [r3, #0]
 8000e22:	605a      	str	r2, [r3, #4]
 8000e24:	609a      	str	r2, [r3, #8]
 8000e26:	60da      	str	r2, [r3, #12]

  /* GPIO Ports Clock Enable */
  __HAL_RCC_GPIOA_CLK_ENABLE();
 8000e28:	4b21      	ldr	r3, [pc, #132]	; (8000eb0 <MX_GPIO_Init+0x9c>)
 8000e2a:	699b      	ldr	r3, [r3, #24]
 8000e2c:	4a20      	ldr	r2, [pc, #128]	; (8000eb0 <MX_GPIO_Init+0x9c>)
 8000e2e:	f043 0304 	orr.w	r3, r3, #4
 8000e32:	6193      	str	r3, [r2, #24]
 8000e34:	4b1e      	ldr	r3, [pc, #120]	; (8000eb0 <MX_GPIO_Init+0x9c>)
 8000e36:	699b      	ldr	r3, [r3, #24]
 8000e38:	f003 0304 	and.w	r3, r3, #4
 8000e3c:	607b      	str	r3, [r7, #4]
 8000e3e:	687b      	ldr	r3, [r7, #4]
  __HAL_RCC_GPIOB_CLK_ENABLE();
 8000e40:	4b1b      	ldr	r3, [pc, #108]	; (8000eb0 <MX_GPIO_Init+0x9c>)
 8000e42:	699b      	ldr	r3, [r3, #24]
 8000e44:	4a1a      	ldr	r2, [pc, #104]	; (8000eb0 <MX_GPIO_Init+0x9c>)
 8000e46:	f043 0308 	orr.w	r3, r3, #8
 8000e4a:	6193      	str	r3, [r2, #24]
 8000e4c:	4b18      	ldr	r3, [pc, #96]	; (8000eb0 <MX_GPIO_Init+0x9c>)
 8000e4e:	699b      	ldr	r3, [r3, #24]
 8000e50:	f003 0308 	and.w	r3, r3, #8
 8000e54:	603b      	str	r3, [r7, #0]
 8000e56:	683b      	ldr	r3, [r7, #0]

  /*Configure GPIO pin Output Level */
  HAL_GPIO_WritePin(GPIOA, GPIO_PIN_1|GPIO_PIN_2|GPIO_PIN_3|GPIO_PIN_4
 8000e58:	2200      	movs	r2, #0
 8000e5a:	f240 71fe 	movw	r1, #2046	; 0x7fe
 8000e5e:	4815      	ldr	r0, [pc, #84]	; (8000eb4 <MX_GPIO_Init+0xa0>)
 8000e60:	f001 f806 	bl	8001e70 <HAL_GPIO_WritePin>
                          |GPIO_PIN_5|GPIO_PIN_6|GPIO_PIN_7|GPIO_PIN_8
                          |GPIO_PIN_9|GPIO_PIN_10, GPIO_PIN_RESET);

  /*Configure GPIO pin Output Level */
  HAL_GPIO_WritePin(GPIOB, GPIO_PIN_2, GPIO_PIN_RESET);
 8000e64:	2200      	movs	r2, #0
 8000e66:	2104      	movs	r1, #4
 8000e68:	4813      	ldr	r0, [pc, #76]	; (8000eb8 <MX_GPIO_Init+0xa4>)
 8000e6a:	f001 f801 	bl	8001e70 <HAL_GPIO_WritePin>

  /*Configure GPIO pins : PA1 PA2 PA3 PA4
                           PA5 PA6 PA7 PA8
                           PA9 PA10 */
  GPIO_InitStruct.Pin = GPIO_PIN_1|GPIO_PIN_2|GPIO_PIN_3|GPIO_PIN_4
 8000e6e:	f240 73fe 	movw	r3, #2046	; 0x7fe
 8000e72:	60bb      	str	r3, [r7, #8]
                          |GPIO_PIN_5|GPIO_PIN_6|GPIO_PIN_7|GPIO_PIN_8
                          |GPIO_PIN_9|GPIO_PIN_10;
  GPIO_InitStruct.Mode = GPIO_MODE_OUTPUT_PP;
 8000e74:	2301      	movs	r3, #1
 8000e76:	60fb      	str	r3, [r7, #12]
  GPIO_InitStruct.Pull = GPIO_NOPULL;
 8000e78:	2300      	movs	r3, #0
 8000e7a:	613b      	str	r3, [r7, #16]
  GPIO_InitStruct.Speed = GPIO_SPEED_FREQ_LOW;
 8000e7c:	2302      	movs	r3, #2
 8000e7e:	617b      	str	r3, [r7, #20]
  HAL_GPIO_Init(GPIOA, &GPIO_InitStruct);
 8000e80:	f107 0308 	add.w	r3, r7, #8
 8000e84:	4619      	mov	r1, r3
 8000e86:	480b      	ldr	r0, [pc, #44]	; (8000eb4 <MX_GPIO_Init+0xa0>)
 8000e88:	f000 fea0 	bl	8001bcc <HAL_GPIO_Init>

  /*Configure GPIO pin : PB2 */
  GPIO_InitStruct.Pin = GPIO_PIN_2;
 8000e8c:	2304      	movs	r3, #4
 8000e8e:	60bb      	str	r3, [r7, #8]
  GPIO_InitStruct.Mode = GPIO_MODE_OUTPUT_PP;
 8000e90:	2301      	movs	r3, #1
 8000e92:	60fb      	str	r3, [r7, #12]
  GPIO_InitStruct.Pull = GPIO_NOPULL;
 8000e94:	2300      	movs	r3, #0
 8000e96:	613b      	str	r3, [r7, #16]
  GPIO_InitStruct.Speed = GPIO_SPEED_FREQ_LOW;
 8000e98:	2302      	movs	r3, #2
 8000e9a:	617b      	str	r3, [r7, #20]
  HAL_GPIO_Init(GPIOB, &GPIO_InitStruct);
 8000e9c:	f107 0308 	add.w	r3, r7, #8
 8000ea0:	4619      	mov	r1, r3
 8000ea2:	4805      	ldr	r0, [pc, #20]	; (8000eb8 <MX_GPIO_Init+0xa4>)
 8000ea4:	f000 fe92 	bl	8001bcc <HAL_GPIO_Init>

}
 8000ea8:	bf00      	nop
 8000eaa:	3718      	adds	r7, #24
 8000eac:	46bd      	mov	sp, r7
 8000eae:	bd80      	pop	{r7, pc}
 8000eb0:	40021000 	.word	0x40021000
 8000eb4:	40010800 	.word	0x40010800
 8000eb8:	40010c00 	.word	0x40010c00

08000ebc <Error_Handler>:
/**
  * @brief  This function is executed in case of error occurrence.
  * @retval None
  */
void Error_Handler(void)
{
 8000ebc:	b480      	push	{r7}
 8000ebe:	af00      	add	r7, sp, #0
  \details Disables IRQ interrupts by setting the I-bit in the CPSR.
           Can only be executed in Privileged modes.
 */
__STATIC_FORCEINLINE void __disable_irq(void)
{
  __ASM volatile ("cpsid i" : : : "memory");
 8000ec0:	b672      	cpsid	i
  /* USER CODE BEGIN Error_Handler_Debug */
  /* User can add his own implementation to report the HAL error return state */
  __disable_irq();
  while (1)
 8000ec2:	e7fe      	b.n	8000ec2 <Error_Handler+0x6>

08000ec4 <HAL_MspInit>:
/* USER CODE END 0 */
/**
  * Initializes the Global MSP.
  */
void HAL_MspInit(void)
{
 8000ec4:	b480      	push	{r7}
 8000ec6:	b085      	sub	sp, #20
 8000ec8:	af00      	add	r7, sp, #0
  /* USER CODE BEGIN MspInit 0 */

  /* USER CODE END MspInit 0 */

  __HAL_RCC_AFIO_CLK_ENABLE();
 8000eca:	4b15      	ldr	r3, [pc, #84]	; (8000f20 <HAL_MspInit+0x5c>)
 8000ecc:	699b      	ldr	r3, [r3, #24]
 8000ece:	4a14      	ldr	r2, [pc, #80]	; (8000f20 <HAL_MspInit+0x5c>)
 8000ed0:	f043 0301 	orr.w	r3, r3, #1
 8000ed4:	6193      	str	r3, [r2, #24]
 8000ed6:	4b12      	ldr	r3, [pc, #72]	; (8000f20 <HAL_MspInit+0x5c>)
 8000ed8:	699b      	ldr	r3, [r3, #24]
 8000eda:	f003 0301 	and.w	r3, r3, #1
 8000ede:	60bb      	str	r3, [r7, #8]
 8000ee0:	68bb      	ldr	r3, [r7, #8]
  __HAL_RCC_PWR_CLK_ENABLE();
 8000ee2:	4b0f      	ldr	r3, [pc, #60]	; (8000f20 <HAL_MspInit+0x5c>)
 8000ee4:	69db      	ldr	r3, [r3, #28]
 8000ee6:	4a0e      	ldr	r2, [pc, #56]	; (8000f20 <HAL_MspInit+0x5c>)
 8000ee8:	f043 5380 	orr.w	r3, r3, #268435456	; 0x10000000
 8000eec:	61d3      	str	r3, [r2, #28]
 8000eee:	4b0c      	ldr	r3, [pc, #48]	; (8000f20 <HAL_MspInit+0x5c>)
 8000ef0:	69db      	ldr	r3, [r3, #28]
 8000ef2:	f003 5380 	and.w	r3, r3, #268435456	; 0x10000000
 8000ef6:	607b      	str	r3, [r7, #4]
 8000ef8:	687b      	ldr	r3, [r7, #4]

  /* System interrupt init*/

  /** DISABLE: JTAG-DP Disabled and SW-DP Disabled 
  */
  __HAL_AFIO_REMAP_SWJ_DISABLE();
 8000efa:	4b0a      	ldr	r3, [pc, #40]	; (8000f24 <HAL_MspInit+0x60>)
 8000efc:	685b      	ldr	r3, [r3, #4]
 8000efe:	60fb      	str	r3, [r7, #12]
 8000f00:	68fb      	ldr	r3, [r7, #12]
 8000f02:	f023 63e0 	bic.w	r3, r3, #117440512	; 0x7000000
 8000f06:	60fb      	str	r3, [r7, #12]
 8000f08:	68fb      	ldr	r3, [r7, #12]
 8000f0a:	f043 6380 	orr.w	r3, r3, #67108864	; 0x4000000
 8000f0e:	60fb      	str	r3, [r7, #12]
 8000f10:	4a04      	ldr	r2, [pc, #16]	; (8000f24 <HAL_MspInit+0x60>)
 8000f12:	68fb      	ldr	r3, [r7, #12]
 8000f14:	6053      	str	r3, [r2, #4]

  /* USER CODE BEGIN MspInit 1 */

  /* USER CODE END MspInit 1 */
}
 8000f16:	bf00      	nop
 8000f18:	3714      	adds	r7, #20
 8000f1a:	46bd      	mov	sp, r7
 8000f1c:	bc80      	pop	{r7}
 8000f1e:	4770      	bx	lr
 8000f20:	40021000 	.word	0x40021000
 8000f24:	40010000 	.word	0x40010000

08000f28 <HAL_ADC_MspInit>:
* This function configures the hardware resources used in this example
* @param hadc: ADC handle pointer
* @retval None
*/
void HAL_ADC_MspInit(ADC_HandleTypeDef* hadc)
{
 8000f28:	b580      	push	{r7, lr}
 8000f2a:	b088      	sub	sp, #32
 8000f2c:	af00      	add	r7, sp, #0
 8000f2e:	6078      	str	r0, [r7, #4]
  GPIO_InitTypeDef GPIO_InitStruct = {0};
 8000f30:	f107 0310 	add.w	r3, r7, #16
 8000f34:	2200      	movs	r2, #0
 8000f36:	601a      	str	r2, [r3, #0]
 8000f38:	605a      	str	r2, [r3, #4]
 8000f3a:	609a      	str	r2, [r3, #8]
 8000f3c:	60da      	str	r2, [r3, #12]
  if(hadc->Instance==ADC1)
 8000f3e:	687b      	ldr	r3, [r7, #4]
 8000f40:	681b      	ldr	r3, [r3, #0]
 8000f42:	4a14      	ldr	r2, [pc, #80]	; (8000f94 <HAL_ADC_MspInit+0x6c>)
 8000f44:	4293      	cmp	r3, r2
 8000f46:	d121      	bne.n	8000f8c <HAL_ADC_MspInit+0x64>
  {
  /* USER CODE BEGIN ADC1_MspInit 0 */

  /* USER CODE END ADC1_MspInit 0 */
    /* Peripheral clock enable */
    __HAL_RCC_ADC1_CLK_ENABLE();
 8000f48:	4b13      	ldr	r3, [pc, #76]	; (8000f98 <HAL_ADC_MspInit+0x70>)
 8000f4a:	699b      	ldr	r3, [r3, #24]
 8000f4c:	4a12      	ldr	r2, [pc, #72]	; (8000f98 <HAL_ADC_MspInit+0x70>)
 8000f4e:	f443 7300 	orr.w	r3, r3, #512	; 0x200
 8000f52:	6193      	str	r3, [r2, #24]
 8000f54:	4b10      	ldr	r3, [pc, #64]	; (8000f98 <HAL_ADC_MspInit+0x70>)
 8000f56:	699b      	ldr	r3, [r3, #24]
 8000f58:	f403 7300 	and.w	r3, r3, #512	; 0x200
 8000f5c:	60fb      	str	r3, [r7, #12]
 8000f5e:	68fb      	ldr	r3, [r7, #12]
  
    __HAL_RCC_GPIOB_CLK_ENABLE();
 8000f60:	4b0d      	ldr	r3, [pc, #52]	; (8000f98 <HAL_ADC_MspInit+0x70>)
 8000f62:	699b      	ldr	r3, [r3, #24]
 8000f64:	4a0c      	ldr	r2, [pc, #48]	; (8000f98 <HAL_ADC_MspInit+0x70>)
 8000f66:	f043 0308 	orr.w	r3, r3, #8
 8000f6a:	6193      	str	r3, [r2, #24]
 8000f6c:	4b0a      	ldr	r3, [pc, #40]	; (8000f98 <HAL_ADC_MspInit+0x70>)
 8000f6e:	699b      	ldr	r3, [r3, #24]
 8000f70:	f003 0308 	and.w	r3, r3, #8
 8000f74:	60bb      	str	r3, [r7, #8]
 8000f76:	68bb      	ldr	r3, [r7, #8]
    /**ADC1 GPIO Configuration    
    PB0     ------> ADC1_IN8 
    */
    GPIO_InitStruct.Pin = GPIO_PIN_0;
 8000f78:	2301      	movs	r3, #1
 8000f7a:	613b      	str	r3, [r7, #16]
    GPIO_InitStruct.Mode = GPIO_MODE_ANALOG;
 8000f7c:	2303      	movs	r3, #3
 8000f7e:	617b      	str	r3, [r7, #20]
    HAL_GPIO_Init(GPIOB, &GPIO_InitStruct);
 8000f80:	f107 0310 	add.w	r3, r7, #16
 8000f84:	4619      	mov	r1, r3
 8000f86:	4805      	ldr	r0, [pc, #20]	; (8000f9c <HAL_ADC_MspInit+0x74>)
 8000f88:	f000 fe20 	bl	8001bcc <HAL_GPIO_Init>
  /* USER CODE BEGIN ADC1_MspInit 1 */

  /* USER CODE END ADC1_MspInit 1 */
  }

}
 8000f8c:	bf00      	nop
 8000f8e:	3720      	adds	r7, #32
 8000f90:	46bd      	mov	sp, r7
 8000f92:	bd80      	pop	{r7, pc}
 8000f94:	40012400 	.word	0x40012400
 8000f98:	40021000 	.word	0x40021000
 8000f9c:	40010c00 	.word	0x40010c00

08000fa0 <NMI_Handler>:
/******************************************************************************/
/**
  * @brief This function handles Non maskable interrupt.
  */
void NMI_Handler(void)
{
 8000fa0:	b480      	push	{r7}
 8000fa2:	af00      	add	r7, sp, #0

  /* USER CODE END NonMaskableInt_IRQn 0 */
  /* USER CODE BEGIN NonMaskableInt_IRQn 1 */

  /* USER CODE END NonMaskableInt_IRQn 1 */
}
 8000fa4:	bf00      	nop
 8000fa6:	46bd      	mov	sp, r7
 8000fa8:	bc80      	pop	{r7}
 8000faa:	4770      	bx	lr

08000fac <HardFault_Handler>:

/**
  * @brief This function handles Hard fault interrupt.
  */
void HardFault_Handler(void)
{
 8000fac:	b480      	push	{r7}
 8000fae:	af00      	add	r7, sp, #0
  /* USER CODE BEGIN HardFault_IRQn 0 */

  /* USER CODE END HardFault_IRQn 0 */
  while (1)
 8000fb0:	e7fe      	b.n	8000fb0 <HardFault_Handler+0x4>

08000fb2 <MemManage_Handler>:

/**
  * @brief This function handles Memory management fault.
  */
void MemManage_Handler(void)
{
 8000fb2:	b480      	push	{r7}
 8000fb4:	af00      	add	r7, sp, #0
  /* USER CODE BEGIN MemoryManagement_IRQn 0 */

  /* USER CODE END MemoryManagement_IRQn 0 */
  while (1)
 8000fb6:	e7fe      	b.n	8000fb6 <MemManage_Handler+0x4>

08000fb8 <BusFault_Handler>:

/**
  * @brief This function handles Prefetch fault, memory access fault.
  */
void BusFault_Handler(void)
{
 8000fb8:	b480      	push	{r7}
 8000fba:	af00      	add	r7, sp, #0
  /* USER CODE BEGIN BusFault_IRQn 0 */

  /* USER CODE END BusFault_IRQn 0 */
  while (1)
 8000fbc:	e7fe      	b.n	8000fbc <BusFault_Handler+0x4>

08000fbe <UsageFault_Handler>:

/**
  * @brief This function handles Undefined instruction or illegal state.
  */
void UsageFault_Handler(void)
{
 8000fbe:	b480      	push	{r7}
 8000fc0:	af00      	add	r7, sp, #0
  /* USER CODE BEGIN UsageFault_IRQn 0 */

  /* USER CODE END UsageFault_IRQn 0 */
  while (1)
 8000fc2:	e7fe      	b.n	8000fc2 <UsageFault_Handler+0x4>

08000fc4 <SVC_Handler>:

/**
  * @brief This function handles System service call via SWI instruction.
  */
void SVC_Handler(void)
{
 8000fc4:	b480      	push	{r7}
 8000fc6:	af00      	add	r7, sp, #0

  /* USER CODE END SVCall_IRQn 0 */
  /* USER CODE BEGIN SVCall_IRQn 1 */

  /* USER CODE END SVCall_IRQn 1 */
}
 8000fc8:	bf00      	nop
 8000fca:	46bd      	mov	sp, r7
 8000fcc:	bc80      	pop	{r7}
 8000fce:	4770      	bx	lr

08000fd0 <DebugMon_Handler>:

/**
  * @brief This function handles Debug monitor.
  */
void DebugMon_Handler(void)
{
 8000fd0:	b480      	push	{r7}
 8000fd2:	af00      	add	r7, sp, #0

  /* USER CODE END DebugMonitor_IRQn 0 */
  /* USER CODE BEGIN DebugMonitor_IRQn 1 */

  /* USER CODE END DebugMonitor_IRQn 1 */
}
 8000fd4:	bf00      	nop
 8000fd6:	46bd      	mov	sp, r7
 8000fd8:	bc80      	pop	{r7}
 8000fda:	4770      	bx	lr

08000fdc <PendSV_Handler>:

/**
  * @brief This function handles Pendable request for system service.
  */
void PendSV_Handler(void)
{
 8000fdc:	b480      	push	{r7}
 8000fde:	af00      	add	r7, sp, #0

  /* USER CODE END PendSV_IRQn 0 */
  /* USER CODE BEGIN PendSV_IRQn 1 */

  /* USER CODE END PendSV_IRQn 1 */
}
 8000fe0:	bf00      	nop
 8000fe2:	46bd      	mov	sp, r7
 8000fe4:	bc80      	pop	{r7}
 8000fe6:	4770      	bx	lr

08000fe8 <SysTick_Handler>:

/**
  * @brief This function handles System tick timer.
  */
void SysTick_Handler(void)
{
 8000fe8:	b580      	push	{r7, lr}
 8000fea:	af00      	add	r7, sp, #0
  /* USER CODE BEGIN SysTick_IRQn 0 */

  /* USER CODE END SysTick_IRQn 0 */
  HAL_IncTick();
 8000fec:	f000 f874 	bl	80010d8 <HAL_IncTick>
  /* USER CODE BEGIN SysTick_IRQn 1 */

  /* USER CODE END SysTick_IRQn 1 */
}
 8000ff0:	bf00      	nop
 8000ff2:	bd80      	pop	{r7, pc}

08000ff4 <SystemInit>:
  * @note   This function should be used only after reset.
  * @param  None
  * @retval None
  */
void SystemInit (void)
{
 8000ff4:	b480      	push	{r7}
 8000ff6:	af00      	add	r7, sp, #0

  /* Configure the Vector Table location -------------------------------------*/
#if defined(USER_VECT_TAB_ADDRESS)
  SCB->VTOR = VECT_TAB_BASE_ADDRESS | VECT_TAB_OFFSET; /* Vector Table Relocation in Internal SRAM. */
#endif /* USER_VECT_TAB_ADDRESS */
}
 8000ff8:	bf00      	nop
 8000ffa:	46bd      	mov	sp, r7
 8000ffc:	bc80      	pop	{r7}
 8000ffe:	4770      	bx	lr

08001000 <Reset_Handler>:
  .weak Reset_Handler
  .type Reset_Handler, %function
Reset_Handler:

/* Copy the data segment initializers from flash to SRAM */
  ldr r0, =_sdata
 8001000:	480c      	ldr	r0, [pc, #48]	; (8001034 <LoopFillZerobss+0x12>)
  ldr r1, =_edata
 8001002:	490d      	ldr	r1, [pc, #52]	; (8001038 <LoopFillZerobss+0x16>)
  ldr r2, =_sidata
 8001004:	4a0d      	ldr	r2, [pc, #52]	; (800103c <LoopFillZerobss+0x1a>)
  movs r3, #0
 8001006:	2300      	movs	r3, #0
  b LoopCopyDataInit
 8001008:	e002      	b.n	8001010 <LoopCopyDataInit>

0800100a <CopyDataInit>:

CopyDataInit:
  ldr r4, [r2, r3]
 800100a:	58d4      	ldr	r4, [r2, r3]
  str r4, [r0, r3]
 800100c:	50c4      	str	r4, [r0, r3]
  adds r3, r3, #4
 800100e:	3304      	adds	r3, #4

08001010 <LoopCopyDataInit>:

LoopCopyDataInit:
  adds r4, r0, r3
 8001010:	18c4      	adds	r4, r0, r3
  cmp r4, r1
 8001012:	428c      	cmp	r4, r1
  bcc CopyDataInit
 8001014:	d3f9      	bcc.n	800100a <CopyDataInit>
  
/* Zero fill the bss segment. */
  ldr r2, =_sbss
 8001016:	4a0a      	ldr	r2, [pc, #40]	; (8001040 <LoopFillZerobss+0x1e>)
  ldr r4, =_ebss
 8001018:	4c0a      	ldr	r4, [pc, #40]	; (8001044 <LoopFillZerobss+0x22>)
  movs r3, #0
 800101a:	2300      	movs	r3, #0
  b LoopFillZerobss
 800101c:	e001      	b.n	8001022 <LoopFillZerobss>

0800101e <FillZerobss>:

FillZerobss:
  str  r3, [r2]
 800101e:	6013      	str	r3, [r2, #0]
  adds r2, r2, #4
 8001020:	3204      	adds	r2, #4

08001022 <LoopFillZerobss>:

LoopFillZerobss:
  cmp r2, r4
 8001022:	42a2      	cmp	r2, r4
  bcc FillZerobss
 8001024:	d3fb      	bcc.n	800101e <FillZerobss>

/* Call the clock system intitialization function.*/
    bl  SystemInit
 8001026:	f7ff ffe5 	bl	8000ff4 <SystemInit>
/* Call static constructors */
    bl __libc_init_array
 800102a:	f001 fcb3 	bl	8002994 <__libc_init_array>
/* Call the application's entry point.*/
  bl main
 800102e:	f7ff fdcb 	bl	8000bc8 <main>
  bx lr
 8001032:	4770      	bx	lr
  ldr r0, =_sdata
 8001034:	20000000 	.word	0x20000000
  ldr r1, =_edata
 8001038:	2000000c 	.word	0x2000000c
  ldr r2, =_sidata
 800103c:	08002a58 	.word	0x08002a58
  ldr r2, =_sbss
 8001040:	2000000c 	.word	0x2000000c
  ldr r4, =_ebss
 8001044:	2000005c 	.word	0x2000005c

08001048 <ADC1_2_IRQHandler>:
 * @retval : None
*/
    .section .text.Default_Handler,"ax",%progbits
Default_Handler:
Infinite_Loop:
  b Infinite_Loop
 8001048:	e7fe      	b.n	8001048 <ADC1_2_IRQHandler>
	...

0800104c <HAL_Init>:
  *         need to ensure that the SysTick time base is always set to 1 millisecond
  *         to have correct HAL operation.
  * @retval HAL status
  */
HAL_StatusTypeDef HAL_Init(void)
{
 800104c:	b580      	push	{r7, lr}
 800104e:	af00      	add	r7, sp, #0
    defined(STM32F102x6) || defined(STM32F102xB) || \
    defined(STM32F103x6) || defined(STM32F103xB) || defined(STM32F103xE) || defined(STM32F103xG) || \
    defined(STM32F105xC) || defined(STM32F107xC)

  /* Prefetch buffer is not available on value line devices */
  __HAL_FLASH_PREFETCH_BUFFER_ENABLE();
 8001050:	4b08      	ldr	r3, [pc, #32]	; (8001074 <HAL_Init+0x28>)
 8001052:	681b      	ldr	r3, [r3, #0]
 8001054:	4a07      	ldr	r2, [pc, #28]	; (8001074 <HAL_Init+0x28>)
 8001056:	f043 0310 	orr.w	r3, r3, #16
 800105a:	6013      	str	r3, [r2, #0]
#endif
#endif /* PREFETCH_ENABLE */

  /* Set Interrupt Group Priority */
  HAL_NVIC_SetPriorityGrouping(NVIC_PRIORITYGROUP_4);
 800105c:	2003      	movs	r0, #3
 800105e:	f000 fd81 	bl	8001b64 <HAL_NVIC_SetPriorityGrouping>

  /* Use systick as time base source and configure 1ms tick (default clock after Reset is HSI) */
  HAL_InitTick(TICK_INT_PRIORITY);
 8001062:	2000      	movs	r0, #0
 8001064:	f000 f808 	bl	8001078 <HAL_InitTick>

  /* Init the low level hardware */
  HAL_MspInit();
 8001068:	f7ff ff2c 	bl	8000ec4 <HAL_MspInit>

  /* Return function status */
  return HAL_OK;
 800106c:	2300      	movs	r3, #0
}
 800106e:	4618      	mov	r0, r3
 8001070:	bd80      	pop	{r7, pc}
 8001072:	bf00      	nop
 8001074:	40022000 	.word	0x40022000

08001078 <HAL_InitTick>:
  *       implementation  in user file.
  * @param TickPriority Tick interrupt priority.
  * @retval HAL status
  */
__weak HAL_StatusTypeDef HAL_InitTick(uint32_t TickPriority)
{
 8001078:	b580      	push	{r7, lr}
 800107a:	b082      	sub	sp, #8
 800107c:	af00      	add	r7, sp, #0
 800107e:	6078      	str	r0, [r7, #4]
  /* Configure the SysTick to have interrupt in 1ms time basis*/
  if (HAL_SYSTICK_Config(SystemCoreClock / (1000U / uwTickFreq)) > 0U)
 8001080:	4b12      	ldr	r3, [pc, #72]	; (80010cc <HAL_InitTick+0x54>)
 8001082:	681a      	ldr	r2, [r3, #0]
 8001084:	4b12      	ldr	r3, [pc, #72]	; (80010d0 <HAL_InitTick+0x58>)
 8001086:	781b      	ldrb	r3, [r3, #0]
 8001088:	4619      	mov	r1, r3
 800108a:	f44f 737a 	mov.w	r3, #1000	; 0x3e8
 800108e:	fbb3 f3f1 	udiv	r3, r3, r1
 8001092:	fbb2 f3f3 	udiv	r3, r2, r3
 8001096:	4618      	mov	r0, r3
 8001098:	f000 fd8b 	bl	8001bb2 <HAL_SYSTICK_Config>
 800109c:	4603      	mov	r3, r0
 800109e:	2b00      	cmp	r3, #0
 80010a0:	d001      	beq.n	80010a6 <HAL_InitTick+0x2e>
  {
    return HAL_ERROR;
 80010a2:	2301      	movs	r3, #1
 80010a4:	e00e      	b.n	80010c4 <HAL_InitTick+0x4c>
  }

  /* Configure the SysTick IRQ priority */
  if (TickPriority < (1UL << __NVIC_PRIO_BITS))
 80010a6:	687b      	ldr	r3, [r7, #4]
 80010a8:	2b0f      	cmp	r3, #15
 80010aa:	d80a      	bhi.n	80010c2 <HAL_InitTick+0x4a>
  {
    HAL_NVIC_SetPriority(SysTick_IRQn, TickPriority, 0U);
 80010ac:	2200      	movs	r2, #0
 80010ae:	6879      	ldr	r1, [r7, #4]
 80010b0:	f04f 30ff 	mov.w	r0, #4294967295
 80010b4:	f000 fd61 	bl	8001b7a <HAL_NVIC_SetPriority>
    uwTickPrio = TickPriority;
 80010b8:	4a06      	ldr	r2, [pc, #24]	; (80010d4 <HAL_InitTick+0x5c>)
 80010ba:	687b      	ldr	r3, [r7, #4]
 80010bc:	6013      	str	r3, [r2, #0]
  {
    return HAL_ERROR;
  }

  /* Return function status */
  return HAL_OK;
 80010be:	2300      	movs	r3, #0
 80010c0:	e000      	b.n	80010c4 <HAL_InitTick+0x4c>
    return HAL_ERROR;
 80010c2:	2301      	movs	r3, #1
}
 80010c4:	4618      	mov	r0, r3
 80010c6:	3708      	adds	r7, #8
 80010c8:	46bd      	mov	sp, r7
 80010ca:	bd80      	pop	{r7, pc}
 80010cc:	20000000 	.word	0x20000000
 80010d0:	20000008 	.word	0x20000008
 80010d4:	20000004 	.word	0x20000004

080010d8 <HAL_IncTick>:
  * @note This function is declared as __weak to be overwritten in case of other
  *      implementations in user file.
  * @retval None
  */
__weak void HAL_IncTick(void)
{
 80010d8:	b480      	push	{r7}
 80010da:	af00      	add	r7, sp, #0
  uwTick += uwTickFreq;
 80010dc:	4b05      	ldr	r3, [pc, #20]	; (80010f4 <HAL_IncTick+0x1c>)
 80010de:	781b      	ldrb	r3, [r3, #0]
 80010e0:	461a      	mov	r2, r3
 80010e2:	4b05      	ldr	r3, [pc, #20]	; (80010f8 <HAL_IncTick+0x20>)
 80010e4:	681b      	ldr	r3, [r3, #0]
 80010e6:	4413      	add	r3, r2
 80010e8:	4a03      	ldr	r2, [pc, #12]	; (80010f8 <HAL_IncTick+0x20>)
 80010ea:	6013      	str	r3, [r2, #0]
}
 80010ec:	bf00      	nop
 80010ee:	46bd      	mov	sp, r7
 80010f0:	bc80      	pop	{r7}
 80010f2:	4770      	bx	lr
 80010f4:	20000008 	.word	0x20000008
 80010f8:	20000058 	.word	0x20000058

080010fc <HAL_GetTick>:
  * @note  This function is declared as __weak to be overwritten in case of other
  *       implementations in user file.
  * @retval tick value
  */
__weak uint32_t HAL_GetTick(void)
{
 80010fc:	b480      	push	{r7}
 80010fe:	af00      	add	r7, sp, #0
  return uwTick;
 8001100:	4b02      	ldr	r3, [pc, #8]	; (800110c <HAL_GetTick+0x10>)
 8001102:	681b      	ldr	r3, [r3, #0]
}
 8001104:	4618      	mov	r0, r3
 8001106:	46bd      	mov	sp, r7
 8001108:	bc80      	pop	{r7}
 800110a:	4770      	bx	lr
 800110c:	20000058 	.word	0x20000058

08001110 <HAL_Delay>:
  *       implementations in user file.
  * @param Delay specifies the delay time length, in milliseconds.
  * @retval None
  */
__weak void HAL_Delay(uint32_t Delay)
{
 8001110:	b580      	push	{r7, lr}
 8001112:	b084      	sub	sp, #16
 8001114:	af00      	add	r7, sp, #0
 8001116:	6078      	str	r0, [r7, #4]
  uint32_t tickstart = HAL_GetTick();
 8001118:	f7ff fff0 	bl	80010fc <HAL_GetTick>
 800111c:	60b8      	str	r0, [r7, #8]
  uint32_t wait = Delay;
 800111e:	687b      	ldr	r3, [r7, #4]
 8001120:	60fb      	str	r3, [r7, #12]

  /* Add a freq to guarantee minimum wait */
  if (wait < HAL_MAX_DELAY)
 8001122:	68fb      	ldr	r3, [r7, #12]
 8001124:	f1b3 3fff 	cmp.w	r3, #4294967295
 8001128:	d005      	beq.n	8001136 <HAL_Delay+0x26>
  {
    wait += (uint32_t)(uwTickFreq);
 800112a:	4b09      	ldr	r3, [pc, #36]	; (8001150 <HAL_Delay+0x40>)
 800112c:	781b      	ldrb	r3, [r3, #0]
 800112e:	461a      	mov	r2, r3
 8001130:	68fb      	ldr	r3, [r7, #12]
 8001132:	4413      	add	r3, r2
 8001134:	60fb      	str	r3, [r7, #12]
  }

  while ((HAL_GetTick() - tickstart) < wait)
 8001136:	bf00      	nop
 8001138:	f7ff ffe0 	bl	80010fc <HAL_GetTick>
 800113c:	4602      	mov	r2, r0
 800113e:	68bb      	ldr	r3, [r7, #8]
 8001140:	1ad3      	subs	r3, r2, r3
 8001142:	68fa      	ldr	r2, [r7, #12]
 8001144:	429a      	cmp	r2, r3
 8001146:	d8f7      	bhi.n	8001138 <HAL_Delay+0x28>
  {
  }
}
 8001148:	bf00      	nop
 800114a:	3710      	adds	r7, #16
 800114c:	46bd      	mov	sp, r7
 800114e:	bd80      	pop	{r7, pc}
 8001150:	20000008 	.word	0x20000008

08001154 <HAL_ADC_Init>:
  *         of structure "ADC_InitTypeDef".
  * @param  hadc: ADC handle
  * @retval HAL status
  */
HAL_StatusTypeDef HAL_ADC_Init(ADC_HandleTypeDef* hadc)
{
 8001154:	b580      	push	{r7, lr}
 8001156:	b086      	sub	sp, #24
 8001158:	af00      	add	r7, sp, #0
 800115a:	6078      	str	r0, [r7, #4]
  HAL_StatusTypeDef tmp_hal_status = HAL_OK;
 800115c:	2300      	movs	r3, #0
 800115e:	75fb      	strb	r3, [r7, #23]
  uint32_t tmp_cr1 = 0U;
 8001160:	2300      	movs	r3, #0
 8001162:	613b      	str	r3, [r7, #16]
  uint32_t tmp_cr2 = 0U;
 8001164:	2300      	movs	r3, #0
 8001166:	60bb      	str	r3, [r7, #8]
  uint32_t tmp_sqr1 = 0U;
 8001168:	2300      	movs	r3, #0
 800116a:	60fb      	str	r3, [r7, #12]
  
  /* Check ADC handle */
  if(hadc == NULL)
 800116c:	687b      	ldr	r3, [r7, #4]
 800116e:	2b00      	cmp	r3, #0
 8001170:	d101      	bne.n	8001176 <HAL_ADC_Init+0x22>
  {
    return HAL_ERROR;
 8001172:	2301      	movs	r3, #1
 8001174:	e0be      	b.n	80012f4 <HAL_ADC_Init+0x1a0>
  assert_param(IS_ADC_DATA_ALIGN(hadc->Init.DataAlign));
  assert_param(IS_ADC_SCAN_MODE(hadc->Init.ScanConvMode));
  assert_param(IS_FUNCTIONAL_STATE(hadc->Init.ContinuousConvMode));
  assert_param(IS_ADC_EXTTRIG(hadc->Init.ExternalTrigConv));
  
  if(hadc->Init.ScanConvMode != ADC_SCAN_DISABLE)
 8001176:	687b      	ldr	r3, [r7, #4]
 8001178:	689b      	ldr	r3, [r3, #8]
 800117a:	2b00      	cmp	r3, #0
  /* Refer to header of this file for more details on clock enabling          */
  /* procedure.                                                               */

  /* Actions performed only if ADC is coming from state reset:                */
  /* - Initialization of ADC MSP                                              */
  if (hadc->State == HAL_ADC_STATE_RESET)
 800117c:	687b      	ldr	r3, [r7, #4]
 800117e:	6a9b      	ldr	r3, [r3, #40]	; 0x28
 8001180:	2b00      	cmp	r3, #0
 8001182:	d109      	bne.n	8001198 <HAL_ADC_Init+0x44>
  {
    /* Initialize ADC error code */
    ADC_CLEAR_ERRORCODE(hadc);
 8001184:	687b      	ldr	r3, [r7, #4]
 8001186:	2200      	movs	r2, #0
 8001188:	62da      	str	r2, [r3, #44]	; 0x2c
    
    /* Allocate lock resource and initialize it */
    hadc->Lock = HAL_UNLOCKED;
 800118a:	687b      	ldr	r3, [r7, #4]
 800118c:	2200      	movs	r2, #0
 800118e:	f883 2024 	strb.w	r2, [r3, #36]	; 0x24
    
    /* Init the low level hardware */
    hadc->MspInitCallback(hadc);
#else
    /* Init the low level hardware */
    HAL_ADC_MspInit(hadc);
 8001192:	6878      	ldr	r0, [r7, #4]
 8001194:	f7ff fec8 	bl	8000f28 <HAL_ADC_MspInit>
  /* Stop potential conversion on going, on regular and injected groups */
  /* Disable ADC peripheral */
  /* Note: In case of ADC already enabled, precaution to not launch an        */
  /*       unwanted conversion while modifying register CR2 by writing 1 to   */
  /*       bit ADON.                                                          */
  tmp_hal_status = ADC_ConversionStop_Disable(hadc);
 8001198:	6878      	ldr	r0, [r7, #4]
 800119a:	f000 fbf1 	bl	8001980 <ADC_ConversionStop_Disable>
 800119e:	4603      	mov	r3, r0
 80011a0:	75fb      	strb	r3, [r7, #23]
  
  
  /* Configuration of ADC parameters if previous preliminary actions are      */ 
  /* correctly completed.                                                     */
  if (HAL_IS_BIT_CLR(hadc->State, HAL_ADC_STATE_ERROR_INTERNAL) &&
 80011a2:	687b      	ldr	r3, [r7, #4]
 80011a4:	6a9b      	ldr	r3, [r3, #40]	; 0x28
 80011a6:	f003 0310 	and.w	r3, r3, #16
 80011aa:	2b00      	cmp	r3, #0
 80011ac:	f040 8099 	bne.w	80012e2 <HAL_ADC_Init+0x18e>
 80011b0:	7dfb      	ldrb	r3, [r7, #23]
 80011b2:	2b00      	cmp	r3, #0
 80011b4:	f040 8095 	bne.w	80012e2 <HAL_ADC_Init+0x18e>
      (tmp_hal_status == HAL_OK)                                  )
  {
    /* Set ADC state */
    ADC_STATE_CLR_SET(hadc->State,
 80011b8:	687b      	ldr	r3, [r7, #4]
 80011ba:	6a9b      	ldr	r3, [r3, #40]	; 0x28
 80011bc:	f423 5388 	bic.w	r3, r3, #4352	; 0x1100
 80011c0:	f023 0302 	bic.w	r3, r3, #2
 80011c4:	f043 0202 	orr.w	r2, r3, #2
 80011c8:	687b      	ldr	r3, [r7, #4]
 80011ca:	629a      	str	r2, [r3, #40]	; 0x28
    /*  - continuous conversion mode                                          */
    /* Note: External trigger polarity (ADC_CR2_EXTTRIG) is set into          */
    /*       HAL_ADC_Start_xxx functions because if set in this function,     */
    /*       a conversion on injected group would start a conversion also on  */
    /*       regular group after ADC enabling.                                */
    tmp_cr2 |= (hadc->Init.DataAlign                                          |
 80011cc:	687b      	ldr	r3, [r7, #4]
 80011ce:	685a      	ldr	r2, [r3, #4]
                ADC_CFGR_EXTSEL(hadc, hadc->Init.ExternalTrigConv)            |
 80011d0:	687b      	ldr	r3, [r7, #4]
 80011d2:	69db      	ldr	r3, [r3, #28]
    tmp_cr2 |= (hadc->Init.DataAlign                                          |
 80011d4:	431a      	orrs	r2, r3
                ADC_CR2_CONTINUOUS((uint32_t)hadc->Init.ContinuousConvMode)   );
 80011d6:	687b      	ldr	r3, [r7, #4]
 80011d8:	7b1b      	ldrb	r3, [r3, #12]
 80011da:	005b      	lsls	r3, r3, #1
                ADC_CFGR_EXTSEL(hadc, hadc->Init.ExternalTrigConv)            |
 80011dc:	4313      	orrs	r3, r2
    tmp_cr2 |= (hadc->Init.DataAlign                                          |
 80011de:	68ba      	ldr	r2, [r7, #8]
 80011e0:	4313      	orrs	r3, r2
 80011e2:	60bb      	str	r3, [r7, #8]

    /* Configuration of ADC:                                                  */
    /*  - scan mode                                                           */
    /*  - discontinuous mode disable/enable                                   */
    /*  - discontinuous mode number of conversions                            */
    tmp_cr1 |= (ADC_CR1_SCAN_SET(hadc->Init.ScanConvMode));
 80011e4:	687b      	ldr	r3, [r7, #4]
 80011e6:	689b      	ldr	r3, [r3, #8]
 80011e8:	f5b3 7f80 	cmp.w	r3, #256	; 0x100
 80011ec:	d003      	beq.n	80011f6 <HAL_ADC_Init+0xa2>
 80011ee:	687b      	ldr	r3, [r7, #4]
 80011f0:	689b      	ldr	r3, [r3, #8]
 80011f2:	2b01      	cmp	r3, #1
 80011f4:	d102      	bne.n	80011fc <HAL_ADC_Init+0xa8>
 80011f6:	f44f 7380 	mov.w	r3, #256	; 0x100
 80011fa:	e000      	b.n	80011fe <HAL_ADC_Init+0xaa>
 80011fc:	2300      	movs	r3, #0
 80011fe:	693a      	ldr	r2, [r7, #16]
 8001200:	4313      	orrs	r3, r2
 8001202:	613b      	str	r3, [r7, #16]
    
    /* Enable discontinuous mode only if continuous mode is disabled */
    /* Note: If parameter "Init.ScanConvMode" is set to disable, parameter    */
    /*       discontinuous is set anyway, but will have no effect on ADC HW.  */
    if (hadc->Init.DiscontinuousConvMode == ENABLE)
 8001204:	687b      	ldr	r3, [r7, #4]
 8001206:	7d1b      	ldrb	r3, [r3, #20]
 8001208:	2b01      	cmp	r3, #1
 800120a:	d119      	bne.n	8001240 <HAL_ADC_Init+0xec>
    {
      if (hadc->Init.ContinuousConvMode == DISABLE)
 800120c:	687b      	ldr	r3, [r7, #4]
 800120e:	7b1b      	ldrb	r3, [r3, #12]
 8001210:	2b00      	cmp	r3, #0
 8001212:	d109      	bne.n	8001228 <HAL_ADC_Init+0xd4>
      {
        /* Enable the selected ADC regular discontinuous mode */
        /* Set the number of channels to be converted in discontinuous mode */
        SET_BIT(tmp_cr1, ADC_CR1_DISCEN                                            |
 8001214:	687b      	ldr	r3, [r7, #4]
 8001216:	699b      	ldr	r3, [r3, #24]
 8001218:	3b01      	subs	r3, #1
 800121a:	035a      	lsls	r2, r3, #13
 800121c:	693b      	ldr	r3, [r7, #16]
 800121e:	4313      	orrs	r3, r2
 8001220:	f443 6300 	orr.w	r3, r3, #2048	; 0x800
 8001224:	613b      	str	r3, [r7, #16]
 8001226:	e00b      	b.n	8001240 <HAL_ADC_Init+0xec>
      {
        /* ADC regular group settings continuous and sequencer discontinuous*/
        /* cannot be enabled simultaneously.                                */
        
        /* Update ADC state machine to error */
        SET_BIT(hadc->State, HAL_ADC_STATE_ERROR_CONFIG);
 8001228:	687b      	ldr	r3, [r7, #4]
 800122a:	6a9b      	ldr	r3, [r3, #40]	; 0x28
 800122c:	f043 0220 	orr.w	r2, r3, #32
 8001230:	687b      	ldr	r3, [r7, #4]
 8001232:	629a      	str	r2, [r3, #40]	; 0x28
        
        /* Set ADC error code to ADC IP internal error */
        SET_BIT(hadc->ErrorCode, HAL_ADC_ERROR_INTERNAL);
 8001234:	687b      	ldr	r3, [r7, #4]
 8001236:	6adb      	ldr	r3, [r3, #44]	; 0x2c
 8001238:	f043 0201 	orr.w	r2, r3, #1
 800123c:	687b      	ldr	r3, [r7, #4]
 800123e:	62da      	str	r2, [r3, #44]	; 0x2c
      }
    }
    
    /* Update ADC configuration register CR1 with previous settings */
      MODIFY_REG(hadc->Instance->CR1,
 8001240:	687b      	ldr	r3, [r7, #4]
 8001242:	681b      	ldr	r3, [r3, #0]
 8001244:	685b      	ldr	r3, [r3, #4]
 8001246:	f423 4169 	bic.w	r1, r3, #59648	; 0xe900
 800124a:	687b      	ldr	r3, [r7, #4]
 800124c:	681b      	ldr	r3, [r3, #0]
 800124e:	693a      	ldr	r2, [r7, #16]
 8001250:	430a      	orrs	r2, r1
 8001252:	605a      	str	r2, [r3, #4]
                 ADC_CR1_DISCEN  |
                 ADC_CR1_DISCNUM    ,
                 tmp_cr1             );
    
    /* Update ADC configuration register CR2 with previous settings */
      MODIFY_REG(hadc->Instance->CR2,
 8001254:	687b      	ldr	r3, [r7, #4]
 8001256:	681b      	ldr	r3, [r3, #0]
 8001258:	689a      	ldr	r2, [r3, #8]
 800125a:	4b28      	ldr	r3, [pc, #160]	; (80012fc <HAL_ADC_Init+0x1a8>)
 800125c:	4013      	ands	r3, r2
 800125e:	687a      	ldr	r2, [r7, #4]
 8001260:	6812      	ldr	r2, [r2, #0]
 8001262:	68b9      	ldr	r1, [r7, #8]
 8001264:	430b      	orrs	r3, r1
 8001266:	6093      	str	r3, [r2, #8]
    /*   Note: Scan mode is present by hardware on this device and, if        */
    /*   disabled, discards automatically nb of conversions. Anyway, nb of    */
    /*   conversions is forced to 0x00 for alignment over all STM32 devices.  */
    /* - if scan mode is enabled, regular channels sequence length is set to  */
    /*   parameter "NbrOfConversion"                                          */
    if (ADC_CR1_SCAN_SET(hadc->Init.ScanConvMode) == ADC_SCAN_ENABLE)
 8001268:	687b      	ldr	r3, [r7, #4]
 800126a:	689b      	ldr	r3, [r3, #8]
 800126c:	f5b3 7f80 	cmp.w	r3, #256	; 0x100
 8001270:	d003      	beq.n	800127a <HAL_ADC_Init+0x126>
 8001272:	687b      	ldr	r3, [r7, #4]
 8001274:	689b      	ldr	r3, [r3, #8]
 8001276:	2b01      	cmp	r3, #1
 8001278:	d104      	bne.n	8001284 <HAL_ADC_Init+0x130>
    {
      tmp_sqr1 = ADC_SQR1_L_SHIFT(hadc->Init.NbrOfConversion);
 800127a:	687b      	ldr	r3, [r7, #4]
 800127c:	691b      	ldr	r3, [r3, #16]
 800127e:	3b01      	subs	r3, #1
 8001280:	051b      	lsls	r3, r3, #20
 8001282:	60fb      	str	r3, [r7, #12]
    }
      
    MODIFY_REG(hadc->Instance->SQR1,
 8001284:	687b      	ldr	r3, [r7, #4]
 8001286:	681b      	ldr	r3, [r3, #0]
 8001288:	6adb      	ldr	r3, [r3, #44]	; 0x2c
 800128a:	f423 0170 	bic.w	r1, r3, #15728640	; 0xf00000
 800128e:	687b      	ldr	r3, [r7, #4]
 8001290:	681b      	ldr	r3, [r3, #0]
 8001292:	68fa      	ldr	r2, [r7, #12]
 8001294:	430a      	orrs	r2, r1
 8001296:	62da      	str	r2, [r3, #44]	; 0x2c
    /* ensure of no potential problem of ADC core IP clocking.                */
    /* Check through register CR2 (excluding bits set in other functions:     */
    /* execution control bits (ADON, JSWSTART, SWSTART), regular group bits   */
    /* (DMA), injected group bits (JEXTTRIG and JEXTSEL), channel internal    */
    /* measurement path bit (TSVREFE).                                        */
    if (READ_BIT(hadc->Instance->CR2, ~(ADC_CR2_ADON | ADC_CR2_DMA |
 8001298:	687b      	ldr	r3, [r7, #4]
 800129a:	681b      	ldr	r3, [r3, #0]
 800129c:	689a      	ldr	r2, [r3, #8]
 800129e:	4b18      	ldr	r3, [pc, #96]	; (8001300 <HAL_ADC_Init+0x1ac>)
 80012a0:	4013      	ands	r3, r2
 80012a2:	68ba      	ldr	r2, [r7, #8]
 80012a4:	429a      	cmp	r2, r3
 80012a6:	d10b      	bne.n	80012c0 <HAL_ADC_Init+0x16c>
                                        ADC_CR2_JEXTTRIG | ADC_CR2_JEXTSEL |
                                        ADC_CR2_TSVREFE                     ))
         == tmp_cr2)
    {
      /* Set ADC error code to none */
      ADC_CLEAR_ERRORCODE(hadc);
 80012a8:	687b      	ldr	r3, [r7, #4]
 80012aa:	2200      	movs	r2, #0
 80012ac:	62da      	str	r2, [r3, #44]	; 0x2c
      
      /* Set the ADC state */
      ADC_STATE_CLR_SET(hadc->State,
 80012ae:	687b      	ldr	r3, [r7, #4]
 80012b0:	6a9b      	ldr	r3, [r3, #40]	; 0x28
 80012b2:	f023 0303 	bic.w	r3, r3, #3
 80012b6:	f043 0201 	orr.w	r2, r3, #1
 80012ba:	687b      	ldr	r3, [r7, #4]
 80012bc:	629a      	str	r2, [r3, #40]	; 0x28
    if (READ_BIT(hadc->Instance->CR2, ~(ADC_CR2_ADON | ADC_CR2_DMA |
 80012be:	e018      	b.n	80012f2 <HAL_ADC_Init+0x19e>
                        HAL_ADC_STATE_READY);
    }
    else
    {
      /* Update ADC state machine to error */
      ADC_STATE_CLR_SET(hadc->State,
 80012c0:	687b      	ldr	r3, [r7, #4]
 80012c2:	6a9b      	ldr	r3, [r3, #40]	; 0x28
 80012c4:	f023 0312 	bic.w	r3, r3, #18
 80012c8:	f043 0210 	orr.w	r2, r3, #16
 80012cc:	687b      	ldr	r3, [r7, #4]
 80012ce:	629a      	str	r2, [r3, #40]	; 0x28
                        HAL_ADC_STATE_BUSY_INTERNAL,
                        HAL_ADC_STATE_ERROR_INTERNAL);
      
      /* Set ADC error code to ADC IP internal error */
      SET_BIT(hadc->ErrorCode, HAL_ADC_ERROR_INTERNAL);
 80012d0:	687b      	ldr	r3, [r7, #4]
 80012d2:	6adb      	ldr	r3, [r3, #44]	; 0x2c
 80012d4:	f043 0201 	orr.w	r2, r3, #1
 80012d8:	687b      	ldr	r3, [r7, #4]
 80012da:	62da      	str	r2, [r3, #44]	; 0x2c
      
      tmp_hal_status = HAL_ERROR;
 80012dc:	2301      	movs	r3, #1
 80012de:	75fb      	strb	r3, [r7, #23]
    if (READ_BIT(hadc->Instance->CR2, ~(ADC_CR2_ADON | ADC_CR2_DMA |
 80012e0:	e007      	b.n	80012f2 <HAL_ADC_Init+0x19e>
  
  }
  else
  {
    /* Update ADC state machine to error */
    SET_BIT(hadc->State, HAL_ADC_STATE_ERROR_INTERNAL);
 80012e2:	687b      	ldr	r3, [r7, #4]
 80012e4:	6a9b      	ldr	r3, [r3, #40]	; 0x28
 80012e6:	f043 0210 	orr.w	r2, r3, #16
 80012ea:	687b      	ldr	r3, [r7, #4]
 80012ec:	629a      	str	r2, [r3, #40]	; 0x28
        
    tmp_hal_status = HAL_ERROR;
 80012ee:	2301      	movs	r3, #1
 80012f0:	75fb      	strb	r3, [r7, #23]
  }
  
  /* Return function status */
  return tmp_hal_status;
 80012f2:	7dfb      	ldrb	r3, [r7, #23]
}
 80012f4:	4618      	mov	r0, r3
 80012f6:	3718      	adds	r7, #24
 80012f8:	46bd      	mov	sp, r7
 80012fa:	bd80      	pop	{r7, pc}
 80012fc:	ffe1f7fd 	.word	0xffe1f7fd
 8001300:	ff1f0efe 	.word	0xff1f0efe

08001304 <HAL_ADC_Start>:
  *         Interruptions enabled in this function: None.
  * @param  hadc: ADC handle
  * @retval HAL status
  */
HAL_StatusTypeDef HAL_ADC_Start(ADC_HandleTypeDef* hadc)
{
 8001304:	b580      	push	{r7, lr}
 8001306:	b084      	sub	sp, #16
 8001308:	af00      	add	r7, sp, #0
 800130a:	6078      	str	r0, [r7, #4]
  HAL_StatusTypeDef tmp_hal_status = HAL_OK;
 800130c:	2300      	movs	r3, #0
 800130e:	73fb      	strb	r3, [r7, #15]
  
  /* Check the parameters */
  assert_param(IS_ADC_ALL_INSTANCE(hadc->Instance));
  
  /* Process locked */
  __HAL_LOCK(hadc);
 8001310:	687b      	ldr	r3, [r7, #4]
 8001312:	f893 3024 	ldrb.w	r3, [r3, #36]	; 0x24
 8001316:	2b01      	cmp	r3, #1
 8001318:	d101      	bne.n	800131e <HAL_ADC_Start+0x1a>
 800131a:	2302      	movs	r3, #2
 800131c:	e098      	b.n	8001450 <HAL_ADC_Start+0x14c>
 800131e:	687b      	ldr	r3, [r7, #4]
 8001320:	2201      	movs	r2, #1
 8001322:	f883 2024 	strb.w	r2, [r3, #36]	; 0x24
   
  /* Enable the ADC peripheral */
  tmp_hal_status = ADC_Enable(hadc);
 8001326:	6878      	ldr	r0, [r7, #4]
 8001328:	f000 fad0 	bl	80018cc <ADC_Enable>
 800132c:	4603      	mov	r3, r0
 800132e:	73fb      	strb	r3, [r7, #15]
  
  /* Start conversion if ADC is effectively enabled */
  if (tmp_hal_status == HAL_OK)
 8001330:	7bfb      	ldrb	r3, [r7, #15]
 8001332:	2b00      	cmp	r3, #0
 8001334:	f040 8087 	bne.w	8001446 <HAL_ADC_Start+0x142>
  {
    /* Set ADC state                                                          */
    /* - Clear state bitfield related to regular group conversion results     */
    /* - Set state bitfield related to regular operation                      */
    ADC_STATE_CLR_SET(hadc->State,
 8001338:	687b      	ldr	r3, [r7, #4]
 800133a:	6a9b      	ldr	r3, [r3, #40]	; 0x28
 800133c:	f423 7340 	bic.w	r3, r3, #768	; 0x300
 8001340:	f023 0301 	bic.w	r3, r3, #1
 8001344:	f443 7280 	orr.w	r2, r3, #256	; 0x100
 8001348:	687b      	ldr	r3, [r7, #4]
 800134a:	629a      	str	r2, [r3, #40]	; 0x28
                      HAL_ADC_STATE_REG_BUSY);
    
    /* Set group injected state (from auto-injection) and multimode state     */
    /* for all cases of multimode: independent mode, multimode ADC master     */
    /* or multimode ADC slave (for devices with several ADCs):                */
    if (ADC_NONMULTIMODE_OR_MULTIMODEMASTER(hadc))
 800134c:	687b      	ldr	r3, [r7, #4]
 800134e:	681b      	ldr	r3, [r3, #0]
 8001350:	4a41      	ldr	r2, [pc, #260]	; (8001458 <HAL_ADC_Start+0x154>)
 8001352:	4293      	cmp	r3, r2
 8001354:	d105      	bne.n	8001362 <HAL_ADC_Start+0x5e>
 8001356:	4b41      	ldr	r3, [pc, #260]	; (800145c <HAL_ADC_Start+0x158>)
 8001358:	685b      	ldr	r3, [r3, #4]
 800135a:	f403 2370 	and.w	r3, r3, #983040	; 0xf0000
 800135e:	2b00      	cmp	r3, #0
 8001360:	d115      	bne.n	800138e <HAL_ADC_Start+0x8a>
    {
      /* Set ADC state (ADC independent or master) */
      CLEAR_BIT(hadc->State, HAL_ADC_STATE_MULTIMODE_SLAVE);
 8001362:	687b      	ldr	r3, [r7, #4]
 8001364:	6a9b      	ldr	r3, [r3, #40]	; 0x28
 8001366:	f423 1280 	bic.w	r2, r3, #1048576	; 0x100000
 800136a:	687b      	ldr	r3, [r7, #4]
 800136c:	629a      	str	r2, [r3, #40]	; 0x28
      
      /* If conversions on group regular are also triggering group injected,  */
      /* update ADC state.                                                    */
      if (READ_BIT(hadc->Instance->CR1, ADC_CR1_JAUTO) != RESET)
 800136e:	687b      	ldr	r3, [r7, #4]
 8001370:	681b      	ldr	r3, [r3, #0]
 8001372:	685b      	ldr	r3, [r3, #4]
 8001374:	f403 6380 	and.w	r3, r3, #1024	; 0x400
 8001378:	2b00      	cmp	r3, #0
 800137a:	d026      	beq.n	80013ca <HAL_ADC_Start+0xc6>
      {
        ADC_STATE_CLR_SET(hadc->State, HAL_ADC_STATE_INJ_EOC, HAL_ADC_STATE_INJ_BUSY);  
 800137c:	687b      	ldr	r3, [r7, #4]
 800137e:	6a9b      	ldr	r3, [r3, #40]	; 0x28
 8001380:	f423 5340 	bic.w	r3, r3, #12288	; 0x3000
 8001384:	f443 5280 	orr.w	r2, r3, #4096	; 0x1000
 8001388:	687b      	ldr	r3, [r7, #4]
 800138a:	629a      	str	r2, [r3, #40]	; 0x28
      if (READ_BIT(hadc->Instance->CR1, ADC_CR1_JAUTO) != RESET)
 800138c:	e01d      	b.n	80013ca <HAL_ADC_Start+0xc6>
      }
    }
    else
    {
      /* Set ADC state (ADC slave) */
      SET_BIT(hadc->State, HAL_ADC_STATE_MULTIMODE_SLAVE);
 800138e:	687b      	ldr	r3, [r7, #4]
 8001390:	6a9b      	ldr	r3, [r3, #40]	; 0x28
 8001392:	f443 1280 	orr.w	r2, r3, #1048576	; 0x100000
 8001396:	687b      	ldr	r3, [r7, #4]
 8001398:	629a      	str	r2, [r3, #40]	; 0x28
      
      /* If conversions on group regular are also triggering group injected,  */
      /* update ADC state.                                                    */
      if (ADC_MULTIMODE_AUTO_INJECTED(hadc))
 800139a:	687b      	ldr	r3, [r7, #4]
 800139c:	681b      	ldr	r3, [r3, #0]
 800139e:	4a2f      	ldr	r2, [pc, #188]	; (800145c <HAL_ADC_Start+0x158>)
 80013a0:	4293      	cmp	r3, r2
 80013a2:	d004      	beq.n	80013ae <HAL_ADC_Start+0xaa>
 80013a4:	687b      	ldr	r3, [r7, #4]
 80013a6:	681b      	ldr	r3, [r3, #0]
 80013a8:	4a2b      	ldr	r2, [pc, #172]	; (8001458 <HAL_ADC_Start+0x154>)
 80013aa:	4293      	cmp	r3, r2
 80013ac:	d10d      	bne.n	80013ca <HAL_ADC_Start+0xc6>
 80013ae:	4b2b      	ldr	r3, [pc, #172]	; (800145c <HAL_ADC_Start+0x158>)
 80013b0:	685b      	ldr	r3, [r3, #4]
 80013b2:	f403 6380 	and.w	r3, r3, #1024	; 0x400
 80013b6:	2b00      	cmp	r3, #0
 80013b8:	d007      	beq.n	80013ca <HAL_ADC_Start+0xc6>
      {
        ADC_STATE_CLR_SET(hadc->State, HAL_ADC_STATE_INJ_EOC, HAL_ADC_STATE_INJ_BUSY);
 80013ba:	687b      	ldr	r3, [r7, #4]
 80013bc:	6a9b      	ldr	r3, [r3, #40]	; 0x28
 80013be:	f423 5340 	bic.w	r3, r3, #12288	; 0x3000
 80013c2:	f443 5280 	orr.w	r2, r3, #4096	; 0x1000
 80013c6:	687b      	ldr	r3, [r7, #4]
 80013c8:	629a      	str	r2, [r3, #40]	; 0x28
      }
    }
    
    /* State machine update: Check if an injected conversion is ongoing */
    if (HAL_IS_BIT_SET(hadc->State, HAL_ADC_STATE_INJ_BUSY))
 80013ca:	687b      	ldr	r3, [r7, #4]
 80013cc:	6a9b      	ldr	r3, [r3, #40]	; 0x28
 80013ce:	f403 5380 	and.w	r3, r3, #4096	; 0x1000
 80013d2:	2b00      	cmp	r3, #0
 80013d4:	d006      	beq.n	80013e4 <HAL_ADC_Start+0xe0>
    {
      /* Reset ADC error code fields related to conversions on group regular */
      CLEAR_BIT(hadc->ErrorCode, (HAL_ADC_ERROR_OVR | HAL_ADC_ERROR_DMA));         
 80013d6:	687b      	ldr	r3, [r7, #4]
 80013d8:	6adb      	ldr	r3, [r3, #44]	; 0x2c
 80013da:	f023 0206 	bic.w	r2, r3, #6
 80013de:	687b      	ldr	r3, [r7, #4]
 80013e0:	62da      	str	r2, [r3, #44]	; 0x2c
 80013e2:	e002      	b.n	80013ea <HAL_ADC_Start+0xe6>
    }
    else
    {
      /* Reset ADC all error code fields */
      ADC_CLEAR_ERRORCODE(hadc);
 80013e4:	687b      	ldr	r3, [r7, #4]
 80013e6:	2200      	movs	r2, #0
 80013e8:	62da      	str	r2, [r3, #44]	; 0x2c
    }
    
    /* Process unlocked */
    /* Unlock before starting ADC conversions: in case of potential           */
    /* interruption, to let the process to ADC IRQ Handler.                   */
    __HAL_UNLOCK(hadc);
 80013ea:	687b      	ldr	r3, [r7, #4]
 80013ec:	2200      	movs	r2, #0
 80013ee:	f883 2024 	strb.w	r2, [r3, #36]	; 0x24
  
    /* Clear regular group conversion flag */
    /* (To ensure of no unknown state from potential previous ADC operations) */
    __HAL_ADC_CLEAR_FLAG(hadc, ADC_FLAG_EOC);
 80013f2:	687b      	ldr	r3, [r7, #4]
 80013f4:	681b      	ldr	r3, [r3, #0]
 80013f6:	f06f 0202 	mvn.w	r2, #2
 80013fa:	601a      	str	r2, [r3, #0]
    /*  - if ADC is slave, ADC is enabled only (conversion is not started).   */
    /*  - if ADC is master, ADC is enabled and conversion is started.         */
    /* If ADC is master, ADC is enabled and conversion is started.            */
    /* Note: Alternate trigger for single conversion could be to force an     */
    /*       additional set of bit ADON "hadc->Instance->CR2 |= ADC_CR2_ADON;"*/
    if (ADC_IS_SOFTWARE_START_REGULAR(hadc)      &&
 80013fc:	687b      	ldr	r3, [r7, #4]
 80013fe:	681b      	ldr	r3, [r3, #0]
 8001400:	689b      	ldr	r3, [r3, #8]
 8001402:	f403 2360 	and.w	r3, r3, #917504	; 0xe0000
 8001406:	f5b3 2f60 	cmp.w	r3, #917504	; 0xe0000
 800140a:	d113      	bne.n	8001434 <HAL_ADC_Start+0x130>
        ADC_NONMULTIMODE_OR_MULTIMODEMASTER(hadc)  )
 800140c:	687b      	ldr	r3, [r7, #4]
 800140e:	681b      	ldr	r3, [r3, #0]
    if (ADC_IS_SOFTWARE_START_REGULAR(hadc)      &&
 8001410:	4a11      	ldr	r2, [pc, #68]	; (8001458 <HAL_ADC_Start+0x154>)
 8001412:	4293      	cmp	r3, r2
 8001414:	d105      	bne.n	8001422 <HAL_ADC_Start+0x11e>
        ADC_NONMULTIMODE_OR_MULTIMODEMASTER(hadc)  )
 8001416:	4b11      	ldr	r3, [pc, #68]	; (800145c <HAL_ADC_Start+0x158>)
 8001418:	685b      	ldr	r3, [r3, #4]
 800141a:	f403 2370 	and.w	r3, r3, #983040	; 0xf0000
    if (ADC_IS_SOFTWARE_START_REGULAR(hadc)      &&
 800141e:	2b00      	cmp	r3, #0
 8001420:	d108      	bne.n	8001434 <HAL_ADC_Start+0x130>
    {
      /* Start ADC conversion on regular group with SW start */
      SET_BIT(hadc->Instance->CR2, (ADC_CR2_SWSTART | ADC_CR2_EXTTRIG));
 8001422:	687b      	ldr	r3, [r7, #4]
 8001424:	681b      	ldr	r3, [r3, #0]
 8001426:	689a      	ldr	r2, [r3, #8]
 8001428:	687b      	ldr	r3, [r7, #4]
 800142a:	681b      	ldr	r3, [r3, #0]
 800142c:	f442 02a0 	orr.w	r2, r2, #5242880	; 0x500000
 8001430:	609a      	str	r2, [r3, #8]
 8001432:	e00c      	b.n	800144e <HAL_ADC_Start+0x14a>
    }
    else
    {
      /* Start ADC conversion on regular group with external trigger */
      SET_BIT(hadc->Instance->CR2, ADC_CR2_EXTTRIG);
 8001434:	687b      	ldr	r3, [r7, #4]
 8001436:	681b      	ldr	r3, [r3, #0]
 8001438:	689a      	ldr	r2, [r3, #8]
 800143a:	687b      	ldr	r3, [r7, #4]
 800143c:	681b      	ldr	r3, [r3, #0]
 800143e:	f442 1280 	orr.w	r2, r2, #1048576	; 0x100000
 8001442:	609a      	str	r2, [r3, #8]
 8001444:	e003      	b.n	800144e <HAL_ADC_Start+0x14a>
    }
  }
  else
  {
    /* Process unlocked */
    __HAL_UNLOCK(hadc);
 8001446:	687b      	ldr	r3, [r7, #4]
 8001448:	2200      	movs	r2, #0
 800144a:	f883 2024 	strb.w	r2, [r3, #36]	; 0x24
  }
    
  /* Return function status */
  return tmp_hal_status;
 800144e:	7bfb      	ldrb	r3, [r7, #15]
}
 8001450:	4618      	mov	r0, r3
 8001452:	3710      	adds	r7, #16
 8001454:	46bd      	mov	sp, r7
 8001456:	bd80      	pop	{r7, pc}
 8001458:	40012800 	.word	0x40012800
 800145c:	40012400 	.word	0x40012400

08001460 <HAL_ADC_Stop>:
  *         should be preliminarily stopped using HAL_ADCEx_InjectedStop function.
  * @param  hadc: ADC handle
  * @retval HAL status.
  */
HAL_StatusTypeDef HAL_ADC_Stop(ADC_HandleTypeDef* hadc)
{
 8001460:	b580      	push	{r7, lr}
 8001462:	b084      	sub	sp, #16
 8001464:	af00      	add	r7, sp, #0
 8001466:	6078      	str	r0, [r7, #4]
  HAL_StatusTypeDef tmp_hal_status = HAL_OK;
 8001468:	2300      	movs	r3, #0
 800146a:	73fb      	strb	r3, [r7, #15]
  
  /* Check the parameters */
  assert_param(IS_ADC_ALL_INSTANCE(hadc->Instance));
     
  /* Process locked */
  __HAL_LOCK(hadc);
 800146c:	687b      	ldr	r3, [r7, #4]
 800146e:	f893 3024 	ldrb.w	r3, [r3, #36]	; 0x24
 8001472:	2b01      	cmp	r3, #1
 8001474:	d101      	bne.n	800147a <HAL_ADC_Stop+0x1a>
 8001476:	2302      	movs	r3, #2
 8001478:	e01a      	b.n	80014b0 <HAL_ADC_Stop+0x50>
 800147a:	687b      	ldr	r3, [r7, #4]
 800147c:	2201      	movs	r2, #1
 800147e:	f883 2024 	strb.w	r2, [r3, #36]	; 0x24
  
  /* Stop potential conversion on going, on regular and injected groups */
  /* Disable ADC peripheral */
  tmp_hal_status = ADC_ConversionStop_Disable(hadc);
 8001482:	6878      	ldr	r0, [r7, #4]
 8001484:	f000 fa7c 	bl	8001980 <ADC_ConversionStop_Disable>
 8001488:	4603      	mov	r3, r0
 800148a:	73fb      	strb	r3, [r7, #15]
  
  /* Check if ADC is effectively disabled */
  if (tmp_hal_status == HAL_OK)
 800148c:	7bfb      	ldrb	r3, [r7, #15]
 800148e:	2b00      	cmp	r3, #0
 8001490:	d109      	bne.n	80014a6 <HAL_ADC_Stop+0x46>
  {
    /* Set ADC state */
    ADC_STATE_CLR_SET(hadc->State,
 8001492:	687b      	ldr	r3, [r7, #4]
 8001494:	6a9b      	ldr	r3, [r3, #40]	; 0x28
 8001496:	f423 5388 	bic.w	r3, r3, #4352	; 0x1100
 800149a:	f023 0301 	bic.w	r3, r3, #1
 800149e:	f043 0201 	orr.w	r2, r3, #1
 80014a2:	687b      	ldr	r3, [r7, #4]
 80014a4:	629a      	str	r2, [r3, #40]	; 0x28
                      HAL_ADC_STATE_REG_BUSY | HAL_ADC_STATE_INJ_BUSY,
                      HAL_ADC_STATE_READY);
  }
  
  /* Process unlocked */
  __HAL_UNLOCK(hadc);
 80014a6:	687b      	ldr	r3, [r7, #4]
 80014a8:	2200      	movs	r2, #0
 80014aa:	f883 2024 	strb.w	r2, [r3, #36]	; 0x24
  
  /* Return function status */
  return tmp_hal_status;
 80014ae:	7bfb      	ldrb	r3, [r7, #15]
}
 80014b0:	4618      	mov	r0, r3
 80014b2:	3710      	adds	r7, #16
 80014b4:	46bd      	mov	sp, r7
 80014b6:	bd80      	pop	{r7, pc}

080014b8 <HAL_ADC_PollForConversion>:
  * @param  hadc: ADC handle
  * @param  Timeout: Timeout value in millisecond.
  * @retval HAL status
  */
HAL_StatusTypeDef HAL_ADC_PollForConversion(ADC_HandleTypeDef* hadc, uint32_t Timeout)
{
 80014b8:	b590      	push	{r4, r7, lr}
 80014ba:	b087      	sub	sp, #28
 80014bc:	af00      	add	r7, sp, #0
 80014be:	6078      	str	r0, [r7, #4]
 80014c0:	6039      	str	r1, [r7, #0]
  uint32_t tickstart = 0U;
 80014c2:	2300      	movs	r3, #0
 80014c4:	617b      	str	r3, [r7, #20]
  
  /* Variables for polling in case of scan mode enabled and polling for each  */
  /* conversion.                                                              */
  __IO uint32_t Conversion_Timeout_CPU_cycles = 0U;
 80014c6:	2300      	movs	r3, #0
 80014c8:	60fb      	str	r3, [r7, #12]
  uint32_t Conversion_Timeout_CPU_cycles_max = 0U;
 80014ca:	2300      	movs	r3, #0
 80014cc:	613b      	str	r3, [r7, #16]
 
  /* Check the parameters */
  assert_param(IS_ADC_ALL_INSTANCE(hadc->Instance));
  
  /* Get tick count */
  tickstart = HAL_GetTick();
 80014ce:	f7ff fe15 	bl	80010fc <HAL_GetTick>
 80014d2:	6178      	str	r0, [r7, #20]
  
  /* Verification that ADC configuration is compliant with polling for        */
  /* each conversion:                                                         */
  /* Particular case is ADC configured in DMA mode                            */
  if (HAL_IS_BIT_SET(hadc->Instance->CR2, ADC_CR2_DMA))
 80014d4:	687b      	ldr	r3, [r7, #4]
 80014d6:	681b      	ldr	r3, [r3, #0]
 80014d8:	689b      	ldr	r3, [r3, #8]
 80014da:	f403 7380 	and.w	r3, r3, #256	; 0x100
 80014de:	2b00      	cmp	r3, #0
 80014e0:	d00b      	beq.n	80014fa <HAL_ADC_PollForConversion+0x42>
  {
    /* Update ADC state machine to error */
    SET_BIT(hadc->State, HAL_ADC_STATE_ERROR_CONFIG);
 80014e2:	687b      	ldr	r3, [r7, #4]
 80014e4:	6a9b      	ldr	r3, [r3, #40]	; 0x28
 80014e6:	f043 0220 	orr.w	r2, r3, #32
 80014ea:	687b      	ldr	r3, [r7, #4]
 80014ec:	629a      	str	r2, [r3, #40]	; 0x28
    
    /* Process unlocked */
    __HAL_UNLOCK(hadc);
 80014ee:	687b      	ldr	r3, [r7, #4]
 80014f0:	2200      	movs	r2, #0
 80014f2:	f883 2024 	strb.w	r2, [r3, #36]	; 0x24
    
    return HAL_ERROR;
 80014f6:	2301      	movs	r3, #1
 80014f8:	e0d3      	b.n	80016a2 <HAL_ADC_PollForConversion+0x1ea>
  /*    from ADC conversion time (selected sampling time + conversion time of */
  /*    12.5 ADC clock cycles) and APB2/ADC clock prescalers (depending on    */
  /*    settings, conversion time range can be from 28 to 32256 CPU cycles).  */
  /*    As flag EOC is not set after each conversion, no timeout status can   */
  /*    be set.                                                               */
  if (HAL_IS_BIT_CLR(hadc->Instance->CR1, ADC_CR1_SCAN) &&
 80014fa:	687b      	ldr	r3, [r7, #4]
 80014fc:	681b      	ldr	r3, [r3, #0]
 80014fe:	685b      	ldr	r3, [r3, #4]
 8001500:	f403 7380 	and.w	r3, r3, #256	; 0x100
 8001504:	2b00      	cmp	r3, #0
 8001506:	d131      	bne.n	800156c <HAL_ADC_PollForConversion+0xb4>
      HAL_IS_BIT_CLR(hadc->Instance->SQR1, ADC_SQR1_L)    )
 8001508:	687b      	ldr	r3, [r7, #4]
 800150a:	681b      	ldr	r3, [r3, #0]
 800150c:	6adb      	ldr	r3, [r3, #44]	; 0x2c
 800150e:	f403 0370 	and.w	r3, r3, #15728640	; 0xf00000
  if (HAL_IS_BIT_CLR(hadc->Instance->CR1, ADC_CR1_SCAN) &&
 8001512:	2b00      	cmp	r3, #0
 8001514:	d12a      	bne.n	800156c <HAL_ADC_PollForConversion+0xb4>
  {
    /* Wait until End of Conversion flag is raised */
    while(HAL_IS_BIT_CLR(hadc->Instance->SR, ADC_FLAG_EOC))
 8001516:	e021      	b.n	800155c <HAL_ADC_PollForConversion+0xa4>
    {
      /* Check if timeout is disabled (set to infinite wait) */
      if(Timeout != HAL_MAX_DELAY)
 8001518:	683b      	ldr	r3, [r7, #0]
 800151a:	f1b3 3fff 	cmp.w	r3, #4294967295
 800151e:	d01d      	beq.n	800155c <HAL_ADC_PollForConversion+0xa4>
      {
        if((Timeout == 0U) || ((HAL_GetTick() - tickstart ) > Timeout))
 8001520:	683b      	ldr	r3, [r7, #0]
 8001522:	2b00      	cmp	r3, #0
 8001524:	d007      	beq.n	8001536 <HAL_ADC_PollForConversion+0x7e>
 8001526:	f7ff fde9 	bl	80010fc <HAL_GetTick>
 800152a:	4602      	mov	r2, r0
 800152c:	697b      	ldr	r3, [r7, #20]
 800152e:	1ad3      	subs	r3, r2, r3
 8001530:	683a      	ldr	r2, [r7, #0]
 8001532:	429a      	cmp	r2, r3
 8001534:	d212      	bcs.n	800155c <HAL_ADC_PollForConversion+0xa4>
        {
          /* New check to avoid false timeout detection in case of preemption */
          if(HAL_IS_BIT_CLR(hadc->Instance->SR, ADC_FLAG_EOC))
 8001536:	687b      	ldr	r3, [r7, #4]
 8001538:	681b      	ldr	r3, [r3, #0]
 800153a:	681b      	ldr	r3, [r3, #0]
 800153c:	f003 0302 	and.w	r3, r3, #2
 8001540:	2b00      	cmp	r3, #0
 8001542:	d10b      	bne.n	800155c <HAL_ADC_PollForConversion+0xa4>
          {
            /* Update ADC state machine to timeout */
            SET_BIT(hadc->State, HAL_ADC_STATE_TIMEOUT);
 8001544:	687b      	ldr	r3, [r7, #4]
 8001546:	6a9b      	ldr	r3, [r3, #40]	; 0x28
 8001548:	f043 0204 	orr.w	r2, r3, #4
 800154c:	687b      	ldr	r3, [r7, #4]
 800154e:	629a      	str	r2, [r3, #40]	; 0x28
            
            /* Process unlocked */
            __HAL_UNLOCK(hadc);
 8001550:	687b      	ldr	r3, [r7, #4]
 8001552:	2200      	movs	r2, #0
 8001554:	f883 2024 	strb.w	r2, [r3, #36]	; 0x24
            
            return HAL_TIMEOUT;
 8001558:	2303      	movs	r3, #3
 800155a:	e0a2      	b.n	80016a2 <HAL_ADC_PollForConversion+0x1ea>
    while(HAL_IS_BIT_CLR(hadc->Instance->SR, ADC_FLAG_EOC))
 800155c:	687b      	ldr	r3, [r7, #4]
 800155e:	681b      	ldr	r3, [r3, #0]
 8001560:	681b      	ldr	r3, [r3, #0]
 8001562:	f003 0302 	and.w	r3, r3, #2
 8001566:	2b00      	cmp	r3, #0
 8001568:	d0d6      	beq.n	8001518 <HAL_ADC_PollForConversion+0x60>
  if (HAL_IS_BIT_CLR(hadc->Instance->CR1, ADC_CR1_SCAN) &&
 800156a:	e070      	b.n	800164e <HAL_ADC_PollForConversion+0x196>
    /* Replace polling by wait for maximum conversion time */
    /*  - Computation of CPU clock cycles corresponding to ADC clock cycles   */
    /*    and ADC maximum conversion cycles on all channels.                  */
    /*  - Wait for the expected ADC clock cycles delay                        */
    Conversion_Timeout_CPU_cycles_max = ((SystemCoreClock
                                          / HAL_RCCEx_GetPeriphCLKFreq(RCC_PERIPHCLK_ADC))
 800156c:	4b4f      	ldr	r3, [pc, #316]	; (80016ac <HAL_ADC_PollForConversion+0x1f4>)
 800156e:	681c      	ldr	r4, [r3, #0]
 8001570:	2002      	movs	r0, #2
 8001572:	f001 f953 	bl	800281c <HAL_RCCEx_GetPeriphCLKFreq>
 8001576:	4603      	mov	r3, r0
 8001578:	fbb4 f2f3 	udiv	r2, r4, r3
                                         * ADC_CONVCYCLES_MAX_RANGE(hadc)                 );
 800157c:	687b      	ldr	r3, [r7, #4]
 800157e:	681b      	ldr	r3, [r3, #0]
 8001580:	6919      	ldr	r1, [r3, #16]
 8001582:	4b4b      	ldr	r3, [pc, #300]	; (80016b0 <HAL_ADC_PollForConversion+0x1f8>)
 8001584:	400b      	ands	r3, r1
 8001586:	2b00      	cmp	r3, #0
 8001588:	d118      	bne.n	80015bc <HAL_ADC_PollForConversion+0x104>
 800158a:	687b      	ldr	r3, [r7, #4]
 800158c:	681b      	ldr	r3, [r3, #0]
 800158e:	68d9      	ldr	r1, [r3, #12]
 8001590:	4b48      	ldr	r3, [pc, #288]	; (80016b4 <HAL_ADC_PollForConversion+0x1fc>)
 8001592:	400b      	ands	r3, r1
 8001594:	2b00      	cmp	r3, #0
 8001596:	d111      	bne.n	80015bc <HAL_ADC_PollForConversion+0x104>
 8001598:	687b      	ldr	r3, [r7, #4]
 800159a:	681b      	ldr	r3, [r3, #0]
 800159c:	6919      	ldr	r1, [r3, #16]
 800159e:	4b46      	ldr	r3, [pc, #280]	; (80016b8 <HAL_ADC_PollForConversion+0x200>)
 80015a0:	400b      	ands	r3, r1
 80015a2:	2b00      	cmp	r3, #0
 80015a4:	d108      	bne.n	80015b8 <HAL_ADC_PollForConversion+0x100>
 80015a6:	687b      	ldr	r3, [r7, #4]
 80015a8:	681b      	ldr	r3, [r3, #0]
 80015aa:	68d9      	ldr	r1, [r3, #12]
 80015ac:	4b43      	ldr	r3, [pc, #268]	; (80016bc <HAL_ADC_PollForConversion+0x204>)
 80015ae:	400b      	ands	r3, r1
 80015b0:	2b00      	cmp	r3, #0
 80015b2:	d101      	bne.n	80015b8 <HAL_ADC_PollForConversion+0x100>
 80015b4:	2314      	movs	r3, #20
 80015b6:	e020      	b.n	80015fa <HAL_ADC_PollForConversion+0x142>
 80015b8:	2329      	movs	r3, #41	; 0x29
 80015ba:	e01e      	b.n	80015fa <HAL_ADC_PollForConversion+0x142>
 80015bc:	687b      	ldr	r3, [r7, #4]
 80015be:	681b      	ldr	r3, [r3, #0]
 80015c0:	6919      	ldr	r1, [r3, #16]
 80015c2:	4b3d      	ldr	r3, [pc, #244]	; (80016b8 <HAL_ADC_PollForConversion+0x200>)
 80015c4:	400b      	ands	r3, r1
 80015c6:	2b00      	cmp	r3, #0
 80015c8:	d106      	bne.n	80015d8 <HAL_ADC_PollForConversion+0x120>
 80015ca:	687b      	ldr	r3, [r7, #4]
 80015cc:	681b      	ldr	r3, [r3, #0]
 80015ce:	68d9      	ldr	r1, [r3, #12]
 80015d0:	4b3a      	ldr	r3, [pc, #232]	; (80016bc <HAL_ADC_PollForConversion+0x204>)
 80015d2:	400b      	ands	r3, r1
 80015d4:	2b00      	cmp	r3, #0
 80015d6:	d00d      	beq.n	80015f4 <HAL_ADC_PollForConversion+0x13c>
 80015d8:	687b      	ldr	r3, [r7, #4]
 80015da:	681b      	ldr	r3, [r3, #0]
 80015dc:	6919      	ldr	r1, [r3, #16]
 80015de:	4b38      	ldr	r3, [pc, #224]	; (80016c0 <HAL_ADC_PollForConversion+0x208>)
 80015e0:	400b      	ands	r3, r1
 80015e2:	2b00      	cmp	r3, #0
 80015e4:	d108      	bne.n	80015f8 <HAL_ADC_PollForConversion+0x140>
 80015e6:	687b      	ldr	r3, [r7, #4]
 80015e8:	681b      	ldr	r3, [r3, #0]
 80015ea:	68d9      	ldr	r1, [r3, #12]
 80015ec:	4b34      	ldr	r3, [pc, #208]	; (80016c0 <HAL_ADC_PollForConversion+0x208>)
 80015ee:	400b      	ands	r3, r1
 80015f0:	2b00      	cmp	r3, #0
 80015f2:	d101      	bne.n	80015f8 <HAL_ADC_PollForConversion+0x140>
 80015f4:	2354      	movs	r3, #84	; 0x54
 80015f6:	e000      	b.n	80015fa <HAL_ADC_PollForConversion+0x142>
 80015f8:	23fc      	movs	r3, #252	; 0xfc
    Conversion_Timeout_CPU_cycles_max = ((SystemCoreClock
 80015fa:	fb02 f303 	mul.w	r3, r2, r3
 80015fe:	613b      	str	r3, [r7, #16]
    
    while(Conversion_Timeout_CPU_cycles < Conversion_Timeout_CPU_cycles_max)
 8001600:	e021      	b.n	8001646 <HAL_ADC_PollForConversion+0x18e>
    {
      /* Check if timeout is disabled (set to infinite wait) */
      if(Timeout != HAL_MAX_DELAY)
 8001602:	683b      	ldr	r3, [r7, #0]
 8001604:	f1b3 3fff 	cmp.w	r3, #4294967295
 8001608:	d01a      	beq.n	8001640 <HAL_ADC_PollForConversion+0x188>
      {
        if((Timeout == 0U) || ((HAL_GetTick() - tickstart) > Timeout))
 800160a:	683b      	ldr	r3, [r7, #0]
 800160c:	2b00      	cmp	r3, #0
 800160e:	d007      	beq.n	8001620 <HAL_ADC_PollForConversion+0x168>
 8001610:	f7ff fd74 	bl	80010fc <HAL_GetTick>
 8001614:	4602      	mov	r2, r0
 8001616:	697b      	ldr	r3, [r7, #20]
 8001618:	1ad3      	subs	r3, r2, r3
 800161a:	683a      	ldr	r2, [r7, #0]
 800161c:	429a      	cmp	r2, r3
 800161e:	d20f      	bcs.n	8001640 <HAL_ADC_PollForConversion+0x188>
        {
          /* New check to avoid false timeout detection in case of preemption */
          if(Conversion_Timeout_CPU_cycles < Conversion_Timeout_CPU_cycles_max)
 8001620:	68fb      	ldr	r3, [r7, #12]
 8001622:	693a      	ldr	r2, [r7, #16]
 8001624:	429a      	cmp	r2, r3
 8001626:	d90b      	bls.n	8001640 <HAL_ADC_PollForConversion+0x188>
          {
            /* Update ADC state machine to timeout */
            SET_BIT(hadc->State, HAL_ADC_STATE_TIMEOUT);
 8001628:	687b      	ldr	r3, [r7, #4]
 800162a:	6a9b      	ldr	r3, [r3, #40]	; 0x28
 800162c:	f043 0204 	orr.w	r2, r3, #4
 8001630:	687b      	ldr	r3, [r7, #4]
 8001632:	629a      	str	r2, [r3, #40]	; 0x28

            /* Process unlocked */
            __HAL_UNLOCK(hadc);
 8001634:	687b      	ldr	r3, [r7, #4]
 8001636:	2200      	movs	r2, #0
 8001638:	f883 2024 	strb.w	r2, [r3, #36]	; 0x24

            return HAL_TIMEOUT;
 800163c:	2303      	movs	r3, #3
 800163e:	e030      	b.n	80016a2 <HAL_ADC_PollForConversion+0x1ea>
          }
        }
      }
      Conversion_Timeout_CPU_cycles ++;
 8001640:	68fb      	ldr	r3, [r7, #12]
 8001642:	3301      	adds	r3, #1
 8001644:	60fb      	str	r3, [r7, #12]
    while(Conversion_Timeout_CPU_cycles < Conversion_Timeout_CPU_cycles_max)
 8001646:	68fb      	ldr	r3, [r7, #12]
 8001648:	693a      	ldr	r2, [r7, #16]
 800164a:	429a      	cmp	r2, r3
 800164c:	d8d9      	bhi.n	8001602 <HAL_ADC_PollForConversion+0x14a>
    }
  }
  
  /* Clear regular group conversion flag */
  __HAL_ADC_CLEAR_FLAG(hadc, ADC_FLAG_STRT | ADC_FLAG_EOC);
 800164e:	687b      	ldr	r3, [r7, #4]
 8001650:	681b      	ldr	r3, [r3, #0]
 8001652:	f06f 0212 	mvn.w	r2, #18
 8001656:	601a      	str	r2, [r3, #0]
  
  /* Update ADC state machine */
  SET_BIT(hadc->State, HAL_ADC_STATE_REG_EOC);
 8001658:	687b      	ldr	r3, [r7, #4]
 800165a:	6a9b      	ldr	r3, [r3, #40]	; 0x28
 800165c:	f443 7200 	orr.w	r2, r3, #512	; 0x200
 8001660:	687b      	ldr	r3, [r7, #4]
 8001662:	629a      	str	r2, [r3, #40]	; 0x28
  /* Determine whether any further conversion upcoming on group regular       */
  /* by external trigger, continuous mode or scan sequence on going.          */
  /* Note: On STM32F1 devices, in case of sequencer enabled                   */
  /*       (several ranks selected), end of conversion flag is raised         */
  /*       at the end of the sequence.                                        */
  if(ADC_IS_SOFTWARE_START_REGULAR(hadc)        && 
 8001664:	687b      	ldr	r3, [r7, #4]
 8001666:	681b      	ldr	r3, [r3, #0]
 8001668:	689b      	ldr	r3, [r3, #8]
 800166a:	f403 2360 	and.w	r3, r3, #917504	; 0xe0000
 800166e:	f5b3 2f60 	cmp.w	r3, #917504	; 0xe0000
 8001672:	d115      	bne.n	80016a0 <HAL_ADC_PollForConversion+0x1e8>
     (hadc->Init.ContinuousConvMode == DISABLE)   )
 8001674:	687b      	ldr	r3, [r7, #4]
 8001676:	7b1b      	ldrb	r3, [r3, #12]
  if(ADC_IS_SOFTWARE_START_REGULAR(hadc)        && 
 8001678:	2b00      	cmp	r3, #0
 800167a:	d111      	bne.n	80016a0 <HAL_ADC_PollForConversion+0x1e8>
  {   
    /* Set ADC state */
    CLEAR_BIT(hadc->State, HAL_ADC_STATE_REG_BUSY);   
 800167c:	687b      	ldr	r3, [r7, #4]
 800167e:	6a9b      	ldr	r3, [r3, #40]	; 0x28
 8001680:	f423 7280 	bic.w	r2, r3, #256	; 0x100
 8001684:	687b      	ldr	r3, [r7, #4]
 8001686:	629a      	str	r2, [r3, #40]	; 0x28

    if (HAL_IS_BIT_CLR(hadc->State, HAL_ADC_STATE_INJ_BUSY))
 8001688:	687b      	ldr	r3, [r7, #4]
 800168a:	6a9b      	ldr	r3, [r3, #40]	; 0x28
 800168c:	f403 5380 	and.w	r3, r3, #4096	; 0x1000
 8001690:	2b00      	cmp	r3, #0
 8001692:	d105      	bne.n	80016a0 <HAL_ADC_PollForConversion+0x1e8>
    { 
      SET_BIT(hadc->State, HAL_ADC_STATE_READY);
 8001694:	687b      	ldr	r3, [r7, #4]
 8001696:	6a9b      	ldr	r3, [r3, #40]	; 0x28
 8001698:	f043 0201 	orr.w	r2, r3, #1
 800169c:	687b      	ldr	r3, [r7, #4]
 800169e:	629a      	str	r2, [r3, #40]	; 0x28
    }
  }
  
  /* Return ADC state */
  return HAL_OK;
 80016a0:	2300      	movs	r3, #0
}
 80016a2:	4618      	mov	r0, r3
 80016a4:	371c      	adds	r7, #28
 80016a6:	46bd      	mov	sp, r7
 80016a8:	bd90      	pop	{r4, r7, pc}
 80016aa:	bf00      	nop
 80016ac:	20000000 	.word	0x20000000
 80016b0:	24924924 	.word	0x24924924
 80016b4:	00924924 	.word	0x00924924
 80016b8:	12492492 	.word	0x12492492
 80016bc:	00492492 	.word	0x00492492
 80016c0:	00249249 	.word	0x00249249

080016c4 <HAL_ADC_GetValue>:
  *         or @ref __HAL_ADC_CLEAR_FLAG(&hadc, ADC_FLAG_EOS).
  * @param  hadc: ADC handle
  * @retval ADC group regular conversion data
  */
uint32_t HAL_ADC_GetValue(ADC_HandleTypeDef* hadc)
{
 80016c4:	b480      	push	{r7}
 80016c6:	b083      	sub	sp, #12
 80016c8:	af00      	add	r7, sp, #0
 80016ca:	6078      	str	r0, [r7, #4]

  /* Note: EOC flag is not cleared here by software because automatically     */
  /*       cleared by hardware when reading register DR.                      */
  
  /* Return ADC converted value */ 
  return hadc->Instance->DR;
 80016cc:	687b      	ldr	r3, [r7, #4]
 80016ce:	681b      	ldr	r3, [r3, #0]
 80016d0:	6cdb      	ldr	r3, [r3, #76]	; 0x4c
}
 80016d2:	4618      	mov	r0, r3
 80016d4:	370c      	adds	r7, #12
 80016d6:	46bd      	mov	sp, r7
 80016d8:	bc80      	pop	{r7}
 80016da:	4770      	bx	lr

080016dc <HAL_ADC_ConfigChannel>:
  * @param  hadc: ADC handle
  * @param  sConfig: Structure of ADC channel for regular group.
  * @retval HAL status
  */
HAL_StatusTypeDef HAL_ADC_ConfigChannel(ADC_HandleTypeDef* hadc, ADC_ChannelConfTypeDef* sConfig)
{ 
 80016dc:	b480      	push	{r7}
 80016de:	b085      	sub	sp, #20
 80016e0:	af00      	add	r7, sp, #0
 80016e2:	6078      	str	r0, [r7, #4]
 80016e4:	6039      	str	r1, [r7, #0]
  HAL_StatusTypeDef tmp_hal_status = HAL_OK;
 80016e6:	2300      	movs	r3, #0
 80016e8:	73fb      	strb	r3, [r7, #15]
  __IO uint32_t wait_loop_index = 0U;
 80016ea:	2300      	movs	r3, #0
 80016ec:	60bb      	str	r3, [r7, #8]
  assert_param(IS_ADC_CHANNEL(sConfig->Channel));
  assert_param(IS_ADC_REGULAR_RANK(sConfig->Rank));
  assert_param(IS_ADC_SAMPLE_TIME(sConfig->SamplingTime));
  
  /* Process locked */
  __HAL_LOCK(hadc);
 80016ee:	687b      	ldr	r3, [r7, #4]
 80016f0:	f893 3024 	ldrb.w	r3, [r3, #36]	; 0x24
 80016f4:	2b01      	cmp	r3, #1
 80016f6:	d101      	bne.n	80016fc <HAL_ADC_ConfigChannel+0x20>
 80016f8:	2302      	movs	r3, #2
 80016fa:	e0dc      	b.n	80018b6 <HAL_ADC_ConfigChannel+0x1da>
 80016fc:	687b      	ldr	r3, [r7, #4]
 80016fe:	2201      	movs	r2, #1
 8001700:	f883 2024 	strb.w	r2, [r3, #36]	; 0x24
  
  
  /* Regular sequence configuration */
  /* For Rank 1 to 6 */
  if (sConfig->Rank < 7U)
 8001704:	683b      	ldr	r3, [r7, #0]
 8001706:	685b      	ldr	r3, [r3, #4]
 8001708:	2b06      	cmp	r3, #6
 800170a:	d81c      	bhi.n	8001746 <HAL_ADC_ConfigChannel+0x6a>
  {
    MODIFY_REG(hadc->Instance->SQR3                        ,
 800170c:	687b      	ldr	r3, [r7, #4]
 800170e:	681b      	ldr	r3, [r3, #0]
 8001710:	6b59      	ldr	r1, [r3, #52]	; 0x34
 8001712:	683b      	ldr	r3, [r7, #0]
 8001714:	685a      	ldr	r2, [r3, #4]
 8001716:	4613      	mov	r3, r2
 8001718:	009b      	lsls	r3, r3, #2
 800171a:	4413      	add	r3, r2
 800171c:	3b05      	subs	r3, #5
 800171e:	221f      	movs	r2, #31
 8001720:	fa02 f303 	lsl.w	r3, r2, r3
 8001724:	43db      	mvns	r3, r3
 8001726:	4019      	ands	r1, r3
 8001728:	683b      	ldr	r3, [r7, #0]
 800172a:	6818      	ldr	r0, [r3, #0]
 800172c:	683b      	ldr	r3, [r7, #0]
 800172e:	685a      	ldr	r2, [r3, #4]
 8001730:	4613      	mov	r3, r2
 8001732:	009b      	lsls	r3, r3, #2
 8001734:	4413      	add	r3, r2
 8001736:	3b05      	subs	r3, #5
 8001738:	fa00 f203 	lsl.w	r2, r0, r3
 800173c:	687b      	ldr	r3, [r7, #4]
 800173e:	681b      	ldr	r3, [r3, #0]
 8001740:	430a      	orrs	r2, r1
 8001742:	635a      	str	r2, [r3, #52]	; 0x34
 8001744:	e03c      	b.n	80017c0 <HAL_ADC_ConfigChannel+0xe4>
               ADC_SQR3_RK(ADC_SQR3_SQ1, sConfig->Rank)    ,
               ADC_SQR3_RK(sConfig->Channel, sConfig->Rank) );
  }
  /* For Rank 7 to 12 */
  else if (sConfig->Rank < 13U)
 8001746:	683b      	ldr	r3, [r7, #0]
 8001748:	685b      	ldr	r3, [r3, #4]
 800174a:	2b0c      	cmp	r3, #12
 800174c:	d81c      	bhi.n	8001788 <HAL_ADC_ConfigChannel+0xac>
  {
    MODIFY_REG(hadc->Instance->SQR2                        ,
 800174e:	687b      	ldr	r3, [r7, #4]
 8001750:	681b      	ldr	r3, [r3, #0]
 8001752:	6b19      	ldr	r1, [r3, #48]	; 0x30
 8001754:	683b      	ldr	r3, [r7, #0]
 8001756:	685a      	ldr	r2, [r3, #4]
 8001758:	4613      	mov	r3, r2
 800175a:	009b      	lsls	r3, r3, #2
 800175c:	4413      	add	r3, r2
 800175e:	3b23      	subs	r3, #35	; 0x23
 8001760:	221f      	movs	r2, #31
 8001762:	fa02 f303 	lsl.w	r3, r2, r3
 8001766:	43db      	mvns	r3, r3
 8001768:	4019      	ands	r1, r3
 800176a:	683b      	ldr	r3, [r7, #0]
 800176c:	6818      	ldr	r0, [r3, #0]
 800176e:	683b      	ldr	r3, [r7, #0]
 8001770:	685a      	ldr	r2, [r3, #4]
 8001772:	4613      	mov	r3, r2
 8001774:	009b      	lsls	r3, r3, #2
 8001776:	4413      	add	r3, r2
 8001778:	3b23      	subs	r3, #35	; 0x23
 800177a:	fa00 f203 	lsl.w	r2, r0, r3
 800177e:	687b      	ldr	r3, [r7, #4]
 8001780:	681b      	ldr	r3, [r3, #0]
 8001782:	430a      	orrs	r2, r1
 8001784:	631a      	str	r2, [r3, #48]	; 0x30
 8001786:	e01b      	b.n	80017c0 <HAL_ADC_ConfigChannel+0xe4>
               ADC_SQR2_RK(sConfig->Channel, sConfig->Rank) );
  }
  /* For Rank 13 to 16 */
  else
  {
    MODIFY_REG(hadc->Instance->SQR1                        ,
 8001788:	687b      	ldr	r3, [r7, #4]
 800178a:	681b      	ldr	r3, [r3, #0]
 800178c:	6ad9      	ldr	r1, [r3, #44]	; 0x2c
 800178e:	683b      	ldr	r3, [r7, #0]
 8001790:	685a      	ldr	r2, [r3, #4]
 8001792:	4613      	mov	r3, r2
 8001794:	009b      	lsls	r3, r3, #2
 8001796:	4413      	add	r3, r2
 8001798:	3b41      	subs	r3, #65	; 0x41
 800179a:	221f      	movs	r2, #31
 800179c:	fa02 f303 	lsl.w	r3, r2, r3
 80017a0:	43db      	mvns	r3, r3
 80017a2:	4019      	ands	r1, r3
 80017a4:	683b      	ldr	r3, [r7, #0]
 80017a6:	6818      	ldr	r0, [r3, #0]
 80017a8:	683b      	ldr	r3, [r7, #0]
 80017aa:	685a      	ldr	r2, [r3, #4]
 80017ac:	4613      	mov	r3, r2
 80017ae:	009b      	lsls	r3, r3, #2
 80017b0:	4413      	add	r3, r2
 80017b2:	3b41      	subs	r3, #65	; 0x41
 80017b4:	fa00 f203 	lsl.w	r2, r0, r3
 80017b8:	687b      	ldr	r3, [r7, #4]
 80017ba:	681b      	ldr	r3, [r3, #0]
 80017bc:	430a      	orrs	r2, r1
 80017be:	62da      	str	r2, [r3, #44]	; 0x2c
  }
  
  
  /* Channel sampling time configuration */
  /* For channels 10 to 17 */
  if (sConfig->Channel >= ADC_CHANNEL_10)
 80017c0:	683b      	ldr	r3, [r7, #0]
 80017c2:	681b      	ldr	r3, [r3, #0]
 80017c4:	2b09      	cmp	r3, #9
 80017c6:	d91c      	bls.n	8001802 <HAL_ADC_ConfigChannel+0x126>
  {
    MODIFY_REG(hadc->Instance->SMPR1                             ,
 80017c8:	687b      	ldr	r3, [r7, #4]
 80017ca:	681b      	ldr	r3, [r3, #0]
 80017cc:	68d9      	ldr	r1, [r3, #12]
 80017ce:	683b      	ldr	r3, [r7, #0]
 80017d0:	681a      	ldr	r2, [r3, #0]
 80017d2:	4613      	mov	r3, r2
 80017d4:	005b      	lsls	r3, r3, #1
 80017d6:	4413      	add	r3, r2
 80017d8:	3b1e      	subs	r3, #30
 80017da:	2207      	movs	r2, #7
 80017dc:	fa02 f303 	lsl.w	r3, r2, r3
 80017e0:	43db      	mvns	r3, r3
 80017e2:	4019      	ands	r1, r3
 80017e4:	683b      	ldr	r3, [r7, #0]
 80017e6:	6898      	ldr	r0, [r3, #8]
 80017e8:	683b      	ldr	r3, [r7, #0]
 80017ea:	681a      	ldr	r2, [r3, #0]
 80017ec:	4613      	mov	r3, r2
 80017ee:	005b      	lsls	r3, r3, #1
 80017f0:	4413      	add	r3, r2
 80017f2:	3b1e      	subs	r3, #30
 80017f4:	fa00 f203 	lsl.w	r2, r0, r3
 80017f8:	687b      	ldr	r3, [r7, #4]
 80017fa:	681b      	ldr	r3, [r3, #0]
 80017fc:	430a      	orrs	r2, r1
 80017fe:	60da      	str	r2, [r3, #12]
 8001800:	e019      	b.n	8001836 <HAL_ADC_ConfigChannel+0x15a>
               ADC_SMPR1(ADC_SMPR1_SMP10, sConfig->Channel)      ,
               ADC_SMPR1(sConfig->SamplingTime, sConfig->Channel) );
  }
  else /* For channels 0 to 9 */
  {
    MODIFY_REG(hadc->Instance->SMPR2                             ,
 8001802:	687b      	ldr	r3, [r7, #4]
 8001804:	681b      	ldr	r3, [r3, #0]
 8001806:	6919      	ldr	r1, [r3, #16]
 8001808:	683b      	ldr	r3, [r7, #0]
 800180a:	681a      	ldr	r2, [r3, #0]
 800180c:	4613      	mov	r3, r2
 800180e:	005b      	lsls	r3, r3, #1
 8001810:	4413      	add	r3, r2
 8001812:	2207      	movs	r2, #7
 8001814:	fa02 f303 	lsl.w	r3, r2, r3
 8001818:	43db      	mvns	r3, r3
 800181a:	4019      	ands	r1, r3
 800181c:	683b      	ldr	r3, [r7, #0]
 800181e:	6898      	ldr	r0, [r3, #8]
 8001820:	683b      	ldr	r3, [r7, #0]
 8001822:	681a      	ldr	r2, [r3, #0]
 8001824:	4613      	mov	r3, r2
 8001826:	005b      	lsls	r3, r3, #1
 8001828:	4413      	add	r3, r2
 800182a:	fa00 f203 	lsl.w	r2, r0, r3
 800182e:	687b      	ldr	r3, [r7, #4]
 8001830:	681b      	ldr	r3, [r3, #0]
 8001832:	430a      	orrs	r2, r1
 8001834:	611a      	str	r2, [r3, #16]
               ADC_SMPR2(sConfig->SamplingTime, sConfig->Channel) );
  }
  
  /* If ADC1 Channel_16 or Channel_17 is selected, enable Temperature sensor  */
  /* and VREFINT measurement path.                                            */
  if ((sConfig->Channel == ADC_CHANNEL_TEMPSENSOR) ||
 8001836:	683b      	ldr	r3, [r7, #0]
 8001838:	681b      	ldr	r3, [r3, #0]
 800183a:	2b10      	cmp	r3, #16
 800183c:	d003      	beq.n	8001846 <HAL_ADC_ConfigChannel+0x16a>
      (sConfig->Channel == ADC_CHANNEL_VREFINT)      )
 800183e:	683b      	ldr	r3, [r7, #0]
 8001840:	681b      	ldr	r3, [r3, #0]
  if ((sConfig->Channel == ADC_CHANNEL_TEMPSENSOR) ||
 8001842:	2b11      	cmp	r3, #17
 8001844:	d132      	bne.n	80018ac <HAL_ADC_ConfigChannel+0x1d0>
  {
    /* For STM32F1 devices with several ADC: Only ADC1 can access internal    */
    /* measurement channels (VrefInt/TempSensor). If these channels are       */
    /* intended to be set on other ADC instances, an error is reported.       */
    if (hadc->Instance == ADC1)
 8001846:	687b      	ldr	r3, [r7, #4]
 8001848:	681b      	ldr	r3, [r3, #0]
 800184a:	4a1d      	ldr	r2, [pc, #116]	; (80018c0 <HAL_ADC_ConfigChannel+0x1e4>)
 800184c:	4293      	cmp	r3, r2
 800184e:	d125      	bne.n	800189c <HAL_ADC_ConfigChannel+0x1c0>
    {
      if (READ_BIT(hadc->Instance->CR2, ADC_CR2_TSVREFE) == RESET)
 8001850:	687b      	ldr	r3, [r7, #4]
 8001852:	681b      	ldr	r3, [r3, #0]
 8001854:	689b      	ldr	r3, [r3, #8]
 8001856:	f403 0300 	and.w	r3, r3, #8388608	; 0x800000
 800185a:	2b00      	cmp	r3, #0
 800185c:	d126      	bne.n	80018ac <HAL_ADC_ConfigChannel+0x1d0>
      {
        SET_BIT(hadc->Instance->CR2, ADC_CR2_TSVREFE);
 800185e:	687b      	ldr	r3, [r7, #4]
 8001860:	681b      	ldr	r3, [r3, #0]
 8001862:	689a      	ldr	r2, [r3, #8]
 8001864:	687b      	ldr	r3, [r7, #4]
 8001866:	681b      	ldr	r3, [r3, #0]
 8001868:	f442 0200 	orr.w	r2, r2, #8388608	; 0x800000
 800186c:	609a      	str	r2, [r3, #8]
        
        if (sConfig->Channel == ADC_CHANNEL_TEMPSENSOR)
 800186e:	683b      	ldr	r3, [r7, #0]
 8001870:	681b      	ldr	r3, [r3, #0]
 8001872:	2b10      	cmp	r3, #16
 8001874:	d11a      	bne.n	80018ac <HAL_ADC_ConfigChannel+0x1d0>
        {
          /* Delay for temperature sensor stabilization time */
          /* Compute number of CPU cycles to wait for */
          wait_loop_index = (ADC_TEMPSENSOR_DELAY_US * (SystemCoreClock / 1000000U));
 8001876:	4b13      	ldr	r3, [pc, #76]	; (80018c4 <HAL_ADC_ConfigChannel+0x1e8>)
 8001878:	681b      	ldr	r3, [r3, #0]
 800187a:	4a13      	ldr	r2, [pc, #76]	; (80018c8 <HAL_ADC_ConfigChannel+0x1ec>)
 800187c:	fba2 2303 	umull	r2, r3, r2, r3
 8001880:	0c9a      	lsrs	r2, r3, #18
 8001882:	4613      	mov	r3, r2
 8001884:	009b      	lsls	r3, r3, #2
 8001886:	4413      	add	r3, r2
 8001888:	005b      	lsls	r3, r3, #1
 800188a:	60bb      	str	r3, [r7, #8]
          while(wait_loop_index != 0U)
 800188c:	e002      	b.n	8001894 <HAL_ADC_ConfigChannel+0x1b8>
          {
            wait_loop_index--;
 800188e:	68bb      	ldr	r3, [r7, #8]
 8001890:	3b01      	subs	r3, #1
 8001892:	60bb      	str	r3, [r7, #8]
          while(wait_loop_index != 0U)
 8001894:	68bb      	ldr	r3, [r7, #8]
 8001896:	2b00      	cmp	r3, #0
 8001898:	d1f9      	bne.n	800188e <HAL_ADC_ConfigChannel+0x1b2>
 800189a:	e007      	b.n	80018ac <HAL_ADC_ConfigChannel+0x1d0>
      }
    }
    else
    {
      /* Update ADC state machine to error */
      SET_BIT(hadc->State, HAL_ADC_STATE_ERROR_CONFIG);
 800189c:	687b      	ldr	r3, [r7, #4]
 800189e:	6a9b      	ldr	r3, [r3, #40]	; 0x28
 80018a0:	f043 0220 	orr.w	r2, r3, #32
 80018a4:	687b      	ldr	r3, [r7, #4]
 80018a6:	629a      	str	r2, [r3, #40]	; 0x28
      
      tmp_hal_status = HAL_ERROR;
 80018a8:	2301      	movs	r3, #1
 80018aa:	73fb      	strb	r3, [r7, #15]
    }
  }
  
  /* Process unlocked */
  __HAL_UNLOCK(hadc);
 80018ac:	687b      	ldr	r3, [r7, #4]
 80018ae:	2200      	movs	r2, #0
 80018b0:	f883 2024 	strb.w	r2, [r3, #36]	; 0x24
  
  /* Return function status */
  return tmp_hal_status;
 80018b4:	7bfb      	ldrb	r3, [r7, #15]
}
 80018b6:	4618      	mov	r0, r3
 80018b8:	3714      	adds	r7, #20
 80018ba:	46bd      	mov	sp, r7
 80018bc:	bc80      	pop	{r7}
 80018be:	4770      	bx	lr
 80018c0:	40012400 	.word	0x40012400
 80018c4:	20000000 	.word	0x20000000
 80018c8:	431bde83 	.word	0x431bde83

080018cc <ADC_Enable>:
  *         and voltage regulator must be enabled (done into HAL_ADC_Init()).
  * @param  hadc: ADC handle
  * @retval HAL status.
  */
HAL_StatusTypeDef ADC_Enable(ADC_HandleTypeDef* hadc)
{
 80018cc:	b580      	push	{r7, lr}
 80018ce:	b084      	sub	sp, #16
 80018d0:	af00      	add	r7, sp, #0
 80018d2:	6078      	str	r0, [r7, #4]
  uint32_t tickstart = 0U;
 80018d4:	2300      	movs	r3, #0
 80018d6:	60fb      	str	r3, [r7, #12]
  __IO uint32_t wait_loop_index = 0U;
 80018d8:	2300      	movs	r3, #0
 80018da:	60bb      	str	r3, [r7, #8]
  
  /* ADC enable and wait for ADC ready (in case of ADC is disabled or         */
  /* enabling phase not yet completed: flag ADC ready not yet set).           */
  /* Timeout implemented to not be stuck if ADC cannot be enabled (possible   */
  /* causes: ADC clock not running, ...).                                     */
  if (ADC_IS_ENABLE(hadc) == RESET)
 80018dc:	687b      	ldr	r3, [r7, #4]
 80018de:	681b      	ldr	r3, [r3, #0]
 80018e0:	689b      	ldr	r3, [r3, #8]
 80018e2:	f003 0301 	and.w	r3, r3, #1
 80018e6:	2b01      	cmp	r3, #1
 80018e8:	d040      	beq.n	800196c <ADC_Enable+0xa0>
  {
    /* Enable the Peripheral */
    __HAL_ADC_ENABLE(hadc);
 80018ea:	687b      	ldr	r3, [r7, #4]
 80018ec:	681b      	ldr	r3, [r3, #0]
 80018ee:	689a      	ldr	r2, [r3, #8]
 80018f0:	687b      	ldr	r3, [r7, #4]
 80018f2:	681b      	ldr	r3, [r3, #0]
 80018f4:	f042 0201 	orr.w	r2, r2, #1
 80018f8:	609a      	str	r2, [r3, #8]
    
    /* Delay for ADC stabilization time */
    /* Compute number of CPU cycles to wait for */
    wait_loop_index = (ADC_STAB_DELAY_US * (SystemCoreClock / 1000000U));
 80018fa:	4b1f      	ldr	r3, [pc, #124]	; (8001978 <ADC_Enable+0xac>)
 80018fc:	681b      	ldr	r3, [r3, #0]
 80018fe:	4a1f      	ldr	r2, [pc, #124]	; (800197c <ADC_Enable+0xb0>)
 8001900:	fba2 2303 	umull	r2, r3, r2, r3
 8001904:	0c9b      	lsrs	r3, r3, #18
 8001906:	60bb      	str	r3, [r7, #8]
    while(wait_loop_index != 0U)
 8001908:	e002      	b.n	8001910 <ADC_Enable+0x44>
    {
      wait_loop_index--;
 800190a:	68bb      	ldr	r3, [r7, #8]
 800190c:	3b01      	subs	r3, #1
 800190e:	60bb      	str	r3, [r7, #8]
    while(wait_loop_index != 0U)
 8001910:	68bb      	ldr	r3, [r7, #8]
 8001912:	2b00      	cmp	r3, #0
 8001914:	d1f9      	bne.n	800190a <ADC_Enable+0x3e>
    }
    
    /* Get tick count */
    tickstart = HAL_GetTick();
 8001916:	f7ff fbf1 	bl	80010fc <HAL_GetTick>
 800191a:	60f8      	str	r0, [r7, #12]

    /* Wait for ADC effectively enabled */
    while(ADC_IS_ENABLE(hadc) == RESET)
 800191c:	e01f      	b.n	800195e <ADC_Enable+0x92>
    {
      if((HAL_GetTick() - tickstart) > ADC_ENABLE_TIMEOUT)
 800191e:	f7ff fbed 	bl	80010fc <HAL_GetTick>
 8001922:	4602      	mov	r2, r0
 8001924:	68fb      	ldr	r3, [r7, #12]
 8001926:	1ad3      	subs	r3, r2, r3
 8001928:	2b02      	cmp	r3, #2
 800192a:	d918      	bls.n	800195e <ADC_Enable+0x92>
      {
        /* New check to avoid false timeout detection in case of preemption */
        if(ADC_IS_ENABLE(hadc) == RESET)
 800192c:	687b      	ldr	r3, [r7, #4]
 800192e:	681b      	ldr	r3, [r3, #0]
 8001930:	689b      	ldr	r3, [r3, #8]
 8001932:	f003 0301 	and.w	r3, r3, #1
 8001936:	2b01      	cmp	r3, #1
 8001938:	d011      	beq.n	800195e <ADC_Enable+0x92>
        {
          /* Update ADC state machine to error */
          SET_BIT(hadc->State, HAL_ADC_STATE_ERROR_INTERNAL);
 800193a:	687b      	ldr	r3, [r7, #4]
 800193c:	6a9b      	ldr	r3, [r3, #40]	; 0x28
 800193e:	f043 0210 	orr.w	r2, r3, #16
 8001942:	687b      	ldr	r3, [r7, #4]
 8001944:	629a      	str	r2, [r3, #40]	; 0x28

          /* Set ADC error code to ADC IP internal error */
          SET_BIT(hadc->ErrorCode, HAL_ADC_ERROR_INTERNAL);
 8001946:	687b      	ldr	r3, [r7, #4]
 8001948:	6adb      	ldr	r3, [r3, #44]	; 0x2c
 800194a:	f043 0201 	orr.w	r2, r3, #1
 800194e:	687b      	ldr	r3, [r7, #4]
 8001950:	62da      	str	r2, [r3, #44]	; 0x2c

          /* Process unlocked */
          __HAL_UNLOCK(hadc);
 8001952:	687b      	ldr	r3, [r7, #4]
 8001954:	2200      	movs	r2, #0
 8001956:	f883 2024 	strb.w	r2, [r3, #36]	; 0x24

          return HAL_ERROR;
 800195a:	2301      	movs	r3, #1
 800195c:	e007      	b.n	800196e <ADC_Enable+0xa2>
    while(ADC_IS_ENABLE(hadc) == RESET)
 800195e:	687b      	ldr	r3, [r7, #4]
 8001960:	681b      	ldr	r3, [r3, #0]
 8001962:	689b      	ldr	r3, [r3, #8]
 8001964:	f003 0301 	and.w	r3, r3, #1
 8001968:	2b01      	cmp	r3, #1
 800196a:	d1d8      	bne.n	800191e <ADC_Enable+0x52>
      }
    }
  }
   
  /* Return HAL status */
  return HAL_OK;
 800196c:	2300      	movs	r3, #0
}
 800196e:	4618      	mov	r0, r3
 8001970:	3710      	adds	r7, #16
 8001972:	46bd      	mov	sp, r7
 8001974:	bd80      	pop	{r7, pc}
 8001976:	bf00      	nop
 8001978:	20000000 	.word	0x20000000
 800197c:	431bde83 	.word	0x431bde83

08001980 <ADC_ConversionStop_Disable>:
  *         stopped to disable the ADC.
  * @param  hadc: ADC handle
  * @retval HAL status.
  */
HAL_StatusTypeDef ADC_ConversionStop_Disable(ADC_HandleTypeDef* hadc)
{
 8001980:	b580      	push	{r7, lr}
 8001982:	b084      	sub	sp, #16
 8001984:	af00      	add	r7, sp, #0
 8001986:	6078      	str	r0, [r7, #4]
  uint32_t tickstart = 0U;
 8001988:	2300      	movs	r3, #0
 800198a:	60fb      	str	r3, [r7, #12]
  
  /* Verification if ADC is not already disabled */
  if (ADC_IS_ENABLE(hadc) != RESET)
 800198c:	687b      	ldr	r3, [r7, #4]
 800198e:	681b      	ldr	r3, [r3, #0]
 8001990:	689b      	ldr	r3, [r3, #8]
 8001992:	f003 0301 	and.w	r3, r3, #1
 8001996:	2b01      	cmp	r3, #1
 8001998:	d12e      	bne.n	80019f8 <ADC_ConversionStop_Disable+0x78>
  {
    /* Disable the ADC peripheral */
    __HAL_ADC_DISABLE(hadc);
 800199a:	687b      	ldr	r3, [r7, #4]
 800199c:	681b      	ldr	r3, [r3, #0]
 800199e:	689a      	ldr	r2, [r3, #8]
 80019a0:	687b      	ldr	r3, [r7, #4]
 80019a2:	681b      	ldr	r3, [r3, #0]
 80019a4:	f022 0201 	bic.w	r2, r2, #1
 80019a8:	609a      	str	r2, [r3, #8]
     
    /* Get tick count */
    tickstart = HAL_GetTick();
 80019aa:	f7ff fba7 	bl	80010fc <HAL_GetTick>
 80019ae:	60f8      	str	r0, [r7, #12]
    
    /* Wait for ADC effectively disabled */
    while(ADC_IS_ENABLE(hadc) != RESET)
 80019b0:	e01b      	b.n	80019ea <ADC_ConversionStop_Disable+0x6a>
    {
      if((HAL_GetTick() - tickstart) > ADC_DISABLE_TIMEOUT)
 80019b2:	f7ff fba3 	bl	80010fc <HAL_GetTick>
 80019b6:	4602      	mov	r2, r0
 80019b8:	68fb      	ldr	r3, [r7, #12]
 80019ba:	1ad3      	subs	r3, r2, r3
 80019bc:	2b02      	cmp	r3, #2
 80019be:	d914      	bls.n	80019ea <ADC_ConversionStop_Disable+0x6a>
      {
        /* New check to avoid false timeout detection in case of preemption */
        if(ADC_IS_ENABLE(hadc) != RESET)
 80019c0:	687b      	ldr	r3, [r7, #4]
 80019c2:	681b      	ldr	r3, [r3, #0]
 80019c4:	689b      	ldr	r3, [r3, #8]
 80019c6:	f003 0301 	and.w	r3, r3, #1
 80019ca:	2b01      	cmp	r3, #1
 80019cc:	d10d      	bne.n	80019ea <ADC_ConversionStop_Disable+0x6a>
        {
          /* Update ADC state machine to error */
          SET_BIT(hadc->State, HAL_ADC_STATE_ERROR_INTERNAL);
 80019ce:	687b      	ldr	r3, [r7, #4]
 80019d0:	6a9b      	ldr	r3, [r3, #40]	; 0x28
 80019d2:	f043 0210 	orr.w	r2, r3, #16
 80019d6:	687b      	ldr	r3, [r7, #4]
 80019d8:	629a      	str	r2, [r3, #40]	; 0x28

          /* Set ADC error code to ADC IP internal error */
          SET_BIT(hadc->ErrorCode, HAL_ADC_ERROR_INTERNAL);
 80019da:	687b      	ldr	r3, [r7, #4]
 80019dc:	6adb      	ldr	r3, [r3, #44]	; 0x2c
 80019de:	f043 0201 	orr.w	r2, r3, #1
 80019e2:	687b      	ldr	r3, [r7, #4]
 80019e4:	62da      	str	r2, [r3, #44]	; 0x2c

          return HAL_ERROR;
 80019e6:	2301      	movs	r3, #1
 80019e8:	e007      	b.n	80019fa <ADC_ConversionStop_Disable+0x7a>
    while(ADC_IS_ENABLE(hadc) != RESET)
 80019ea:	687b      	ldr	r3, [r7, #4]
 80019ec:	681b      	ldr	r3, [r3, #0]
 80019ee:	689b      	ldr	r3, [r3, #8]
 80019f0:	f003 0301 	and.w	r3, r3, #1
 80019f4:	2b01      	cmp	r3, #1
 80019f6:	d0dc      	beq.n	80019b2 <ADC_ConversionStop_Disable+0x32>
      }
    }
  }
  
  /* Return HAL status */
  return HAL_OK;
 80019f8:	2300      	movs	r3, #0
}
 80019fa:	4618      	mov	r0, r3
 80019fc:	3710      	adds	r7, #16
 80019fe:	46bd      	mov	sp, r7
 8001a00:	bd80      	pop	{r7, pc}
	...

08001a04 <__NVIC_SetPriorityGrouping>:
           In case of a conflict between priority grouping and available
           priority bits (__NVIC_PRIO_BITS), the smallest possible priority group is set.
  \param [in]      PriorityGroup  Priority grouping field.
 */
__STATIC_INLINE void __NVIC_SetPriorityGrouping(uint32_t PriorityGroup)
{
 8001a04:	b480      	push	{r7}
 8001a06:	b085      	sub	sp, #20
 8001a08:	af00      	add	r7, sp, #0
 8001a0a:	6078      	str	r0, [r7, #4]
  uint32_t reg_value;
  uint32_t PriorityGroupTmp = (PriorityGroup & (uint32_t)0x07UL);             /* only values 0..7 are used          */
 8001a0c:	687b      	ldr	r3, [r7, #4]
 8001a0e:	f003 0307 	and.w	r3, r3, #7
 8001a12:	60fb      	str	r3, [r7, #12]

  reg_value  =  SCB->AIRCR;                                                   /* read old register configuration    */
 8001a14:	4b0c      	ldr	r3, [pc, #48]	; (8001a48 <__NVIC_SetPriorityGrouping+0x44>)
 8001a16:	68db      	ldr	r3, [r3, #12]
 8001a18:	60bb      	str	r3, [r7, #8]
  reg_value &= ~((uint32_t)(SCB_AIRCR_VECTKEY_Msk | SCB_AIRCR_PRIGROUP_Msk)); /* clear bits to change               */
 8001a1a:	68ba      	ldr	r2, [r7, #8]
 8001a1c:	f64f 03ff 	movw	r3, #63743	; 0xf8ff
 8001a20:	4013      	ands	r3, r2
 8001a22:	60bb      	str	r3, [r7, #8]
  reg_value  =  (reg_value                                   |
                ((uint32_t)0x5FAUL << SCB_AIRCR_VECTKEY_Pos) |
                (PriorityGroupTmp << SCB_AIRCR_PRIGROUP_Pos) );               /* Insert write key and priority group */
 8001a24:	68fb      	ldr	r3, [r7, #12]
 8001a26:	021a      	lsls	r2, r3, #8
                ((uint32_t)0x5FAUL << SCB_AIRCR_VECTKEY_Pos) |
 8001a28:	68bb      	ldr	r3, [r7, #8]
 8001a2a:	4313      	orrs	r3, r2
  reg_value  =  (reg_value                                   |
 8001a2c:	f043 63bf 	orr.w	r3, r3, #100139008	; 0x5f80000
 8001a30:	f443 3300 	orr.w	r3, r3, #131072	; 0x20000
 8001a34:	60bb      	str	r3, [r7, #8]
  SCB->AIRCR =  reg_value;
 8001a36:	4a04      	ldr	r2, [pc, #16]	; (8001a48 <__NVIC_SetPriorityGrouping+0x44>)
 8001a38:	68bb      	ldr	r3, [r7, #8]
 8001a3a:	60d3      	str	r3, [r2, #12]
}
 8001a3c:	bf00      	nop
 8001a3e:	3714      	adds	r7, #20
 8001a40:	46bd      	mov	sp, r7
 8001a42:	bc80      	pop	{r7}
 8001a44:	4770      	bx	lr
 8001a46:	bf00      	nop
 8001a48:	e000ed00 	.word	0xe000ed00

08001a4c <__NVIC_GetPriorityGrouping>:
  \brief   Get Priority Grouping
  \details Reads the priority grouping field from the NVIC Interrupt Controller.
  \return                Priority grouping field (SCB->AIRCR [10:8] PRIGROUP field).
 */
__STATIC_INLINE uint32_t __NVIC_GetPriorityGrouping(void)
{
 8001a4c:	b480      	push	{r7}
 8001a4e:	af00      	add	r7, sp, #0
  return ((uint32_t)((SCB->AIRCR & SCB_AIRCR_PRIGROUP_Msk) >> SCB_AIRCR_PRIGROUP_Pos));
 8001a50:	4b04      	ldr	r3, [pc, #16]	; (8001a64 <__NVIC_GetPriorityGrouping+0x18>)
 8001a52:	68db      	ldr	r3, [r3, #12]
 8001a54:	0a1b      	lsrs	r3, r3, #8
 8001a56:	f003 0307 	and.w	r3, r3, #7
}
 8001a5a:	4618      	mov	r0, r3
 8001a5c:	46bd      	mov	sp, r7
 8001a5e:	bc80      	pop	{r7}
 8001a60:	4770      	bx	lr
 8001a62:	bf00      	nop
 8001a64:	e000ed00 	.word	0xe000ed00

08001a68 <__NVIC_SetPriority>:
  \param [in]      IRQn  Interrupt number.
  \param [in]  priority  Priority to set.
  \note    The priority cannot be set for every processor exception.
 */
__STATIC_INLINE void __NVIC_SetPriority(IRQn_Type IRQn, uint32_t priority)
{
 8001a68:	b480      	push	{r7}
 8001a6a:	b083      	sub	sp, #12
 8001a6c:	af00      	add	r7, sp, #0
 8001a6e:	4603      	mov	r3, r0
 8001a70:	6039      	str	r1, [r7, #0]
 8001a72:	71fb      	strb	r3, [r7, #7]
  if ((int32_t)(IRQn) >= 0)
 8001a74:	f997 3007 	ldrsb.w	r3, [r7, #7]
 8001a78:	2b00      	cmp	r3, #0
 8001a7a:	db0a      	blt.n	8001a92 <__NVIC_SetPriority+0x2a>
  {
    NVIC->IP[((uint32_t)IRQn)]               = (uint8_t)((priority << (8U - __NVIC_PRIO_BITS)) & (uint32_t)0xFFUL);
 8001a7c:	683b      	ldr	r3, [r7, #0]
 8001a7e:	b2da      	uxtb	r2, r3
 8001a80:	490c      	ldr	r1, [pc, #48]	; (8001ab4 <__NVIC_SetPriority+0x4c>)
 8001a82:	f997 3007 	ldrsb.w	r3, [r7, #7]
 8001a86:	0112      	lsls	r2, r2, #4
 8001a88:	b2d2      	uxtb	r2, r2
 8001a8a:	440b      	add	r3, r1
 8001a8c:	f883 2300 	strb.w	r2, [r3, #768]	; 0x300
  }
  else
  {
    SCB->SHP[(((uint32_t)IRQn) & 0xFUL)-4UL] = (uint8_t)((priority << (8U - __NVIC_PRIO_BITS)) & (uint32_t)0xFFUL);
  }
}
 8001a90:	e00a      	b.n	8001aa8 <__NVIC_SetPriority+0x40>
    SCB->SHP[(((uint32_t)IRQn) & 0xFUL)-4UL] = (uint8_t)((priority << (8U - __NVIC_PRIO_BITS)) & (uint32_t)0xFFUL);
 8001a92:	683b      	ldr	r3, [r7, #0]
 8001a94:	b2da      	uxtb	r2, r3
 8001a96:	4908      	ldr	r1, [pc, #32]	; (8001ab8 <__NVIC_SetPriority+0x50>)
 8001a98:	79fb      	ldrb	r3, [r7, #7]
 8001a9a:	f003 030f 	and.w	r3, r3, #15
 8001a9e:	3b04      	subs	r3, #4
 8001aa0:	0112      	lsls	r2, r2, #4
 8001aa2:	b2d2      	uxtb	r2, r2
 8001aa4:	440b      	add	r3, r1
 8001aa6:	761a      	strb	r2, [r3, #24]
}
 8001aa8:	bf00      	nop
 8001aaa:	370c      	adds	r7, #12
 8001aac:	46bd      	mov	sp, r7
 8001aae:	bc80      	pop	{r7}
 8001ab0:	4770      	bx	lr
 8001ab2:	bf00      	nop
 8001ab4:	e000e100 	.word	0xe000e100
 8001ab8:	e000ed00 	.word	0xe000ed00

08001abc <NVIC_EncodePriority>:
  \param [in]   PreemptPriority  Preemptive priority value (starting from 0).
  \param [in]       SubPriority  Subpriority value (starting from 0).
  \return                        Encoded priority. Value can be used in the function \ref NVIC_SetPriority().
 */
__STATIC_INLINE uint32_t NVIC_EncodePriority (uint32_t PriorityGroup, uint32_t PreemptPriority, uint32_t SubPriority)
{
 8001abc:	b480      	push	{r7}
 8001abe:	b089      	sub	sp, #36	; 0x24
 8001ac0:	af00      	add	r7, sp, #0
 8001ac2:	60f8      	str	r0, [r7, #12]
 8001ac4:	60b9      	str	r1, [r7, #8]
 8001ac6:	607a      	str	r2, [r7, #4]
  uint32_t PriorityGroupTmp = (PriorityGroup & (uint32_t)0x07UL);   /* only values 0..7 are used          */
 8001ac8:	68fb      	ldr	r3, [r7, #12]
 8001aca:	f003 0307 	and.w	r3, r3, #7
 8001ace:	61fb      	str	r3, [r7, #28]
  uint32_t PreemptPriorityBits;
  uint32_t SubPriorityBits;

  PreemptPriorityBits = ((7UL - PriorityGroupTmp) > (uint32_t)(__NVIC_PRIO_BITS)) ? (uint32_t)(__NVIC_PRIO_BITS) : (uint32_t)(7UL - PriorityGroupTmp);
 8001ad0:	69fb      	ldr	r3, [r7, #28]
 8001ad2:	f1c3 0307 	rsb	r3, r3, #7
 8001ad6:	2b04      	cmp	r3, #4
 8001ad8:	bf28      	it	cs
 8001ada:	2304      	movcs	r3, #4
 8001adc:	61bb      	str	r3, [r7, #24]
  SubPriorityBits     = ((PriorityGroupTmp + (uint32_t)(__NVIC_PRIO_BITS)) < (uint32_t)7UL) ? (uint32_t)0UL : (uint32_t)((PriorityGroupTmp - 7UL) + (uint32_t)(__NVIC_PRIO_BITS));
 8001ade:	69fb      	ldr	r3, [r7, #28]
 8001ae0:	3304      	adds	r3, #4
 8001ae2:	2b06      	cmp	r3, #6
 8001ae4:	d902      	bls.n	8001aec <NVIC_EncodePriority+0x30>
 8001ae6:	69fb      	ldr	r3, [r7, #28]
 8001ae8:	3b03      	subs	r3, #3
 8001aea:	e000      	b.n	8001aee <NVIC_EncodePriority+0x32>
 8001aec:	2300      	movs	r3, #0
 8001aee:	617b      	str	r3, [r7, #20]

  return (
           ((PreemptPriority & (uint32_t)((1UL << (PreemptPriorityBits)) - 1UL)) << SubPriorityBits) |
 8001af0:	f04f 32ff 	mov.w	r2, #4294967295
 8001af4:	69bb      	ldr	r3, [r7, #24]
 8001af6:	fa02 f303 	lsl.w	r3, r2, r3
 8001afa:	43da      	mvns	r2, r3
 8001afc:	68bb      	ldr	r3, [r7, #8]
 8001afe:	401a      	ands	r2, r3
 8001b00:	697b      	ldr	r3, [r7, #20]
 8001b02:	409a      	lsls	r2, r3
           ((SubPriority     & (uint32_t)((1UL << (SubPriorityBits    )) - 1UL)))
 8001b04:	f04f 31ff 	mov.w	r1, #4294967295
 8001b08:	697b      	ldr	r3, [r7, #20]
 8001b0a:	fa01 f303 	lsl.w	r3, r1, r3
 8001b0e:	43d9      	mvns	r1, r3
 8001b10:	687b      	ldr	r3, [r7, #4]
 8001b12:	400b      	ands	r3, r1
           ((PreemptPriority & (uint32_t)((1UL << (PreemptPriorityBits)) - 1UL)) << SubPriorityBits) |
 8001b14:	4313      	orrs	r3, r2
         );
}
 8001b16:	4618      	mov	r0, r3
 8001b18:	3724      	adds	r7, #36	; 0x24
 8001b1a:	46bd      	mov	sp, r7
 8001b1c:	bc80      	pop	{r7}
 8001b1e:	4770      	bx	lr

08001b20 <SysTick_Config>:
  \note    When the variable <b>__Vendor_SysTickConfig</b> is set to 1, then the
           function <b>SysTick_Config</b> is not included. In this case, the file <b><i>device</i>.h</b>
           must contain a vendor-specific implementation of this function.
 */
__STATIC_INLINE uint32_t SysTick_Config(uint32_t ticks)
{
 8001b20:	b580      	push	{r7, lr}
 8001b22:	b082      	sub	sp, #8
 8001b24:	af00      	add	r7, sp, #0
 8001b26:	6078      	str	r0, [r7, #4]
  if ((ticks - 1UL) > SysTick_LOAD_RELOAD_Msk)
 8001b28:	687b      	ldr	r3, [r7, #4]
 8001b2a:	3b01      	subs	r3, #1
 8001b2c:	f1b3 7f80 	cmp.w	r3, #16777216	; 0x1000000
 8001b30:	d301      	bcc.n	8001b36 <SysTick_Config+0x16>
  {
    return (1UL);                                                   /* Reload value impossible */
 8001b32:	2301      	movs	r3, #1
 8001b34:	e00f      	b.n	8001b56 <SysTick_Config+0x36>
  }

  SysTick->LOAD  = (uint32_t)(ticks - 1UL);                         /* set reload register */
 8001b36:	4a0a      	ldr	r2, [pc, #40]	; (8001b60 <SysTick_Config+0x40>)
 8001b38:	687b      	ldr	r3, [r7, #4]
 8001b3a:	3b01      	subs	r3, #1
 8001b3c:	6053      	str	r3, [r2, #4]
  NVIC_SetPriority (SysTick_IRQn, (1UL << __NVIC_PRIO_BITS) - 1UL); /* set Priority for Systick Interrupt */
 8001b3e:	210f      	movs	r1, #15
 8001b40:	f04f 30ff 	mov.w	r0, #4294967295
 8001b44:	f7ff ff90 	bl	8001a68 <__NVIC_SetPriority>
  SysTick->VAL   = 0UL;                                             /* Load the SysTick Counter Value */
 8001b48:	4b05      	ldr	r3, [pc, #20]	; (8001b60 <SysTick_Config+0x40>)
 8001b4a:	2200      	movs	r2, #0
 8001b4c:	609a      	str	r2, [r3, #8]
  SysTick->CTRL  = SysTick_CTRL_CLKSOURCE_Msk |
 8001b4e:	4b04      	ldr	r3, [pc, #16]	; (8001b60 <SysTick_Config+0x40>)
 8001b50:	2207      	movs	r2, #7
 8001b52:	601a      	str	r2, [r3, #0]
                   SysTick_CTRL_TICKINT_Msk   |
                   SysTick_CTRL_ENABLE_Msk;                         /* Enable SysTick IRQ and SysTick Timer */
  return (0UL);                                                     /* Function successful */
 8001b54:	2300      	movs	r3, #0
}
 8001b56:	4618      	mov	r0, r3
 8001b58:	3708      	adds	r7, #8
 8001b5a:	46bd      	mov	sp, r7
 8001b5c:	bd80      	pop	{r7, pc}
 8001b5e:	bf00      	nop
 8001b60:	e000e010 	.word	0xe000e010

08001b64 <HAL_NVIC_SetPriorityGrouping>:
  * @note   When the NVIC_PriorityGroup_0 is selected, IRQ preemption is no more possible. 
  *         The pending IRQ priority will be managed only by the subpriority. 
  * @retval None
  */
void HAL_NVIC_SetPriorityGrouping(uint32_t PriorityGroup)
{
 8001b64:	b580      	push	{r7, lr}
 8001b66:	b082      	sub	sp, #8
 8001b68:	af00      	add	r7, sp, #0
 8001b6a:	6078      	str	r0, [r7, #4]
  /* Check the parameters */
  assert_param(IS_NVIC_PRIORITY_GROUP(PriorityGroup));
  
  /* Set the PRIGROUP[10:8] bits according to the PriorityGroup parameter value */
  NVIC_SetPriorityGrouping(PriorityGroup);
 8001b6c:	6878      	ldr	r0, [r7, #4]
 8001b6e:	f7ff ff49 	bl	8001a04 <__NVIC_SetPriorityGrouping>
}
 8001b72:	bf00      	nop
 8001b74:	3708      	adds	r7, #8
 8001b76:	46bd      	mov	sp, r7
 8001b78:	bd80      	pop	{r7, pc}

08001b7a <HAL_NVIC_SetPriority>:
  *         This parameter can be a value between 0 and 15
  *         A lower priority value indicates a higher priority.          
  * @retval None
  */
void HAL_NVIC_SetPriority(IRQn_Type IRQn, uint32_t PreemptPriority, uint32_t SubPriority)
{ 
 8001b7a:	b580      	push	{r7, lr}
 8001b7c:	b086      	sub	sp, #24
 8001b7e:	af00      	add	r7, sp, #0
 8001b80:	4603      	mov	r3, r0
 8001b82:	60b9      	str	r1, [r7, #8]
 8001b84:	607a      	str	r2, [r7, #4]
 8001b86:	73fb      	strb	r3, [r7, #15]
  uint32_t prioritygroup = 0x00U;
 8001b88:	2300      	movs	r3, #0
 8001b8a:	617b      	str	r3, [r7, #20]
  
  /* Check the parameters */
  assert_param(IS_NVIC_SUB_PRIORITY(SubPriority));
  assert_param(IS_NVIC_PREEMPTION_PRIORITY(PreemptPriority));
  
  prioritygroup = NVIC_GetPriorityGrouping();
 8001b8c:	f7ff ff5e 	bl	8001a4c <__NVIC_GetPriorityGrouping>
 8001b90:	6178      	str	r0, [r7, #20]
  
  NVIC_SetPriority(IRQn, NVIC_EncodePriority(prioritygroup, PreemptPriority, SubPriority));
 8001b92:	687a      	ldr	r2, [r7, #4]
 8001b94:	68b9      	ldr	r1, [r7, #8]
 8001b96:	6978      	ldr	r0, [r7, #20]
 8001b98:	f7ff ff90 	bl	8001abc <NVIC_EncodePriority>
 8001b9c:	4602      	mov	r2, r0
 8001b9e:	f997 300f 	ldrsb.w	r3, [r7, #15]
 8001ba2:	4611      	mov	r1, r2
 8001ba4:	4618      	mov	r0, r3
 8001ba6:	f7ff ff5f 	bl	8001a68 <__NVIC_SetPriority>
}
 8001baa:	bf00      	nop
 8001bac:	3718      	adds	r7, #24
 8001bae:	46bd      	mov	sp, r7
 8001bb0:	bd80      	pop	{r7, pc}

08001bb2 <HAL_SYSTICK_Config>:
  * @param  TicksNumb: Specifies the ticks Number of ticks between two interrupts.
  * @retval status:  - 0  Function succeeded.
  *                  - 1  Function failed.
  */
uint32_t HAL_SYSTICK_Config(uint32_t TicksNumb)
{
 8001bb2:	b580      	push	{r7, lr}
 8001bb4:	b082      	sub	sp, #8
 8001bb6:	af00      	add	r7, sp, #0
 8001bb8:	6078      	str	r0, [r7, #4]
   return SysTick_Config(TicksNumb);
 8001bba:	6878      	ldr	r0, [r7, #4]
 8001bbc:	f7ff ffb0 	bl	8001b20 <SysTick_Config>
 8001bc0:	4603      	mov	r3, r0
}
 8001bc2:	4618      	mov	r0, r3
 8001bc4:	3708      	adds	r7, #8
 8001bc6:	46bd      	mov	sp, r7
 8001bc8:	bd80      	pop	{r7, pc}
	...

08001bcc <HAL_GPIO_Init>:
  * @param  GPIO_Init: pointer to a GPIO_InitTypeDef structure that contains
  *         the configuration information for the specified GPIO peripheral.
  * @retval None
  */
void HAL_GPIO_Init(GPIO_TypeDef  *GPIOx, GPIO_InitTypeDef *GPIO_Init)
{
 8001bcc:	b480      	push	{r7}
 8001bce:	b08b      	sub	sp, #44	; 0x2c
 8001bd0:	af00      	add	r7, sp, #0
 8001bd2:	6078      	str	r0, [r7, #4]
 8001bd4:	6039      	str	r1, [r7, #0]
  uint32_t position = 0x00u;
 8001bd6:	2300      	movs	r3, #0
 8001bd8:	627b      	str	r3, [r7, #36]	; 0x24
  uint32_t ioposition;
  uint32_t iocurrent;
  uint32_t temp;
  uint32_t config = 0x00u;
 8001bda:	2300      	movs	r3, #0
 8001bdc:	623b      	str	r3, [r7, #32]
  assert_param(IS_GPIO_ALL_INSTANCE(GPIOx));
  assert_param(IS_GPIO_PIN(GPIO_Init->Pin));
  assert_param(IS_GPIO_MODE(GPIO_Init->Mode));

  /* Configure the port pins */
  while (((GPIO_Init->Pin) >> position) != 0x00u)
 8001bde:	e121      	b.n	8001e24 <HAL_GPIO_Init+0x258>
  {
    /* Get the IO position */
    ioposition = (0x01uL << position);
 8001be0:	2201      	movs	r2, #1
 8001be2:	6a7b      	ldr	r3, [r7, #36]	; 0x24
 8001be4:	fa02 f303 	lsl.w	r3, r2, r3
 8001be8:	61fb      	str	r3, [r7, #28]

    /* Get the current IO position */
    iocurrent = (uint32_t)(GPIO_Init->Pin) & ioposition;
 8001bea:	683b      	ldr	r3, [r7, #0]
 8001bec:	681b      	ldr	r3, [r3, #0]
 8001bee:	69fa      	ldr	r2, [r7, #28]
 8001bf0:	4013      	ands	r3, r2
 8001bf2:	61bb      	str	r3, [r7, #24]

    if (iocurrent == ioposition)
 8001bf4:	69ba      	ldr	r2, [r7, #24]
 8001bf6:	69fb      	ldr	r3, [r7, #28]
 8001bf8:	429a      	cmp	r2, r3
 8001bfa:	f040 8110 	bne.w	8001e1e <HAL_GPIO_Init+0x252>
    {
      /* Check the Alternate function parameters */
      assert_param(IS_GPIO_AF_INSTANCE(GPIOx));

      /* Based on the required mode, filling config variable with MODEy[1:0] and CNFy[3:2] corresponding bits */
      switch (GPIO_Init->Mode)
 8001bfe:	683b      	ldr	r3, [r7, #0]
 8001c00:	685b      	ldr	r3, [r3, #4]
 8001c02:	2b12      	cmp	r3, #18
 8001c04:	d034      	beq.n	8001c70 <HAL_GPIO_Init+0xa4>
 8001c06:	2b12      	cmp	r3, #18
 8001c08:	d80d      	bhi.n	8001c26 <HAL_GPIO_Init+0x5a>
 8001c0a:	2b02      	cmp	r3, #2
 8001c0c:	d02b      	beq.n	8001c66 <HAL_GPIO_Init+0x9a>
 8001c0e:	2b02      	cmp	r3, #2
 8001c10:	d804      	bhi.n	8001c1c <HAL_GPIO_Init+0x50>
 8001c12:	2b00      	cmp	r3, #0
 8001c14:	d031      	beq.n	8001c7a <HAL_GPIO_Init+0xae>
 8001c16:	2b01      	cmp	r3, #1
 8001c18:	d01c      	beq.n	8001c54 <HAL_GPIO_Init+0x88>
          config = GPIO_CR_MODE_INPUT + GPIO_CR_CNF_ANALOG;
          break;

        /* Parameters are checked with assert_param */
        default:
          break;
 8001c1a:	e048      	b.n	8001cae <HAL_GPIO_Init+0xe2>
      switch (GPIO_Init->Mode)
 8001c1c:	2b03      	cmp	r3, #3
 8001c1e:	d043      	beq.n	8001ca8 <HAL_GPIO_Init+0xdc>
 8001c20:	2b11      	cmp	r3, #17
 8001c22:	d01b      	beq.n	8001c5c <HAL_GPIO_Init+0x90>
          break;
 8001c24:	e043      	b.n	8001cae <HAL_GPIO_Init+0xe2>
      switch (GPIO_Init->Mode)
 8001c26:	4a86      	ldr	r2, [pc, #536]	; (8001e40 <HAL_GPIO_Init+0x274>)
 8001c28:	4293      	cmp	r3, r2
 8001c2a:	d026      	beq.n	8001c7a <HAL_GPIO_Init+0xae>
 8001c2c:	4a84      	ldr	r2, [pc, #528]	; (8001e40 <HAL_GPIO_Init+0x274>)
 8001c2e:	4293      	cmp	r3, r2
 8001c30:	d806      	bhi.n	8001c40 <HAL_GPIO_Init+0x74>
 8001c32:	4a84      	ldr	r2, [pc, #528]	; (8001e44 <HAL_GPIO_Init+0x278>)
 8001c34:	4293      	cmp	r3, r2
 8001c36:	d020      	beq.n	8001c7a <HAL_GPIO_Init+0xae>
 8001c38:	4a83      	ldr	r2, [pc, #524]	; (8001e48 <HAL_GPIO_Init+0x27c>)
 8001c3a:	4293      	cmp	r3, r2
 8001c3c:	d01d      	beq.n	8001c7a <HAL_GPIO_Init+0xae>
          break;
 8001c3e:	e036      	b.n	8001cae <HAL_GPIO_Init+0xe2>
      switch (GPIO_Init->Mode)
 8001c40:	4a82      	ldr	r2, [pc, #520]	; (8001e4c <HAL_GPIO_Init+0x280>)
 8001c42:	4293      	cmp	r3, r2
 8001c44:	d019      	beq.n	8001c7a <HAL_GPIO_Init+0xae>
 8001c46:	4a82      	ldr	r2, [pc, #520]	; (8001e50 <HAL_GPIO_Init+0x284>)
 8001c48:	4293      	cmp	r3, r2
 8001c4a:	d016      	beq.n	8001c7a <HAL_GPIO_Init+0xae>
 8001c4c:	4a81      	ldr	r2, [pc, #516]	; (8001e54 <HAL_GPIO_Init+0x288>)
 8001c4e:	4293      	cmp	r3, r2
 8001c50:	d013      	beq.n	8001c7a <HAL_GPIO_Init+0xae>
          break;
 8001c52:	e02c      	b.n	8001cae <HAL_GPIO_Init+0xe2>
          config = GPIO_Init->Speed + GPIO_CR_CNF_GP_OUTPUT_PP;
 8001c54:	683b      	ldr	r3, [r7, #0]
 8001c56:	68db      	ldr	r3, [r3, #12]
 8001c58:	623b      	str	r3, [r7, #32]
          break;
 8001c5a:	e028      	b.n	8001cae <HAL_GPIO_Init+0xe2>
          config = GPIO_Init->Speed + GPIO_CR_CNF_GP_OUTPUT_OD;
 8001c5c:	683b      	ldr	r3, [r7, #0]
 8001c5e:	68db      	ldr	r3, [r3, #12]
 8001c60:	3304      	adds	r3, #4
 8001c62:	623b      	str	r3, [r7, #32]
          break;
 8001c64:	e023      	b.n	8001cae <HAL_GPIO_Init+0xe2>
          config = GPIO_Init->Speed + GPIO_CR_CNF_AF_OUTPUT_PP;
 8001c66:	683b      	ldr	r3, [r7, #0]
 8001c68:	68db      	ldr	r3, [r3, #12]
 8001c6a:	3308      	adds	r3, #8
 8001c6c:	623b      	str	r3, [r7, #32]
          break;
 8001c6e:	e01e      	b.n	8001cae <HAL_GPIO_Init+0xe2>
          config = GPIO_Init->Speed + GPIO_CR_CNF_AF_OUTPUT_OD;
 8001c70:	683b      	ldr	r3, [r7, #0]
 8001c72:	68db      	ldr	r3, [r3, #12]
 8001c74:	330c      	adds	r3, #12
 8001c76:	623b      	str	r3, [r7, #32]
          break;
 8001c78:	e019      	b.n	8001cae <HAL_GPIO_Init+0xe2>
          if (GPIO_Init->Pull == GPIO_NOPULL)
 8001c7a:	683b      	ldr	r3, [r7, #0]
 8001c7c:	689b      	ldr	r3, [r3, #8]
 8001c7e:	2b00      	cmp	r3, #0
 8001c80:	d102      	bne.n	8001c88 <HAL_GPIO_Init+0xbc>
            config = GPIO_CR_MODE_INPUT + GPIO_CR_CNF_INPUT_FLOATING;
 8001c82:	2304      	movs	r3, #4
 8001c84:	623b      	str	r3, [r7, #32]
          break;
 8001c86:	e012      	b.n	8001cae <HAL_GPIO_Init+0xe2>
          else if (GPIO_Init->Pull == GPIO_PULLUP)
 8001c88:	683b      	ldr	r3, [r7, #0]
 8001c8a:	689b      	ldr	r3, [r3, #8]
 8001c8c:	2b01      	cmp	r3, #1
 8001c8e:	d105      	bne.n	8001c9c <HAL_GPIO_Init+0xd0>
            config = GPIO_CR_MODE_INPUT + GPIO_CR_CNF_INPUT_PU_PD;
 8001c90:	2308      	movs	r3, #8
 8001c92:	623b      	str	r3, [r7, #32]
            GPIOx->BSRR = ioposition;
 8001c94:	687b      	ldr	r3, [r7, #4]
 8001c96:	69fa      	ldr	r2, [r7, #28]
 8001c98:	611a      	str	r2, [r3, #16]
          break;
 8001c9a:	e008      	b.n	8001cae <HAL_GPIO_Init+0xe2>
            config = GPIO_CR_MODE_INPUT + GPIO_CR_CNF_INPUT_PU_PD;
 8001c9c:	2308      	movs	r3, #8
 8001c9e:	623b      	str	r3, [r7, #32]
            GPIOx->BRR = ioposition;
 8001ca0:	687b      	ldr	r3, [r7, #4]
 8001ca2:	69fa      	ldr	r2, [r7, #28]
 8001ca4:	615a      	str	r2, [r3, #20]
          break;
 8001ca6:	e002      	b.n	8001cae <HAL_GPIO_Init+0xe2>
          config = GPIO_CR_MODE_INPUT + GPIO_CR_CNF_ANALOG;
 8001ca8:	2300      	movs	r3, #0
 8001caa:	623b      	str	r3, [r7, #32]
          break;
 8001cac:	bf00      	nop
      }

      /* Check if the current bit belongs to first half or last half of the pin count number
       in order to address CRH or CRL register*/
      configregister = (iocurrent < GPIO_PIN_8) ? &GPIOx->CRL     : &GPIOx->CRH;
 8001cae:	69bb      	ldr	r3, [r7, #24]
 8001cb0:	2bff      	cmp	r3, #255	; 0xff
 8001cb2:	d801      	bhi.n	8001cb8 <HAL_GPIO_Init+0xec>
 8001cb4:	687b      	ldr	r3, [r7, #4]
 8001cb6:	e001      	b.n	8001cbc <HAL_GPIO_Init+0xf0>
 8001cb8:	687b      	ldr	r3, [r7, #4]
 8001cba:	3304      	adds	r3, #4
 8001cbc:	617b      	str	r3, [r7, #20]
      registeroffset = (iocurrent < GPIO_PIN_8) ? (position << 2u) : ((position - 8u) << 2u);
 8001cbe:	69bb      	ldr	r3, [r7, #24]
 8001cc0:	2bff      	cmp	r3, #255	; 0xff
 8001cc2:	d802      	bhi.n	8001cca <HAL_GPIO_Init+0xfe>
 8001cc4:	6a7b      	ldr	r3, [r7, #36]	; 0x24
 8001cc6:	009b      	lsls	r3, r3, #2
 8001cc8:	e002      	b.n	8001cd0 <HAL_GPIO_Init+0x104>
 8001cca:	6a7b      	ldr	r3, [r7, #36]	; 0x24
 8001ccc:	3b08      	subs	r3, #8
 8001cce:	009b      	lsls	r3, r3, #2
 8001cd0:	613b      	str	r3, [r7, #16]

      /* Apply the new configuration of the pin to the register */
      MODIFY_REG((*configregister), ((GPIO_CRL_MODE0 | GPIO_CRL_CNF0) << registeroffset), (config << registeroffset));
 8001cd2:	697b      	ldr	r3, [r7, #20]
 8001cd4:	681a      	ldr	r2, [r3, #0]
 8001cd6:	210f      	movs	r1, #15
 8001cd8:	693b      	ldr	r3, [r7, #16]
 8001cda:	fa01 f303 	lsl.w	r3, r1, r3
 8001cde:	43db      	mvns	r3, r3
 8001ce0:	401a      	ands	r2, r3
 8001ce2:	6a39      	ldr	r1, [r7, #32]
 8001ce4:	693b      	ldr	r3, [r7, #16]
 8001ce6:	fa01 f303 	lsl.w	r3, r1, r3
 8001cea:	431a      	orrs	r2, r3
 8001cec:	697b      	ldr	r3, [r7, #20]
 8001cee:	601a      	str	r2, [r3, #0]

      /*--------------------- EXTI Mode Configuration ------------------------*/
      /* Configure the External Interrupt or event for the current IO */
      if ((GPIO_Init->Mode & EXTI_MODE) == EXTI_MODE)
 8001cf0:	683b      	ldr	r3, [r7, #0]
 8001cf2:	685b      	ldr	r3, [r3, #4]
 8001cf4:	f003 5380 	and.w	r3, r3, #268435456	; 0x10000000
 8001cf8:	2b00      	cmp	r3, #0
 8001cfa:	f000 8090 	beq.w	8001e1e <HAL_GPIO_Init+0x252>
      {
        /* Enable AFIO Clock */
        __HAL_RCC_AFIO_CLK_ENABLE();
 8001cfe:	4b56      	ldr	r3, [pc, #344]	; (8001e58 <HAL_GPIO_Init+0x28c>)
 8001d00:	699b      	ldr	r3, [r3, #24]
 8001d02:	4a55      	ldr	r2, [pc, #340]	; (8001e58 <HAL_GPIO_Init+0x28c>)
 8001d04:	f043 0301 	orr.w	r3, r3, #1
 8001d08:	6193      	str	r3, [r2, #24]
 8001d0a:	4b53      	ldr	r3, [pc, #332]	; (8001e58 <HAL_GPIO_Init+0x28c>)
 8001d0c:	699b      	ldr	r3, [r3, #24]
 8001d0e:	f003 0301 	and.w	r3, r3, #1
 8001d12:	60bb      	str	r3, [r7, #8]
 8001d14:	68bb      	ldr	r3, [r7, #8]
        temp = AFIO->EXTICR[position >> 2u];
 8001d16:	4a51      	ldr	r2, [pc, #324]	; (8001e5c <HAL_GPIO_Init+0x290>)
 8001d18:	6a7b      	ldr	r3, [r7, #36]	; 0x24
 8001d1a:	089b      	lsrs	r3, r3, #2
 8001d1c:	3302      	adds	r3, #2
 8001d1e:	f852 3023 	ldr.w	r3, [r2, r3, lsl #2]
 8001d22:	60fb      	str	r3, [r7, #12]
        CLEAR_BIT(temp, (0x0Fu) << (4u * (position & 0x03u)));
 8001d24:	6a7b      	ldr	r3, [r7, #36]	; 0x24
 8001d26:	f003 0303 	and.w	r3, r3, #3
 8001d2a:	009b      	lsls	r3, r3, #2
 8001d2c:	220f      	movs	r2, #15
 8001d2e:	fa02 f303 	lsl.w	r3, r2, r3
 8001d32:	43db      	mvns	r3, r3
 8001d34:	68fa      	ldr	r2, [r7, #12]
 8001d36:	4013      	ands	r3, r2
 8001d38:	60fb      	str	r3, [r7, #12]
        SET_BIT(temp, (GPIO_GET_INDEX(GPIOx)) << (4u * (position & 0x03u)));
 8001d3a:	687b      	ldr	r3, [r7, #4]
 8001d3c:	4a48      	ldr	r2, [pc, #288]	; (8001e60 <HAL_GPIO_Init+0x294>)
 8001d3e:	4293      	cmp	r3, r2
 8001d40:	d00d      	beq.n	8001d5e <HAL_GPIO_Init+0x192>
 8001d42:	687b      	ldr	r3, [r7, #4]
 8001d44:	4a47      	ldr	r2, [pc, #284]	; (8001e64 <HAL_GPIO_Init+0x298>)
 8001d46:	4293      	cmp	r3, r2
 8001d48:	d007      	beq.n	8001d5a <HAL_GPIO_Init+0x18e>
 8001d4a:	687b      	ldr	r3, [r7, #4]
 8001d4c:	4a46      	ldr	r2, [pc, #280]	; (8001e68 <HAL_GPIO_Init+0x29c>)
 8001d4e:	4293      	cmp	r3, r2
 8001d50:	d101      	bne.n	8001d56 <HAL_GPIO_Init+0x18a>
 8001d52:	2302      	movs	r3, #2
 8001d54:	e004      	b.n	8001d60 <HAL_GPIO_Init+0x194>
 8001d56:	2303      	movs	r3, #3
 8001d58:	e002      	b.n	8001d60 <HAL_GPIO_Init+0x194>
 8001d5a:	2301      	movs	r3, #1
 8001d5c:	e000      	b.n	8001d60 <HAL_GPIO_Init+0x194>
 8001d5e:	2300      	movs	r3, #0
 8001d60:	6a7a      	ldr	r2, [r7, #36]	; 0x24
 8001d62:	f002 0203 	and.w	r2, r2, #3
 8001d66:	0092      	lsls	r2, r2, #2
 8001d68:	4093      	lsls	r3, r2
 8001d6a:	68fa      	ldr	r2, [r7, #12]
 8001d6c:	4313      	orrs	r3, r2
 8001d6e:	60fb      	str	r3, [r7, #12]
        AFIO->EXTICR[position >> 2u] = temp;
 8001d70:	493a      	ldr	r1, [pc, #232]	; (8001e5c <HAL_GPIO_Init+0x290>)
 8001d72:	6a7b      	ldr	r3, [r7, #36]	; 0x24
 8001d74:	089b      	lsrs	r3, r3, #2
 8001d76:	3302      	adds	r3, #2
 8001d78:	68fa      	ldr	r2, [r7, #12]
 8001d7a:	f841 2023 	str.w	r2, [r1, r3, lsl #2]


        /* Configure the interrupt mask */
        if ((GPIO_Init->Mode & GPIO_MODE_IT) == GPIO_MODE_IT)
 8001d7e:	683b      	ldr	r3, [r7, #0]
 8001d80:	685b      	ldr	r3, [r3, #4]
 8001d82:	f403 3380 	and.w	r3, r3, #65536	; 0x10000
 8001d86:	2b00      	cmp	r3, #0
 8001d88:	d006      	beq.n	8001d98 <HAL_GPIO_Init+0x1cc>
        {
          SET_BIT(EXTI->IMR, iocurrent);
 8001d8a:	4b38      	ldr	r3, [pc, #224]	; (8001e6c <HAL_GPIO_Init+0x2a0>)
 8001d8c:	681a      	ldr	r2, [r3, #0]
 8001d8e:	4937      	ldr	r1, [pc, #220]	; (8001e6c <HAL_GPIO_Init+0x2a0>)
 8001d90:	69bb      	ldr	r3, [r7, #24]
 8001d92:	4313      	orrs	r3, r2
 8001d94:	600b      	str	r3, [r1, #0]
 8001d96:	e006      	b.n	8001da6 <HAL_GPIO_Init+0x1da>
        }
        else
        {
          CLEAR_BIT(EXTI->IMR, iocurrent);
 8001d98:	4b34      	ldr	r3, [pc, #208]	; (8001e6c <HAL_GPIO_Init+0x2a0>)
 8001d9a:	681a      	ldr	r2, [r3, #0]
 8001d9c:	69bb      	ldr	r3, [r7, #24]
 8001d9e:	43db      	mvns	r3, r3
 8001da0:	4932      	ldr	r1, [pc, #200]	; (8001e6c <HAL_GPIO_Init+0x2a0>)
 8001da2:	4013      	ands	r3, r2
 8001da4:	600b      	str	r3, [r1, #0]
        }

        /* Configure the event mask */
        if ((GPIO_Init->Mode & GPIO_MODE_EVT) == GPIO_MODE_EVT)
 8001da6:	683b      	ldr	r3, [r7, #0]
 8001da8:	685b      	ldr	r3, [r3, #4]
 8001daa:	f403 3300 	and.w	r3, r3, #131072	; 0x20000
 8001dae:	2b00      	cmp	r3, #0
 8001db0:	d006      	beq.n	8001dc0 <HAL_GPIO_Init+0x1f4>
        {
          SET_BIT(EXTI->EMR, iocurrent);
 8001db2:	4b2e      	ldr	r3, [pc, #184]	; (8001e6c <HAL_GPIO_Init+0x2a0>)
 8001db4:	685a      	ldr	r2, [r3, #4]
 8001db6:	492d      	ldr	r1, [pc, #180]	; (8001e6c <HAL_GPIO_Init+0x2a0>)
 8001db8:	69bb      	ldr	r3, [r7, #24]
 8001dba:	4313      	orrs	r3, r2
 8001dbc:	604b      	str	r3, [r1, #4]
 8001dbe:	e006      	b.n	8001dce <HAL_GPIO_Init+0x202>
        }
        else
        {
          CLEAR_BIT(EXTI->EMR, iocurrent);
 8001dc0:	4b2a      	ldr	r3, [pc, #168]	; (8001e6c <HAL_GPIO_Init+0x2a0>)
 8001dc2:	685a      	ldr	r2, [r3, #4]
 8001dc4:	69bb      	ldr	r3, [r7, #24]
 8001dc6:	43db      	mvns	r3, r3
 8001dc8:	4928      	ldr	r1, [pc, #160]	; (8001e6c <HAL_GPIO_Init+0x2a0>)
 8001dca:	4013      	ands	r3, r2
 8001dcc:	604b      	str	r3, [r1, #4]
        }

        /* Enable or disable the rising trigger */
        if ((GPIO_Init->Mode & RISING_EDGE) == RISING_EDGE)
 8001dce:	683b      	ldr	r3, [r7, #0]
 8001dd0:	685b      	ldr	r3, [r3, #4]
 8001dd2:	f403 1380 	and.w	r3, r3, #1048576	; 0x100000
 8001dd6:	2b00      	cmp	r3, #0
 8001dd8:	d006      	beq.n	8001de8 <HAL_GPIO_Init+0x21c>
        {
          SET_BIT(EXTI->RTSR, iocurrent);
 8001dda:	4b24      	ldr	r3, [pc, #144]	; (8001e6c <HAL_GPIO_Init+0x2a0>)
 8001ddc:	689a      	ldr	r2, [r3, #8]
 8001dde:	4923      	ldr	r1, [pc, #140]	; (8001e6c <HAL_GPIO_Init+0x2a0>)
 8001de0:	69bb      	ldr	r3, [r7, #24]
 8001de2:	4313      	orrs	r3, r2
 8001de4:	608b      	str	r3, [r1, #8]
 8001de6:	e006      	b.n	8001df6 <HAL_GPIO_Init+0x22a>
        }
        else
        {
          CLEAR_BIT(EXTI->RTSR, iocurrent);
 8001de8:	4b20      	ldr	r3, [pc, #128]	; (8001e6c <HAL_GPIO_Init+0x2a0>)
 8001dea:	689a      	ldr	r2, [r3, #8]
 8001dec:	69bb      	ldr	r3, [r7, #24]
 8001dee:	43db      	mvns	r3, r3
 8001df0:	491e      	ldr	r1, [pc, #120]	; (8001e6c <HAL_GPIO_Init+0x2a0>)
 8001df2:	4013      	ands	r3, r2
 8001df4:	608b      	str	r3, [r1, #8]
        }

        /* Enable or disable the falling trigger */
        if ((GPIO_Init->Mode & FALLING_EDGE) == FALLING_EDGE)
 8001df6:	683b      	ldr	r3, [r7, #0]
 8001df8:	685b      	ldr	r3, [r3, #4]
 8001dfa:	f403 1300 	and.w	r3, r3, #2097152	; 0x200000
 8001dfe:	2b00      	cmp	r3, #0
 8001e00:	d006      	beq.n	8001e10 <HAL_GPIO_Init+0x244>
        {
          SET_BIT(EXTI->FTSR, iocurrent);
 8001e02:	4b1a      	ldr	r3, [pc, #104]	; (8001e6c <HAL_GPIO_Init+0x2a0>)
 8001e04:	68da      	ldr	r2, [r3, #12]
 8001e06:	4919      	ldr	r1, [pc, #100]	; (8001e6c <HAL_GPIO_Init+0x2a0>)
 8001e08:	69bb      	ldr	r3, [r7, #24]
 8001e0a:	4313      	orrs	r3, r2
 8001e0c:	60cb      	str	r3, [r1, #12]
 8001e0e:	e006      	b.n	8001e1e <HAL_GPIO_Init+0x252>
        }
        else
        {
          CLEAR_BIT(EXTI->FTSR, iocurrent);
 8001e10:	4b16      	ldr	r3, [pc, #88]	; (8001e6c <HAL_GPIO_Init+0x2a0>)
 8001e12:	68da      	ldr	r2, [r3, #12]
 8001e14:	69bb      	ldr	r3, [r7, #24]
 8001e16:	43db      	mvns	r3, r3
 8001e18:	4914      	ldr	r1, [pc, #80]	; (8001e6c <HAL_GPIO_Init+0x2a0>)
 8001e1a:	4013      	ands	r3, r2
 8001e1c:	60cb      	str	r3, [r1, #12]
        }
      }
    }

	position++;
 8001e1e:	6a7b      	ldr	r3, [r7, #36]	; 0x24
 8001e20:	3301      	adds	r3, #1
 8001e22:	627b      	str	r3, [r7, #36]	; 0x24
  while (((GPIO_Init->Pin) >> position) != 0x00u)
 8001e24:	683b      	ldr	r3, [r7, #0]
 8001e26:	681a      	ldr	r2, [r3, #0]
 8001e28:	6a7b      	ldr	r3, [r7, #36]	; 0x24
 8001e2a:	fa22 f303 	lsr.w	r3, r2, r3
 8001e2e:	2b00      	cmp	r3, #0
 8001e30:	f47f aed6 	bne.w	8001be0 <HAL_GPIO_Init+0x14>
  }
}
 8001e34:	bf00      	nop
 8001e36:	372c      	adds	r7, #44	; 0x2c
 8001e38:	46bd      	mov	sp, r7
 8001e3a:	bc80      	pop	{r7}
 8001e3c:	4770      	bx	lr
 8001e3e:	bf00      	nop
 8001e40:	10210000 	.word	0x10210000
 8001e44:	10110000 	.word	0x10110000
 8001e48:	10120000 	.word	0x10120000
 8001e4c:	10310000 	.word	0x10310000
 8001e50:	10320000 	.word	0x10320000
 8001e54:	10220000 	.word	0x10220000
 8001e58:	40021000 	.word	0x40021000
 8001e5c:	40010000 	.word	0x40010000
 8001e60:	40010800 	.word	0x40010800
 8001e64:	40010c00 	.word	0x40010c00
 8001e68:	40011000 	.word	0x40011000
 8001e6c:	40010400 	.word	0x40010400

08001e70 <HAL_GPIO_WritePin>:
  *            @arg GPIO_PIN_RESET: to clear the port pin
  *            @arg GPIO_PIN_SET: to set the port pin
  * @retval None
  */
void HAL_GPIO_WritePin(GPIO_TypeDef *GPIOx, uint16_t GPIO_Pin, GPIO_PinState PinState)
{
 8001e70:	b480      	push	{r7}
 8001e72:	b083      	sub	sp, #12
 8001e74:	af00      	add	r7, sp, #0
 8001e76:	6078      	str	r0, [r7, #4]
 8001e78:	460b      	mov	r3, r1
 8001e7a:	807b      	strh	r3, [r7, #2]
 8001e7c:	4613      	mov	r3, r2
 8001e7e:	707b      	strb	r3, [r7, #1]
  /* Check the parameters */
  assert_param(IS_GPIO_PIN(GPIO_Pin));
  assert_param(IS_GPIO_PIN_ACTION(PinState));

  if (PinState != GPIO_PIN_RESET)
 8001e80:	787b      	ldrb	r3, [r7, #1]
 8001e82:	2b00      	cmp	r3, #0
 8001e84:	d003      	beq.n	8001e8e <HAL_GPIO_WritePin+0x1e>
  {
    GPIOx->BSRR = GPIO_Pin;
 8001e86:	887a      	ldrh	r2, [r7, #2]
 8001e88:	687b      	ldr	r3, [r7, #4]
 8001e8a:	611a      	str	r2, [r3, #16]
  }
  else
  {
    GPIOx->BSRR = (uint32_t)GPIO_Pin << 16u;
  }
}
 8001e8c:	e003      	b.n	8001e96 <HAL_GPIO_WritePin+0x26>
    GPIOx->BSRR = (uint32_t)GPIO_Pin << 16u;
 8001e8e:	887b      	ldrh	r3, [r7, #2]
 8001e90:	041a      	lsls	r2, r3, #16
 8001e92:	687b      	ldr	r3, [r7, #4]
 8001e94:	611a      	str	r2, [r3, #16]
}
 8001e96:	bf00      	nop
 8001e98:	370c      	adds	r7, #12
 8001e9a:	46bd      	mov	sp, r7
 8001e9c:	bc80      	pop	{r7}
 8001e9e:	4770      	bx	lr

08001ea0 <HAL_RCC_OscConfig>:
  *         supported by this macro. User should request a transition to HSE Off
  *         first and then HSE On or HSE Bypass.
  * @retval HAL status
  */
HAL_StatusTypeDef HAL_RCC_OscConfig(RCC_OscInitTypeDef  *RCC_OscInitStruct)
{
 8001ea0:	b580      	push	{r7, lr}
 8001ea2:	b086      	sub	sp, #24
 8001ea4:	af00      	add	r7, sp, #0
 8001ea6:	6078      	str	r0, [r7, #4]
  uint32_t tickstart;
  uint32_t pll_config;

  /* Check Null pointer */
  if (RCC_OscInitStruct == NULL)
 8001ea8:	687b      	ldr	r3, [r7, #4]
 8001eaa:	2b00      	cmp	r3, #0
 8001eac:	d101      	bne.n	8001eb2 <HAL_RCC_OscConfig+0x12>
  {
    return HAL_ERROR;
 8001eae:	2301      	movs	r3, #1
 8001eb0:	e26c      	b.n	800238c <HAL_RCC_OscConfig+0x4ec>

  /* Check the parameters */
  assert_param(IS_RCC_OSCILLATORTYPE(RCC_OscInitStruct->OscillatorType));

  /*------------------------------- HSE Configuration ------------------------*/
  if (((RCC_OscInitStruct->OscillatorType) & RCC_OSCILLATORTYPE_HSE) == RCC_OSCILLATORTYPE_HSE)
 8001eb2:	687b      	ldr	r3, [r7, #4]
 8001eb4:	681b      	ldr	r3, [r3, #0]
 8001eb6:	f003 0301 	and.w	r3, r3, #1
 8001eba:	2b00      	cmp	r3, #0
 8001ebc:	f000 8087 	beq.w	8001fce <HAL_RCC_OscConfig+0x12e>
  {
    /* Check the parameters */
    assert_param(IS_RCC_HSE(RCC_OscInitStruct->HSEState));

    /* When the HSE is used as system clock or clock source for PLL in these cases it is not allowed to be disabled */
    if ((__HAL_RCC_GET_SYSCLK_SOURCE() == RCC_SYSCLKSOURCE_STATUS_HSE)
 8001ec0:	4b92      	ldr	r3, [pc, #584]	; (800210c <HAL_RCC_OscConfig+0x26c>)
 8001ec2:	685b      	ldr	r3, [r3, #4]
 8001ec4:	f003 030c 	and.w	r3, r3, #12
 8001ec8:	2b04      	cmp	r3, #4
 8001eca:	d00c      	beq.n	8001ee6 <HAL_RCC_OscConfig+0x46>
        || ((__HAL_RCC_GET_SYSCLK_SOURCE() == RCC_SYSCLKSOURCE_STATUS_PLLCLK) && (__HAL_RCC_GET_PLL_OSCSOURCE() == RCC_PLLSOURCE_HSE)))
 8001ecc:	4b8f      	ldr	r3, [pc, #572]	; (800210c <HAL_RCC_OscConfig+0x26c>)
 8001ece:	685b      	ldr	r3, [r3, #4]
 8001ed0:	f003 030c 	and.w	r3, r3, #12
 8001ed4:	2b08      	cmp	r3, #8
 8001ed6:	d112      	bne.n	8001efe <HAL_RCC_OscConfig+0x5e>
 8001ed8:	4b8c      	ldr	r3, [pc, #560]	; (800210c <HAL_RCC_OscConfig+0x26c>)
 8001eda:	685b      	ldr	r3, [r3, #4]
 8001edc:	f403 3380 	and.w	r3, r3, #65536	; 0x10000
 8001ee0:	f5b3 3f80 	cmp.w	r3, #65536	; 0x10000
 8001ee4:	d10b      	bne.n	8001efe <HAL_RCC_OscConfig+0x5e>
    {
      if ((__HAL_RCC_GET_FLAG(RCC_FLAG_HSERDY) != RESET) && (RCC_OscInitStruct->HSEState == RCC_HSE_OFF))
 8001ee6:	4b89      	ldr	r3, [pc, #548]	; (800210c <HAL_RCC_OscConfig+0x26c>)
 8001ee8:	681b      	ldr	r3, [r3, #0]
 8001eea:	f403 3300 	and.w	r3, r3, #131072	; 0x20000
 8001eee:	2b00      	cmp	r3, #0
 8001ef0:	d06c      	beq.n	8001fcc <HAL_RCC_OscConfig+0x12c>
 8001ef2:	687b      	ldr	r3, [r7, #4]
 8001ef4:	685b      	ldr	r3, [r3, #4]
 8001ef6:	2b00      	cmp	r3, #0
 8001ef8:	d168      	bne.n	8001fcc <HAL_RCC_OscConfig+0x12c>
      {
        return HAL_ERROR;
 8001efa:	2301      	movs	r3, #1
 8001efc:	e246      	b.n	800238c <HAL_RCC_OscConfig+0x4ec>
      }
    }
    else
    {
      /* Set the new HSE configuration ---------------------------------------*/
      __HAL_RCC_HSE_CONFIG(RCC_OscInitStruct->HSEState);
 8001efe:	687b      	ldr	r3, [r7, #4]
 8001f00:	685b      	ldr	r3, [r3, #4]
 8001f02:	f5b3 3f80 	cmp.w	r3, #65536	; 0x10000
 8001f06:	d106      	bne.n	8001f16 <HAL_RCC_OscConfig+0x76>
 8001f08:	4b80      	ldr	r3, [pc, #512]	; (800210c <HAL_RCC_OscConfig+0x26c>)
 8001f0a:	681b      	ldr	r3, [r3, #0]
 8001f0c:	4a7f      	ldr	r2, [pc, #508]	; (800210c <HAL_RCC_OscConfig+0x26c>)
 8001f0e:	f443 3380 	orr.w	r3, r3, #65536	; 0x10000
 8001f12:	6013      	str	r3, [r2, #0]
 8001f14:	e02e      	b.n	8001f74 <HAL_RCC_OscConfig+0xd4>
 8001f16:	687b      	ldr	r3, [r7, #4]
 8001f18:	685b      	ldr	r3, [r3, #4]
 8001f1a:	2b00      	cmp	r3, #0
 8001f1c:	d10c      	bne.n	8001f38 <HAL_RCC_OscConfig+0x98>
 8001f1e:	4b7b      	ldr	r3, [pc, #492]	; (800210c <HAL_RCC_OscConfig+0x26c>)
 8001f20:	681b      	ldr	r3, [r3, #0]
 8001f22:	4a7a      	ldr	r2, [pc, #488]	; (800210c <HAL_RCC_OscConfig+0x26c>)
 8001f24:	f423 3380 	bic.w	r3, r3, #65536	; 0x10000
 8001f28:	6013      	str	r3, [r2, #0]
 8001f2a:	4b78      	ldr	r3, [pc, #480]	; (800210c <HAL_RCC_OscConfig+0x26c>)
 8001f2c:	681b      	ldr	r3, [r3, #0]
 8001f2e:	4a77      	ldr	r2, [pc, #476]	; (800210c <HAL_RCC_OscConfig+0x26c>)
 8001f30:	f423 2380 	bic.w	r3, r3, #262144	; 0x40000
 8001f34:	6013      	str	r3, [r2, #0]
 8001f36:	e01d      	b.n	8001f74 <HAL_RCC_OscConfig+0xd4>
 8001f38:	687b      	ldr	r3, [r7, #4]
 8001f3a:	685b      	ldr	r3, [r3, #4]
 8001f3c:	f5b3 2fa0 	cmp.w	r3, #327680	; 0x50000
 8001f40:	d10c      	bne.n	8001f5c <HAL_RCC_OscConfig+0xbc>
 8001f42:	4b72      	ldr	r3, [pc, #456]	; (800210c <HAL_RCC_OscConfig+0x26c>)
 8001f44:	681b      	ldr	r3, [r3, #0]
 8001f46:	4a71      	ldr	r2, [pc, #452]	; (800210c <HAL_RCC_OscConfig+0x26c>)
 8001f48:	f443 2380 	orr.w	r3, r3, #262144	; 0x40000
 8001f4c:	6013      	str	r3, [r2, #0]
 8001f4e:	4b6f      	ldr	r3, [pc, #444]	; (800210c <HAL_RCC_OscConfig+0x26c>)
 8001f50:	681b      	ldr	r3, [r3, #0]
 8001f52:	4a6e      	ldr	r2, [pc, #440]	; (800210c <HAL_RCC_OscConfig+0x26c>)
 8001f54:	f443 3380 	orr.w	r3, r3, #65536	; 0x10000
 8001f58:	6013      	str	r3, [r2, #0]
 8001f5a:	e00b      	b.n	8001f74 <HAL_RCC_OscConfig+0xd4>
 8001f5c:	4b6b      	ldr	r3, [pc, #428]	; (800210c <HAL_RCC_OscConfig+0x26c>)
 8001f5e:	681b      	ldr	r3, [r3, #0]
 8001f60:	4a6a      	ldr	r2, [pc, #424]	; (800210c <HAL_RCC_OscConfig+0x26c>)
 8001f62:	f423 3380 	bic.w	r3, r3, #65536	; 0x10000
 8001f66:	6013      	str	r3, [r2, #0]
 8001f68:	4b68      	ldr	r3, [pc, #416]	; (800210c <HAL_RCC_OscConfig+0x26c>)
 8001f6a:	681b      	ldr	r3, [r3, #0]
 8001f6c:	4a67      	ldr	r2, [pc, #412]	; (800210c <HAL_RCC_OscConfig+0x26c>)
 8001f6e:	f423 2380 	bic.w	r3, r3, #262144	; 0x40000
 8001f72:	6013      	str	r3, [r2, #0]


      /* Check the HSE State */
      if (RCC_OscInitStruct->HSEState != RCC_HSE_OFF)
 8001f74:	687b      	ldr	r3, [r7, #4]
 8001f76:	685b      	ldr	r3, [r3, #4]
 8001f78:	2b00      	cmp	r3, #0
 8001f7a:	d013      	beq.n	8001fa4 <HAL_RCC_OscConfig+0x104>
      {
        /* Get Start Tick */
        tickstart = HAL_GetTick();
 8001f7c:	f7ff f8be 	bl	80010fc <HAL_GetTick>
 8001f80:	6138      	str	r0, [r7, #16]

        /* Wait till HSE is ready */
        while (__HAL_RCC_GET_FLAG(RCC_FLAG_HSERDY) == RESET)
 8001f82:	e008      	b.n	8001f96 <HAL_RCC_OscConfig+0xf6>
        {
          if ((HAL_GetTick() - tickstart) > HSE_TIMEOUT_VALUE)
 8001f84:	f7ff f8ba 	bl	80010fc <HAL_GetTick>
 8001f88:	4602      	mov	r2, r0
 8001f8a:	693b      	ldr	r3, [r7, #16]
 8001f8c:	1ad3      	subs	r3, r2, r3
 8001f8e:	2b64      	cmp	r3, #100	; 0x64
 8001f90:	d901      	bls.n	8001f96 <HAL_RCC_OscConfig+0xf6>
          {
            return HAL_TIMEOUT;
 8001f92:	2303      	movs	r3, #3
 8001f94:	e1fa      	b.n	800238c <HAL_RCC_OscConfig+0x4ec>
        while (__HAL_RCC_GET_FLAG(RCC_FLAG_HSERDY) == RESET)
 8001f96:	4b5d      	ldr	r3, [pc, #372]	; (800210c <HAL_RCC_OscConfig+0x26c>)
 8001f98:	681b      	ldr	r3, [r3, #0]
 8001f9a:	f403 3300 	and.w	r3, r3, #131072	; 0x20000
 8001f9e:	2b00      	cmp	r3, #0
 8001fa0:	d0f0      	beq.n	8001f84 <HAL_RCC_OscConfig+0xe4>
 8001fa2:	e014      	b.n	8001fce <HAL_RCC_OscConfig+0x12e>
        }
      }
      else
      {
        /* Get Start Tick */
        tickstart = HAL_GetTick();
 8001fa4:	f7ff f8aa 	bl	80010fc <HAL_GetTick>
 8001fa8:	6138      	str	r0, [r7, #16]

        /* Wait till HSE is disabled */
        while (__HAL_RCC_GET_FLAG(RCC_FLAG_HSERDY) != RESET)
 8001faa:	e008      	b.n	8001fbe <HAL_RCC_OscConfig+0x11e>
        {
          if ((HAL_GetTick() - tickstart) > HSE_TIMEOUT_VALUE)
 8001fac:	f7ff f8a6 	bl	80010fc <HAL_GetTick>
 8001fb0:	4602      	mov	r2, r0
 8001fb2:	693b      	ldr	r3, [r7, #16]
 8001fb4:	1ad3      	subs	r3, r2, r3
 8001fb6:	2b64      	cmp	r3, #100	; 0x64
 8001fb8:	d901      	bls.n	8001fbe <HAL_RCC_OscConfig+0x11e>
          {
            return HAL_TIMEOUT;
 8001fba:	2303      	movs	r3, #3
 8001fbc:	e1e6      	b.n	800238c <HAL_RCC_OscConfig+0x4ec>
        while (__HAL_RCC_GET_FLAG(RCC_FLAG_HSERDY) != RESET)
 8001fbe:	4b53      	ldr	r3, [pc, #332]	; (800210c <HAL_RCC_OscConfig+0x26c>)
 8001fc0:	681b      	ldr	r3, [r3, #0]
 8001fc2:	f403 3300 	and.w	r3, r3, #131072	; 0x20000
 8001fc6:	2b00      	cmp	r3, #0
 8001fc8:	d1f0      	bne.n	8001fac <HAL_RCC_OscConfig+0x10c>
 8001fca:	e000      	b.n	8001fce <HAL_RCC_OscConfig+0x12e>
      if ((__HAL_RCC_GET_FLAG(RCC_FLAG_HSERDY) != RESET) && (RCC_OscInitStruct->HSEState == RCC_HSE_OFF))
 8001fcc:	bf00      	nop
        }
      }
    }
  }
  /*----------------------------- HSI Configuration --------------------------*/
  if (((RCC_OscInitStruct->OscillatorType) & RCC_OSCILLATORTYPE_HSI) == RCC_OSCILLATORTYPE_HSI)
 8001fce:	687b      	ldr	r3, [r7, #4]
 8001fd0:	681b      	ldr	r3, [r3, #0]
 8001fd2:	f003 0302 	and.w	r3, r3, #2
 8001fd6:	2b00      	cmp	r3, #0
 8001fd8:	d063      	beq.n	80020a2 <HAL_RCC_OscConfig+0x202>
    /* Check the parameters */
    assert_param(IS_RCC_HSI(RCC_OscInitStruct->HSIState));
    assert_param(IS_RCC_CALIBRATION_VALUE(RCC_OscInitStruct->HSICalibrationValue));

    /* Check if HSI is used as system clock or as PLL source when PLL is selected as system clock */
    if ((__HAL_RCC_GET_SYSCLK_SOURCE() == RCC_SYSCLKSOURCE_STATUS_HSI)
 8001fda:	4b4c      	ldr	r3, [pc, #304]	; (800210c <HAL_RCC_OscConfig+0x26c>)
 8001fdc:	685b      	ldr	r3, [r3, #4]
 8001fde:	f003 030c 	and.w	r3, r3, #12
 8001fe2:	2b00      	cmp	r3, #0
 8001fe4:	d00b      	beq.n	8001ffe <HAL_RCC_OscConfig+0x15e>
        || ((__HAL_RCC_GET_SYSCLK_SOURCE() == RCC_SYSCLKSOURCE_STATUS_PLLCLK) && (__HAL_RCC_GET_PLL_OSCSOURCE() == RCC_PLLSOURCE_HSI_DIV2)))
 8001fe6:	4b49      	ldr	r3, [pc, #292]	; (800210c <HAL_RCC_OscConfig+0x26c>)
 8001fe8:	685b      	ldr	r3, [r3, #4]
 8001fea:	f003 030c 	and.w	r3, r3, #12
 8001fee:	2b08      	cmp	r3, #8
 8001ff0:	d11c      	bne.n	800202c <HAL_RCC_OscConfig+0x18c>
 8001ff2:	4b46      	ldr	r3, [pc, #280]	; (800210c <HAL_RCC_OscConfig+0x26c>)
 8001ff4:	685b      	ldr	r3, [r3, #4]
 8001ff6:	f403 3380 	and.w	r3, r3, #65536	; 0x10000
 8001ffa:	2b00      	cmp	r3, #0
 8001ffc:	d116      	bne.n	800202c <HAL_RCC_OscConfig+0x18c>
    {
      /* When HSI is used as system clock it will not disabled */
      if ((__HAL_RCC_GET_FLAG(RCC_FLAG_HSIRDY) != RESET) && (RCC_OscInitStruct->HSIState != RCC_HSI_ON))
 8001ffe:	4b43      	ldr	r3, [pc, #268]	; (800210c <HAL_RCC_OscConfig+0x26c>)
 8002000:	681b      	ldr	r3, [r3, #0]
 8002002:	f003 0302 	and.w	r3, r3, #2
 8002006:	2b00      	cmp	r3, #0
 8002008:	d005      	beq.n	8002016 <HAL_RCC_OscConfig+0x176>
 800200a:	687b      	ldr	r3, [r7, #4]
 800200c:	691b      	ldr	r3, [r3, #16]
 800200e:	2b01      	cmp	r3, #1
 8002010:	d001      	beq.n	8002016 <HAL_RCC_OscConfig+0x176>
      {
        return HAL_ERROR;
 8002012:	2301      	movs	r3, #1
 8002014:	e1ba      	b.n	800238c <HAL_RCC_OscConfig+0x4ec>
      }
      /* Otherwise, just the calibration is allowed */
      else
      {
        /* Adjusts the Internal High Speed oscillator (HSI) calibration value.*/
        __HAL_RCC_HSI_CALIBRATIONVALUE_ADJUST(RCC_OscInitStruct->HSICalibrationValue);
 8002016:	4b3d      	ldr	r3, [pc, #244]	; (800210c <HAL_RCC_OscConfig+0x26c>)
 8002018:	681b      	ldr	r3, [r3, #0]
 800201a:	f023 02f8 	bic.w	r2, r3, #248	; 0xf8
 800201e:	687b      	ldr	r3, [r7, #4]
 8002020:	695b      	ldr	r3, [r3, #20]
 8002022:	00db      	lsls	r3, r3, #3
 8002024:	4939      	ldr	r1, [pc, #228]	; (800210c <HAL_RCC_OscConfig+0x26c>)
 8002026:	4313      	orrs	r3, r2
 8002028:	600b      	str	r3, [r1, #0]
      if ((__HAL_RCC_GET_FLAG(RCC_FLAG_HSIRDY) != RESET) && (RCC_OscInitStruct->HSIState != RCC_HSI_ON))
 800202a:	e03a      	b.n	80020a2 <HAL_RCC_OscConfig+0x202>
      }
    }
    else
    {
      /* Check the HSI State */
      if (RCC_OscInitStruct->HSIState != RCC_HSI_OFF)
 800202c:	687b      	ldr	r3, [r7, #4]
 800202e:	691b      	ldr	r3, [r3, #16]
 8002030:	2b00      	cmp	r3, #0
 8002032:	d020      	beq.n	8002076 <HAL_RCC_OscConfig+0x1d6>
      {
        /* Enable the Internal High Speed oscillator (HSI). */
        __HAL_RCC_HSI_ENABLE();
 8002034:	4b36      	ldr	r3, [pc, #216]	; (8002110 <HAL_RCC_OscConfig+0x270>)
 8002036:	2201      	movs	r2, #1
 8002038:	601a      	str	r2, [r3, #0]

        /* Get Start Tick */
        tickstart = HAL_GetTick();
 800203a:	f7ff f85f 	bl	80010fc <HAL_GetTick>
 800203e:	6138      	str	r0, [r7, #16]

        /* Wait till HSI is ready */
        while (__HAL_RCC_GET_FLAG(RCC_FLAG_HSIRDY) == RESET)
 8002040:	e008      	b.n	8002054 <HAL_RCC_OscConfig+0x1b4>
        {
          if ((HAL_GetTick() - tickstart) > HSI_TIMEOUT_VALUE)
 8002042:	f7ff f85b 	bl	80010fc <HAL_GetTick>
 8002046:	4602      	mov	r2, r0
 8002048:	693b      	ldr	r3, [r7, #16]
 800204a:	1ad3      	subs	r3, r2, r3
 800204c:	2b02      	cmp	r3, #2
 800204e:	d901      	bls.n	8002054 <HAL_RCC_OscConfig+0x1b4>
          {
            return HAL_TIMEOUT;
 8002050:	2303      	movs	r3, #3
 8002052:	e19b      	b.n	800238c <HAL_RCC_OscConfig+0x4ec>
        while (__HAL_RCC_GET_FLAG(RCC_FLAG_HSIRDY) == RESET)
 8002054:	4b2d      	ldr	r3, [pc, #180]	; (800210c <HAL_RCC_OscConfig+0x26c>)
 8002056:	681b      	ldr	r3, [r3, #0]
 8002058:	f003 0302 	and.w	r3, r3, #2
 800205c:	2b00      	cmp	r3, #0
 800205e:	d0f0      	beq.n	8002042 <HAL_RCC_OscConfig+0x1a2>
          }
        }

        /* Adjusts the Internal High Speed oscillator (HSI) calibration value.*/
        __HAL_RCC_HSI_CALIBRATIONVALUE_ADJUST(RCC_OscInitStruct->HSICalibrationValue);
 8002060:	4b2a      	ldr	r3, [pc, #168]	; (800210c <HAL_RCC_OscConfig+0x26c>)
 8002062:	681b      	ldr	r3, [r3, #0]
 8002064:	f023 02f8 	bic.w	r2, r3, #248	; 0xf8
 8002068:	687b      	ldr	r3, [r7, #4]
 800206a:	695b      	ldr	r3, [r3, #20]
 800206c:	00db      	lsls	r3, r3, #3
 800206e:	4927      	ldr	r1, [pc, #156]	; (800210c <HAL_RCC_OscConfig+0x26c>)
 8002070:	4313      	orrs	r3, r2
 8002072:	600b      	str	r3, [r1, #0]
 8002074:	e015      	b.n	80020a2 <HAL_RCC_OscConfig+0x202>
      }
      else
      {
        /* Disable the Internal High Speed oscillator (HSI). */
        __HAL_RCC_HSI_DISABLE();
 8002076:	4b26      	ldr	r3, [pc, #152]	; (8002110 <HAL_RCC_OscConfig+0x270>)
 8002078:	2200      	movs	r2, #0
 800207a:	601a      	str	r2, [r3, #0]

        /* Get Start Tick */
        tickstart = HAL_GetTick();
 800207c:	f7ff f83e 	bl	80010fc <HAL_GetTick>
 8002080:	6138      	str	r0, [r7, #16]

        /* Wait till HSI is disabled */
        while (__HAL_RCC_GET_FLAG(RCC_FLAG_HSIRDY) != RESET)
 8002082:	e008      	b.n	8002096 <HAL_RCC_OscConfig+0x1f6>
        {
          if ((HAL_GetTick() - tickstart) > HSI_TIMEOUT_VALUE)
 8002084:	f7ff f83a 	bl	80010fc <HAL_GetTick>
 8002088:	4602      	mov	r2, r0
 800208a:	693b      	ldr	r3, [r7, #16]
 800208c:	1ad3      	subs	r3, r2, r3
 800208e:	2b02      	cmp	r3, #2
 8002090:	d901      	bls.n	8002096 <HAL_RCC_OscConfig+0x1f6>
          {
            return HAL_TIMEOUT;
 8002092:	2303      	movs	r3, #3
 8002094:	e17a      	b.n	800238c <HAL_RCC_OscConfig+0x4ec>
        while (__HAL_RCC_GET_FLAG(RCC_FLAG_HSIRDY) != RESET)
 8002096:	4b1d      	ldr	r3, [pc, #116]	; (800210c <HAL_RCC_OscConfig+0x26c>)
 8002098:	681b      	ldr	r3, [r3, #0]
 800209a:	f003 0302 	and.w	r3, r3, #2
 800209e:	2b00      	cmp	r3, #0
 80020a0:	d1f0      	bne.n	8002084 <HAL_RCC_OscConfig+0x1e4>
        }
      }
    }
  }
  /*------------------------------ LSI Configuration -------------------------*/
  if (((RCC_OscInitStruct->OscillatorType) & RCC_OSCILLATORTYPE_LSI) == RCC_OSCILLATORTYPE_LSI)
 80020a2:	687b      	ldr	r3, [r7, #4]
 80020a4:	681b      	ldr	r3, [r3, #0]
 80020a6:	f003 0308 	and.w	r3, r3, #8
 80020aa:	2b00      	cmp	r3, #0
 80020ac:	d03a      	beq.n	8002124 <HAL_RCC_OscConfig+0x284>
  {
    /* Check the parameters */
    assert_param(IS_RCC_LSI(RCC_OscInitStruct->LSIState));

    /* Check the LSI State */
    if (RCC_OscInitStruct->LSIState != RCC_LSI_OFF)
 80020ae:	687b      	ldr	r3, [r7, #4]
 80020b0:	699b      	ldr	r3, [r3, #24]
 80020b2:	2b00      	cmp	r3, #0
 80020b4:	d019      	beq.n	80020ea <HAL_RCC_OscConfig+0x24a>
    {
      /* Enable the Internal Low Speed oscillator (LSI). */
      __HAL_RCC_LSI_ENABLE();
 80020b6:	4b17      	ldr	r3, [pc, #92]	; (8002114 <HAL_RCC_OscConfig+0x274>)
 80020b8:	2201      	movs	r2, #1
 80020ba:	601a      	str	r2, [r3, #0]

      /* Get Start Tick */
      tickstart = HAL_GetTick();
 80020bc:	f7ff f81e 	bl	80010fc <HAL_GetTick>
 80020c0:	6138      	str	r0, [r7, #16]

      /* Wait till LSI is ready */
      while (__HAL_RCC_GET_FLAG(RCC_FLAG_LSIRDY) == RESET)
 80020c2:	e008      	b.n	80020d6 <HAL_RCC_OscConfig+0x236>
      {
        if ((HAL_GetTick() - tickstart) > LSI_TIMEOUT_VALUE)
 80020c4:	f7ff f81a 	bl	80010fc <HAL_GetTick>
 80020c8:	4602      	mov	r2, r0
 80020ca:	693b      	ldr	r3, [r7, #16]
 80020cc:	1ad3      	subs	r3, r2, r3
 80020ce:	2b02      	cmp	r3, #2
 80020d0:	d901      	bls.n	80020d6 <HAL_RCC_OscConfig+0x236>
        {
          return HAL_TIMEOUT;
 80020d2:	2303      	movs	r3, #3
 80020d4:	e15a      	b.n	800238c <HAL_RCC_OscConfig+0x4ec>
      while (__HAL_RCC_GET_FLAG(RCC_FLAG_LSIRDY) == RESET)
 80020d6:	4b0d      	ldr	r3, [pc, #52]	; (800210c <HAL_RCC_OscConfig+0x26c>)
 80020d8:	6a5b      	ldr	r3, [r3, #36]	; 0x24
 80020da:	f003 0302 	and.w	r3, r3, #2
 80020de:	2b00      	cmp	r3, #0
 80020e0:	d0f0      	beq.n	80020c4 <HAL_RCC_OscConfig+0x224>
        }
      }
      /*  To have a fully stabilized clock in the specified range, a software delay of 1ms
          should be added.*/
      RCC_Delay(1);
 80020e2:	2001      	movs	r0, #1
 80020e4:	f000 fac6 	bl	8002674 <RCC_Delay>
 80020e8:	e01c      	b.n	8002124 <HAL_RCC_OscConfig+0x284>
    }
    else
    {
      /* Disable the Internal Low Speed oscillator (LSI). */
      __HAL_RCC_LSI_DISABLE();
 80020ea:	4b0a      	ldr	r3, [pc, #40]	; (8002114 <HAL_RCC_OscConfig+0x274>)
 80020ec:	2200      	movs	r2, #0
 80020ee:	601a      	str	r2, [r3, #0]

      /* Get Start Tick */
      tickstart = HAL_GetTick();
 80020f0:	f7ff f804 	bl	80010fc <HAL_GetTick>
 80020f4:	6138      	str	r0, [r7, #16]

      /* Wait till LSI is disabled */
      while (__HAL_RCC_GET_FLAG(RCC_FLAG_LSIRDY) != RESET)
 80020f6:	e00f      	b.n	8002118 <HAL_RCC_OscConfig+0x278>
      {
        if ((HAL_GetTick() - tickstart) > LSI_TIMEOUT_VALUE)
 80020f8:	f7ff f800 	bl	80010fc <HAL_GetTick>
 80020fc:	4602      	mov	r2, r0
 80020fe:	693b      	ldr	r3, [r7, #16]
 8002100:	1ad3      	subs	r3, r2, r3
 8002102:	2b02      	cmp	r3, #2
 8002104:	d908      	bls.n	8002118 <HAL_RCC_OscConfig+0x278>
        {
          return HAL_TIMEOUT;
 8002106:	2303      	movs	r3, #3
 8002108:	e140      	b.n	800238c <HAL_RCC_OscConfig+0x4ec>
 800210a:	bf00      	nop
 800210c:	40021000 	.word	0x40021000
 8002110:	42420000 	.word	0x42420000
 8002114:	42420480 	.word	0x42420480
      while (__HAL_RCC_GET_FLAG(RCC_FLAG_LSIRDY) != RESET)
 8002118:	4b9e      	ldr	r3, [pc, #632]	; (8002394 <HAL_RCC_OscConfig+0x4f4>)
 800211a:	6a5b      	ldr	r3, [r3, #36]	; 0x24
 800211c:	f003 0302 	and.w	r3, r3, #2
 8002120:	2b00      	cmp	r3, #0
 8002122:	d1e9      	bne.n	80020f8 <HAL_RCC_OscConfig+0x258>
        }
      }
    }
  }
  /*------------------------------ LSE Configuration -------------------------*/
  if (((RCC_OscInitStruct->OscillatorType) & RCC_OSCILLATORTYPE_LSE) == RCC_OSCILLATORTYPE_LSE)
 8002124:	687b      	ldr	r3, [r7, #4]
 8002126:	681b      	ldr	r3, [r3, #0]
 8002128:	f003 0304 	and.w	r3, r3, #4
 800212c:	2b00      	cmp	r3, #0
 800212e:	f000 80a6 	beq.w	800227e <HAL_RCC_OscConfig+0x3de>
  {
    FlagStatus       pwrclkchanged = RESET;
 8002132:	2300      	movs	r3, #0
 8002134:	75fb      	strb	r3, [r7, #23]
    /* Check the parameters */
    assert_param(IS_RCC_LSE(RCC_OscInitStruct->LSEState));

    /* Update LSE configuration in Backup Domain control register    */
    /* Requires to enable write access to Backup Domain of necessary */
    if (__HAL_RCC_PWR_IS_CLK_DISABLED())
 8002136:	4b97      	ldr	r3, [pc, #604]	; (8002394 <HAL_RCC_OscConfig+0x4f4>)
 8002138:	69db      	ldr	r3, [r3, #28]
 800213a:	f003 5380 	and.w	r3, r3, #268435456	; 0x10000000
 800213e:	2b00      	cmp	r3, #0
 8002140:	d10d      	bne.n	800215e <HAL_RCC_OscConfig+0x2be>
    {
      __HAL_RCC_PWR_CLK_ENABLE();
 8002142:	4b94      	ldr	r3, [pc, #592]	; (8002394 <HAL_RCC_OscConfig+0x4f4>)
 8002144:	69db      	ldr	r3, [r3, #28]
 8002146:	4a93      	ldr	r2, [pc, #588]	; (8002394 <HAL_RCC_OscConfig+0x4f4>)
 8002148:	f043 5380 	orr.w	r3, r3, #268435456	; 0x10000000
 800214c:	61d3      	str	r3, [r2, #28]
 800214e:	4b91      	ldr	r3, [pc, #580]	; (8002394 <HAL_RCC_OscConfig+0x4f4>)
 8002150:	69db      	ldr	r3, [r3, #28]
 8002152:	f003 5380 	and.w	r3, r3, #268435456	; 0x10000000
 8002156:	60bb      	str	r3, [r7, #8]
 8002158:	68bb      	ldr	r3, [r7, #8]
      pwrclkchanged = SET;
 800215a:	2301      	movs	r3, #1
 800215c:	75fb      	strb	r3, [r7, #23]
    }

    if (HAL_IS_BIT_CLR(PWR->CR, PWR_CR_DBP))
 800215e:	4b8e      	ldr	r3, [pc, #568]	; (8002398 <HAL_RCC_OscConfig+0x4f8>)
 8002160:	681b      	ldr	r3, [r3, #0]
 8002162:	f403 7380 	and.w	r3, r3, #256	; 0x100
 8002166:	2b00      	cmp	r3, #0
 8002168:	d118      	bne.n	800219c <HAL_RCC_OscConfig+0x2fc>
    {
      /* Enable write access to Backup domain */
      SET_BIT(PWR->CR, PWR_CR_DBP);
 800216a:	4b8b      	ldr	r3, [pc, #556]	; (8002398 <HAL_RCC_OscConfig+0x4f8>)
 800216c:	681b      	ldr	r3, [r3, #0]
 800216e:	4a8a      	ldr	r2, [pc, #552]	; (8002398 <HAL_RCC_OscConfig+0x4f8>)
 8002170:	f443 7380 	orr.w	r3, r3, #256	; 0x100
 8002174:	6013      	str	r3, [r2, #0]

      /* Wait for Backup domain Write protection disable */
      tickstart = HAL_GetTick();
 8002176:	f7fe ffc1 	bl	80010fc <HAL_GetTick>
 800217a:	6138      	str	r0, [r7, #16]

      while (HAL_IS_BIT_CLR(PWR->CR, PWR_CR_DBP))
 800217c:	e008      	b.n	8002190 <HAL_RCC_OscConfig+0x2f0>
      {
        if ((HAL_GetTick() - tickstart) > RCC_DBP_TIMEOUT_VALUE)
 800217e:	f7fe ffbd 	bl	80010fc <HAL_GetTick>
 8002182:	4602      	mov	r2, r0
 8002184:	693b      	ldr	r3, [r7, #16]
 8002186:	1ad3      	subs	r3, r2, r3
 8002188:	2b64      	cmp	r3, #100	; 0x64
 800218a:	d901      	bls.n	8002190 <HAL_RCC_OscConfig+0x2f0>
        {
          return HAL_TIMEOUT;
 800218c:	2303      	movs	r3, #3
 800218e:	e0fd      	b.n	800238c <HAL_RCC_OscConfig+0x4ec>
      while (HAL_IS_BIT_CLR(PWR->CR, PWR_CR_DBP))
 8002190:	4b81      	ldr	r3, [pc, #516]	; (8002398 <HAL_RCC_OscConfig+0x4f8>)
 8002192:	681b      	ldr	r3, [r3, #0]
 8002194:	f403 7380 	and.w	r3, r3, #256	; 0x100
 8002198:	2b00      	cmp	r3, #0
 800219a:	d0f0      	beq.n	800217e <HAL_RCC_OscConfig+0x2de>
        }
      }
    }

    /* Set the new LSE configuration -----------------------------------------*/
    __HAL_RCC_LSE_CONFIG(RCC_OscInitStruct->LSEState);
 800219c:	687b      	ldr	r3, [r7, #4]
 800219e:	68db      	ldr	r3, [r3, #12]
 80021a0:	2b01      	cmp	r3, #1
 80021a2:	d106      	bne.n	80021b2 <HAL_RCC_OscConfig+0x312>
 80021a4:	4b7b      	ldr	r3, [pc, #492]	; (8002394 <HAL_RCC_OscConfig+0x4f4>)
 80021a6:	6a1b      	ldr	r3, [r3, #32]
 80021a8:	4a7a      	ldr	r2, [pc, #488]	; (8002394 <HAL_RCC_OscConfig+0x4f4>)
 80021aa:	f043 0301 	orr.w	r3, r3, #1
 80021ae:	6213      	str	r3, [r2, #32]
 80021b0:	e02d      	b.n	800220e <HAL_RCC_OscConfig+0x36e>
 80021b2:	687b      	ldr	r3, [r7, #4]
 80021b4:	68db      	ldr	r3, [r3, #12]
 80021b6:	2b00      	cmp	r3, #0
 80021b8:	d10c      	bne.n	80021d4 <HAL_RCC_OscConfig+0x334>
 80021ba:	4b76      	ldr	r3, [pc, #472]	; (8002394 <HAL_RCC_OscConfig+0x4f4>)
 80021bc:	6a1b      	ldr	r3, [r3, #32]
 80021be:	4a75      	ldr	r2, [pc, #468]	; (8002394 <HAL_RCC_OscConfig+0x4f4>)
 80021c0:	f023 0301 	bic.w	r3, r3, #1
 80021c4:	6213      	str	r3, [r2, #32]
